:020000040800F2
:100000009829002045010008473B0008D731000827
:10001000453B00082D090008F94E000800000000CB
:10002000000000000000000000000000AD4B0008D0
:10003000290A000800000000E13D00081D4C0008EE
:100040005F0100085F0100085F0100085F01000810
:100050005F0100085F0100085F010008810A0008D5
:100060005F010008D90A0008350B00085F0100088D
:100070005F0100085F0100085F0100085F010008E0
:100080005F0100085F0100085F0100085F010008D0
:100090005F0100085F0100085F010008610B0008B4
:1000A0005F0100085F0100085F0100085F010008B0
:1000B0005F0100085F0100085F0100085F010008A0
:1000C0005F0100085F0100085F0100085F01000890
:1000D0005F0100085F0100085F0100085F01000880
:1000E0005F0100085F0100085F0100085F01000870
:1000F0005F0100085F0100085F0100085F01000860
:100100005F0100085F0100085F0100085F0100084F
:100110005F0100085F0100085F0100085F0100083F
:100120005F0100085F0100085F0100085F0100082F
:10013000DFF80CD000F008FB0048004725700008ED
:10014000982900200648804706480047FEE7FEE75A
:10015000FEE7FEE7FEE7FEE7FEE7FEE7FEE7FEE777
:10016000854C000831010008202A04DB203A21FADE
:1001700002F00021704721FA02F3D040C2F12002C0
:10018000914008431946704740EA01039B0703D09A
:1001900009E008C9121F08C0042AFAD203E011F8C6
:1001A000013B00F8013B521EF9D27047D2B201E088
:1001B00000F8012B491EFBD270470022F6E710B56C
:1001C00013460A4604461946FFF7F0FF204610BDC5
:1001D00030B505462A460B4612F8010B13F8014BC1
:1001E00008B1A042F8D01CB1002802D06D1CF1E784
:1001F000284630BD421C10F8011B0029FBD1801A93
:10020000704730B504460020034600E05B1C934273
:1002100003D2E05CCD5C401BF8D030BD30B5054664
:100220000020034600E05B1C934205D2EC5CC85CF6
:10023000201A01D1002CF6D130BD2DE9FE4F8046A9
:1002400081EA0300C00F0C46009021F0004123F02A
:100250000045B8EB0200A94105D240462146904630
:100260001C460B46024623F00040104347D0270DA2
:10027000C7F30A00C3F30A510290401A01904028C4
:100280006BDAC3F3130040F4801B0098924620B150
:100290000023D2EB030A63EB0B0B01985946C0F124
:1002A0004002504600F0D1F906460D4650465946E8
:1002B000019A00F0D9F910EB08006141002487EAA7
:1002C000115284EAE7731A4340D0009A62B3019A4C
:1002D000012A4FEA075215DC001B61EB02014FF0C7
:1002E000004202EA0752CDE90042001C41F58011AC
:1002F00032462B4600F0D9F903B0BDE8F08F4046F6
:100300002146F9E7001B61EB0201001C41F5801357
:1003100000185B412018A2F5001747EB030140EAE3
:10032000D570B6196D4111E06D084FEA360645EA01
:10033000C0754FEA0752001B61EB0201001C41F53A
:10034000801149084FEA30000019514132462B46CE
:1003500003B0BDE8F04F00F099B9009801224000C9
:100360000023D0EB020263EBE073009821464FEAD2
:10037000E074B8EB000061EB0401E9E783F00043AF
:100380005BE781F0004158E72DE9FE4F81EA030465
:1003900004F0004421F0004100944FF0000B23F0E2
:1003A000004350EA01045ED052EA03045BD0C3F379
:1003B0000A54C1F30A552C44A4F2F3340194A0FB6F
:1003C0000254C1F3130141F48011C3F3130343F446
:1003D000801301FB024400FB034E840A970A44EA9F
:1003E000815447EA8357A4FB076802958D0A05FBF1
:1003F00007854FEA932C04FB0C542705029D4FEA16
:10040000065847EA1637B5EB08056EEB070C870E62
:10041000920E47EA811742EA8312A7FB0201B6EB6C
:100420000B0164EB00042B0D43EA0C335E1844EB24
:100430001C50DA465146E7FB0201C5F313044FEAAC
:100440000B3343EA14534FEA0432019C43EA060398
:10045000A4F10C040294009CCDE900B400F025F94D
:1004600003B0BDE8F08F00200146F9E72DE9F04D1B
:1004700081EA030404F0004B21F0004514464FF0DC
:10048000000A23F0004150EA050220D054EA01029C
:100490001DD0C5F30A570246C5F31303C1F3130079
:1004A000C1F30A5640F4801543F48013A7EB060805
:1004B000101BD64608F2FD3873EB050002D308F195
:1004C000010801E092185B41B8F1000F03DA002047
:1004D0000146BDE8F08D00204FF4801106468446A9
:1004E0000EE0171B73EB050705D3121B63EB050327
:1004F00006434CEA010C49084FEA300092185B4170
:1005000050EA0107EDD152EA030012D082EA04005A
:1005100083EA0501084305D0101BAB4106D2012236
:10052000002306E000224FF0004302E06FF00102DA
:1005300053101AEB06004CEB085110EB0A0041EB8C
:100540000B01BDE8F04D00F0A1B80EB5C10F80EA77
:10055000E0700844CA07002140F233438DE80E00E2
:100560000A460B4600F0A1F803B000BD0EB540F2FC
:10057000334102910021CDE900110A460B4600F0FB
:1005800094F803B000BDC1F30A5210B5C1F31301D2
:1005900040F2FF3341F480119A4201DA002010BD8D
:1005A00040F233439A42A2F2334203DC5242FFF755
:1005B000DBFD10BD904010BD30B5041E71F100048C
:1005C00004DB4FF00044404264EB0101141E73F160
:1005D000000405DB1C464FF00043524263EB04036A
:1005E0008B4208BF824230BD2DE9F05F05460020F6
:1005F00092469B4688460646814640241BE0284694
:10060000414647462246FFF7AFFD53465A46C01AB9
:10061000914110D311461846224600F016F82D1AC3
:1006200067EB01084F4622460120002100F00DF83B
:1006300017EB00094E41201EA4F10104DFDC4846FF
:1006400031462A464346BDE8F09F202A04DB203A83
:1006500000FA02F1002070479140C2F1200320FA15
:1006600003F3194390407047202A06DBCB17203A4A
:1006700041FA02F043EAE07306E041FA02F3D040A7
:10068000C2F12002914008431946704710B5141E6C
:1006900073F1000408DA401C41F1000192185B413B
:1006A0001A4301D120F0010010BD2DE9F04D924612
:1006B0009B4611B1B1FA81F202E0B0FA80F2203229
:1006C0009046FFF7C2FF04460F4640EA0A0041EA9F
:1006D0000B0153465A46084313D0114653EA010012
:1006E00019D0C8F140025046FFF73EFD05460E46C0
:1006F000504659464246FFF7A8FF084305D001205F
:1007000004E020463946BDE8F08D0020054346EA66
:10071000E0762C4337430A986305E40AA0EB08000F
:100720000022FD0A44EA47540A3002D5002001465F
:10073000E9E7010510196941DDE90845001969413A
:10074000BDE8F04DA2E70000064C074D06E0E0686A
:1007500040F0010394E8070098471034AC42F6D308
:10076000FFF7EAFC9C860008BC86000870B58C1870
:1007700010F8015B15F0070301D110F8013B2A11B5
:1007800006D110F8012B03E010F8016B01F8016BA2
:100790005B1EF9D12B0705D40023521E0DD401F89E
:1007A000013BFAE710F8013BCB1A921C03E013F867
:1007B000015B01F8015B521EF9D5A142D8D300209C
:1007C00070BD70B504462068816811F0010F1FD01C
:1007D000816821F00101816001F010F9054620686F
:1007E000806810F0010F13D001F008F9401B0228B7
:1007F00009D9A06A40F01000A062E06A40F0010050
:10080000E062012070BD2068806810F0010FEBD11C
:10081000002070BDF8B50446002600962068816867
:1008200011F0010F2FD1816841F00101816017485B
:1008300017490068B0FBF1F00090009828B10098CB
:10084000401E009000980028F9D101F0D7F8054625
:100850002068806810F0010F15D101F0CFF8401B1F
:1008600002280BD9A06A40F01000A062E06A40F0B4
:100870000100E06284F824600120F8BD20688068EF
:1008800010F0010FE9D00020F8BD00005801002051
:1008900040420F000146014802F00DB8F801002067
:1008A00010B5044802F019F8042801D0012010BD49
:1008B000002010BDF801002038B501208DF800009F
:1008C0009DF80000012801D0012038BD064802F043
:1008D00014F8040006D14FF40061034801F098FEBB
:1008E00000B10124204638BDF801002038B50024AD
:1008F000009313460A460146034802F099F800B1F6
:100900000124204638BD0000F801002038B500243D
:10091000009313460A460146034802F0AEF900B1BF
:100920000124204638BD0000F8010020FEE7000049
:1009300070B58AB02A4800F0FFFCA0F57A714FF636
:10094000FF744FF4A07541F2883664291AD21C2234
:1009500024A101A8FFF718FC00212B46F02208462D
:10096000009402F097FC0A2101AA084602F004FD57
:1009700064231B2201A9224802F0BFFB304600F08D
:10098000D3FE29E0A0F24C40B0F5166F26D200212C
:100990002B46F0220846009402F07CFC202219A18C
:1009A00001A8FFF7F1FB0A2101AA084602F0E4FCC6
:1009B0001C4C01220221204601F019F864231C225C
:1009C00001A90F4802F099FB304600F0ADFE00226D
:1009D0000221204601F00BF802F078FE0AB070BD4B
:1009E0007401002041626E6F726D616C20434F2074
:1009F0006C6576656C2064657465637465640A0073
:100A0000BC02002044616E6765726F757320434FAE
:100A1000206C6576656C2064657465637465640A32
:100A200000000000000801407047000008B50121E7
:100A300003F0B6F870B94FF6FF70002100904FF444
:100A4000A073F022084602F025FC0A2104A2084601
:100A500002F092FCBDE8084040F2DC5000F064BEB9
:100A600046696E6765722064656C65746564210013
:100A700001B5009801E0401E00900028FBD108BDA0
:100A80001FB50E4C2068800712D5012202210C48A8
:100A900000F0ADFF0BA30FCB8DE80F0064230F22F6
:100AA00069460C4802F029FB0220206000F084FE19
:100AB00004B00220BDE8104000F080BE14040140E4
:100AC0000008014046697265206465746563746559
:100AD00064210A00BC02002070B5124A10680007A9
:100AE0001AD51148037808211BB10378012B0AD0CD
:100AF0000EE00E4C102363610D4D29600126067037
:100B00002960236104E00A4B1B1D19600223037056
:100B10001160082000F050FEBDE87040082000F091
:100B20004DBE000014040140F500002000100140FB
:100B300010140140084810B50168C90607D5074AD6
:100B40000121117010210160084600F035FEBDE85A
:100B50001040102000F032BE14040140B800002004
:100B60002DE9F047DFF824828EB0D8F800004FF46A
:100B7000807AC0057DD5864D287800274FF6FF7412
:100B80004FF4A07330B1287801281DD028780228AE
:100B900048D0E4E00021F0220846009402F07AFBFD
:100BA0000A217CA2084602F0E7FB06F047FC7E4CD7
:100BB0002188012905D1411C02D080B2FFF736FF00
:100BC000278002F083FDCAE000211E46F02208467D
:100BD000009402F05FFB0A2174A2084602F0CCFBED
:100BE00003F045F800282CD1012003F022F800285A
:100BF0004FF0000133464FF0F0020846009407D052
:100C000002F048FB6DA20A21084602F0B5FBA5E000
:100C100002F040FB0A216FA2084602F0ADFB022061
:100C200028709CE000211E46F0220846009402F045
:100C300031FB0A216DA2084602F09EFB03F017F873
:100C400040B100213346F0220846009402F022FB16
:100C50006AA2D8E7022002F0ECFF00284FF0000162
:100C600033464FF0F0020846009405D002F012FB24
:100C700000E079E065A2C6E702F00CFB0A2169A258
:100C8000084602F079FB00213346F0220846009422
:100C900002F000FB0A216AA2084602F06DFB03F095
:100CA00042F800284FF0000133464FF0F0020846AA
:100CB000009403D002F0EEFA6AA247E002F0EAFAEA
:100CC0000A216DA2084602F057FB00213346F022AC
:100CD0000846009402F0DEFA0A216DA2084602F0EE
:100CE0004BFB03F03AF8009438B100213346F02270
:100CF000084602F0CFFA6DA228E0B14600214B462B
:100D0000F022084602F0C6FA0A216FA2084602F055
:100D100033FB00213346F0220846009402F0BAFA71
:100D20000A216EA2084602F027FB724E022031888B
:100D300003F02DF800284FF000014B464FF0F00271
:100D40000846009416D002F0A5FA6BA20A210846C4
:100D500002F012FB4FF4FA7000F0E6FC2F705046E0
:100D6000C8F800A000F028FD0EB05046BDE8F047DE
:100D700000F024BD02F08EFA328865A1501C30804C
:100D800001A804F029FC01AAE0E7000014040140D6
:100D90000000002044657465637465642066696EB4
:100DA0006765722100000000F6000020466972733A
:100DB00074207072657373000000000046697273DE
:100DC00074207072657373206661696C65642E00AF
:100DD000000000004669727374207072657373209E
:100DE0007375636365656465642E00005365636FA6
:100DF0006E6420707265737300000000526573703A
:100E00006F6E7365206572726F7200005365636F59
:100E10006E64207072657373206661696C65642E00
:100E2000000000005365636F6E6420707265737319
:100E3000207375636365656465642E0000000000BF
:100E40005374617274206D61746368696E67207495
:100E5000776F2066696E6765727072696E74732E43
:100E6000000000004D61746368696E672066616907
:100E70006C65642E000000004D61746368696E67E4
:100E8000207375636365656465642E00000000006F
:100E900053746172742067656E65726174696E6700
:100EA000206D6F64656C2E00000000004D6F64655E
:100EB0006C2067656E65726174696F6E206661692A
:100EC0006C65642E000000004D6F64656C206765E2
:100ED0006E6572617465642E000000005374617267
:100EE0007420736176696E67206D6F64656C2E0087
:100EF0000000000002000020536176696E67206DDB
:100F00006F64656C206661696C65642E000000008A
:100F10005375636365737366756C6C792073617662
:100F20006564206D6F64656C2C2069643A202564CB
:100F300000000000002200F001B8000010B4844658
:100F400001200F4B5C7A012C17D8587A00241C54CE
:100F5000587A03EB8000C0F804C0587A03F1080CFB
:100F600000F80C20587A421C5A72303008703A202F
:100F700048702F208870CC70002010BC7047000093
:100F80008825002010B4B3F5804F06D06FF0704173
:100F900040F8221010BC00207047D1F818C00B6830
:100FA0008C6843EA0C03D1F804C089894FEA0C1C11
:100FB0004CEA042C43EA0C0343EA014150F8223086
:100FC000DFF80CC003EA0C03194340F82210E1E7F4
:100FD0000000F0CF10B40A6850F8223023F001036B
:100FE00040F822308A68374B082A35D0D1F804C03F
:100FF0000C694CEA0202D1F80CC04CEA040C42EA3B
:101000000C02D1F814C042EA0C02D1F818C042EA2E
:101010000C02D1F81CC042EA0C02D1F820C042EA0E
:101020000C02D1F824C042EA0C02D1F828C042EAEE
:101030000C02D1F82CC042EA0C02D1F830C0096889
:1010400042EA0C0250F821C00CEA03031A4340F8AC
:10105000212010BC002070474A68D1F80CC00C69F0
:1010600042F008024CEA040C42EA0C02D1F814C027
:1010700042EA0C02D1F818C042EA0C02D1F81CC0B6
:1010800042EA0C02D1F820C042EA0C02D1F824C096
:1010900042EA0C02D1F828C042EA0C02D1F82CC076
:1010A00042EA0C02D1F830C0096842EA0C0250F85A
:1010B00021C00CEA03031A4342F0400240F8212009
:1010C000C7E700008100F7FF10B4D1F804C00B6837
:1010D0008C8943EA0C13D1F808C04FEA0C2C4CEA77
:1010E000044C43EA0C03B1F810C0ACF1010C43EA24
:1010F0000C5391F814C08969ACF1020C43EA0C63FB
:101100000B43511C50F8212002F040421A4340F892
:101110002120002010BC7047F8B504460026009638
:1011200094F82400012809D0012084F824002046E6
:10113000FFF747FB0746380002D063E00220F8BD06
:10114000A06A20F4885040F00200A062022000F063
:10115000F9FD2E490968B1FBF0F0400000900098BD
:1011600028B10098401E009000980028F9D1204630
:10117000FFF750FB2068816841F00801816000F0B2
:101180003DFC05462068806810F0080F13D000F081
:1011900035FC401B0A2809D9A06A20F0020040F063
:1011A0001000A06284F824600120F8BD20688068E7
:1011B00010F0080FEBD12068816841F004018160D4
:1011C00000F01CFC05462068806810F0040F13D066
:1011D00000F014FC401B0A2809D9A06A20F0020084
:1011E00040F01000A06284F824600120F8BD20685F
:1011F000806810F0040FEBD1A06A20F0020040F0EC
:101200000100A06284F824603846F8BD580100202F
:1012100078B44FF0000C0024009490F82420012AA8
:1012200014D0012280F824204A681F25072A10D2F2
:1012300003685E6B521E02EB8202954026EA0505AA
:101240000E6806FA02F22A435A631FE078BC0220B5
:1012500070470D2A0DD203681E6BD21F02EB82026B
:10126000954026EA05050E6806FA02F22A431A633B
:101270000CE00368DE6A0D3A02EB8202954026EA32
:1012800005050E6806FA02F22A43DA620A680725A3
:101290000A2A0DD30368DE680A3A02EB420295403F
:1012A00026EA05058E6806FA02F22A43DA600BE0A8
:1012B00003681E6902EB4202954026EA05058E6826
:1012C00006FA02F22A431A610A68102A01D0112A8A
:1012D0000BD10268A2F18043B3F592330AD0816A40
:1012E00041F0200181624FF0010C80F8244078BC6D
:1012F00060467047936813F4000FF6D1936843F487
:101300000003936009681029EFD10949094A096867
:10131000B1FBF2F101EB8101490000910099002934
:10132000E3D00099491E009100990029F9D1DCE72A
:101330005801002040420F000068C06C7047000058
:101340002DE9F04104460025002C03D0A06A0026B8
:1013500018B108E00120BDE8F081E66284F824605D
:10136000204600F08FF82046FFF72BFA0146A06ACE
:1013700010F0100F00D139B1A06A40F01000A06247
:1013800001210846BDE8F081A06A20F4885040F0B1
:101390000200A0622268A2F18040B0F59E3011D018
:1013A000E069D4F80CC040EA4C0360680343A068CD
:1013B000B0F5807F0DD001280BD000206769012F88
:1013C0000AD018E0E069B0F5402FEAD14FF40020D0
:1013D000E7E74FF48070F1E7BCF1000F21D0D4F8BB
:1013E00028C04CF0200CC4F828C0D4F82CC04CF015
:1013F000010CC4F82CC0D2F804C02CF4694C4CEA9F
:101400000000506020688268DFF870C002EA0C02B9
:101410001A438260A068B0F5807F0BD0012809D004
:101420000BE0D4F818C0ACF1010C40EA4C3040F4A9
:101430000060E0E7208A401E05052068C26A22F4A9
:1014400070022A43C262206880680D4A10409842A8
:1014500007D1E662A06A20F0020040F00100A0621D
:101460008FE7A06A20F0020040F01000A062E06A5E
:1014700040F00100E062012183E70000FDF7E1FF99
:10148000FE0E1FFF00B585B0002100910191029171
:10149000039100680E49884218D10E48816941F4D1
:1014A00000718161816901F400710491816941F0E9
:1014B000100181618069694600F0100004900120EC
:1014C000009003200190044800F084F905B000BDAD
:1014D0000024014000100240001001402DE9F843B3
:1014E00004460D464FF00008CDF8008000F086FA63
:1014F00006462068816811F4807F08D0A06A40F019
:101500002000A06284F824800120BDE8F8834168AF
:1015100011F4807F03D1C16A11F4700F1FD0022033
:1015200000F010FC44490968B1FBF0F32068016940
:10153000424A11424FEA62024FEAA2112BD1D0F87F
:101540000CC04F001CEA070F25D1D0F810C01CEAD0
:10155000020F31D1C06808422ED114202FE000685C
:1015600010F0020F48D1B5F1FF3F0ED025B100F0C9
:1015700045FA801BA84208D9A06A40F00400A06286
:1015800084F824800320BDE8F8832068006810F008
:10159000020FE8D030E0D0F810C01CEA020F02D1F0
:1015A000C2680A4206D0026925490A4206D1C068CB
:1015B000084203D1542002E0292000E0FC2003FB74
:1015C00000F70098B84217D2B5F1FF3F0ED025B111
:1015D00000F014FA801BA84208D9A06A40F0040069
:1015E000A06284F824800320BDE8F8830098401CA2
:1015F00000900098B842E7D321686FF012000860AD
:10160000A06A40F40070A062206880684FF46021F6
:1016100031EA00000DD1E06858B9A06A20F480706A
:10162000A062A06A10F4805F03D1A06A40F00100BC
:10163000A0620020BDE8F8835801002024499224CC
:101640004992240070B5044694F8240001280DD076
:10165000012084F824002046FFF7DCF802464FF012
:10166000000C2AB184F824C0104670BD022070BD61
:10167000A06A20F0010020F4007040F48070A062A5
:10168000274B2068274998421AD10D6815F4702F0E
:1016900016D0A56A45F48015A5620D6815F4806F13
:1016A00005D0A56A25F4005545F48055A562A56AC4
:1016B00015F4805F13D0E56A25F00605E56210E0B9
:1016C000A56A25F48015A562456815F4806FEED0F3
:1016D000A56A25F4005545F48055A562E7E7C4F8EE
:1016E0002CC084F824C06FF0020CC0F800C0206841
:1016F000D0F808C04FF4602434EA0C0C05D19842AD
:1017000008D1096811F4702F04D0816841F4801168
:101710008160A9E7816841F4A0018160A4E700002D
:10172000002801400424014070B5044600F066F929
:101730000546B4F1FF3F02D004480078044400F0AD
:101740005DF9401BA042FAD370BD00005C0100208F
:1017500030B585B0002000900190029003901248AF
:10176000016800291ED1012101601048416941F43E
:10177000807141614069022400F4807004904FF64A
:101780008070CDE90004032569460395084800F000
:1017900021F84CF6B370CDE900046946039505487D
:1017A00000F018F805B030BD0C0000200010024019
:1017B00000180140001401407047000010B50449B2
:1017C0000A68024202D00860FFF7F6FF10BD000071
:1017D000140401402DE9F84F00239C46DFF8F48102
:1017E0000F2708F1040909F1040A0AF1040B012288
:1017F00002FA0CF60A683240B2427CD1DFF8D8E136
:101800004C68A4EB0E0574452BD00DDC032C34D0B2
:1018100005DC34B3012C19D0022C2FD11BE0112C84
:1018200016D0122C2AD119E0B5F5881F19D006DC84
:10183000B5F5803F15D0B5F5801F1FD111E0B5F586
:10184000001F0ED0B5F5041F18D10AE0CB6815E0D3
:10185000CB681B1D12E0CB6808330FE0CB680C335C
:101860000CE08B6823B1012B04D00823466105E00E
:10187000042303E00823066100E00023B2F5807F23
:1018800001D2054601E000F1040502D24FEA8C04C2
:1018900003E0ACF108044FEA84042E6807FA04FE62
:1018A00026EA0E0603FA04F446EA04042C604C68A7
:1018B00014F0805F1FD0494CA56945F00105A56172
:1018C000A46904F0010400942CF0030404F18044A2
:1018D00004F58034A6684FEA8C754FEA157507FA4F
:1018E00005FE26EA0E0EA0F18046B6F584362AD013
:1018F000A0F1804600E065E0B6F5863625D0A0F17F
:101900008046B6F5883622D0A0F18046B6F58A36F4
:101910001FD0A0F18046B6F58C361CD0A0F18046D1
:10192000B6F58E3619D0062606FA05F545EA0E05F7
:10193000A5604C6814F4803F11D0D8F800401443DF
:10194000C8F8004010E00026EEE70126ECE702268A
:10195000EAE70326E8E70426E6E70526E4E7D8F801
:1019600000409443C8F800404C6814F4003F05D090
:10197000D9F800401443C9F8004004E0D9F8004009
:101980009443C9F800404C6814F4801F05D0DAF87D
:1019900000401443CAF8004004E0DAF800409443E1
:1019A000CAF800404C6814F4001F05D0DBF8004072
:1019B0002243CBF8002005E0DBF8004024EA0202D5
:1019C000CBF800200CF1010CBCF1100FFFF40FAFAD
:1019D000BDE8F88F00040140000011100010024023
:1019E0008068084201D00120704700207047002A1B
:1019F00001D00161704709040161704701488068A6
:101A0000704700005C01002070B50446002C04D033
:101A100094F83D00002510B106E0012070BD84F867
:101A20003C50204600F09AF8242084F83D002068BD
:101A3000016821F00101016000F08EFB434A6168FA
:101A4000914203D84249884203D304E04149884285
:101A500001D2012070BD4049B0FBF1F1236859600B
:101A60006368934201D8491C07E04FF496735943C9
:101A70004FF47A73B1FBF3F1491C23681962616872
:101A8000914210D84900401EB0FBF1F2521CC2F343
:101A90000B02042A01D2042024E0B0FBF1F0401C28
:101AA000C0F30B001EE0A268DAB301EBC10303EB45
:101AB0000113A0F1010CBCFBF3F35B1C43F4804366
:101AC0001B051B0D37D06AB301EBC10202EB0111FC
:101AD000401EB0FBF1F0401CC0F30B0040F480400E
:101AE00040F400402168C861216AE0690843216828
:101AF0000860E1682069084321688860A16960691D
:101B000008432168C8602068016841F00101016054
:101B10002564202084F83D00256384F83E50002091
:101B200070BD00E009E001EB4103A0F1010CBCFB3A
:101B3000F3F35B1CC4E70120D4E701EB4101401E35
:101B4000B0FBF1F0401CC0F30B00C9E7A086010018
:101B500080841E0000093D0040420F0010B586B091
:101B60000021009101910291039100681B49884274
:101B700032D11B4CA06940F00800A061A06900F0C0
:101B800008000490A06940F00800A061A06900F07E
:101B900008000490E06940F40010E061E0696946E3
:101BA00000F4001004904FF4407000901220019057
:101BB000032003900B48FFF70DFE0B48416841F0EE
:101BC000E06141F002014160206940F400102061B1
:101BD000206920F40010206106B010BD00540040C0
:101BE00000100240000C01400000014002488168E2
:101BF00002781144816070475C01002010B50748ED
:101C0000016841F010010160032000F089F8002014
:101C100000F006F800F026F8002010BD0020024079
:101C200070B504460D4D4FF47A712878B1FBF0F091
:101C30000B490968B1FBF0F001F052F908B101203D
:101C400070BD102C07D200222146501E00F034F83F
:101C50006C60002070BD012070BD00005C010020A0
:101C6000580100200C4808B5816941F001018161EB
:101C7000816901F001010091C16941F08051C161A8
:101C8000C06900F0805000900448416821F0E06194
:101C900041F00071416008BD0010024000000140A9
:101CA00000F01F01012202FA01F14009800000F159
:101CB000E020C0F80011704710B4184B1B68C3F344
:101CC0000223C3F1070CBCF1040F01D94FF0040C3F
:101CD0001C1D072C01D2002300E0DB1E012404FAA6
:101CE0000CFCACF1010C0CEA0101994004FA03F37D
:101CF0005B1E1A401143002808DA00F00F0000F1C3
:101D0000E020090180F8141D10BC704700F1E020AC
:101D1000090180F8001410BC704700000CED00E0D1
:101D200000F00700064A11684FF6FF03194041EA28
:101D3000002040F0FD7040F08060106070470000AF
:101D40000CED00E010B586B001463CA0D0F808C00C
:101D500043680268C068CDF810C0039302920590F2
:101D60003AA0006801900020394C042936D00EDCDE
:101D700001293DD0022908D100F0FEF96168C1F3C4
:101D80008131491C4900B0FBF1F006B010BD0829B3
:101D900029D01029F9D16168226812F0807FF4D02F
:101DA00002A8C1F38342805C11F4803F09D06168CE
:101DB00001AAC1F34041515C264AB2FBF1F148430C
:101DC00001E025494843616811F4800FDDD12349C2
:101DD0004000A1FB001006B0400810BD06B0BDE8F1
:101DE000104000F0D9B906B0BDE8104000F0D4B9F9
:101DF000216A01F44072B2F5807F06D111F0020F22
:101E000003D006B04FF4004010BDB2F5007F07D1FB
:101E1000626A12F0020F03D049F6404006B010BDCE
:101E20004FF4407232EA0101F8D1216811F4003F09
:101E3000F4D006B04FF2244010BD000002030405A8
:101E4000060708090A0B0C0D0E0F10100102000006
:101E50000010024000127A0000093D00ABAAAAAAB5
:101E60002DE9F8430446DFF81C81207810F0010FBB
:101E70006CD00027D8F81C0010F0805F0BD1D8F888
:101E80001C0040F08050C8F81C00D8F81C0000F07E
:101E90008050009001273C4D286810F4807F16D1B7
:101EA000286840F480702860FFF7A8FD064628687F
:101EB00010F4807F0BD1FFF7A1FD801B642802D9AD
:101EC0000320BDE8F883286810F4807FF3D0D8F8A9
:101ED000200000F4407048B3A18801F440718142B1
:101EE00024D0D8F8200020F44070284901220A604C
:101EF00000220A60C8F8200010F0010F16D0FFF78A
:101F00007DFD0546D8F8200010F0020F0ED141F2F9
:101F10008836FFF773FD401BB04202D90320BDE8AD
:101F2000F883D8F8200010F0020FF2D0D8F8200083
:101F3000616820F440700843C8F82000012F05D1E3
:101F4000D8F81C0020F08050C8F81C00207810F051
:101F5000020F07D0D8F80400A16820F440400843DD
:101F6000C8F80400207810F0100F07D0D8F804004B
:101F7000616920F480000843C8F804000020BDE82F
:101F8000F88300000010024000700040400442420C
:101F90002DE9F04704460D46DFF8A081D8F800008F
:101FA00000F00700A8420FD2D8F8000020F0070088
:101FB0002843C8F80000D8F8000000F00700A84245
:101FC00002D00120BDE8F08720685D4F10F0020FBD
:101FD00014D010F0040F03D0786840F4E06078600B
:101FE000207810F0080F03D0786840F460507860D3
:101FF0007868A16820F0F00008437860207810F03D
:10200000010F5FD06068012806D002280BD0396824
:1020100011F0020F29D00AE0396811F4003F06D10F
:102020000120BDE8F087396811F0007F1AD0796887
:1020300021F0030108437860FFF7E0FC0646606882
:1020400041F28839012813D0022824D0786810F092
:102050000C0F37D0FFF7D2FC801B48452ED9032048
:10206000BDE8F0870120BDE8F0870120BDE8F087DA
:10207000786800F00C00042824D0FFF7BFFC801B18
:10208000484502D90320BDE8F087786800F00C00CD
:102090000428F2D116E0786800F00C00082811D06E
:1020A000FFF7ACFC801B484502D90320BDE8F08750
:1020B000786800F00C000828F2D103E0786810F08E
:1020C0000C0FC7D1D8F8000000F00700A8420FD9C4
:1020D000D8F8000020F007002843C8F80000D8F81E
:1020E000000000F00700A84202D00120BDE8F08700
:1020F000207810F0040F05D07868E16820F4E060E3
:1021000008437860207810F0080F06D078682169BD
:1021100020F4605040EAC100786000F03DF8796832
:10212000084AC1F30311515CC84007490860002008
:10213000FFF776FD0020BDE8F08700000020024098
:1021400000100240D48400085801002001480068B3
:10215000704700005801002000B5FFF7F7FF044961
:102160004968044AC1F30221515CC84000BD000027
:1021700000100240E484000800B5FFF7E7FF0449BF
:102180004968044AC1F3C221515CC84000BD000047
:1021900000100240E484000885B015A083684268FE
:1021A0000168C068039302920191049014A0006832
:1021B0000090144B5968144801F00C02042A11D005
:1021C000082A0FD101A8C1F38342805C11F4803F3B
:1021D0000AD05968C1F340411DF801100A4A504322
:1021E000B0FBF1F005B07047084905B048437047AF
:1021F00002030405060708090A0B0C0D0E0F101048
:10220000010200000010024000127A0000093D00A7
:102210002DE9F84F0446FA4D207810F0010F68D0F0
:10222000686800F00C00042808D0686800F00C0012
:1022300008280DD1686810F4803F09D0286810F490
:10224000003F56D06068002853D10120BDE8F88FC8
:102250006068B0F5803F15D0C8B1B0F5A02F1FD091
:10226000286820F480302860286820F480202860C6
:10227000606858B3FFF7C2FB0646286810F4003FB9
:1022800017D036E0286840F480302860F0E72868EE
:1022900020F480302860286820F480202860E7E758
:1022A000286840F480202860286840F48030286046
:1022B000DEE7FFF7A3FB801B642802D90320BDE8FB
:1022C000F88F286810F4003FF3D012E0FFF796FB78
:1022D0000646286810F4003F0BD0FFF78FFB801BE9
:1022E000642802D90320BDE8F88F286810F4003F65
:1022F000F3D12078C34F10F0020F4FF0010B4FF0D5
:10230000000854D0686810F00C0F14D0686800F012
:102310000C00082803D1686810F4803F0BD02069B6
:1023200078B3C7F800B0FFF769FB0646286810F0DD
:10233000020F12D01DE0286810F0020F05D02069AE
:10234000012802D00120BDE8F88F2868616920F0DB
:10235000F80040EAC100286029E0FFF74FFB801B2E
:10236000022802D90320BDE8F88F286810F0020F78
:10237000F3D02868616920F0F80040EAC1002860C5
:1023800015E0FFE7C7F80080FFF738FB064628682E
:1023900010F0020F0BD0FFF731FB801B022802D98F
:1023A0000320BDE8F88F286810F0020FF3D12078E1
:1023B00010F0080F30D09448A169C1B1C0F800B046
:1023C000FFF71CFB0646686A10F0020F0BD1FFF7FF
:1023D00015FB801B022802D90320BDE8F88F686A2C
:1023E00010F0020FF3D0012001F0FCFC14E0C0F863
:1023F0000080FFF703FB0646686A10F0020F0BD05F
:10240000FFF7FCFA801B022802D90320BDE8F88FF1
:10241000686A10F0020FF3D1207810F0040F6FD02B
:102420000026E86910F0805F08D1E86940F080502C
:10243000E861E86900F0805000900126DFF8CCA147
:10244000DAF8000010F4807F1BD1DAF8000040F4C5
:102450008070CAF80000FFF7D1FA8146DAF8000070
:1024600010F4807F0DD1FFF7C9FAA0EB09006428B2
:1024700002D90320BDE8F88FDAF8000010F4807F5D
:10248000F1D0E068012816D0D0B1052821D0286A03
:1024900020F001002862286A20F004002862E06829
:1024A00041F2883A68B3FFF7A9FA8146286A10F02A
:1024B000020F17D03AE0286A40F001002862EEE7E8
:1024C000286A20F001002862286A20F004002862AF
:1024D000E5E7286A40F004002862286A40F001001D
:1024E0002862DCE7FFF78AFAA0EB0900504502D921
:1024F0000320BDE8F88F286A10F0020FF2D015E033
:102500001AE0FFE7FFF77AFA8146286A10F0020F17
:102510000CD0FFF773FAA0EB0900504502D9032055
:10252000BDE8F88F286A10F0020FF2D1012E03D116
:10253000E86920F08050E861E069E8B3696801F07B
:102540000C01082958D0022810D0C7F86080FFF786
:1025500055FA0446286810F0007F4AD0FFF74EFA7B
:10256000001B022841D90320BDE8F88FC7F860801E
:10257000FFF744FA0646286810F0007F0BD0FFF7FB
:102580003DFA801B022802D90320BDE8F88F286895
:1025900010F0007FF3D1206AB0F5803F05D1686864
:1025A000A16820F4003008436860616A206A08432B
:1025B000696821F4741100E01BE008436860C7F803
:1025C00060B0FFF71BFA0446286810F0007F10D1B6
:1025D000FFF714FA001B022802D90320BDE8F88F88
:1025E000286810F0007FF3D003E0286810F0007F27
:1025F000B4D10020BDE8F88F0120BDE8F88F0000BD
:10260000001002400000424280044242007000403C
:1026100070B58AB004460D46032084F83400606C1F
:1026200003281ED0B5F5805F08D0B5F5006F0AD03D
:1026300085B1A06B40F00060A06316E0A06B40F095
:102640008050A06311E0204602F0F6F9A16B084328
:10265000A0630AE0204602F0C0F9A16B0843A06322
:1026600003E0A06B40F08050A063A06B012640B156
:10267000216840F2FF50886384F834600AB001207A
:1026800070BD60680490A0680590E06806900795AA
:1026900060690890A069099008990798099A0191C2
:1026A000029200902068069B059A049901F0C9FCEB
:1026B00084F834600AB0002070BD70B4426E120E0F
:1026C00093090B70C2F383034B7002F003028A700C
:1026D000426E120CCA70B0F86420120A0A7190F8A7
:1026E00064204A71826E120E4FF6FF7303EA0212E3
:1026F000CA80826EC2F30742CB8843EA1213CB80B2
:1027000002F00F020A72B0F86820C2F30722D30960
:102710004B72C2F380138B72C2F34013CB72C2F3BD
:1027200000130B7300244C73436C4FF400754FF08F
:10273000010C002B0ED0012B45D0026840F2FF5156
:102740009163816B41F08051816380F834C070BC2B
:10275000012070479207120D0A6190F868200B69FA
:1027600043EA82020A61C26E120E0B6943EA9213B7
:102770000B61C2F3C2030B7502F007024A75C26E09
:10278000C2F3074253098B75C2F38203CB759207DC
:10279000520F0A76B0F86C20C2F307220B7E43EA90
:1027A000D2130B760B695B1C43650E7EB61C03FAD5
:1027B00006F646650B7A0CFA03F383655B0A7343EE
:1027C000C36505661CE090F868209206920A0A61CB
:1027D000C26E120E0B6943EA02220A61C26EC2F394
:1027E00007420B691A430A61B0F86C20C2F3072252
:1027F0000B695B1C4FEA83234365C36585650566EA
:10280000C2F380134B764FEA82624FEA52628A76B5
:1028100090F86C208B7E43EAD2138B7602F07F0215
:10282000CA76026F4FEA12624FEAD2130B77C2F3F5
:1028300041134B77C2F382038B774FEA82724FEAE0
:102840001272CA77026FC2F30742CB7F43EA921338
:10285000CB77C2F3401381F8203081F8214002F099
:10286000010281F82220B0F87020C2F307224FEA5B
:10287000D21381F82330C2F3801381F82430C2F3DD
:10288000401381F82530C2F3001381F82630C2F3DB
:10289000810381F8273002F0030281F8282090F8A4
:1028A00070004FEA500081F8290081F82AC070BCFE
:1028B0004FF000007047426C0A60826C4A60C26C44
:1028C0008A60026DCA60426D0A61826D4A61C26DA2
:1028D0008A61006EC8610020704738B50446002048
:1028E00000906946204602F061F810B1A16B0843E0
:1028F000A0630098C0F3432038BD70B50446002C97
:1029000004D094F83400002510B105E0012070BD1A
:102910002577204600F04AF8032084F8340020464A
:1029200000F008F8A5632563012084F83400002036
:1029300070BD000070B58AB0044600250495059569
:10294000069507950895C32009900095019502907A
:102950002B462A462946206801F073FB124E35604B
:10296000206801F084FB012535600220FEF7DCFEC3
:10297000204601F0C3FF38B184F83450A16B0843FE
:10298000A0630AB0012070BD204601F044FF38B1B9
:1029900084F83450A16B0843A0630AB0012070BDD5
:1029A0000AB0002070BD0000A000304230B585B0F4
:1029B0000021009101910291039100681849884219
:1029C0002BD11848416941F480614161416901F4AA
:1029D00080610491816941F010018161816901F098
:1029E00010010491816941F0200181618069022414
:1029F00000F0200004904FF4F850CDE900040325C6
:102A0000694603950848FEF7E5FE0420CDE9000479
:102A1000694603950548FEF7DDFE05B030BD0000B0
:102A200000800140001002400010014000140140ED
:102A30002DE9F04F87B004460D4693461F46109E81
:102A4000FEF7DCFF81465DB194F8340001280FD019
:102A5000A06B40F00050A06307B00120BDE8F08FEC
:102A6000A06B40F00060A06307B00120BDE8F08FCC
:102A70004FF00008C4F83880E16D0BEB0700884286
:102A800007D9A06B40F00070A06307B00120BDE83B
:102A9000F08F032084F834002068C0F82C80606C2C
:102AA000012801D04FEA4B2B4FF40071206801F050
:102AB0002DFB40F2FF5A012158B12268C2F838A01C
:102AC000A26B1043A06384F8341007B00120BDE866
:102AD000F08F4FF0FF30009078020190902002902C
:102AE00002200390CDF81080884605916946206841
:102AF00001F086FA012F06D902202063594620688A
:102B000001F062FB05E0C4F830805946206801F00E
:102B100074FB58B12168C1F838A0A16B0843A063C9
:102B200084F8348007B00120BDE8F08F2068416B45
:102B300040F22A3001422BD12068406B10F4004F44
:102B40000CD04FF0000B206801F095FA45F82B00EF
:102B50000BF1010BBBF1080FF5D320352EB1FEF7B9
:102B60004DFFA0EB0900B0420CD32068C0F838A09C
:102B7000A06B40F00040A06384F8348007B00320CD
:102B8000BDE8F08F2068416B40F22A300142D3D07B
:102B90002068416B11F4807F13D0012F11D9616C33
:102BA00003290ED001F0D6FB58B12168C1F838A036
:102BB000A16B0843A06384F8348007B00120BDE80E
:102BC000F08F2068416B11F0080F0BD0C0F838A0CF
:102BD000A06B40F00800A06384F8348007B00120A7
:102BE000BDE8F08F416B11F0020F0BD0C0F838A098
:102BF000A06B40F00200A06384F8348007B001208D
:102C0000BDE8F08F416B11F0200F0BD0C0F838A059
:102C1000A06B40F02000A06384F8348007B001204E
:102C2000BDE8F08F406B10F4001F1DD0206801F04C
:102C300022FA28602D1D2EB1FEF7E0FEA0EB090060
:102C4000B0420CD32068C0F838A0A06B40F0004020
:102C5000A06384F8348007B00120BDE8F08F2068BD
:102C6000406B10F4001FE1D12068C0F838A084F850
:102C7000348007B00020BDE8F08F2DE9F04F89B017
:102C800004460E4615469846129FFEF7B7FE019081
:102C90005EB194F8340001280FD0A06B40F00050D2
:102CA000A06309B00120BDE8F08FA06B40F0006088
:102CB000A06309B00120BDE8F08F0020A063E26DA1
:102CC00005EB0801914207D9A06B40F00070A063AA
:102CD00009B00120BDE8F08F032184F83410216889
:102CE0000020C862606C012800D06D024FF40071B2
:102CF000206801F00BFA40F2FF594FF0010A58B179
:102D00002168C1F83890A16B0843A06384F834A00F
:102D100009B00120BDE8F08FB8F1010F07D92020DC
:102D200020632946206801F02FFB834606E010202F
:102D300020632946206801F040FB8346BBF1000F69
:102D40000CD02068C0F83890A06B40EA0B00A0635C
:102D500084F834A009B00120BDE8F08F4FF0FF30B7
:102D600002904FEA482003909020049000200590A4
:102D70000690CDF81CA002A9206801F041F9206856
:102D8000416B40F21A30014228D12068406B10F4A8
:102D9000804F09D0002506EB8501206801F07EF9FF
:102DA0006D1C082DF7D320362FB1FEF727FE0199B1
:102DB000401AB8420CD32068C0F83890A06B40EAA3
:102DC0000B00A06384F834A009B00320BDE8F08FA5
:102DD0002068416B40F21A300142D6D02068416B26
:102DE00011F4807F14D0B8F1010F11D9616C03295F
:102DF0000ED001F0AFFA58B12168C1F83890A16B3C
:102E00000843A06384F834A009B00120BDE8F08F26
:102E10002068416B11F0080F0BD0C0F83890A06B00
:102E200040F00800A06384F834A009B00120BDE898
:102E3000F08F416B11F0020F0BD0C0F83890A06BEF
:102E400040F00200A06384F834A009B00120BDE87E
:102E5000F08F416B11F0100F0BD0C0F83890A06BC1
:102E600040F01000A06384F834A009B00120BDE850
:102E7000F08FC0F8389084F834A009B00020BDE885
:102E8000F08F70B504460E461546002C03D094F81A
:102E90003D0010B107E0012070BD002084F83C0027
:102EA000204600F01AF804F108012068FEF792F8B5
:102EB0003146A2682068FEF707F92946236BA2680D
:102EC0006068FEF75FF8A168206850F8212042F0A2
:102ED000010240F82120002070BDFEF739BC00003F
:102EE000401EB0F1807F01D3012070474FF0E021F8
:102EF0004861044AF02010700020886107200861B2
:102F00000020704723ED00E070B50446002C04D08B
:102F100094F83900002510B106E0012070BD84F856
:102F20003850204600F022F8242084F83900206828
:102F3000C16821F40051C160204601F0C7FE20683D
:102F4000016921F4904101612068416921F02A0161
:102F500041612068C16841F40051C160E5632020EF
:102F600084F8390084F83A00002070BD70B586B04E
:102F700000240094019402940394234E036823498F
:102F800002200322224DB34219D18B6943F48043BE
:102F90008B618B6903F4804304938B6943F00403D2
:102FA0008B618969039201F0040104910102CDE96A
:102FB000001069462846FEF70DFC28151BE0154E4B
:102FC000B3421FD1CB6943F40033CB61CB6903F427
:102FD000003304938B6943F004038B618969039286
:102FE00001F0040104910421CDE90010694628464E
:102FF000FEF7F0FB0820CDE900046946284602945C
:10300000FEF7E8FB06B070BD00380140001002403A
:1030100000080140004400402DE9F84304460D46F5
:1030200091461E4694F83A00202802D00220BDE8BE
:10303000F88355B3B9F1000F27D094F83800012870
:1030400026D0012084F838000027E763222084F886
:103050003A00FEF7D3FC8046A4F82C90A4F82E90FA
:10306000E08D00283CD0E08D401EE085A068B0F5E2
:10307000805F10D04346002220212046009601F0B8
:10308000FFFE10B30320BDE8F8830120BDE8F883FC
:103090000220BDE8F8834346002220212046009606
:1030A00001F0EEFE10B10320BDE8F883206928B1DD
:1030B00020684068C1B229806D1C0EE0206840681D
:1030C000C0F308012980AD1C07E0206980B12068A9
:1030D000406800F07F0005F8010BE08D0028C2D1A8
:1030E000202084F83A0084F838700020BDE8F88386
:1030F0002068406805F8010BEFE72DE9F843044626
:103100000D4691461E4694F83900202802D0022030
:10311000BDE8F8834DB3B9F1000F26D094F838001C
:10312000012825D0012084F838000027E7632120FA
:1031300084F83900FEF762FC8046A4F82490A4F8D5
:103140002690E08CA0B3E08C401EE084A068B0F52F
:10315000805F10D04346002280212046009601F077
:103160008FFEF0B10320BDE8F8830120BDE8F883AD
:103170000220BDE8F88343460022802120460096C5
:1031800001F07EFE10B10320BDE8F8832888216895
:10319000C0F308004860206908B16D1C05E0AD1C53
:1031A00003E0216815F8010B4860E08C0028CAD1C3
:1031B0004346002240212046009601F061FE10B1F6
:1031C0000320BDE8F883202084F8390084F83870A3
:1031D0000020BDE8F883FEE71CB5EF218DF8001054
:1031E00001218DF8011014498308154849680A0E19
:1031F0008DF802200A0C8DF803200A0A8DF80420AD
:103200008DF8051007218DF8061000218DF80710A4
:103210004FF4C8720949FFF7FFFE072207496846C5
:10322000FCF7EFFF28B969460448FCF7D1FF0028F6
:1032300000D100201CBD000014000020400300202D
:103240007C020020044B4FF4805108B1002200E0C2
:1032500001221846FEF7CBBB0014014036200107BF
:1032600008800B48682202802A220A8000220280FD
:103270000280012202803F2202802B220A8000224B
:10328000028002800280EF2202802C20088070479A
:103290000000026070B51D461446049E00F01AF945
:1032A00004FB05F03146BDE8704000F0ADB8000009
:1032B00070B5203AD4B21023082200F00BF92C206C
:1032C000C10608800C490D4B01EB041500204FF698
:1032D000FF742A5C0021D60702D01F261E8000E062
:1032E0001C80491C5208C9B20829F4D3401CC0B242
:1032F0001028EED370BD0000E47E000800000260DC
:10330000F0B5203A1C46D6B210230822059D00F0E5
:10331000E1F82C20C10608800A490B4B002001EB84
:1033200006160021325CD70701D01D8000E01C800A
:10333000491C5208C9B20829F5D3401CC0B2102854
:10334000EFD3F0BDE47E00080000026078B50446CB
:103350004FF478460A380D4680B2012314220096B5
:10336000FFF798FF0A3DA9B21423012220460096D8
:10337000FFF790FF78BD0000F0B516460D460446F5
:103380004FF4A07714E000BF04F10800F02802D940
:1033900000241035ADB205F11000B84201D9002467
:1033A000254629462046FFF783FF0834A4B2761C41
:1033B0003278002AE8D1F0BD2DE9F8439946164647
:1033C0000D4604464FF4A077DDF8208017E000BFDB
:1033D00004F10800F02802D900241035ADB205F13F
:1033E0001000B84201D9002425464B462946204604
:1033F000CDF80080FFF784FF0834A4B2761C327841
:10340000002AE5D1BDE8F88310B500222C23DC06A4
:103410002380034B01E01980521C8242FBD310BD74
:103420000000026020494FF0C042012806D0022867
:1034300008D003280ED0042809D120E036201080BF
:10344000C8201FE036201080682006E008802C206D
:103450001080704736201080282008802A20108095
:10346000002008800880012008803F2008802B2051
:1034700010800020088008800880EF20E6E73620D2
:103480001080482008802A201080002008800880B2
:103490000880EF2008802B20108000200880088002
:1034A000012008803F20D1E70000026008B501201C
:1034B000FFF7C8FE00F0EAF800F02CF84FF6FF70B6
:1034C000002100904FF4A073F0220846FFF7E2FEBF
:1034D00008BD000070B54FF0C0452A242C800C4C6C
:1034E000060A2680C6B226801044401E020A2280A8
:1034F000C0B220802B202880080A2080C8B22080FB
:10350000C818401E010A2180C0B2208070BD000092
:103510000000026000B54FF0C041CF20088059483C
:10352000002202808122028030220280ED220A8065
:103530006422028003220280122202808122028001
:10354000E8220A80852202801022028078220280EE
:10355000CB220A80392202802C22028000220280A3
:103560003422028002220280F7220A802022028076
:10357000EA220A80002202800280B1220A80002210
:1035800002801B220280B6220A800A220280A22226
:103590000280C0220A8035220280C1220A801122C4
:1035A0000280C5220A80452202800280C7220A804A
:1035B000A2220280F2220A800022028026220A80B1
:1035C00001220280E0220A800F220280262202804D
:1035D000242202800B2202800E2202800922028015
:1035E00054220280A8220280462202800C220280FD
:1035F00017220280092202800F2202800722028005
:1036000000220280E1220A80002202801922028028
:103610001B220280042202801022028007220280E4
:103620002A2202804722028039220280032202805D
:1036300006220280028030220280382202800F227D
:10364000028036220A80C82202802A220A800022B2
:10365000028002800280EF2202802B220A80002258
:1036600002800280012202803F2202803A220A80E8
:1036700055220280112008800348FDF7F9F929201E
:10368000088000BD00000260FCBF020070B50A4C5B
:10369000002202212046FEF7AAF9084D2846FDF730
:1036A000E7F9012202212046FEF7A1F92846BDE8EC
:1036B0007040FDF7DDB9000000180140FCBF0200BA
:1036C00001490880704700000000026038B54FF6DD
:1036D000FF7500214FF4A073F02208460095FFF714
:1036E000D9FD1F242B461FA20A211E200094FFF79C
:1036F00063FE1E23E622194605200094FFF7CAFD4B
:103700002B461EA224211C200094FFF755FE1E23E9
:10371000E622462105200094FFF7BCFD2B461DA2A2
:103720004C2119200094FFF747FE1E23E6226E214C
:1037300005200094FFF7AEFD2B461DA27421052045
:103740000094FFF739FE1E23E622962105200094FF
:10375000FFF7A0FD2B461EA29C2132200094FFF70C
:103760002BFE38BD486F6D652050726F74656374B1
:10377000696E672053797374656D0000536574201A
:103780006E65772F4368616E67652070617373772C
:103790006F7264005265676973746572206E657735
:1037A0002066696E6765727072696E740000000051
:1037B00044656C65746520726567697374657265CC
:1037C000642066696E6765727072696E74000000CD
:1037D00050686F746F7320696E2053442063617268
:1037E000640000003EB500210E48009101910C4A92
:1037F000029102600124C0E9021441614FF4602289
:103800000461C2614160FDF79BFD0A20CDE900041F
:103810000520029069460348FDF7FAFC3EBD000012
:10382000002401407401002010B504490448FDF74C
:1038300081FB0249491E087010BD000005000020F0
:103840009885000800B587B01C216846FCF7B5FCD8
:1038500015484FF0204110220160144941600021B9
:103860008160C160C0E904128161C161130201621B
:10387000C0E90913C1620163416381630F20FF2323
:103880000090CDE90103CDE903021120CDE9050146
:10389000002269460448FFF7F4FA0548C16941F47B
:1038A0008061C16107B000BDFC020020040100A0DE
:1038B000000001402DE9F04F85B0002482480094BB
:1038C000019402940394816941F04001816181690E
:1038D00001F040010491816941F010018161816929
:1038E00001F010010491816941F004018161816955
:1038F00001F004010491816941F00801816181694D
:1039000001F008010491816941F020018161806921
:10391000DFF8B89100F0200004900022072148460B
:10392000FEF765F8DFF8A8B10022F2215846FEF74D
:103930005EF8002240F6F2016648FEF758F80022D1
:1039400021216548FEF753F8DFF890A143F20808FB
:10395000002241465046FEF74AF80720012503267B
:10396000CDE90005CDE9024669464846FDF732FF3C
:1039700068208DE8310069464846FDF72BFF584F17
:103980001020CDE90007694602954846FDF722FF61
:103990006803CDE90004694658460294FDF71AFF12
:1039A0003220CDE90005CDE9024669465846FDF7CB
:1039B00011FF0820CDE90007694602945846FDF73B
:1039C00009FFCDE90054694642480294FDF702FF21
:1039D00040F60200CDE90005CDE9024669463D48C2
:1039E000FDF7F8FEF0200227CDE90005CDE90247FA
:1039F00069463848FDF7EEFE2120CDE90005CDE906
:103A0000024669463448FDF7E5FE36480097CDE9A1
:103A1000010469463048FDF7DDFE04208DE83100E1
:103A200069462D48FDF7D6FE4FF6C040CDE90004AB
:103A3000694629480294FDF7CDFECDF80080039633
:103A4000CDE9015469465046FDF7C4FEC020009000
:103A500001AA112082E8510069465846FDF7BAFED6
:103A6000280200902048CDE9010469461948FDF775
:103A7000B1FE28038DE8310069461648FDF7AAFE1D
:103A8000002211460720FEF717F90720FEF708F974
:103A9000002211460920FEF70FF90920FEF700F970
:103AA000002211460A20FEF707F90A20FEF7F8F86F
:103AB000002201211720FEF7FFF81720FEF7F0F88B
:103AC00005B0BDE8F08F0000001002400018014072
:103AD0000010014000080140000C014000140140AA
:103AE00000002110000031100000111010B50F4C23
:103AF0000D480C2120604FF4614060600020A06000
:103B0000E060C4E90401A061E0612046FFF7FCF930
:103B10002068C16841F02001C1602068C16841F09F
:103B20001001C16010BD0000003801407C0200207F
:103B300003490A685206FCD50149091D086070470F
:103B400000380140FEE77047F8B500248DF80040CA
:103B50008021122000F02EFA00280BD00B22012128
:103B6000684600F051F9002804D09DF80000212893
:103B700001D00020F8BD094D6E1E0AE005EB44009F
:103B8000417815F8140000F015FA0028F2D0641CF2
:103B9000A4B230788442F1D30120F8BD1D0000208A
:103BA00070B50C46054601F025F801F001F801203A
:103BB000FFF7BEFF072001F026F80C20FFF7B8FF43
:103BC000280AFFF7B5FFE8B2FFF7B2FF200AFFF7B8
:103BD000AFFFE0B2FFF7ACFFE8B200EB152000EB5F
:103BE0001420E1B20844143000F0FAFF4FF4FA60F8
:103BF000FFF7F2FA08B1407A70BDFF2070BD10B532
:103C000000F0F8FF00F0D4FF0120FFF791FF032040
:103C100000F0F9FF0D20FFF78BFF112000F0E0FF0F
:103C20004FF4FA60FFF7D8FA08B1407A10BDFF20D0
:103C300010BD10B5044600F0DDFF00F0B9FF012013
:103C4000FFF776FF042000F0DEFF0220FFF770FF91
:103C50002046FFF76DFFE01D00F0C2FF4FF4FA6051
:103C6000FFF7BAFA08B1407A10BDFF2010BD10B5B9
:103C700000F0C0FF00F09CFF0120FFF759FF032078
:103C800000F0C1FF0120FFF753FF052000F0A8FF5F
:103C90004FF4FA60FFF7A0FA08B1407A10BDFF2098
:103CA00010BD2DE9F0411E4614460D46074600F0B2
:103CB000A1FF00F07DFF0120FFF73AFF082000F090
:103CC000A2FF1B20FFF734FF3846FFF731FF280A19
:103CD000FFF72EFFE8B2FFF72BFF200AFFF728FFC0
:103CE000E0B2FFF725FF07EB1520E9B2084400EB2F
:103CF0001420E1B20844243000F072FF4FF4FA605F
:103D0000FFF76AFA58B1C27A837A417A02EB03224A
:103D10003280427B007B02EB0020708000E0FF21BC
:103D20000846BDE8F08110B500F064FF00F040FFE8
:103D30000120FFF7FDFE032000F065FF0320FFF7E1
:103D4000F7FE072000F04CFF4FF4FA60FFF744FA4B
:103D500008B1407A10BDFF2010BD10B500F04AFF39
:103D600000F026FF0120FFF7E3FE032000F04BFFE9
:103D70000520FFF7DDFE092000F032FF4FF4FA6066
:103D8000FFF72AFA08B1407A10BDFF2010BD70B5C8
:103D90000C46054600F02EFF00F00AFF0120FFF759
:103DA000C7FE062000F02FFF0620FFF7C1FE2846C1
:103DB000FFF7BEFE200AFFF7BBFEE0B2FFF7B8FE3A
:103DC00005EB1420E1B208440D3000F009FF4FF478
:103DD000FA60FFF701FA08B1407A70BDFF2070BDAC
:103DE0007047000081B007494FF4FA520968B1FBEF
:103DF000F2F14843009000BF0098411E0091FAD2B2
:103E000001B07047580100202DE9F047144688465C
:103E1000814600F081F800281DD0422000F05AF8B9
:103E200000F0AEF8A0B1204600F054F800F0A8F879
:103E300000F092F800F070F800280CD0432000F059
:103E400049F800F09DF8224C4FF0800A402698BBBC
:103E500000F082F80020BDE8F0870025C4F810A02B
:103E600007276806050E666100F0C3F8266100F0BA
:103E7000C0F880212046FDF7B3FD08B145F00105EB
:103E80007F1EFFB2EDD2666189F80050B8F1010FD4
:103E9000666118D000F0ADF8C4F814A000F0A9F8DD
:103EA000266100F0A6F8666100F0A3F8A8F1010011
:103EB00009F101091FFA80F8B8F1000FCDD100F027
:103EC0004BF80120C7E700F094F8C4F810A0E5E72C
:103ED000001001402DE9F041082507464FF0800809
:103EE00040260C4C0FE000BF00F083F83806404637
:103EF00001D5206100E060617806070E00F079F8D6
:103F0000266100F076F86D1EEDB26661ECD2BDE878
:103F1000F08100000010014070B50E4C8025256135
:103F20004020206100F065F880212046FDF758FD13
:103F3000002808D0656100F05CF880212046FDF77C
:103F40004FFD08B1002070BD656100F052F80120FE
:103F500070BD00000010014070B5084C402565613F
:103F600000F047F88026666100F043F8256100F014
:103F700040F82661BDE8704000F03BB800100140F9
:103F800070B50B4D40246C6100F033F8802028613F
:103F900000F02FF82C6100F02CF880212846FDF766
:103FA0001FFD6C6108B1002070BD012070BD0000D4
:103FB0000010014070B50D460446FFF7ADFF002824
:103FC00012D04220FFF786FFFFF7DAFF68B1E0B2B8
:103FD000FFF780FFFFF7D4FF2846FFF77BFFFFF7CF
:103FE000CFFFFFF7B9FF012070BDFFF7B5FF00203D
:103FF00070BD4FF4C870401E0004000CFBD1704728
:104000000A6842624A688262CB688A681A430B690E
:10401000496919431143C26A22F0F7021143C16290
:10402000002070470069C0B27047006800F00300CC
:10403000704781B00844143000900098006801B0C7
:1040400070470FB4029A0199049B1143039A1A43D3
:104050001143059A1143069A1143426822F0FF0268
:1040600022F4FC4211434160002004B07047032158
:10407000016000207047D0F8800070470A688260B5
:104080008B684A681A43CB68096919431143C268AF
:104090006FF30B021143C160002070470968C0F83C
:1040A00080100020704710B586B00446019137217A
:1040B000029140210391002104914FF48061059108
:1040C00001A92046FFF7DAFF41F288323721204666
:1040D00000F0A6F906B010BD10B586B0044641F454
:1040E000801141F000410191292102914021039169
:1040F000002104914FF48061059101A92046FFF74A
:10410000BDFF204600F05AFA06B010BD10B586B0CB
:104110000446019110210291402103910021049154
:104120004FF48061059101A92046FFF7A7FF41F2F6
:1041300088321021204600F073F906B010BD10B58A
:1041400086B004460191062102914021039100218D
:1041500004914FF48061059101A92046FFF78EFF7D
:1041600041F288320621204600F05AF906B010BD0F
:1041700010B586B00446002101910291039104918B
:104180004FF48061059101A92046FFF777FF204693
:1041900000F02CF906B010BD10B586B004464FF4FF
:1041A000D5710191082102914021039100210491D0
:1041B0004FF48061059101A92046FFF75FFF20467B
:1041C00000F068FA06B010BD10B586B00446019143
:1041D0001221029140210391002104914FF480614A
:1041E000059101A92046FFF749FF41F288321221CB
:1041F000204600F015F906B010BD10B586B0044693
:1042000001911121029140210391002104914FF469
:104210008061059101A92046FFF730FF41F2883205
:104220001121204600F0FCF806B010BD10B586B094
:10423000044601920721029140210391002104913B
:104240004FF48060059001A92046FFF717FF41F267
:1042500088320721204600F0E3F806B010BD10B503
:1042600086B004460021019102220292C0220392EC
:1042700004914FF48061059101A92046FFF7FEFEED
:10428000204600F071F906B010BD10B586B00446A6
:10429000019109210291C0210391002104914FF461
:1042A0008061059101A92046FFF7E8FE204600F055
:1042B0005BF906B010BD10B586B00446002101912F
:1042C000332202924022039204911101059101A927
:1042D0002046FFF7D3FE41F288323321204600F01A
:1042E0009FF806B010BD10B586B0044601910D21AF
:1042F000029140210391002104914FF480610591C6
:1043000001A92046FFF7BAFE41F288320D2120466E
:1043100000F086F806B010BD30B585B005460C46F5
:10432000002300934FF0030CCDF804C04FF0400C75
:10433000CDF808C003934FF4806304936946284680
:10434000FFF79CFE22460321284600F059F905B0EC
:1043500030BD000010B586B00446002101910C224A
:1043600002924022039204911101059101A9204675
:10437000FFF784FE034A0C21204600F051F806B0F6
:1043800010BD000000E1F50510B586B004460191AE
:104390001921029140210391002104914FF4806181
:1043A000059101A92046FFF769FE41F288321921E3
:1043B000204600F035F806B010BD10B586B00446B2
:1043C00001911821029140210391002104914FF4A1
:1043D0008061059101A92046FFF750FE41F2883225
:1043E0001821204600F01CF806B010BD0B494FF410
:1043F000FA520968B1FBF2F141F288325143491E89
:1044000002D24FF000407047426B12F0800FF6D09E
:1044100040F2FF51816300207047000058010020E6
:1044200000B503464E484FF4FA5C0068B0FBFCF060
:104430005043401E02D24FF0004000BD5A6B12F0B4
:10444000450FF6D0586B10F0040F02D0042098638B
:1044500000BD586B10F0010F02D00120986300BD21
:104460001846FFF7DFFD884201D0012000BD40F271
:10447000FF50986300211846FFF7DBFD39490842D9
:1044800001D1002000BD10F0004F02D04FF00070AD
:1044900000BD10F0804F01D0402000BD10F0005F43
:1044A00001D0802000BD10F0805F02D04FF48070FA
:1044B00000BD10F0006F02D04FF4007000BD10F08E
:1044C000806F02D04FF4806000BD10F0807F02D07A
:1044D0004FF4006000BD10F4000F02D04FF4805084
:1044E00000BD10F4800F02D04FF4005000BD10F456
:1044F000001F02D04FF4804000BD10F4801F02D096
:104500004FF4004000BD10F4802F02D04FF4003073
:1045100000BD10F4003F02D04FF4802000BD10F425
:10452000803F02D04FF4002000BD10F4004F02D0B5
:104530004FF4801000BD10F4804F02D04FF40010F3
:1045400000BD10F4005F02D04FF4800000BD10F0F9
:10455000080F02D04FF4000000BD4FF4803000BDC2
:104560005801002008E0FFFD13494FF4FA52096892
:10457000B1FBF2F141F288325143491E02D24FF0B1
:1045800000407047426B12F0450FF6D0416B11F0BE
:10459000040F03D00421816304207047416B11F0A4
:1045A000010F03D0012181630120704740F2FF51C8
:1045B0008163002070470000580100200F494FF42C
:1045C000FA520968B1FBF2F141F288325143491EB7
:1045D00002D24FF000407047426B12F0450FF6D008
:1045E000416B11F0040F03D0042181630420704754
:1045F00040F2FF5181630020704700005801002005
:1046000000B5034622484FF4FA5C0068B0FBFCF0AA
:1046100041F2883C00FB0CF0401E02D24FF00040FB
:1046200000BDD3F834C01CF0450FF5D0586B10F026
:10463000040F02D00420986300BD586B10F0010FE6
:1046400002D00120986300BD1846FFF7EBFC8842BA
:1046500001D0012000BD40F2FF50986300211846B0
:10466000FFF7E7FC10F4604F05D010F4804F06D040
:104670004FF4005000BD000C1080002000BD10F46D
:10468000004F02D04FF4805000BD4FF4803000BD89
:104690005801002010494FF4FA520968B1FBF2F1B9
:1046A00041F288325143491E02D24FF00040704718
:1046B000426B12F0450FF6D0416B11F0040F4FF032
:1046C000400102D0816304207047426B12F0400F1A
:1046D00000D0816300207047580100202DE9F04F81
:1046E00089B004460E46FDF789F907460025A8461D
:1046F000CDF80080CDF8048008212068FFF706FD82
:10470000002845D1B4F8500001042068FFF7CBFC25
:1047100000283DD1401E02904FF00809CDF80C90C2
:10472000302004904FF0020ACDF814A0CDF8188084
:104730000120079002A92068FFF762FC2068FFF7BC
:10474000BAFD002824D12068406B40F22A4810EAC4
:10475000080F15D1EB462068416B11F4001F04D0FF
:10476000FFF789FC4BF825006D1CFDF747F9C01BCE
:10477000B0F1FF3F0FD02068406B10EA080FEAD07D
:104780002068416B11F0080F0AD0C0F8389008205B
:1047900009B0BDE8F08F09B04FF00040BDE8F08FE0
:1047A000416B11F0020F05D0C0F838A009B002200B
:1047B000BDE8F08F416B11F0200F05D020218163FF
:1047C00009B02020BDE8F08F40F2FF5181630098CE
:1047D0000099000601F47F4140EA0120009901F4AC
:1047E0007F0140EA1120009940EA11607060019851
:1047F0000199000601F47F4140EA0120019901F48A
:104800007F0140EA1120019940EA1160306009B04F
:104810000020BDE8F08F10B590B004460120049050
:104820002068FFF702FC002864D0606C032819D0D0
:104830002068FFF714FD00285AD100212068FFF7F7
:10484000F8FB606704212068FFF7F3FBA0670821ED
:104850002068FFF7EEFBE0670C212068FFF7E9FB1B
:10486000C4F88000606C032805D004A92068FFF715
:1048700053FD00283CD1606C03281CD0BDF810000B
:10488000206501042068FFF700FD002830D10021D9
:104890002068FFF7CEFB606604212068FFF7C9FBA4
:1048A000A06608212068FFF7C4FBE0660C212068A1
:1048B000FFF7BFFB206704212068FFF7BAFB000D5C
:1048C000E06405A92046FDF7F8FEB4F85000002387
:1048D00002042068FFF7AAFC002809D1A2696169D7
:1048E00020690292019100900FCCFFF7AAFB0020F3
:1048F00010B010BD10B04FF0806010BDF8B5044688
:10490000002500952068FFF733FC00280DD12068B2
:10491000FFF742FC4FF6FF7608B3A5640098411CF0
:104920000091B04202D14FF08070F8BD00212068A4
:10493000FFF7B9FB10B14FF08050F8BD002120689F
:10494000FFF7CAFB10B14FF08050F8BD002120687E
:10495000FFF76FFBC00F0028E0D0656424E001275B
:10496000A7640098411C0091B04202D14FF08070C2
:10497000F8BD00212068FFF796FB0028F8D14FF022
:1049800080412068FFF7A8FB0028F1D100212068B2
:10499000FFF74FFB0146C80F0028E2D011F0804F0F
:1049A00001D0676400E065640020F8BD70B504467E
:1049B0000D46002D0ED0B4F8500001042068FFF71A
:1049C00092FC002805D100212068FFF732FB286007
:1049D000002070BD4FF0006070BD10B582B004467D
:1049E00000200090019000212068FFF722FB10F0CA
:1049F000007F03D04FF4006002B010BD694620462E
:104A0000FFF76CFE0028F7D1019810F4803F0FD01B
:104A1000B4F8500001042068FFF745FB0028EBD1F3
:104A200000212068FFF78BFB0028E5D102B010BD04
:104A300002B04FF0806010BD10B582B00446002077
:104A40000090019000212068FFF7F3FA10F0007F3A
:104A500003D04FF4006002B010BD69462046FFF756
:104A60003DFE0028F7D1019810F4802F0FD0B4F844
:104A7000500001042068FFF716FB0028EBD102214B
:104A80002068FFF75CFB0028E5D102B010BD02B042
:104A90004FF0806010BD000010B5064C0120207062
:104AA000FBF70AFF18B9207820F001002070207869
:104AB00010BD00007001002010B588B014461648E3
:104AC000007810F0010F02D008B0032010BD41B1F2
:104AD000012909D002290FD0032915D0042008B0DC
:104AE00010BD002008B010BD6846FBF7D3FE069845
:104AF0002060002008B010BD6846FBF7CBFE079889
:104B00002080002008B010BD6846FBF7C3FE079860
:104B10002060002008B010BD7001002070B508466C
:104B200011461A460125094C094BFBF7DFFE58B91F
:104B3000FBF7B6FE38B1641E01D2012070BDFBF751
:104B4000AFFE0028F7D10025284670BDA0860100E1
:104B500000E1F50510B5064C01202070FBF7A0FE22
:104B600018B9207820F001002070207810BD0000D6
:104B70007001002070B5084611461A460125094CFF
:104B8000094BFBF7C3FE58B9FBF78AFE38B1641E28
:104B900001D2012070BDFBF783FE0028F7D100256C
:104BA000284670BDA086010000E1F50570470000B1
:104BB00010B50A4C6068000EFEF7BAFF6068C0F3DB
:104BC0000740FEF7B5FFA088C0F30720FEF7B0FF4F
:104BD0002079BDE81040FEF7ABBF000014000020B4
:104BE00010B50446000AFEF7A3FFE0B2BDE810408E
:104BF000FEF79EBF10B5EF20FEF79AFFBDE810400C
:104C00000120FEF795BF10B50446C0F30720FEF75C
:104C10008FFFE0B2BDE81040FEF78ABFFCF7E6BFA9
:104C200030B595B028216846FBF7C7FA14210AA8C9
:104C3000FBF7C3FA18210FA8FBF7BFFA01210804FC
:104C4000CDE900100024029402250491CDE907501B
:104C50004FF4E01009906846FDF7DAFA0F20CDE92D
:104C60000A056802CDE90C4002210AA80E94FDF75E
:104C70008FF9A80311900F950FA8FDF7F1F815B063
:104C800030BD00000D48016841F00101016041683C
:104C90000B4A1140416001680A4A114001600168F5
:104CA00021F480210160416821F4FE0141604FF44C
:104CB0001F0181600449C003086070470010024072
:104CC0000000FFF8FFFFF6FE08ED00E02DE9F041DF
:104CD000044620680169E26821F4405111430161F2
:104CE0002169A0680143606901432068C26822F419
:104CF000037222F4A0521143C16020684169A26985
:104D000021F440711143416120685C4D3226A0F1CD
:104D10008041B1F59C3158D0FDF71EFA00EBC0017F
:104D200001EB001061688900B0FBF1F7FDF714FAA0
:104D300000EBC00101EB001061688900B0FBF1F0ED
:104D4000A5FB001040096FF01801484307EB8000F5
:104D500006EB0010A5FB0010400900F0F007FDF77E
:104D6000FBF900EBC00101EB001061688900B0FBAA
:104D7000F1F0A5FB0010400907EB0017FDF7ECF977
:104D800000EBC00101EB001061688900B0FBF1F895
:104D9000FDF7E2F900EBC00101EB0010616889004A
:104DA000B0FBF1F0A5FB001040096FF0180148437B
:104DB00008EB800006EB0010A5FB00102168C0F393
:104DC000431038448860BDE8F081FDF7D5F900EB69
:104DD000C00101EB001061688900B0FBF1F7FDF73D
:104DE000CBF900EBC00101EB001061688900B0FB5A
:104DF000F1F0A5FB001040096FF01801484307EBE4
:104E0000800006EB0010A5FB0010400900F0F00741
:104E1000FDF7B2F900EBC00101EB001061688900F9
:104E2000B0FBF1F0A5FB0010400907EB0017FDF700
:104E3000A3F900EBC00101EB001061688900B0FB31
:104E4000F1F8FDF799F900EBC00101EB0010616882
:104E50008900B0FBF1F0A5FB001040096FF01801CC
:104E6000484308EB800006EB0010A5FB001021680A
:104E7000C0F3431038448860BDE8F0811F85EB51D2
:104E80002DE9F0410446069D884617461E462068D7
:104E9000006838EA000020D00020B84227D1B5F1E0
:104EA000FF3F1CD025B1FCF7A9FD801BA84216D9F5
:104EB0002068C16821F4D071C1602068416921F087
:104EC00001014161202084F8390084F83A00002073
:104ED00084F838000320BDE8F0810120DDE7206878
:104EE000006838EA000005D00020B842D7D0002082
:104EF000BDE8F0810120F8E7FEE72DE9F0470C4618
:104F00000546088809891646421AE3886089012700
:104F10001B1A5A43A388C91A6388181A01FB002078
:104F2000FBF713FB00221346C6E90C01FBF744FB19
:104F300001D1002783E028882989E388421A608903
:104F40001B1A5A43AB88C91A6388181A01FB002040
:104F5000FBF7FBFAC6E9000121882089AB880A1A11
:104F600029895B1A5A432B88C91AA388181A01FB8E
:104F70000020FBF7EAFAC6E902012389AA88A18882
:104F8000B5F8088003FB02F001FB180C608891461D
:104F90000CFB00FC208800FB08F2B5F8008003FB46
:104FA000182201FB08F1E38800FB191002FB03C380
:104FB000618900FB0130FBF7C8FAC6E90401688883
:104FC0006989E388421A60891B1A5A43EB88C91A17
:104FD0006388181A01FB0020FBF7B7FAC6E906013F
:104FE00021882089EB880A1A69895B1A5A436B88E1
:104FF000C91AA388181A01FB0020FBF7A6FAC6E914
:1050000008012289B5F80680A1886B8902FB08F0A7
:1050100001FB130C60886D880CFB00FC2088694341
:10502000434302FB1532E38800FB181002FB03C266
:10503000618900FB0120FBF788FAC6E90A013846BE
:10504000BDE8F08701B5002004E00B21491EC9B27C
:10505000FCD2401C00998842F7D308BD2DE9F843E3
:1050600080460C460127684600F070F8E0B3BDF8B2
:105070000200FBF77BFAD4E90223FBF785F905462A
:105080000E46BDF80000FBF771FAD4E90023FBF7E8
:105090007BF92A463346FBF7D0F8D4E90423FBF723
:1050A000CCF8FBF770FAA8F80000BDF80200FBF797
:1050B0005DFAD4E90823FBF767F905460E46BDF80B
:1050C0000000FBF753FAD4E90623FBF75DF92A4603
:1050D0003346FBF7B2F8D4E90A23FBF7AEF8FBF747
:1050E00052FAA8F8020001E0FFE700273846BDE8C1
:1050F000F883000070B500F03DFA134E00252A46F3
:1051000004213046FCF773FC012211463046FCF7BF
:105110006EFC0024002201213046FCF768FC0821C7
:105120003046FCF75DFCC4F10B018840284385B292
:10513000012211463046FCF75AFC641CE4B20C2CE8
:10514000E8D3284670BD0000001801402DE9F04169
:105150008AB00546002628216846FBF72EF8DFF8BE
:1051600020816C469020FFF7C5FF07460120FFF71E
:1051700069FFD020FFF7BEFF24F8167004EB46014C
:10518000761C8882F6B210214046FCF729FC08B94B
:105190000A2EE7D310214046FCF722FC10B1394912
:1051A000002008700A2E03D000200AB0BDE8F0816C
:1051B000BDF90010BDF914008C4662460346012675
:1051C00034F916708F4201DA394602E0974200DD69
:1051D0003A46761CF6B20A2EF2D3012604EB4607B5
:1051E000B7F914709F4201DA3B4602E0874200DDC6
:1051F0003846761CF6B20A2EF0D3BDF90240BDF94E
:105200000460BDF9067064443E443444BDF908604E
:105210003444BDF90A603444BDF90C603444BDF92E
:105220000E603444BDF910603444BDF9126034445A
:10523000611A891AC9082980BDF91410BDF9162010
:10524000BDF91A401144BDF9182022441144BDF99A
:105250001C201144BDF91E201144BDF92020114429
:10526000BDF922201144BDF924201144BDF92620A6
:105270001144C91A081AC0086880012095E7000087
:1052800000180140B80000202DE9F04FABB03C21E0
:10529000B4225020F025ADF86810ADF87420ADF8B8
:1052A0006A00ADF86C10ADF87020ADF876004FF4E0
:1052B000A076ADF86E50ADF872500120FEF7B2F84E
:1052C0006FF00F0000EB5609680800241390700877
:1052D0004FF6FF7A4FF4784B129000215746334631
:1052E0002A460846CDF800A0FDF7D4FF8BA2D84689
:1052F0003B46CDF800B03C201299FEF75DF8621CE9
:105300008BA127A800F068F91FFA89F13B4627AA6C
:10531000CDF800801398FEF74FF88648FFF792FE0D
:105320001AA800EB840130F824004988FEF70EF833
:1053300014A800EB84073846FFF708FF0028FAD0CE
:10534000641CE4B2042CC8D304AA14A91AA8FFF759
:10535000D4FDDDE9100100221346FBF72DF97DD0C5
:10536000BDF85E00FBF702F9DDE906231391199001
:10537000FBF70AF804460F46BDF85C00FBF7F6F8A9
:10538000CDE90001DDE9042391461F93FAF7FCFF04
:1053900022463B46FAF751FFDDE90823FAF74DFFB5
:1053A000DDE9104398462246FBF760F8FBF7EBF87F
:1053B000DDE90C2387B213991998FAF7E5FF1391E9
:1053C0002490DDE90001DDE90A23FAF7DDFF139BF4
:1053D000249AFAF732FFDDE90E23FAF72EFF43464F
:1053E0002246FBF743F8FBF7CEF8BDF8741080B205
:1053F000B94201D2791A00E0C91B8AB2BDF8761011
:10540000814201D2401A00E0081A80B20A2A56D816
:105410000A2854D847462246434648461F99FBF778
:1054200025F8DFF8148122463B46C8E90001DDE992
:105430000601FBF71BF8C8E90201DDE90801224675
:105440003B46FBF713F8C8E90401DDE90A012246EF
:105450003B46FBF70BF822463B4600E02FE0C8E94D
:105460000601DDE90C01FBF701F8C8E90801DDE9F7
:105470000E0122463B46FAF7F9FFC8E90A0100216E
:10548000544633462A460846CDF800A0FDF702FFF1
:105490002AA63046FAF7AEFE404205EBC000C0F344
:1054A0004F0023463246CDF800B01299FDF784FF35
:1054B0002748FFF7C7FD01202BB0BDE8F08F002182
:1054C00033462A460846CDF800A0FDF7E3FE21A4A6
:1054D0002046FAF78FFE404205EBC000C0F34F00B4
:1054E0005F4653462246CDF800B01299FDF764FF9F
:1054F0001CA42046FAF77EFE404205EBC0001021B6
:10550000C0F34F0001EB5601534622460097FDF7CA
:1055100053FF1748FFF796FD0020CDE7546F7563E2
:10552000682043616C696272617465202E2E2E00C2
:1055300025640000A0860100C000002043616C6962
:1055400062726174652053756363656400000000D6
:10555000400D030043616C6962726174652066618D
:10556000696C000074727920616761696E000000E7
:1055700040420F0070B5174D064600220421284610
:10558000FCF735FA002201212846FCF730FA002406
:10559000C4F1070026FA00F0C00701D0012200E0A4
:1055A000002204212846FCF722FA0520FFF74AFDD5
:1055B000012211462846FCF71AFA0520FFF742FDA2
:1055C000002201212846FCF712FA641CE4B2082CE0
:1055D000DED370BD001801400FB4084B10B504A90C
:1055E00002AA039800F01CF8044602A9002000F06B
:1055F00077F9204610BC5DF814FB0000E158000864
:1056000002E008C8121F08C1002AFAD1704770478B
:10561000002001E001C1121F002AFBD170470000E9
:105620002DE9FF4F8DB09B460F460446002606E04D
:1056300025280BD05A460F999047641C761C207879
:105640000028F5D111B03046BDE8F08F0025A846FE
:105650000122984900E0054314F8013F203B02FA7B
:1056600003F00842F7D120782E2817D114F8010F43
:1056700045F004052A280ED06FF02F022078A0F103
:10568000300109290AD808EB880102EB410100EB3F
:105690000108641CF2E757F8048B641C20786C281E
:1056A0000DD004DC4C2812D06A2811D104E07428F3
:1056B0000DD07A280CD10AE045F4001507E0617896
:1056C00045F48015814202D1641C05F58015641CE7
:1056D0002278692A45D008DC002AB3D0582A69D03C
:1056E000632A10D0642A08D13BE0702A67D0732A5D
:1056F00013D0752A5CD0782A5CD010465A460F9990
:105700009047761CD3E017F8040B8DF800000020BA
:105710008DF80100E946012003E057F8049B4FF0A3
:10572000FF3069074FF0000501D40AE06D1C4545C4
:105730000DDA8542FADB19F805100029F6D106E0EA
:105740006D1C8542FCDB19F805100029F8D12E44A8
:1057500004E019F8010B5A460F9990476D1EF8D2D4
:10576000A5E00A200021CDE90801C5F30250022876
:105770000DD001CFC117031E71F100030DDA4FF0F8
:10578000000CD0EB0C006CEB01012D2308E0FF1D99
:1057900027F00707F7E80201EDE72B0504D52B23D7
:1057A0008DF8283001233BE0EB0739D02023F7E7C1
:1057B0000A2000E010200021CDE9080107E01020B8
:1057C000002145F00405CDE908014FF00808C5F3B4
:1057D000025002280FD001CF00214FF0000A2B0702
:1057E0001FD5702A0DD0DDE908C38CF0100C5CEADF
:1057F000030C0CD015E0FF1D27F00707F7E80201A6
:10580000EBE740228DF828204FF0010A0BE050EA28
:10581000010306D030238DF828308DF8292002238B
:105820009A46582A04D024A20DF120090B9209E0CF
:1058300026A2F9E7DDE90823FAF7D6FE0B9B9B5C6D
:1058400009F8013D50EA0102F4D1ADEB0900203026
:105850000890680701D44FF001080899884502DDD7
:10586000A8EB010000E000208046002506E00AA821
:105870005A46405D0F9990476D1C761C5545F6DBE6
:1058800004E030205A460F999047761CB8F1000189
:10589000A8F10108F5DC05E019F8010B5A460F994B
:1058A0009047761C0899481E08900029F4DC641C77
:1058B000C5E600000928010030313233343536376F
:1058C000383961626364656600000000303132334C
:1058D00034353637383941424344454600000000EC
:1058E0000A68531C0B6010707047000010B5044626
:1058F00004F5805000220271521EC262204601F05F
:10590000C6FC08B1032010BD94F8FE0194F8FF1105
:1059100040EA0120A0F52A41553901D0022010BDEE
:1059200094F8360094F8391094F8372040EA016072
:1059300094F83810090441EA0221084320F07F411D
:105940000D48814201D1002010BD94F8521094F806
:10595000552094F8533041EA026194F8542012041F
:1059600042EA0322114321F07F41814201D100200C
:1059700010BD012010BD0000464154007CB53C49DB
:1059800001A8FFF76BFB002870D0BDF80400801F52
:10599000E52865D2BDF806004FF6FF74A0F11F019F
:1059A0004FF4A0731D2918D20021F022084600945C
:1059B000FDF770FC1F250A2123462EA208460095FC
:1059C000FDF7FAFC354800F02FFC234634A296215F
:1059D0000A200095FDF7F0FC42E0A0F14701012507
:1059E0001D291BD20021F02208460094FDF752FC2D
:1059F000324C25700A2132A20846FDF7BDFC207802
:105A00000128FCD02078022804D10A2133A20846BC
:105A1000FDF7B2FC20780228FCD021E0A0F16F0154
:105A20001D2916D20021F02208460094FDF732FC11
:105A30000A2132A20846FDF79FFC184C0C3C6580F9
:105A4000202264210A20FDF733FC60880128F7D06A
:105A500006E097381D2803D201F060FFFDF75AFDDC
:105A600040F2DC50FBF760FEFDF730FE7CBD00002D
:105A7000C0000020506C65617365207365742061FF
:105A80002070617373776F72642077697468203453
:105A900020706C61636573203A00000000010020F3
:105AA00050617373776F726420737563636573738A
:105AB00066756C6C7920736574000000000000202E
:105AC000506C6561736520707265737320796F75B2
:105AD000722066696E67657200000000506C656137
