:020000040800F2
:100000001004002045010008FB0A0008490A000806
:10001000F90A0008B1010008BD0B0008000000004B
:100020000000000000000000000000001F0B00089E
:10003000B3010008000000001D0B0008210B0008A0
:100040005F0100085F0100085F0100085F01000810
:100050005F0100085F0100085F010008B5010008AA
:100060005F0100085F0100085F0100085F010008F0
:100070005F0100085F0100085F0100085F010008E0
:100080005F0100085F0100085F0100085F010008D0
:100090005F0100085F0100085F0100085F010008C0
:1000A0005F0100085F0100085F0100085F010008B0
:1000B0005F0100085F0100085F0100085F010008A0
:1000C0005F0100085F0100085F0100085F01000890
:1000D0005F0100085F0100085F0100085F01000880
:1000E0005F0100085F0100085F0100085F01000870
:1000F0005F0100085F0100085F0100085F01000860
:100100005F0100085F0100085F0100085F0100084F
:100110005F0100085F0100085F0100085F0100083F
:100120005F0100085F0100085F0100085F0100082F
:10013000DFF80CD000F02AF800480047DD0B00087B
:10014000100400200648804706480047FEE7FEE707
:10015000FEE7FEE7FEE7FEE7FEE7FEE7FEE7FEE777
:10016000750B000831010008D2B201E000F8012B44
:10017000491EFBD270470022F6E710B513460A4627
:1001800004461946FFF7F0FF204610BD064C074D08
:1001900006E0E06840F0010394E807009847103457
:1001A000AC42F6D3FFF7C8FFFC0B00081C0C00089C
:1001B000FEE7704710B50C4C206880070DD5022172
:1001C0000A4800F019F968B100220221084800F03D
:1001D00018F90220206000F00DF8BDE81040022060
:1001E00000F00AB80122F0E714040140000C0140BD
:1001F0000008014070470000044910B50A68024237
:1002000002D00860FFF7F6FF10BD000014040140A3
:100210002DE9F84FDFF8B8A100220AF1040B1446CB
:1002200001274FF00F090BF1040E00BF0B6807FA0E
:1002300004F52B40AB4274D1DFF898C14E68A6EBB1
:100240000C0866452BD00DDC032E34D005DC36B30C
:10025000012E19D0022E2FD11BE0112E16D0122EF6
:100260002AD119E0B8F5881F19D006DCB8F5803F0F
:1002700015D0B8F5801F1FD111E0B8F5001F0ED0C2
:10028000B8F5041F18D10AE0CA6815E0CA68121D43
:1002900012E0CA6808320FE0CA680C320CE08A68C3
:1002A0002AB1012A4FF0080203D0456104E004227C
:1002B00002E0056100E00022FF2B01D8064601E0C4
:1002C00000F104064FEA840501D9A5F12005D6F80E
:1002D00000C009FA05F82CEA080C02FA05F54CEA08
:1002E000050CC6F800C04D68ED006AD53A4DAE6900
:1002F00046F00106AE61AD6924F0030605F0010584
:100300000095364D06EB050CDCF80850A6074FEAC1
:10031000167809FA08F6B543314EB04202D10026EC
:100320001AE04EE02F4EB04201D1012614E02E4ECD
:10033000B04201D102260FE02C4EB04201D103267B
:100340000AE02B4EB04201D1042605E0294EB0420E
:1003500001D1052600E0062606FA08F62E43CCF861
:1003600008604D68DAF80060ED03554601D51E437C
:1003700000E09E432E604D68AD0305D5DBF80060BC
:100380001E43CBF8006004E0DBF800509D43CBF83F
:1003900000504D68DEF80060ED02754601D51E4341
:1003A00000E09E432E604D68AD0205D5084D0C352A
:1003B0002E681E432E6004E0054E0C3635689D43C2
:1003C0003560641C102CFFF431AFBDE8F88F0000DD
:1003D0000004014000001110001002400000014024
:1003E00000080140000C01400010014000140140D1
:1003F00000180140001C01408068084000D0012026
:1004000070470AB1016170470904FBE70148806841
:100410007047000000000020024881680278114403
:100420008160704700000020074810B5016841F066
:1004300010010160032000F073F8002000F006F8BE
:1004400000F024F8002010BD0020024070B50D4DD2
:1004500004464FF47A712878B1FBF0F00A49096834
:10046000B1FBF0F000F0DCFA48B9102C07D2002202
:100470002146501E00F034F800206C6070BD012051
:1004800070BD0000000000200C0000200C4808B5E2
:10049000816941F001018161816901F001010091EF
:1004A000C16941F08051C161C06900F08050009085
:1004B0000448416821F0E06141F00071416008BDED
:1004C000001002400000014000F01F020121914095
:1004D0004009800000F1E020C0F8001170470000E2
:1004E000F0B40E4B1B680C46C3F30223C3F107059F
:1004F000042D00D90425191D072901D2002300E08D
:10050000DB1E012606FA05F1491E214099409E4056
:10051000761E16403143F0BC00F0F0BA0CED00E05E
:10052000064900F0070208684FF6FF03184040EA4A
:100530000220034A10430860704700000CED00E001
:100540000000FA052DE9F047DFF8548105460E4614
:10055000D8F8000000F00700B0420CD2D8F8001024
:1005600021F007013143C8F80010D8F8000000F06E
:100570000700B0426FD128684A4C810712D5400766
:1005800003D5606840F4E06060602878000703D518
:10059000606840F4605060606068A96820F0F00016
:1005A000084360602878C00744D06868012816D0E6
:1005B0002168022816D0890700294CDA616821F0E9
:1005C000030101436160FFF721FF6968074641F2BB
:1005D000883001290ED00229814618D026E02168F2
:1005E0008903E9E78901E7E7FFF710FFC11B4945E8
:1005F00001D918E081466068C0F381000128F3D179
:1006000018E000BFFFF702FFC11B49450BD8606827
:10061000C0F381000228F5D10CE000BFFFF7F6FE21
:10062000C11B494502D90320BDE8F087606810F07E
:100630000C0FF3D1D8F80010404601F00701B14289
:100640000BD9016821F0070131430160006800F017
:100650000700B04201D00120E6E72878400705D521
:100660006068E96820F4E06008436060287800076B
:1006700006D56068296920F4605040EAC1006060D6
:1006800000F016F86168084AC1F30311515CC840D4
:10069000064908600020FFF7D9FE0020C4E70000EB
:1006A0000020024000100240EA0B00080C0000206D
:1006B00012A185B00FC98DE80F0014A0144A00687C
:1006C00004905168134801F00C03042B10D0082B40
:1006D0000ED1C1F38343C9031DF803000AD5516845
:1006E00004AAC1F34041515C0A4A5043B0FBF1F007
:1006F00005B0704708494843FAE7000002030405C3
:10070000060708090A0B0C0D0E0F1010010200005D
:100710000010024000127A0000093D002DE9F84F58
:1007200004460078B94DC00748D06868C0F381001E
:10073000012807D06868C0F38100022809D16868E1
:10074000C00306D52868800338D5606800286FD0BC
:1007500034E06068B0F5803F0BD010B1B0F5A02F49
:1007600011D0286820F480302860286820F4802088
:1007700002E0286840F480302860606888B1FFF7A4
:1007800045FE064609E0286840F480202860F0E72E
:10079000FFF73CFE801B642875D828688003F7D5D6
:1007A0000CE0FFF733FE064605E000BFFFF72EFE24
:1007B000801B6428F0D828688003F7D42078944EF2
:1007C00080074FF001094FF000083BD5686810F032
:1007D0000C0F07D06868C0F38100022809D168684F
:1007E000C00306D42868800714D5206901281FD1CA
:1007F00010E02069B0B1C6F80090FFF707FE074689
:1008000005E000BFFFF702FEC01B0228C4D828681D
:100810008007F7D52868616920F0F80040EAC10038
:1008200028600FE0C6F80080FFF7F0FD074606E0FD
:10083000E9E000BFFFF7EAFDC01B022823D82868C3
:100840008007F7D4207800072CD57248A169D9B168
:10085000C0F80090FFF7DAFD074604E0FFF7D6FD89
:10086000C01B02280FD8686A8007F7D56A484FF482
:10087000FA510068B0FBF1F0009000BF0098411EF3
:100880000091FAD20EE080E0C0F80080FFF7BEFDD4
:10089000074604E0FFF7BAFDC01B022875D8686A56
:1008A0008007F7D42078400760D5E8690027C000AA
:1008B00008D4E86940F08050E861E869012700F059
:1008C0008050009055480168C90513D401688346DB
:1008D00041F480710160FFF799FD824606E000BF98
:1008E000FFF794FDA0EB0A0064284ED8DBF8000067
:1008F000C005F5D5E06801280AD008B1052813D055
:10090000286A20F001002862286A20F0040002E032
:10091000286A40F001002862E06841F2883B98B103
:10092000FFF774FD82460BE0286A40F0040028625D
:10093000EEE700BFFFF76AFDA0EB0A0159455AD860
:10094000286A8007F6D50CE0FFF760FD824605E0D7
:10095000FFF75CFDA0EB0A0159454CD8286A8007D7
:10096000F6D41FB1E86920F08050E861E06988B3EF
:100970006968C1F38101022945D00228C6F8608068
:1009800004D0FFF743FD044638E034E0FFF73EFDB6
:10099000074604E0FFF73AFDC01B02282BD8286861
:1009A0008001F7D4206AB0F5803F05D16868A1685E
:1009B00020F4003008436860D4E9080108436968FE
:1009C00021F4741108436860C6F86090FFF71EFDBB
:1009D000044606E015E000BFFFF718FD001B0228E3
:1009E00009D828688001F7D50BE000BFFFF70EFD9E
:1009F000001B022802D90320BDE8F88F2868800177
:100A0000F4D40020F8E70120F6E7000000100240CF
:100A100000004242800442420C000020007000406E
:100A200010B5401EB0F1807F01D3012010BD4FF002
:100A3000E02460610F21601700F060F80020A061E1
:100A400007202061002010BDFEE70000F0B585B052
:100A5000002425480094019402940394816941F094
:100A600010018161816901F010010491816941F0F7
:100A700004018161816901F004010491816941F0FF
:100A8000080181618069194F00F00800049000227C
:100A900040F602013846FFF7B4FC03200225012688
:100AA000CDE90240CDE9005669463846FFF7B0FB74
:100AB0000F486946CDE9005002960E48FFF7A8FBA3
:100AC000A802CDE9000669463846CDE90245FFF7A0
:100AD0009FFB002211460720FFF702FD0720FFF7CA
:100AE000F3FC05B0F0BD000000100240000801401A
:100AF00000003110000C0140FEE770470907090EA5
:100B0000002806DA00F00F0000F1E02080F8141D44
:100B1000704700F1E02080F800147047704770477C
:100B2000FFF77ABC30B58FB028216846FFF723FB6A
:100B300014210AA8FFF71FFB01210804CDE90010CA
:100B40000024029402250491CDE907504FF4E010EF
:100B500009906846FFF7E2FD0F20CDE90A0568021B
:100B6000CDE90C4002210AA80E94FFF7EBFC0FB070
:100B700030BD00000D48016841F00101016041688D
:100B80000B4A1140416001680A4A11400160016846
:100B900021F480210160416821F4FE0141604FF49D
:100BA0001F0181600449C0030860704700100240C3
:100BB0000000FFF8FFFFF6FE08ED00E0FEE702E0B0
:100BC00008C8121F08C1002AFAD1704770470020D8
:100BD00001E001C1121F002AFBD17047FFF724FC7E
:100BE000FFF7A0FFFFF732FFFEE700000000000064
:100BF0000000010203040607080900001C0C00089D
:100C00000000002010000000BE0B00082C0C0008A3
:100C10001000002000040000CE0B000801000000BE
:0C0C2000100000000000000000A24A04C8
:0400000508000131BD
:00000001FF
