:020000040800F2
:10000000782A002015020008372D0008ED2300088B
:10001000352D00083D0700082D3C000800000000B9
:100020000000000000000000000000000D3A000881
:10003000A107000800000000B12D00080F3A0008D9
:100040002F0200082F0200082F0200082F020008CC
:100050002F0200082F0200082F0200082F020008BC
:100060002F020008B5070008110800082F02000839
:100070002F0200082F0200082F0200082F0200089C
:100080002F0200082F0200082F0200082F0200088C
:100090002F0200082F0200082F0200083D08000868
:1000A0002F0200082F0200082F0200082F0200086C
:1000B0002F0200082F0200082F0200082F0200085C
:1000C0002F0200082F0200082F0200082F0200084C
:1000D0002F0200082F0200082F0200082F0200083C
:1000E0002F0200082F0200082F0200082F0200082C
:1000F0002F0200082F0200082F0200082F0200081C
:100100002F0200082F0200082F0200082F0200080B
:100110002F0200082F0200082F0200082F020008FB
:100120002F0200082F0200082F0200082F020008EB
:1001300000F002F800F05FF80AA090E8000C82449A
:100140008344AAF10107DA4501D100F054F8AFF277
:10015000090EBAE80F0013F0010F18BFFB1A43F0A5
:1001600001031847F4740000147500000A444FF0AE
:10017000000C10F8013B13F0070408BF10F8014B06
:100180001D1108BF10F8015B641E05D010F8016B4B
:10019000641E01F8016BF9D113F0080F1EBF10F8AF
:1001A000014BAD1C0C1B09D16D1E58BF01F801CBD2
:1001B000FAD505E014F8016B01F8016B6D1EF9D555
:1001C0009142D6D37047000000230024002500266A
:1001D000103A28BF78C1FBD8520728BF30C148BFAA
:1001E0000B607047642900F07D80002070471FB5C8
:1001F0001FBD10B510BD00F0C1F91146FFF7F7FFA4
:1002000005F01CFA00F0DFF903B4FFF7F2FF03BCBE
:1002100000F0E2F90948804709480047FEE7FEE799
:10022000FEE7FEE7FEE7FEE7FEE7FEE7FEE7FEE7A6
:1002300004480549054A064B70470000753A000816
:100240003101000878240020782A00207826002038
:10025000782600200FB41CB5074B06AA7B446946DC
:100260000090059800F06DF90020694600F07CF9D7
:100270001CBC5DF814FB0000090300002DE9F041EF
:100280000E460446002020622046E168884730B3CD
:10029000252805D0D4E901219047206A401CF2E7C7
:1002A000E168204600278847050018D0A5F14100E5
:1002B000192802D820354FF40067324629462046D7
:1002C0002760FFF78FFF40B1012804D0F61D26F00C
:1002D00007060836D8E7361DD6E72846DAE7206A4B
:1002E000BDE8F0812DE9F04106460024106875292B
:1002F000314616A510D0AFF30080002802DA404244
:1003000013A507E031688A0701D512A502E0490765
:1003100004D511A5012401E0AFF3008000210A22D9
:1003200006F1240709E0B0FBF2FCB0FBF2F302FB9C
:100330001C00303078541846491C0028F3D123465D
:100340002A463046BDE8F04100F09CB800000000AD
:100350002D0000002B0000002000000010B5431C01
:1003600002E010F8011B71B18107FAD14FF00132A0
:1003700002C88C1A8C4314EAC211F9D0C01A0A06BA
:1003800003D0C01E10BDC01A10BD0A0401D0801ECB
:1003900010BD0902FCD0401E10BD40EA010370B53B
:1003A0009B072ED14FF00136042A2AD308C810C962
:1003B0009D1B9D43121F15EAC61517D0D8B2E1B296
:1003C000401A50EA056110D198B2A1B2401A50EA21
:1003D00005410AD123F07F4024F07F41401A50EAC2
:1003E000052102D1180EA0EB146070BDA342DBD032
:1003F00018BA21BA884201D9012070BD4FF0FF30F0
:1004000070BD0AB9002070BD10F8013B11F8014B16
:1004100063B1A3420AD1521E08D010F8013B11F873
:10042000014B1BB1A34201D1521EEDD1181B70BD6F
:100430004FF0000200B5134694469646203922BF7D
:10044000A0E80C50A0E80C50B1F12001BFF4F7AFC8
:10045000090728BFA0E80C5048BF0CC05DF804EBAA
:10046000890028BF40F8042B08BF704748BF20F818
:10047000022B11F0804F18BF00F8012B7047704716
:10048000704770472DE9F0470D469946924604465D
:1004900000F124080168880604D5E06921F0100104
:1004A000216000E00120A84201DD471B00E0002799
:1004B000A1697A1902EB0900081AA0612078C00628
:1004C00002D42046AFF30080002608E0D4E90121E1
:1004D0001AF806009047206A401C761C20624E45A0
:1004E000F4DB2078C0060AD52046AFF3008006E092
:1004F000D4E9012130209047206A401C2062381E38
:10050000A7F10107F4DC07E0D4E9012118F80500A0
:100510009047206A401C2062281EA5F10105F3DCEB
:100520002046AFF300802078000602D50220BDE807
:10053000F0870120FBE7000001694A1C026108788E
:10054000704700B58FB0CDE9013100210591054913
:100550007944CDE9031011466846FFF78FFE0FB0CE
:1005600000BD0000E5FFFFFF0A6802F8010B0A600A
:100570007047000000487047182400207546FFF7B8
:10058000F9FFAE4605006946534620F00700854650
:1005900018B020B5FFF74CFEBDE820404FF0000634
:1005A0004FF000074FF000084FF0000B21F007015B
:1005B000AC46ACE8C009ACE8C009ACE8C009ACE89E
:1005C000C0098D46704710B50446AFF30080204641
:1005D000BDE81040FFF718BE01491820ABBEFEE78A
:1005E000260002007047000070B50446006881686C
:1005F000C943C9071CD1816821F00101816000F065
:10060000F3FD05460FE000BF00F0EEFD401B0228A1
:1006100009D9A06A40F01000A062E06A40F0010031
:10062000E062012070BD20688068C043C007EBD045
:10063000002070BDF8B50026044600960068816869
:10064000C943C90728D0816841F00101816013487E
:1006500013490068B0FBF1F000E0401E0090002854
:10066000FBD100F0C1FD054611E000BF00F0BCFD6C
:10067000401B02280BD9A06A40F01000A062E06A7B
:1006800040F00100E06284F824600120F8BD206899
:100690008068C043C007E9D10020F8BD58010020A0
:1006A00040420F000146014801F09FBBEC220020B0
:1006B00010B5044801F0ABFB042801D0012010BDA7
:1006C000002010BDEC22002038B501208DF800007C
:1006D0009DF80000012801D0012038BD064801F036
:1006E000ACFB040006D14FF40061034801F054FA5A
:1006F00000B10124204638BDEC22002038B500248A
:10070000009313460A460146034801F01DFC00B160
:100710000124204638BD0000EC22002038B500241A
:10072000009313460A460146034801F0E7FC00B176
:100730000124204638BD0000EC220020FEE7000026
:1007400010B50446104800F00FFA06F073F80022C6
:100750000E4B05F097FE05F0AFFD06F067FA024676
:100760000B4600200A4905F08DFE0022094B06F0D9
:1007700073F90022084B06F071F805F09DFD07495A
:1007800006F080FA206010BD0822002000E08540BD
:10079000000014400000F03F0088C3400000CE413C
:1007A000704701B5009801E0401E00900028FBD181
:1007B00008BD000070B5124A106800071AD511482C
:1007C000037808211BB10378012B0AD00EE00E4CF0
:1007D000102363610D4D2960012606702960236195
:1007E00004E00A4B1B1D19600223037011600820EE
:1007F00000F0EEFBBDE87040082000F0EBBB00000D
:1008000014040140D90000200010014010140140E0
:10081000084810B50168C90607D5074A01211170BB
:1008200010210160084600F0D3FBBDE81040102005
:1008300000F0D0BB14040140000000204FF4807091
:1008400000F0C8BB002200F001B8000030B50E4B2C
:10085000054601205C7A012C15D8587A00241C54D6
:10086000587A03EB800045605D7A03F108002A5452
:10087000587A421C5A72303008703A2048702F2043
:100880008870CC70002030BD0C24002030B5B3F54A
:10089000804F05D06FF0704140F82210002030BD2D
:1008A0008C690B688D6823434C688989240144EA6C
:1008B0000524234343EA014150F82230014C2340F0
:1008C0001943E9E70000F0CF30B50A6850F822304C
:1008D00023F0010340F822308C68204B4A68082C32
:1008E0001ED02243D1E903452C4322434C692243C5
:1008F0008C692243CC6922430C6A22434C6A22430E
:100900008C6A2243CC6A22430C6B0968224350F85C
:1009100021401C4052EA040240F82120002030BD52
:10092000D1E9034542F008022C4322434C6922439B
:100930008C692243CC6922430C6A22434C6A2243CD
:100940008C6A2243CC6A22430C6B0968224350F81C
:1009500021401C40224342F04002DDE78100F7FFC6
:1009600030B5D1E9003443EA04138C688D89240240
:1009700044EA054423430C8A094D00EB820005EB51
:10098000045423430C7D6D0105EB04648969234302
:100990000B43416801F040410B434360002030BDF0
:1009A0000000F0FFF8B500250446009590F82400FB
:1009B000012808D0012084F824002046FFF714FE07
:1009C000060002D04BE00220F8BDA06A20F4885057
:1009D00040F00200A062022000F070FD2249096888
:1009E000B1FBF0F0400000E0401E00900028FBD179
:1009F0002046FFF71FFE2068816841F008018160F2
:100A000000F0F2FB074604E000F0EEFBC01B0A28F2
:100A100011D8206880680007F6D42068816841F00A
:100A20000401816000F0E0FB07460EE000F0DCFB13
:100A3000C01B0A2809D9A06A20F0020040F010006B
:100A4000A06284F824500120F8BD20688068400727
:100A5000ECD4A06A20F0020040F00100A06284F80B
:100A600024503046F8BD000058010020F8B500249D
:100A7000009490F824202546012A12D0012280F803
:100A800024204A681F23072A0DD20668776B521E5E
:100A900002EB820293409F430B6893401F437763AE
:100AA00019E00220F8BD06680D2A0AD2376BD21F62
:100AB00002EB820293409F430B6893401F433763CE
:100AC00009E0F76A0D3A02EB820293409F430B68FC
:100AD00093401F43F7620A68072306680A2A0AD36D
:100AE000F7680A3A02EB420293409F438B689340B7
:100AF0001F43F76008E0376902EB420293409F43CF
:100B00008B6893401F4337610A68102A01D0112A6D
:100B100020D1124B02689A4217D193681B0219D454
:100B2000936843F4000393600968102912D10C49BB
:100B30000C4A0968B1FBF2F101EB8101490000E0C8
:100B4000491E00910029FBD104E0816A41F0200197
:100B50008162012480F824502046F8BD0024014021
:100B60005801002040420F000068C06C7047000030
:100B70002DE9F04104004FF000057FD0A06A002667
:100B800028B9E66284F82460204600F081F8204607
:100B9000FFF72AFDA16AC90600D420B1A06A40F07F
:100BA0001000A0626AE0A16A21F4885141F00201BC
:100BB000A162334923688B42E16904D1B1F5402F2A
:100BC00001D14FF40021E7684FF4807C41EA4702ED
:100BD00061680A43A168614508D0012906D0002157
:100BE000D4F814E0BEF1010F02D00AE06146F7E745
:100BF000C7B1A76A47F02007A762E76A47F0010775
:100C0000E7625F6827F469470F435F60236899686C
:100C10001C4F394011439960A16861450BD00129EF
:100C200009D00CE0DFF860E0A7690EEB47370F430F
:100C300047F40061E5E7218A0D05A5F580152168D7
:100C4000CB6A23F470032B43CB62216889680F4B76
:100C50001940914208D1E662A16A21F0020141F0F7
:100C60000101A162BDE8F081A06A20F0020040F01D
:100C70001000A062E06A40F00100E0620120F1E7AC
:100C8000003C0140FDF7E1FF00E0FFFFFE0E1FFF0B
:100C900030B585B000210091019102910391274C5C
:100CA0000368274903222748A34214D18B6943F4E0
:100CB00000738B618B6903F4007304938B6943F0B9
:100CC00010038B61896901F0100104910121CDE9C4
:100CD0000012694616E01C4D0224AB4216D1886909
:100CE00040F480608861886900F4806004908869BD
:100CF00040F0080088618869694600F008000490A7
:100D0000124817E000F072F905B030BD104DAB424B
:100D1000FAD18B6943F400438B618B6903F4004380
:100D200004938B6943F010038B61896901F0100112
:100D300004916946CDE90042E4E700000024014047
:100D4000001002400010014000280140000C01404A
:100D5000003C01402DE9F84300260D46044600966C
:100D600000F042FA804620688168C90508D5A06A6B
:100D700040F02000A06284F824600120BDE8F883E0
:100D80004168C90503D4C06A10F4700F26D0022050
:100D900000F094FB38490968B1FBF0F7206803695B
:100DA00036490B424FEA61014FEAA1121BD1C368D9
:100DB0004FEA611C13EA0C0F15D103690B4221D1D4
:100DC000C06810421ED114201FE0681C06D045B335
:100DD00000F00AFAA0EB0800A84222D820680068B8
:100DE0008007F2D52AE003690B4202D1C1681142A3
:100DF00006D0026922490A4206D1C068084203D1DE
:100E0000542002E0292000E0FC204743009813E032
:100E1000681C0ED02DB100F0E7F9A0EB0800A84245
:100E200007D9A06A40F00400A06284F8246003207F
:100E3000A4E70098401C0090B842E9D321686FF005
:100E400012000860A06A40F40070A0622068806808
:100E5000C0F3424007280CD1E06850B9A06A20F4E2
:100E60008070A062A06AC00403D4A06A40F00100B0
:100E7000A062002082E7000058010020244992244B
:100E80004992240070B5044690F8240001280DD042
:100E9000012084F824002046FFF7CCFB02004FF02D
:100EA000000005D084F82400104670BD022070BDFB
:100EB000A16A40F20123994341F48071A1621F4D60
:100EC00023681F49AB4218D10E6816F4702F14D056
:100ED000A66A46F48016A6620E68760505D5A66A4F
:100EE00026F4005646F48056A662A66AF6040AD591
:100EF000E66A26F00606E66206E0A66A26F4801692
:100F0000A6625E68E9E7E06284F824006FF0020000
:100F1000186020688368C3F34243072B05D1A842B9
:100F200008D1096811F4702F04D0816841F4801150
:100F30008160B9E7816841F4A001F9E70028014028
:100F40000424014070B5044600F04EF90546601CCB
:100F500002D004480078044400F046F9401BA04247
:100F6000FAD370BD4C01002030B585B00020009050
:100F70000190029003901248016800291ED10121BE
:100F800001601048416941F4807141614069022467
:100F900000F4807004904FF68070CDE900040325C2
:100FA00069460395084800F021F84CF6B370CDE986
:100FB000000469460395054800F018F805B030BDF7
:100FC00044010020001002400018014000140140BC
:100FD00070470000044910B50A68024202D0086058
:100FE000FFF7F6FF10BD0000140401402DE9F84F93
:100FF000DFF8B8A100220AF1040B144601274FF0D4
:101000000F090BF1040E00BF0B6807FA04F52B4023
:10101000AB4274D1DFF898C14E68A6EB0C08664568
:101020002BD00DDC032E34D005DC36B3012E19D0C5
:10103000022E2FD11BE0112E16D0122E2AD119E02C
:10104000B8F5881F19D006DCB8F5803F15D0B8F583
:10105000801F1FD111E0B8F5001F0ED0B8F5041F96
:1010600018D10AE0CA6815E0CA68121D12E0CA6801
:1010700008320FE0CA680C320CE08A682AB1012AF3
:101080004FF0080203D0456104E0042202E005614C
:1010900000E00022FF2B01D8064601E000F1040623
:1010A0004FEA840501D9A5F12005D6F800C009FA58
:1010B00005F82CEA080C02FA05F54CEA050CC6F80E
:1010C00000C04D68ED006AD53A4DAE6946F00106A4
:1010D000AE61AD6924F0030605F001050095364DBB
:1010E00006EB050CDCF80850A6074FEA167809FA5B
:1010F00008F6B543314EB04202D100261AE04EE068
:101100002F4EB04201D1012614E02E4EB04201D143
:1011100002260FE02C4EB04201D103260AE02B4EEE
:10112000B04201D1042605E0294EB04201D1052686
:1011300000E0062606FA08F62E43CCF808604D6853
:10114000DAF80060ED03554601D51E4300E09E43EA
:101150002E604D68AD0305D5DBF800601E43CBF86B
:10116000006004E0DBF800509D43CBF800504D6870
:10117000DEF80060ED02754601D51E4300E09E4397
:101180002E604D68AD0205D5084D0C352E681E4306
:101190002E6004E0054E0C3635689D433560641CB6
:1011A000102CFFF431AFBDE8F88F000000040140BF
:1011B0000000111000100240000001400008014032
:1011C000000C0140001001400014014000180140D3
:1011D000001C01408068084000D0012070470AB11F
:1011E000016170470904FBE701488068704700000F
:1011F0004C01002070B504001BD094F83D00002580
:1012000020B984F83C50204600F094F8242084F85B
:101210003D002068016821F00101016000F0E4FA5E
:10122000404A6168914201D83F4900E03F49884205
:1012300001D2012070BD3E492368B0FBF1F1596035
:101240006368934206D94FF4967359434FF47A7307
:10125000B1FBF3F12368491C19626168914210D80F
:101260004900401EB0FBF1F2521CC2F30B02042AEB
:1012700001D2042022E0B0FBF1F0401CC0F30B00CF
:101280001CE0A368CBB301EBC10202EB0116421EC6
:10129000B2FBF6F2521C42F48042120536D06BB318
:1012A00001EBC10202EB0111401EB0FBF1F0401C4A
:1012B000C0F30B0040F4804040F400402168C86156
:1012C000D4E90701084321680860D4E90310084302
:1012D00021688860D4E9050108432168C860206856
:1012E000016841F0010101602564202084F83D007F
:1012F000256384F83E50002070BD00E008E001EB5B
:101300004106421EB2FBF6F2521CC6E70120D5E7A9
:1013100001EB4101401EB0FBF1F0401CC0F30B009B
:10132000CAE70000A086010080841E0000093D007D
:1013300040420F0010B586B000210091019102914A
:10134000039100680F4988421AD10F4CA06940F000
:101350000800A061A069694600F008000490C02060
:10136000009012200190032003900848FFF73EFEF2
:10137000E06940F40010E061E06900F400100490BE
:1013800006B010BD0054004000100240000C0140A7
:101390000248816802781144816070474C01002046
:1013A000074810B5016841F010010160032000F00A
:1013B00073F8002000F006F800F024F8002010BDBB
:1013C0000020024070B50D4D04464FF47A71287824
:1013D000B1FBF0F00A490968B1FBF0F000F088FFBA
:1013E00048B9102C07D200222146501E00F034F8D4
:1013F00000206C6070BD012070BD00004C01002019
:10140000580100200C4808B5816941F00101816153
:10141000816901F001010091C16941F08051C16110
:10142000C06900F0805000900448416821F0E061FC
:1014300041F00071416008BD001002400000014011
:1014400000F01F02012191404009800000F1E020DE
:10145000C0F8001170470000F0B40E4B1B680C463A
:10146000C3F30223C3F10705042D00D90425191D78
:10147000072901D2002300E0DB1E012606FA05F150
:10148000491E214099409E40761E16403143F0BCD3
:1014900001F052BC0CED00E0064900F007020868BC
:1014A0004FF6FF03184040EA0220034A1043086049
:1014B000704700000CED00E00000FA0510B52CA408
:1014C00001461DCC86B08DE81D002DA02D4C006876
:1014D0000490002004292FD00BDC01292FD00229F1
:1014E00028D100F091F96168C1F38131491C4900AC
:1014F0001EE0082920D010291CD161682268D20181
:1015000018D5C1F38342C9031DF8020009D56168EB
:1015100004AAC1F34041515C1B4AB2FBF1F14843BC
:1015200001E01A4948436168490203D4400003219D
:10153000B0FBF1F006B010BD00F076F9FAE7226AD0
:10154000C2F30121012903D1920701D5C803F1E7B4
:10155000022905D1626A920702D549F64040E9E7BF
:101560000329E7D121688903E4D54FF22440E1E75C
:1015700002030405060708090A0B0C0D0E0F1010D4
:10158000010200000010024000127A0000093D0034
:101590002DE9F84305460078354CC00754D0E06982
:1015A0000026C00008D4E06940F08050E061E069A6
:1015B000012600F0805000902E480168C90512D421
:1015C0000168804641F480710160FFF70DFE074617
:1015D00005E000BFFFF708FEC01B642823D8D8F839
:1015E0000000C005F6D5206A10F4407021D0A9880B
:1015F00001F4407181421CD0206A1F49012220F46D
:1016000040700A6000220A602062C00711D0FFF714
:10161000EBFD074641F2883808E000BFFFF7E4FD24
:10162000C11B414502D90320BDE8F883206A800729
:10163000F4D5206A696820F44070084320621EB126
:10164000E06920F08050E0612878800705D5606867
:10165000A96820F44040084360602878C00605D59A
:101660006068696920F48000084360600020DBE75F
:101670000010024000700040400442422DE9F04753
:10168000DFF8548105460E46D8F8000000F0070048
:10169000B0420CD2D8F8001021F007013143C8F84D
:1016A0000010D8F8000000F00700B0426FD12868A1
:1016B0004A4C810712D5400703D5606840F4E060CA
:1016C00060602878000703D5606840F4605060606F
:1016D0006068A96820F0F000084360602878C007BF
:1016E00044D06868012816D02168022816D08907DE
:1016F00000294CDA616821F0030101436160FFF7C2
:1017000073FD6968074641F2883001290ED002292D
:10171000814618D026E021688903E9E78901E7E7D7
:10172000FFF762FDC11B494501D918E08146606899
:10173000C0F381000128F3D118E000BFFFF754FD8A
:10174000C11B49450BD86068C0F381000228F5D160
:101750000CE000BFFFF748FDC11B494502D903203B
:10176000BDE8F087606810F00C0FF3D1D8F80010D6
:10177000404601F00701B1420BD9016821F0070191
:1017800031430160006800F00700B04201D0012041
:10179000E6E72878400705D56068E96820F4E0604E
:1017A000084360602878000706D56068296920F43E
:1017B000605040EAC100606000F036F86168084A95
:1017C000C1F30311515CC840064908600020FFF7CF
:1017D000F9FD0020C4E70000002002400010024094
:1017E0008E740008580100200448054900684968C3
:1017F000044AC1F30221515CC840704758010020DF
:10180000001002409E7400080448054900684968B9
:10181000044AC1F3C221515CC840704758010020FE
:10182000001002409E74000812A185B00FC98DE817
:101830000F0014A0144A006804905168134801F086
:101840000C03042B10D0082B0ED1C1F38343C90322
:101850001DF803000AD5516804AAC1F34041515C48
:101860000A4A5043B0FBF1F005B0704708494843BD
:10187000FAE7000002030405060708090A0B0C0D2D
:101880000E0F1010010200000010024000127A003A
:1018900000093D002DE9F84F04460078B94DC00716
:1018A00048D06868C0F38100012807D06868C0F399
:1018B0008100022809D16868C00306D52868800322
:1018C00038D5606800286FD034E06068B0F5803F9C
:1018D0000BD010B1B0F5A02F11D0286820F48030C3
:1018E0002860286820F4802002E0286840F48030D6
:1018F0002860606888B1FFF777FC064609E0286831
:1019000040F480202860F0E7FFF76EFC801B64281D
:1019100075D828688003F7D50CE0FFF765FC06460C
:1019200005E000BFFFF760FC801B6428F0D8286842
:101930008003F7D42078944E80074FF001094FF0D0
:1019400000083BD5686810F00C0F07D06868C0F33A
:101950008100022809D16868C00306D4286880077E
:1019600014D5206901281FD110E02069B0B1C6F854
:101970000090FFF739FC074605E000BFFFF734FC95
:10198000C01B0228C4D828688007F7D52868616979
:1019900020F0F80040EAC10028600FE0C6F800809F
:1019A000FFF722FC074606E0E9E000BFFFF71CFC5A
:1019B000C01B022823D828688007F7D420780007A6
:1019C0002CD57248A169D9B1C0F80090FFF70CFC82
:1019D000074604E0FFF708FCC01B02280FD8686A1E
:1019E0008007F7D56A484FF4FA510068B0FBF1F070
:1019F000009000BF0098411E0091FAD20EE080E0F6
:101A0000C0F80080FFF7F0FB074604E0FFF7ECFBAF
:101A1000C01B022875D8686A8007F7D42078400771
:101A200060D5E8690027C00008D4E86940F080501C
:101A3000E861E869012700F080500090554801688E
:101A4000C90513D40168834641F480710160FFF732
:101A5000CBFB824606E000BFFFF7C6FBA0EB0A0007
:101A600064284ED8DBF80000C005F5D5E0680128F1
:101A70000AD008B1052813D0286A20F00100286296
:101A8000286A20F0040002E0286A40F00100286281
:101A9000E06841F2883B98B1FFF7A6FB82460BE075
:101AA000286A40F004002862EEE700BFFFF79CFBC5
:101AB000A0EB0A0159455AD8286A8007F6D50CE0F0
:101AC000FFF792FB824605E0FFF78EFBA0EB0A01D1
:101AD00059454CD8286A8007F6D41FB1E86920F030
:101AE0008050E861E06988B36968C1F38101022927
:101AF00045D00228C6F8608004D0FFF775FB044685
:101B000038E034E0FFF770FB074604E0FFF76CFBBA
:101B1000C01B02282BD828688001F7D4206AB0F5B2
:101B2000803F05D16868A16820F4003008436860F0
:101B3000D4E908010843696821F474110843686016
:101B4000C6F86090FFF750FB044606E015E000BFC2
:101B5000FFF74AFB001B022809D828688001F7D547
:101B60000BE000BFFFF740FB001B022802D9032057
:101B7000BDE8F88F28688001F4D40020F8E7012040
:101B8000F6E700000010024000004242800442429A
:101B90005801002000700040FEB5044603200D46A9
:101BA00084F83400606C032820D0B5F5805F1DD028
:101BB000B5F5006F05D045B1A06B40F00060A063A3
:101BC00009E0204601F077FE02E0204601F04CFEDD
:101BD000A16B0143A163A06B012658B1216840F2BB
:101BE000FF50886384F834600120FEBDA06B40F094
:101BF0008050E4E7211DD4E905700EC90095CDE9B8
:101C00000170206801F0EEF984F834600020FEBD18
:101C1000F0B5426E120E93090B70C2F383034B7042
:101C200002F003028A70426E120CCA70B0F864208F
:101C3000120A0A7190F864204A71826E4FF6FF739F
:101C4000120E03EA0212CA80826ECB88C2F30742E8
:101C500043EA1213CB8002F00F020A72B0F8682038
:101C6000C2F30722D3094B72C2F380138B72C2F303
:101C70004013CB72C2F300130B7300264E73446CF7
:101C80004FF4007701236CB1012C43D0026840F27D
:101C9000FF519163816B41F08051816380F8343052
:101CA0000120F0BD9207120D0A6190F868200C69BE
:101CB00044EA82020A61C26E0C69120E44EA92146E
:101CC0000C61C2F3C2040C7502F007024A75C26EC1
:101CD000C2F3074254098C75C2F38204CC75920793
:101CE000520F0A76B0F86C20C2F307240A7E42EA4B
:101CF000D4120A760A69521C42650D7EAD1CAA40B8
:101D000042650D7A03FA05F585656D0A6A43C0E9F7
:101D100017271CE090F868209206920A0A61C26EAA
:101D20000C69120E44EA02220A61C26E0C69C2F307
:101D3000074214430C61B0F86C20C2F307240A690F
:101D4000521C4FEA82224265C0E916720766C4F34C
:101D5000801201F8192F4FEA84624FEA52624A70EA
:101D600010F86C2F4C7844EAD2144C7002F07F02C9
:101D70008A7042684FEA12624FEAD214CC70C2F302
:101D800041140C71C2F382044C714FEA82724FEA23
:101D900012728A7142688C79C2F3074244EA921443
:101DA0008C71C2F34014CC710E7202F001024A72BF
:101DB0008288C2F307224FEAD2148C72C2F38014D5
:101DC000CC72C2F340140C73C2F300144C73C2F310
:101DD00081048C7302F00302CA7300794FEA500049
:101DE00008744B744FF00000F0BD426C0A60826CC6
:101DF0004A60C26C8A60026DCA60426D0A61826D7F
:101E00004A61C26D8A61006EC8610020704770B57A
:101E10000446B0F8500000250104206801F061FA82
:101E200018B1A16B0143A16304E00021206801F017
:101E3000D3F80546C5F3432070BD70B5040004D047
:101E400094F83400002510B105E0012070BD25771D
:101E5000204600F037F8032084F83400204600F0D4
:101E600007F8A5632563012084F83400002070BDC5
:101E7000FEB500250446C3200095CDE901502B4650
:101E80002A462946206801F0ADF80D4E46F8A05FBD
:101E9000206801F0B9F8012535600220FFF752F8FB
:101EA000204601F090FC20B9204601F019FC0028E2
:101EB00005D084F83450A16B0143A1630120FEBD1D
:101EC0000000304230B585B00021009101910291AF
:101ED00003910068184988422BD11848416941F4A0
:101EE00080614161416901F480610491816941F03F
:101EF00010018161816901F010010491816941F053
:101F0000200181618069022400F0200004904FF4D8
:101F1000F850CDE900040325694603950848FFF70A
:101F200065F80420CDE90004694603950548FFF7EC
:101F30005DF805B030BD0000008001400010024097
:101F400000100140001401402DE9F04F87B09A467F
:101F500017460E460446DDF840B0FFF745F90090FD
:101F60003EB194F83400012807D0A06B40F0005037
:101F70000FE0A06B40F000600BE04FF00008C4F8E9
:101F80003880E06D07EB0A01814204D9A06B40F074
:101F90000070A0637DE0032084F834002068C0F85E
:101FA0002C80606C012800D07F024FF40071206803
:101FB00001F07AF840F2FF59012530B12268C2F8E9
:101FC0003890A16B0143A16361E04FF0FF300190B5
:101FD0004FEA4A200290902003900220CDE90408A5
:101FE000069501A9206800F0E1FFBAF1010F06D9BA
:101FF000022020633946206801F0E4F804E02563FC
:102000003946206801F0F7F80028D7D140F22A3885
:102010002068416B11EA080F22D1406B000409D5FA
:102020000027206800F0F4FF46F827007F1C082FE7
:10203000F7D32036BBF1000F05D0FFF7D5F8009994
:10204000411A5945E4D32168C1F83890A06B40F09B
:102050000040A06384F83450032007B0BDE8F08F3F
:10206000416BC90509D5BAF1010F06D9616C032985
:1020700003D001F067F90028A0D12068416B09075F
:1020800009D5C0F83890A06B40F0080028E084F82B
:1020900034500120E1E7416B890705D5C0F838903D
:1020A000A06B40F002001BE0416B89061AD5C0F816
:1020B0003890A06B40F0200012E000BF00F0A8FFB5
:1020C00001C6BBF1000F05D0FFF78EF80099411A49
:1020D000594507D32168C1F83890A06B40F0004003
:1020E000A063D4E72068416B8902E7D42168C1F876
:1020F000389084F834500020AFE700002DE9F04F0D
:1021000087B09A4616460D460446FFF76DF80690CE
:102110003DB194F83400012807D0A06B40F0005086
:102120000DE0A06B40F0006009E00020A063E26DCC
:1021300006EB0A01914204D9A06B40F00070A06345
:1021400090E0032184F8341021688146C862606CF5
:10215000012800D076024FF40071206800F0A4FF3F
:1021600040F2FF58012730B12268C2F83880A16BD5
:102170000143A16317E0BAF1010F06D920202063C3
:102180003146206801F0F8F805E010202063314660
:10219000206801F00AF9060008D02168C1F83880EB
:1021A000A06B3043A06384F834705BE04FF0FF30E5
:1021B00000904FEA4A200190902002904846CDE9D5
:1021C0000407CDF80C90B9466946206800F0EEFE91
:1021D00040F21A3B22E0406B40040AD55FF0000752
:1021E00005EB8701206800F026FF7F1C082FF7D33E
:1021F0002035109830B1FEF7F7FF0699411A109874
:1022000081420BD32168C1F83880A06B3043A063B2
:1022100084F83490032007B0BDE8F08F2068416B4C
:1022200011EA0B0FD7D0416BC9050FD5BAF1010FD9
:102230000CD9616C032909D001F084F830B122680F
:10224000C2F83880A16B0143A16309E02068416BAB
:10225000090709D5C0F83880A06B40F0080014E0E9
:1022600084F834900120D6E7416B890705D5C0F882
:102270003880A06B40F0020007E0416BC0F8388066
:10228000C90604D5A06B40F01000A063E8E784F80D
:1022900034900020BFE770B515460E46040003D009
:1022A00094F83D0010B107E0012070BD002084F8D3
:1022B0003C00204600F01AF804F108012068FEF7FF
:1022C00003FB3146A2682068FEF74AFBD4E901020D
:1022D0002946236BFEF7DAFAA168206850F821201E
:1022E00042F0010240F82120002070BDFEF73CBE04
:1022F00010B5401EB0F1807F01D3012010BD4FF01A
:10230000E02460610F21601700F016FD0020A0613D
:1023100007202061002010BD70B5040004D094F89F
:102320003900002510B106E0012070BD84F8385056
:10233000204600F023F8242084F839002068C16882
:1023400021F40051C160204601F0B8FB206801690A
:1023500021F4904101612068416921F02A01416125
:102360002068C16841F40051C160E563202084F811
:10237000390084F83A00002070BD000030B585B007
:102380000024009401940294039400681449884244
:1023900024D11448816941F480418161816901F44B
:1023A00080410491816941F00401816180690E4D91
:1023B00000F0040004904FF400700090022001909F
:1023C0000320039069462846FEF710FE2815CDE944
:1023D0000004694628460294FEF708FE05B030BDA9
:1023E000003801400010024000080140FEE70000F4
:1023F000044B4FF4805108B1002200E0012218463E
:10240000FEF7EDBE001401403620010708800B489E
:10241000682202802A220A80002202800280012291
:1024200002803F2202802B220A800022028002804A
:102430000280EF2202802C2008807047000002609A
:1024400070B51D461446049E00F01AF904FB05F011
:102450003146BDE8704000F0ADB8000070B5203ADC
:10246000D4B21023082200F00BF92C20C1060880FA
:102470000C490D4B01EB041500204FF6FF742A5C4C
:102480000021D60702D01F261E8000E01C80491CB8
:102490005208C9B20829F4D3401CC0B21028EED3A8
:1024A00070BD00009E6E000800000260F0B5203A8A
:1024B0001C46D6B210230822059D00F0E1F82C201E
:1024C000C10608800A490B4B002001EB06160021CB
:1024D000325CD70701D01D8000E01C80491C5208E7
:1024E000C9B20829F5D3401CC0B21028EFD3F0BD03
:1024F0009E6E00080000026078B504464FF47846EE
:102500000A380D4680B2012314220096FFF798FF87
:102510000A3DA9B21423012220460096FFF790FF3E
:1025200078BD0000F0B516460D4604464FF4A0777E
:1025300014E000BF04F10800F02802D9002410358F
:10254000ADB205F11000B84201D900242546294654
:102550002046FFF783FF0834A4B2761C3278002AA5
:10256000E8D1F0BD2DE9F843994616460D460446DC
:102570004FF4A077DDF8208017E000BF04F10800D9
:10258000F02802D900241035ADB205F11000B84290
:1025900001D9002425464B4629462046CDF8008027
:1025A000FFF784FF0834A4B2761C3278002AE5D104
:1025B000BDE8F88310B500222C23DC062380034BF2
:1025C00001E01980521C8242FBD310BD0000026062
:1025D00020494FF0C042012806D0022808D0032825
:1025E0000ED0042809D120E036201080C8201FE03A
:1025F00036201080682006E008802C20108070476C
:1026000036201080282008802A2010800020088092
:102610000880012008803F2008802B2010800020A7
:10262000088008800880EF20E6E7362010804820E8
:1026300008802A2010800020088008800880EF2071
:1026400008802B201080002008800880012008804E
:102650003F20D1E70000026008B50120FFF7C8FE67
:1026600000F0EAF800F02CF84FF6FF70002100901F
:102670004FF4A073F0220846FFF7E2FE08BD000009
:1026800070B54FF0C0452A242C800C4C060A2680D9
:10269000C6B226801044401E020A2280C0B22080AA
:1026A0002B202880080A2080C8B22080C818401E2D
:1026B000010A2180C0B2208070BD000000000260CD
:1026C00000B54FF0C041CF20088059480022028059
:1026D0008122028030220280ED220A806422028060
:1026E000032202801222028081220280E8220A80D4
:1026F000852202801022028078220280CB220A806A
:10270000392202802C2202800022028034220280A0
:1027100002220280F7220A8020220280EA220A8016
:10272000002202800280B1220A80002202801B2245
:102730000280B6220A800A220280A2220280C022DF
:102740000A8035220280C1220A8011220280C5221D
:102750000A80452202800280C7220A80A2220280CB
:10276000F2220A800022028026220A8001220280B0
:10277000E0220A800F220280262202802422028088
:102780000B2202800E220280092202805422028043
:10279000A8220280462202800C2202801722028098
:1027A000092202800F22028007220280002202807A
:1027B000E1220A8000220280192202801B2202806C
:1027C0000422028010220280072202802A22028034
:1027D00047220280392202800322028006220280E0
:1027E000028030220280382202800F2202803622AC
:1027F0000A80C82202802A220A80002202800280E7
:102800000280EF2202802B220A80002202800280B6
:10281000012202803F2202803A220A805522028051
:10282000112008800348FDF7BCFF2920088000BD67
:1028300000000260FCBF020070B50A4C00220221B9
:102840002046FEF7CCFC084D2846FDF7AAFF0122E2
:1028500002212046FEF7C3FC2846BDE87040FDF784
:10286000A0BF000000180140FCBF02000149088021
:10287000704700000000026038B54FF6FF75002178
:102880004FF4A073F02208460095FFF7D9FD1F24EE
:102890002B4626A20A211E200094FFF763FE1E236A
:1028A000E622194605200094FFF7CAFD2B4625A213
:1028B00024211C200094FFF755FE1E23E62246210A
:1028C00005200094FFF7BCFD2B4624A24C211920C3
:1028D0000094FFF747FE1E23E6226E210520009498
:1028E000FFF7AEFD2B4624A2742105200094FFF7CC
:1028F00039FE1E23E622962105200094FFF7A0FD55
:102900002B4625A29C2132200094FFF72BFE1E238C
:10291000E622BE2105200094FFF792FD2B4623A25C
:10292000C42137200094FFF71DFE38BD486F6D6548
:102930002050726F74656374696E67205379737485
:10294000656D0000536574206E65772F4368616E76
:1029500067652070617373776F7264005265676991
:1029600073746572206E65772066696E6765727034
:1029700072696E740000000044656C6574652072B5
:102980006567697374657265642066696E676572F0
:102990007072696E7400000050686F746F73206904
:1029A0006E205344206361726400000053656E73AF
:1029B0006F72732052656164696E67003EB50021D5
:1029C0000E48009101910C4A029102600124C0E975
:1029D000021441614FF460220461C2614160FEF75C
:1029E000C7F80A20CDE90004052002906946034893
:1029F000FEF73CF83EBD0000002401400822002004
:102A00003EB500210E48009101910C4A02910260EE
:102A10000124C0E9021441614FF460220461C261E3
:102A20004160FEF7A5F80920CDE9000405200290D9
:102A300069460348FEF71AF83EBD00000028014031
:102A4000382200203EB500210E48009101910C4A29
:102A5000029102600124C0E9021441614FF4602236
:102A60000461C2614160FEF783F80B20CDE90004E8
:102A70000520029069460348FDF7F8FF3EBD0000BF
:102A8000003C01406822002010B504490448FDF7CD
:102A9000D9FE0249491E087010BD00003D0100200A
:102AA0005475000800B587B01C216846FDF7C0FCCE
:102AB00015484FF020411022016014494160002167
:102AC0008160C160C0E904128161C16113020162C9
:102AD000C0E90913C1620163416381630F20FF23D1
:102AE0000090CDE90103CDE903021120CDE90501F4
:102AF000002269460448FFF7CEFB0548C16941F44E
:102B00008061C16107B000BDB0230020040100A0B6
:102B1000000001402DE9F04F85B000247D4800946D
:102B2000019402940394816941F0400181618169BB
:102B300001F040010491816941F0100181618169D6
:102B400001F010010491816941F004018161816902
:102B500001F004010491816941F0080181618169FA
:102B600001F008010491816941F0200181618069CF
:102B7000DFF8A49100F020000490002207214846CD
:102B8000FEF72DFB0022FE216448FEF728FBDFF84C
:102B900090B10022F0215846FEF721FB00222121AE
:102BA0006048FEF71CFBDFF880A143F20808002212
:102BB00041465046FEF713FB072001250326CDE9C9
:102BC0000005CDE9024669464846FEF70FFA68203F
:102BD0008DE8310069464846FEF708FA534F102049
:102BE000CDE90007694602954846FEF7FFF96803FC
:102BF000CDE90004694658460294FEF7F7F908202B
:102C0000CDE90007694602945846FEF7EFF9CDE991
:102C10000054694641480294FEF7E8F90227CDE9DD
:102C20000075CDE9025669463C48FEF7DFF90C20F5
:102C3000CDE90005CDE9024669463848FEF7D6F9E8
:102C4000F020CDE90005CDE9024769463348FEF79B
:102C5000CDF93020CDE90005CDE902466946584658
:102C6000FEF7C4F92120CDE90005CDE90246694609
:102C70002C48FEF7BBF904208DE83100694629484D
:102C8000FEF7B4F94FF47F40CDE9000469462548CA
:102C90000294FEF7ABF9CDF800800396CDE901541C
:102CA00069465046FEF7A2F9C020009001AA112003
:102CB00082E8510069465846FEF798F928020090CC
:102CC0001B48CDE9010469461448FEF78FF9280333
:102CD0008DE8310069461148FEF788F90022114657
:102CE0000920FEF7B9FB0920FEF7AAFB00221146D6
:102CF0000A20FEF7B1FB0A20FEF7A2FB00221146D4
:102D00001720FEF7A9FB1720FEF79AFB05B0BDE8D8
:102D1000F08F000000100240001801400008014040
:102D200000100140000C014000140140000021107F
:102D300000001110FEE770470907090E002806DAA7
:102D400000F00F0000F1E02080F8141D704700F142
:102D5000E02080F800147047F8B500248DF800409A
:102D60008021122000F0FCF800280BD00B2201215A
:102D7000684600F01FF8002804D09DF800002128C4
:102D800001D00020F8BD094D6E1E0AE005EB44009D
:102D9000417815F8140000F0E3F80028F2D0641C24
:102DA000A4B230788442F1D30120F8BD390000206C
:102DB000704700002DE9F04714468846814600F030
:102DC00081F800281DD0422000F05AF800F0AEF83B
:102DD000A0B1204600F054F800F0A8F800F092F8F6
:102DE00000F070F800280CD0432000F049F800F003
:102DF0009DF8224C4FF0800A402698BB00F082F8E4
:102E00000020BDE8F0870025C4F810A00727680659
:102E1000050E666100F0C3F8266100F0C0F880215D
:102E20002046FEF7D7F908B145F001057F1EFFB235
:102E3000EDD2666189F80050B8F1010F666118D0D3
:102E400000F0ADF8C4F814A000F0A9F8266100F075
:102E5000A6F8666100F0A3F8A8F1010009F10109E4
:102E60001FFA80F8B8F1000FCDD100F04BF8012027
:102E7000C7E700F094F8C4F810A0E5E7001001409F
:102E80002DE9F041082507464FF0800840260C4CFC
:102E90000FE000BF00F083F83806404601D52061FE
:102EA00000E060617806070E00F079F8266100F016
:102EB00076F86D1EEDB26661ECD2BDE8F0810000DF
:102EC0000010014070B50E4C802525614020206126
:102ED00000F065F880212046FEF77CF9002808D034
:102EE000656100F05CF880212046FEF773F908B1B7
:102EF000002070BD656100F052F8012070BD000037
:102F00000010014070B5084C4025656100F047F89D
:102F10008026666100F043F8256100F040F82661E4
:102F2000BDE8704000F03BB80010014070B50B4D9B
:102F300040246C6100F033F88020286100F02FF805
:102F40002C6100F02CF880212846FEF743F96C61D3
:102F500008B1002070BD012070BD000000100140CC
:102F600070B50D460446FFF7ADFF002812D0422091
:102F7000FFF786FFFFF7DAFF68B1E0B2FFF780FFE7
:102F8000FFF7D4FF2846FFF77BFFFFF7CFFFFFF7E0
:102F9000B9FF012070BDFFF7B5FF002070BD4FF4F1
:102FA000C870401E0004000CFBD170470A684262E2
:102FB0004A688262D1E902231A43D1E904310B4302
:102FC000C16A1A4321F0F7011143C1620020704722
:102FD000006800F00300704708B508441430009002
:102FE000006808BD70B50DF1100C11439CE870002D
:102FF0002343194329434268314347F6FF639A4309
:103000000A434260002070BD032101600020704728
:10301000D0F8800070470A688260D1E901231A4322
:10302000D1E903310B43C1681A436FF30B0111431C
:10303000C160002070470968C0F880100020704708
:1030400010B586B004463720CDE90010402002902C
:10305000002003904FF48060049069462046FFF7FB
:10306000DAFF41F288323721204600F0B7F906B086
:1030700010BD000010B504460A4886B0014329205F
:10308000CDE9001040200290002003904FF48060B2
:10309000049069462046FFF7BEFF204600F054FA30
:1030A00006B010BD0000108010B586B00446102098
:1030B000CDE9001040200290002003904FF4806082
:1030C000049069462046FFF7A6FF41F2883210219E
:1030D000204600F083F906B010BD10B586B0044656
:1030E0000620CDE9001040200290002003904FF40C
:1030F0008060049069462046FFF78DFF41F28832D8
:103100000621204600F06AF906B010BD30B585B042
:1031100000240546009401944FF480600294CDE9A8
:10312000034069462846FFF776FF0B484FF4FA51F3
:103130000068B0FBF1F041F288314843401E03D2F1
:103140004FF0004005B030BD696B0906F6D540F27E
:10315000FF50A8632046F5E75801002070B585B000
:1031600004464FF4D570009008204026CDE90106B2
:103170000025C001CDE9035069462046FFF74BFF0B
:103180000F484FF4FA510068B0FBF1F041F288317A
:103190004843401E02D24FF000450DE0616B11F034
:1031A000450FF6D0606B400702D5A663042503E007
:1031B000606B400600D5A66305B0284670BD0000D0
:1031C0005801002010B586B004461220CDE9001049
:1031D00040200290002003904FF4806004906946E4
:1031E0002046FFF718FF41F288321221204600F0F6
:1031F000F5F806B010BD10B586B004461120CDE933
:10320000001040200290002003904FF48060049052
:1032100069462046FFF7FFFE41F288321121204621
:1032200000F0DCF806B010BD10B586B004460720EB
:10323000CDE9002040200290002003904FF48060F0
:10324000049069462046FFF7E6FE41F288320721E6
:10325000204600F0C3F806B010BD10B586B0044695
:1032600000210220CDE90010C020CDE902014FF479
:103270008060049069462046FFF7CDFE204600F0AE
:103280003BF906B010BD10B586B004460920CDE963
:103290000010C0200290002003904FF48060049042
:1032A00069462046FFF7B7FE204600F025F906B034
:1032B00010BD10B586B0044600213320CDE90010C2
:1032C0004020CDE902010001049069462046FFF745
:1032D000A2FE41F288323321204600F07FF806B08A
:1032E00010BD10B586B004460D20CDE90010402079
:1032F0000290002003904FF48060049069462046BD
:10330000FFF789FE41F288320D21204600F066F871
:1033100006B010BD30B585B00C460546002103202F
:10332000CDE900104020CDE902010001049069467A
:103330002846FFF770FE22460321284600F024F9B4
:1033400005B030BD10B586B0044600210C20CDE993
:1033500000104020CDE9020100010490694620469A
:10336000FFF759FE034A0C21204600F037F806B05B
:1033700010BD000000E1F50510B586B00446192027
:10338000CDE9001040200290002003904FF48060AF
:10339000049069462046FFF73EFE41F2883219212B
:1033A000204600F01BF806B010BD10B586B00446EC
:1033B0001820CDE9001040200290002003904FF427
:1033C0008060049069462046FFF725FE41F288326E
:1033D0001821204600F002F806B010BD444B10B58D
:1033E0001B684FF4FA54B3FBF4F353435B1E02D251
:1033F0004FF0004010BD426B12F0450FF6D0426B0B
:10340000520703D504218163084610BD426BD207E1
:1034100002D00121816303E00269D2B28A4201D065
:10342000012010BD40F2FF5181630021FFF7D4FD60
:103430003049084201D1002010BD002802DA4FF0C7
:10344000007010BD410001D5402010BD810001D5A4
:10345000802010BDC10002D54FF4807010BD010165
:1034600002D54FF4007010BD410102D54FF48060C9
:1034700010BDC10102D54FF4006010BD010202D59C
:103480004FF4805010BD410202D54FF4005010BDE2
:10349000810202D54FF4804010BDC10202D54FF425
:1034A000004010BD410302D54FF4003010BD810330
:1034B00002D54FF4802010BDC10302D54FF4002087
:1034C00010BD010402D54FF4801010BD410402D597
:1034D0004FF4001010BD810402D54FF4800010BDE0
:1034E000000702D54FF4000010BD4FF4803010BD2E
:1034F0005801002008E0FFFD12494FF4FA52096814
:10350000B1FBF2F141F288325143491E02D24FF031
:1035100000407047426B12F0450FF6D0416B4907EF
:1035200003D50421816308467047416BC90703D066
:10353000012181630846704740F2FF5181630020FA
:1035400070470000580100200E494FF4FA520968F4
:10355000B1FBF2F141F288325143491E02D24FF0E1
:1035600000407047426B12F0450FF6D0416B49079F
:1035700003D5042181630846704740F2FF518163FF
:1035800000207047580100201F4B10B51B684FF4F6
:10359000FA54B3FBF4F341F2883463435B1E02D266
:1035A0004FF0004010BD446B14F0450FF6D0436B54
:1035B0005B0703D504218163084610BD436BDB071D
:1035C00002D00121816303E00369DBB28B4201D0A9
:1035D000012010BD40F2FF5181630021FFF7FCFC88
:1035E00010F4604F04D0410406D54FF4005010BDD4
:1035F000000C1080002010BD000402D54FF4805054
:1036000010BD4FF4803010BD580100202DE9F04F5F
:1036100089B00E460446FDF7E7FD00258346009578
:1036200001952F4608212068FFF73EFD002834D180
:10363000B4F8500001042068FFF702FD00282CD1E7
:10364000401E4FF00808CDE9020830204FF0020973
:10365000CDE904090120CDE9067002A92068FFF731
:10366000A5FC2068FFF725FE002816D1EA4640F2A7
:103670002A472068416B394212D1416B890204D537
:10368000FFF7C6FC4AF825006D1CFDF7ADFDA0EB69
:103690000B00401CEDD14FF0004009B0BDE8F08FA9
:1036A000416B090703D5C0F838800820F5E7416B66
:1036B000890703D5C0F838900220EEE7416B8906F0
:1036C00003D5202181630846E7E740F2FF5181637B
:1036D000009800BA7060019800BA30600020DCE702
:1036E00010B590B004460120ADF838002068FFF70F
:1036F0006FFC002864D0606C032842D02068FFF77C
:10370000ACFD00285AD100212068FFF765FC6067F6
:1037100004212068FFF760FCA06708212068FFF7FC
:103720005BFCE0670C212068FFF756FCC4F88000C2
:10373000606C032825D00EA92068FFF7EBFD002858
:103740003CD1606C03281CD0BDF838002065010412
:103750002068FFF798FD002830D100212068FFF78E
:103760003BFC606604212068FFF736FCA066082158
:103770002068FFF731FCE0660C212068FFF72CFC85
:10378000206704212068FFF727FC000DE06403A9EF
:103790002046FEF73DFAB4F85000002302042068EA
:1037A000FFF742FD002809D104F1100007C88DE899
:1037B000070094E80F00FFF715FC002010B010BDC3
:1037C0004FF08060FAE72DE9F843002504460095A4
:1037D0000068FFF79BFC00281AD12068FFF7BEFCA9
:1037E0004FF080784FF6FF76D8B14FF08057A56440
:1037F0000098411C0091B0421AD000212068FFF7C8
:103800001FFC20B900212068FFF734FC10B13846B6
:10381000BDE8F88300212068FFF7DEFBC00FE7D08A
:103820001FE00127A7640098411C0091B04201D11C
:103830004046EDE700212068FFF702FC0028E7D1B1
:103840004FF080412068FFF715FC0028E0D10021EF
:103850002068FFF7C1FBC10FE5D0400001D56764C8
:1038600000E065640020D3E71CB50446002000900A
:10387000019000212068FFF7AFFB800102D54FF4D3
:1038800000601CBD69462046FFF7C0FE0028F8D145
:103890000198C0030CD5B4F8500001042068FFF76C
:1038A000CFFB0028EDD100212068FFF716FC1CBDDE
:1038B0004FF080601CBD1CB50446002000900190B4
:1038C00000212068FFF788FB800102D54FF40060DB
:1038D0001CBD69462046FFF799FE0028F8D10198E3
:1038E00040030CD5B4F8500001042068FFF7A8FB92
:1038F0000028EDD102212068FFF7EFFB1CBD4FF03F
:1039000080601CBD10B5064C01202070FCF7DCFE69
:1039100018B9207820F001002070207810BD000038
:103920006401002010B5124888B014460078C00722
:1039300002D0032008B010BDB9B1012905D0022979
:1039400008D003290CD00420F4E76846FCF7AAFE4F
:10395000069809E06846FCF7A5FE0798208004E079
:103960006846FCF79FFE079820600020E2E7000011
:10397000640100202DE9F0411E4617460846012546
:10398000094C0A4B32463946FCF7B8FE28B109E02B
:10399000641E02D20120BDE8F081FCF789FE0028F8
:1039A000F6D100252846F6E7A086010000E1F505DE
:1039B00010B5064C01202070FCF77AFE18B920786B
:1039C00020F001002070207810BD0000640100206C
:1039D0002DE9F0411E46174608460125094C0A4BC1
:1039E00032463946FCF79AFE28B109E0641E02D23D
:1039F0000120BDE8F081FCF75BFE0028F6D1002530
:103A00002846F6E7A086010000E1F5057047FDF7BE
:103A1000BFBC30B595B028216846FCF709FD1421DC
:103A20000AA8FCF705FD18210FA8FCF701FD0121EC
:103A30000804CDE900100024029402250491CDE988
:103A400007504FF4E01009906846FDF723FF0F2060
:103A5000CDE90A056802CDE90C4002210AA80E94BE
:103A6000FDF70CFEA80311900F950FA8FDF790FD30
:103A700015B030BD0D48016841F001010160416899
:103A80000B4A1140416001680A4A11400160016817
:103A900021F480210160416821F4FE0141604FF46E
:103AA0001F0181600449C003086070470010024094
:103AB0000000FFF8FFFFF6FE08ED00E02DE9F04101
:103AC000044600680169E26821F440511143016134
:103AD0002169A0680843616908432168CA6841F206
:103AE0000C639A430243CA6020684169A26921F4C9
:103AF0004071114341614C49206864253226884257
:103B00003CD1FDF781FE00EBC00101EB00106168C4
:103B10008900B0FBF1F7FDF777FE00EBC00101EB88
:103B200000106168B0468900B0FBF1F0B0FBF5F021
:103B30006FF01801484307EB800106EB0110B0FB62
:103B4000F5F000F0F006FDF75FFE00EBC00101EBC1
:103B5000001061688900B0FBF1F0B0FBF5F006EBF6
:103B60000016FDF751FE00EBC00101EB001061688B
:103B70008900B0FBF1F7FDF747FE3BE0FDF734FEAF
:103B800000EBC00101EB001061688900B0FBF1F7A8
:103B9000FDF72AFE00EBC00101EB00106168B046A2
:103BA0008900B0FBF1F0B0FBF5F06FF0180148436D
:103BB00007EB800106EB0110B0FBF5F000F0F0061A
:103BC000FDF712FE00EBC00101EB001061688900F7
:103BD000B0FBF1F0B0FBF5F006EB0016FDF704FECC
:103BE00000EBC00101EB001061688900B0FBF1F748
:103BF000FDF7FAFD00EBC00101EB001061688900E0
:103C0000B0FBF1F0B0FBF5F06FF01801484307EBA3
:103C1000800108EB0110B0FBF5F0216800F00F0007
:103C200030448860BDE8F08100380140FEE72DE9AE
:103C3000F0470C460546088809891646421AE3886B
:103C4000608901271B1A5A43A388C91A6388181A66
:103C500001FB002002F0D7FD00221346C6E90C014B
:103C600002F068FD01D1002783E028882989E388D4
:103C7000421A60891B1A5A43AB88C91A6388181AFA
:103C800001FB002002F0BFFDC6E900012188208968
:103C9000AB880A1A29895B1A5A432B88C91AA38848
:103CA000181A01FB002002F0AEFDC6E902012389CB
:103CB000AA88A188B5F8088003FB02F001FB180C64
:103CC000608891460CFB00FC208800FB08F2B5F8E8
:103CD000008003FB182201FB08F1E38800FB1910A8
:103CE00002FB03C3618900FB013002F08CFDC6E9D1
:103CF000040168886989E388421A60891B1A5A435B
:103D0000EB88C91A6388181A01FB002002F07BFDBA
:103D1000C6E9060121882089EB880A1A69895B1A9D
:103D20005A436B88C91AA388181A01FB002002F0B5
:103D30006AFDC6E908012289B5F80680A1886B8969
:103D400002FB08F001FB130C60886D880CFB00FC83
:103D500020886943434302FB1532E38800FB1810B7
:103D600002FB03C2618900FB012002F04CFDC6E9A1
:103D70000A013846BDE8F08701B5002004E00B21B8
:103D8000491EC9B2FCD2401C00998842F7D308BD35
:103D90002DE9F84380460C460127684600F070F88C
:103DA000E0B3BDF8020002F045FDD4E9022302F0C1
:103DB00055FD05460E46BDF8000002F03BFDD4E976
:103DC000002302F04BFD2A46334602F0A7FAD4E95D
:103DD000042302F0A3FA02F0E9FCA8F80000BDF801
:103DE000020002F027FDD4E9082302F037FD054662
:103DF0000E46BDF8000002F01DFDD4E9062302F0D6
:103E00002DFD2A46334602F089FAD4E90A2302F04E
:103E100085FA02F0CBFCA8F8020001E0FFE70027DA
:103E20003846BDE8F883000070B500F03DFA134E47
:103E300000252A4604213046FDF7D1F9012211461A
:103E40003046FDF7CCF90024002201213046FDF771
:103E5000C6F908213046FDF7BDF9C4F10B018840D1
:103E6000284385B2012211463046FDF7B8F9641C9B
:103E7000E4B20C2CE8D3284670BD000000180140C5
:103E80002DE9F0418AB00546002628216846FCF756
:103E9000CFFADFF820816C469020FFF7C5FF074678
:103EA0000120FFF769FFD020FFF7BEFF24F816704E
:103EB00004EB4601761C8882F6B210214046FDF7DD
:103EC00089F908B90A2EE7D310214046FDF782F997
:103ED00010B13949002008700A2E03D000200AB022
:103EE000BDE8F081BDF90010BDF914008C466246B2
:103EF0000346012634F916708F4201DA394602E092
:103F0000974200DD3A46761CF6B20A2EF2D301261D
:103F100004EB4607B7F914709F4201DA3B4602E012
:103F2000874200DD3846761CF6B20A2EF0D3BDF982
:103F30000240BDF90460BDF9067064443E44344457
:103F4000BDF908603444BDF90A603444BDF90C6021
:103F50003444BDF90E603444BDF910603444BDF9F9
:103F600012603444611A891AC9082980BDF91410F5
:103F7000BDF91620BDF91A401144BDF9182022449C
:103F80001144BDF91C201144BDF91E201144BDF996
:103F900020201144BDF922201144BDF924201144F0
:103FA000BDF926201144C91A081AC00868800120EA
:103FB00095E7000000180140000000202DE9F04FB7
:103FC000ABB03C21B4225020F025ADF86810ADF81C
:103FD0007420ADF86A00ADF86C10ADF87020ADF843
:103FE00076004FF4A076ADF86E50ADF87250012017
:103FF000FEF7EEFA6FF00F0000EB56096808002498
:10400000139070084FF6FF7A4FF4784B129000210E
:10401000574633462A460846CDF800A0FEF710FA68
:104020008BA2D8463B46CDF800B03C201299FEF753
:1040300099FA621C8BA127A8FCF70CF91FFA89F1E9
:104040003B4627AACDF800801398FEF78BFA8648E6
:10405000FFF792FE1AA800EB840130F8240049888B
:10406000FEF74AFA14A800EB84073846FFF708FF6A
:104070000028FAD0641CE4B2042CC8D304AA14A902
:104080001AA8FFF7D4FDDDE910010022134602F063
:1040900051FB7DD0BDF85E0002F0CCFBDDE90623CC
:1040A0001391199002F0DAFB04460F46BDF85C004C
:1040B00002F0C0FBCDE90001DDE9042391461F9326
:1040C00002F0CCFB22463B4602F028F9DDE908234A
:1040D00002F024F9DDE910439846224602F0D2F9B5
:1040E00002F064FBDDE90C2387B21399199802F002
:1040F000B5FB13912490DDE90001DDE90A2302F00C
:10410000ADFB139B249A02F009F9DDE90E2302F0BE
:1041100005F94346224602F0B5F902F047FBBDF827
:10412000741080B2B94201D2791A00E0C91B8AB278
:10413000BDF87610814201D2401A00E0081A80B220
:104140000A2A56D80A2854D84746224643464846A3
:104150001F9902F097F9DFF8148122463B46C8E91F
:104160000001DDE9060102F08DF9C8E90201DDE98F
:10417000080122463B4602F085F9C8E90401DDE961
:104180000A0122463B4602F07DF922463B4600E00A
:104190002FE0C8E90601DDE90C0102F073F9C8E976
:1041A0000801DDE90E0122463B4602F06BF9C8E941
:1041B0000A010021544633462A460846CDF800A09D
:1041C000FEF73EF92AA63046FCF7C8F8404205EB58
:1041D000C000C0F34F0023463246CDF800B012991C
:1041E000FEF7C0F92748FFF7C7FD01202BB0BDE857
:1041F000F08F002133462A460846CDF800A0FEF78E
:104200001FF921A42046FCF7A9F8404205EBC000A5
:10421000C0F34F005F4653462246CDF800B01299D6
:10422000FEF7A0F91CA42046FCF798F8404205EBE5
:10423000C0001021C0F34F0001EB56015346224647
:104240000097FEF78FF91748FFF796FD0020CDE79E
:10425000546F7563682043616C6962726174652094
:104260002E2E2E0025640000A086010008000020EC
:1042700043616C6962726174652053756363656440
:1042800000000000400D030043616C6962726174BC
:1042900065206661696C00007472792061676169EC
:1042A0006E00000040420F0070B5174D0646002218
:1042B00004212846FCF793FF002201212846FCF741
:1042C0008EFF0024C4F1070026FA00F0C00701D0D9
:1042D000012200E0002204212846FCF780FF05208F
:1042E000FFF74AFD012211462846FCF778FF05201A
:1042F000FFF742FD002201212846FCF770FF641CF5
:10430000E4B2082CDED370BD0018014010B504469D
:1043100000F5805000220271521EC262204601F058
:10432000AFFA08B1032010BDB4F8FE01A0F52A4190
:10433000553901D0022010BD94F83600B4F837107A
:1043400040EA01210848B0EB012F08D094F8521040
:10435000B4F8532041EA0221B0EB012F01D1002033
:1043600010BD012010BD0000004641547CB5294914
:1043700001A8FFF70DFD00284AD0BDF80400801FFA
:10438000E5283FD2BDF806004FF6FF74A0F11F01EB
:104390004FF4A0731D2918D20021F0220846009482
:1043A000FEF74EF81F250A2123461BA2084600955A
:1043B000FEF7D8F8224800F017FB234621A29621E9
:1043C0000A200095FEF7CEF81CE0A0F147011D2958
:1043D0000DD328391D290AD328391D2904D201F00B
:1043E000B1FCFEF76DF90DE0BF381D280AD200219F
:1043F000F02208460094FEF723F80A2118A2084686
:10440000FEF790F840F2DC50FCF79CFDFEF734FA22
:104410007CBD000008000020506C6561736520734E
:10442000657420612070617373776F72642077699F
:104430007468203420706C61636573203A0000005A
:10444000E000002050617373776F726420737563AE
:104450006365737366756C6C792073657400000016
:10446000556E64657220436F6E7374727563746900
:104470006F6E0000F0B50022174B144600F5805017
:1044800002EB420653F826506DB10768BD420BD1CE
:1044900003EB860587686E68BE4205D12D89C68804
:1044A000B54204D000E00124521C022AE8D3022ABB
:1044B00001D079B904E05CB9022909D01220F0BD1D
:1044C00002EB420003EB80004089B0F5807F01D011
:1044D0000020F0BD1020F0BDF423002030B50021F5
:1044E000064A0C4601EB410352F82350854201D1A4
:1044F00042F82340491C0229F4D330BDF4230020A4
:1045000000F58050426A006800F580504389807849
:104510004343B1FBF3F0121D02CA19B1884203D321
:10452000401AF8E70020704711680844704700F50A
:104530008050891E4269921E8A4201D8002070472D
:10454000826A807801FB002070472DE9F0418046A7
:104550000F0000F5805407D0404600F083FF02288A
:1045600009D20120BDE8F081E66816B16069B04269
:1045700007D8012605E0411CF4D061698142F1D8D9
:104580003E46354660696D1CA84202D80225022EBF
:104590000AD32946404600F065FF38B1411CE1D0FE
:1045A0000128DFD0B542EDD10020DBE76FF070428B
:1045B0002946404601F01AFA30B957B12A46394621
:1045C000404601F013FA20B101280DD001252846FC
:1045D000C8E7E5602069411CF9D0401E2061607980
:1045E00040F001006071F2E74FF0FF35EFE70000A7
:1045F0002DE9F04789460C6800E0641C21782F29DA
:10460000FBD05C29F9D000F580500B228569202170
:10461000284601F02EF9002001460B460826E25CF0
:104620005B1C202A35D92F2A33D05C2A31D02E2A80
:1046300001D0B04208D3082E38D12E2A36D1082016
:104640000B268906090EEAE7802A05D3234F41F09D
:1046500003013A4412F8802C21A700E07F1C97F850
:1046600000C0BCF1000F02D09445F7D11EE0A2F1CA
:104670004107192F02D841F0020107E0A2F16107BA
:10468000192F03D8203A41F00101D2B22A54401C1C
:10469000C5E71C44C9F80040202A01D8042200E0E4
:1046A000002218B12878E52803D004E00620BDE8F0
:1046B000F08705202870082E01D18806010E01F030
:1046C0000300012801D142F01002C1F3810001284A
:1046D00001D142F00802EA720020E8E7A67400085F
:1046E000222A2B2C3A3B3C3D3E3F5B5D7C7F000009
:1046F000401E022815D20C4B00EB400203EB820156
:104700004889B0F5807F05D008B1401E80B248814D
:1047100010B104E00020FAE7002043F82200002056
:104720007047022070470000F42300202DE9F0417B
:1047300000F580540F46E688761C3004000C38D013
:10474000216991B3206800F5805253895B09B6FB5B
:10475000F3F503FB1563002B67D1491C2161E16868
:1047600021B3538992785B09B6FBF3F3521E1342CF
:104770005BD100F077FE054601281FD9681C39D0AF
:10478000206841F214010958A94248D86FB1E16884
:10479000FFF7DBFE05000FD0012D0FD0681C29D0DC
:1047A000206801F07EFC28BB0AE002E01089B042DC
:1047B0003BD80420BDE8F0810720FBE70220F9E7A1
:1047C00041F20A0120680A5A002101F052F82946F4
:1047D0002068FFF7ACFE2168002701F580514FF0FB
:1047E0000108C8620FE000BF80F80480206801F073
:1047F00058FC08B10120DDE7206800F58050C16A4F
:10480000491C7F1CC162206800F580508178B94244
:10481000EAD8216801F58051C96AC91BC162E56007
:1048200029462068FFF783FE2061E68041F20A01F5
:104830002068095A4909B6FBF1F201FB126100EB4D
:10484000411060610020B5E770B50446002100F01A
:1048500033F888B904F580552969286801F010F803
:1048600050B968690078E52809D040B10121204697
:10487000FFF75CFF0028EFD0042809D009E004F519
:1048800080542169206800F0FBFF050003D011E08F
:10489000072005460EE020220021606900F0E9FFB4
:1048A000D4E905010B2200F0DBFF2068012100F5AF
:1048B00080500171284670BD70B500F580540D46DA
:1048C000E180A368012B42D0206800F58050416947
:1048D00099423CD923B90178032906D1436A23B10F
:1048E000418980784E09464312E00189A9422ED9B8
:1048F000406A13E000F0B6FD0346401C25D0022BB1
:1049000025D3206800F58050406998421FD9AD1B1F
:104910002068B5421946EDD2FFF709FEE360B0B159
:1049200021680A4601F580514B895B09B5FBF3F319
:104930001844206148894009B5FBF0F100FB115093
:1049400002EB40106061002070BD012070BD0220AC
:1049500070BD0000084910B50B5C002253B901225C
:104960000A540A1801EB8000127A40680168104668
:1049700088470246104610BD0C24002030B4054C78
:10498000231804EB80001B7A406804691846A4468B
:1049900030BC60470C24002030B4054D2C1805EBCA
:1049A0008000247A406885682046AC4630BC604769
:1049B0000C240020044A111802EB8000097A406898
:1049C00042680846104700000C24002030B4054D12
:1049D0002C1805EB8000247A4068C5682046AC4658
:1049E00030BC60470C2400202DE9F84F4FF01F0920
:1049F0004FF6FF7806464C464546434622A22D21F7
:104A00000A20CDF80090FDF7ADFD2B4628A24E21DF
:104A10000A200094FDF7A6FD00242C4D4FF0640AF7
:104A2000202701E0042C00DA375501F06FF82870D8
:104A30006420FCF787FA2A784E2AF6D02A2A12D068
:104A4000042C1ED0232A0AD032550AEBC40080B2AF
:104A500043461B21CDF80090FDF728FD641C042C73
:104A6000E0DDBDE8F88F002CDCD0641E0AEBC4004A
:104A700080B2102308221B21CDF80080FDF7E0FC56
:104A8000EDE7232AD1D1ECE75072657373202A2019
:104A9000746F2064656C657465207468652070723D
:104AA0006576696F757320706C6163650000000046
:104AB0005072657373202320616674657220796F6C
:104AC0007520636F6D706C6574650000D800002000
:104AD00010B5044600F0FFF900280DD1204601F082
:104AE00009FB002808D104F58054A06AFFF700FEF6
:104AF000002801D10021216010BD00002DE9F741FF
:104B000081B0904602980090684600F020FD0400B5
:104B100003D50B2004B0BDE8F081104E002756F8F5
:104B200024502DB12846FFF7D9FC05F580552F708C
:104B30000198002803D000BF4FF480510F5446F86D
:104B4000240002D0B8F1010F01D00020E2E70022DA
:104B500002A901A800F0F4FADCE7000060010020DF
:104B60002DE9F74FADF5825D98B100F580564FF015
:104B7000000802F01F0741F2440127F001026944D6
:104B80000DF58050C6F8008000F0DAFA040006D077
:104B9000D4E0092013B00DF5805DBDE8F08F0DF570
:104BA00080500DF581518161EB46416C584600F013
:104BB000FDFB04000DF5805045690BD11DB178084F
:104BC00003D0012102E0062404E000215846FFF74B
:104BD00051FC044617F01C0F74D04FF0010AE4B1E9
:104BE000042C13D10020574902E0401C022805D2B2
:104BF00000EB400251F82220002AF6D1022804D00E
:104C00005846FFF721FE044600E012240DF58050BF
:104C100047F00807456954B190E0E87A10F0110FA9
:104C200001D007248AE0780701D5082486E03807F8
:104C300056D500F08AFCA873010AE973010C2974A7
:104C4000000E687485F80B8085F81C8085F81D803F
:104C500085F81E800DF5805085F81F800068294674
:104C600000F0E0FC81460021284601F0BEF90DF578
:104C70008050B9F1000F006800F5805080F804A062
:104C80002CD00DF580504946006800F58050D0F8D2
:104C90002CA00DF58050006801F074F904004DD18E
:104CA0000DF58050A9F10101006800F58050C16048
:104CB0000DF580505146006800F0E2FD04000BD075
:104CC0003CE0FFE7D4BBE87AC10601D5042435E017
:104CD000B90701D5C007A4D1380701D547F020078F
:104CE0000DF58050006800F58050C06AC6E90705E0
:104CF000780801D0012100E00021584600F046FC70
:104D0000B062E8B1B7710DF5805086F8078047466C
:104D10000068294600F086FC3061287FD5F81D1018
:104D200040EA0120C6E90270B7610DF58050776254
:104D30000068306000F58050C088B080204629E7C8
:104D40000224FBE7F42300202DE9F04F884687B0CA
:104D50000021994615468346196001F0CBF90028D9
:104D600012D10BF58054E07900280DD1A079C0074D
:104D700009D0D4E90201081A01274FF0020A85423E
:104D800000D90546A2E0072007B0BDE8F08F2068F3
:104D9000A16800F580535E89B1FBF6F206FB1212A2
:104DA000002A73D1B1FBF6F29B785B1E1A4012F019
:104DB000FF0610D129B1626A2AB15846FFF7A0FB5D
:104DC00004E0206902E0616900F04CFB02281FD377
:104DD000411C55D0606161692068FFF7A8FBB8B13C
:104DE00030440090206800F580504189B5FBF1F116
:104DF000039151B3721881788A4201D9891B0391BA
:104E000040784146039B009AFFF7C6FDC0BB03E014
:104E100084F807A00220B7E7A07940060ED5A16963
:104E20000098081A0399884208D2216801F5805138
:104E30004A89594600FB028000F012FD206800F507
:104E4000805046890398464336E0A26900998A4219
:104E50001AD0A179490609D5407801235946FFF7B0
:104E6000B5FD68B9A07920F04000A0712068012349
:104E700000F5805059464078009AFFF78DFD18B133
:104E8000E771012080E701E00098A0612068A16837
:104E900000F580504089B1FBF0F200FB1212861A37
:104EA000AE4200D92E46B1FBF0F200FB121159447C
:104EB0003246404600F0D4FCA068B0443044A060C4
:104EC000D9F800008119AD1BC9F80010002D7FF43E
:104ED0005EAF002058E770B5054601F00BF90028D9
:104EE00011D105F58054A1798A060CD548060FD555
:104EF0002068012300F5805029464078A269FFF719
:104F000065FD08B1012070BDA07920F04000A071BE
:104F1000E169206800F0B4FC0028F4D1256AE87A41
:104F200040F02000E872207B2877A089000A68778B
:104F3000E068000CA877E068000EE8772846216951
:104F400001F053F800F001FBA875010AE975010CA6
:104F50002976000E68760020A874E874A0790121F3
:104F600020F02000A071206800F5805001712068B9
:104F7000BDE8704001F041B82DE9FC5F8846002192
:104F8000994615468346196001F0B4F8002808D107
:104F90000BF58054E079002803D1A079800702D472
:104FA0000720BDE8FC9FA068012741194FF0020AC5
:104FB00081427AD3B5E02068A168024600F58050AE
:104FC0004389B1FBF3F603FB1616002E6ED1B1FB3D
:104FD000F3F38078401E034013F0FF0618D129B187
:104FE000606A38B15846FFF78BFA07E0206938B994
:104FF000002100E061691046FFF7A7FA002854D0AD
:10500000012833D0411C62D06061216901B920615F
:10501000A07940060DD52068012300F5805059463F
:105020004078A269FFF7D2FCF0BBA07920F04000E5
:10503000A07161692068FFF77AFAB8B13044019035
:10504000206800F580504189B5FBF1F1009171B302
:10505000721881788A4201D9891B0091DDE90032FA
:1050600040784146FFF7B2FCF0B903E084F807A0AE
:10507000022096E7A1690198081A009988420CD28B
:10508000216801F580514A8900FB0281584600F0F1
:10509000E7FBA07920F04000A071206800F5805067
:1050A00046890098464332E011E03DE014E0FFE716
:1050B000A169019A91420DD0D4E90212914209D21C
:1050C000407801235946019AFFF766FC10B1E77159
:1050D000012066E70198A0612068A16800F5805072
:1050E0004089B1FBF0F200FB1212861AAE4200D9E1
:1050F0002E46B1FBF0F200FB121101EB0B00324621
:10510000414600F0ADFBA07940F04000A071A068DE
:10511000B0443044A060D9F80000AD1B3044C9F859
:105120000000002D7FF447AFD4E90201884200D986
:10513000E060A07940F02000A071002031E700007D
:105140002DE9FF5F4FF0000B0546C0F800B0174691
:10515000084600F0FCF9060003D50B2004B0BDE8BA
:10516000F09F8F4850F826409CB12C6004F5805584
:10517000287820B16878FFF71DFCC1070BD085F8AF
:1051800000B0F0B26870FFF7E5FBC10708D003205C
:10519000E4E70C20E2E70FB1400704D40020DDE78C
:1051A0001FB1400701D50A20D8E741F20A01621871
:1051B00068780221FFF7E2FB78BB6889B0F5007FD1
:1051C00034D3B0F5805F31D8002631462046FFF752
:1051D0009DF8012826D100204FEA0D0204EB0011B2
:1051E00091F8C23101F5DF712BB10B7AD1F80910BA
:1051F00043EA012100E0002142F82010401C04286D
:10520000ECD300274FEA020858F8276036B1314640
:105210002046FFF77BF810B90AE007E002207F1C68
:10522000042FF1D3032801D0F0BB01E0012095E762
:10523000B4F80B00B5F80AC060455FD1E18A29B91E
:1052400094F82400D4F8251040EA0121A961207CBB
:105250008A46E870012801D002284FD100FB01F9ED
:10526000607BA87000B3411E084247D1B4F811100A
:105270004FEA5C12B1FBF2F302FB131329819BB9D5
:10528000B4F813702FB994F82030D4F8217043EAA1
:105290000727E38943B1B1FBF2F803EB090242446B
:1052A00097422BD3BF1A00E028E0B7FBF0F028B3F9
:1052B000012740F6F678404500D302274FF6F678EE
:1052C000404500D30327801C3244AA6233446861FE
:1052D000C5E90763032F13D081B103EB09016962AC
:1052E000022F18D000F0010100EB400001EB50004C
:1052F000401E6044B0FBFCF151450ED90D202DE756
:105300000029FBD194F82C10D4F82D20800041EA1C
:1053100002216962ECE74000EAE74FF0FF302861C4
:10532000E86080206871032F2ED1208E01282BD1B8
:105330002046711C00F0A4FA30BB85F805B0B4F823
:10534000FE01A0F52A4155391ED12078D4F801106C
:1053500040EA01201349884216D194F8E401D4F8B8
:10536000E51140EA0120104988420DD194F8E80186
:10537000D4F8E91140EA0120286194F8EC01D4F84E
:10538000ED1140EA0120E86005492F70091F0888E7
:10539000401C0880E8802046FFF7A0F8FEE60000E9
:1053A0006001002052526141727241612DE9F34166
:1053B0000546019801782F2901D05C2901D1401CB4
:1053C000019005F580560024B460019800782028EB
:1053D00006D200212846FFF76FFA7461BDE8FC8110
:1053E00001A92846FFF704F90028F7D10021284633
:1053F000FFF762FA10BB05F580542169206800F0C0
:105400003FFAD8B961690A782AB1CA7A12070FD46B
:105410000A23A26903E0042010E05B1E07D311F801
:10542000017B12F801CBB7EB0C07F6D000E02FB1EF
:1054300000212846FFF77AF90028DED0B169C97A41
:1054400028B10428CAD14907C8D40520C6E74907AE
:10545000C4D47169C87AC006F7D5306800F0E2F8A4
:10546000B060BDE72DE9F0470D46074602290DD390
:1054700007F580546069A84208D920784FF0FF36BC
:10548000012807D0022832D0032844D00126304614
:10549000BDE8F087618905EB5508B8FBF1F0216A9A
:1054A0000144384600F0ECF90028F0D16189B8FBDE
:1054B000F1F201FB128008F1010817F80090B8FB27
:1054C000F1F0216A0144384600F0DAF90028DED113
:1054D0006189B8FBF1F201FB1280395C49EA0120D5
:1054E000E90701D00609D2E7C0F30B06CFE76089D0
:1054F000216A4008B5FBF0F00144384600F0C0F9DD
:105500000028C4D161896800B0FBF1F201FB1200F0
:1055100038440688BBE76089216A8008B5FBF0F053
:105520000144384600F0ACF90028B0D16189A800E8
:10553000B0FBF1F201FB120038440178D0F8010011
:1055400041EA002020F07046A1E70020704710B526
:1055500004464FF0FF302268002A13D0114600E0C5
:10556000491C0B78212B0ED33A2BF9D112F8013BB1
:10557000303B0A2B06D28A4204D1002B02D1491CAF
:105580001846216010BD002010BD0000F0B500F5E8
:10559000805323481C68002202EB420550F8256026
:1055A000A64209D100EB85059F686E68BE4203D113
:1055B0002D89DE88B54202D0521C022AECD3022A81
:1055C00018D1002202E0521C022A05D202EB420549
:1055D00050F82550002DF6D1022A13D002EB4205D7
:1055E00040F8254000EB85049E686660DB882381D7
:1055F00000236381002902EB420100EB810149890C
:1056000002D019B10020F0BD491C01E04FF48071B7
:1056100002EB420300EB83004181501CF0BD00000F
:10562000F4230020024602F58052488B1278032AA8
:1056300002D1898A40EA01407047000008B5FBF7B3
:10564000AFFEFEF7E6F9FDF765FAFDF72BFA6148C4
:105650005F490024C0E900148460C460042104612F
:10566000C0E90541FDF710FAFDF7ECF9FDF7A6F9E1
:10567000FDF7C6F957485849543801605749C0E901
:1056800001144FF48041C0E9034144618461C46165
:105690000462FBF7AFFD4F48514984304FF4005589
:1056A00002C04FF4614132C00C2160E804418461C2
:1056B000C46148488430FCF72FFE0022294649483F
:1056C000FBF78DFDFCF7C8FF4748FBF739F8414869
:1056D000E438FBF767F93F48E438FBF7D3FB3D4874
:1056E0004FF47A784146E438FBF734FB3F4D012212
:1056F00011462846FBF773FD002220212846FBF7C0
:105700006EFD1F264FF6FF773B4639A264211E200F
:105710000096FCF727FF4FF47A60FBF713FC00BFFD
:10572000FEF74CFC0028FBD00120FCF751FF0021C4
:105730004FF4A073F02208460097FCF781FE0A217F
:105740003B4631A208460096FCF70CFF3848FFF7AD
:105750004BF93B4637A296210A200096FCF702FF40
:105760004FF4FA663046FBF7EDFBFDF785F8B146DE
:105770002F46374E374D00BF00F0C8F9232803D01D
:10578000307801280CD00EE0324B334A3349284898
:1057900000F0C6FC4846FBF7D5FBFDF76DF8EBE7DC
:1057A000FEF7E4FD3470286801280DD14046FBF770
:1057B000C9FB0122114638462C60FBF710FD002280
:1057C00020213846FBF70BFD3220FBF7BBFBD3E76C
:1057D00000800140EC22002000540040A08601001F
:1057E000003801400014014038010020000C014045
:1057F000486F6D652050726F74656374696E6720C1
:1058000053797374656D0000506C65617365207326
:10581000657420612070617373776F72642077699B
:105820007468203420706C61636573203A00000056
:10583000E000002050617373776F726420737563AA
:105840006365737366756C6C792073657400000012
:1058500000000020D4000020DC00002034010020E3
:1058600004E000BF11F8013B00F8013B521EF9D2E1
:105870007047C9B201E000F8011B521EFBD270470D
:105880002DE9F04100F580540746E06A0E460025F8
:10589000B0420ED0384600F004FC050009D1607813
:1058A000012332463946FFF777F808B16E1E01250D
:1058B000E6622846BDE8F0812DE9F84FFDF74CFA85
:1058C0000128FBD1404C0025657001223F4940482A
:1058D000FFF714F9D0BB606804F11001A24651F83B
:1058E00020100A223B48FFF73BF978BB3A4844F6C0
:1058F00042514FF4A07820F8021B422181603749C1
:1059000001608580C5802821C160C0F81080F02129
:10591000416101210183102141830321C1614FF4C1
:1059200016310162456285620563C5624FF47841B4
:1059300041634FF4FC6181631F21C16304F10C03D7
:10594000422225492348FFF717FB10B10120BDE88B
:10595000F88F234904200860224C202666612661C6
:10596000091F086066612661C146DFF87C80002758
:10597000AB4600256661D8F80010266101F47F412E
:105980006661D8F80000C0F307200843ADF80000B6
:1059900026610D4B02220C3369460E48FFF7ECFAE4
:1059A0006D1CADB24D45E5D37F1CBFB2F02FE0D3E7
:1059B0004FF47A70FBF7C6FA8AF801B00548FFF792
:1059C00087F80020C3E70000D80000203D01002038
:1059D0006801002098110020C421002042580200D4
:1059E0001408014000100140080C01402DE9F04767
:1059F00017460D460646022904D306F58054606911
:105A0000A84202D80220BDE8F087217807F0FF09FC
:105A10004FF0010A012924D002295DD00329F1D1D8
:105A20006089216A8008B5FBF0F001443046FFF739
:105A300027FF0028E7D16289A900B1FBF2F302FB3E
:105A400013118A194FF07043D2F8011003EA0121B3
:105A5000394311700B0A53700B0C9370090ED170FF
:105A600050E0618905EB5508B8FBF1F0216A01446B
:105A70003046FFF705FF0028C5D16189B8FBF1F278
:105A800001FB1280304408F10108E90703D00178D6
:105A900069F31F1100E03946017084F804A06189A0
:105AA000B8FBF1F0216A01443046FFF7E9FE002817
:105AB000A9D16289B8FBF2F302FB13813144EA07F2
:105AC00002D0C7F3071205E00A78C7F3032302F0F8
:105AD000F0021A430A7015E06089216A4008B5FB9C
