:020000040800F2
:10000000C0280020CD010008C31A0008711500089F
:10001000C11A00086D030008352800080000000020
:100020000000000000000000000000009927000808
:100030006F030008000000003D1B00089B2700081C
:10004000E7010008E7010008E7010008E7010008F0
:10005000E7010008E7010008E7010008E7010008E0
:10006000E701000881030008E7010008E701000834
:10007000E7010008E7010008E7010008E7010008C0
:10008000E7010008E7010008E7010008E7010008B0
:10009000E7010008E7010008E7010008E7010008A0
:1000A000E7010008E7010008E7010008E701000890
:1000B000E7010008E7010008E7010008E701000880
:1000C000E7010008E7010008E7010008E701000870
:1000D000E7010008E7010008E7010008E701000860
:1000E000E7010008E7010008E7010008E701000850
:1000F000E7010008E7010008E7010008E701000840
:10010000E7010008E7010008E7010008E70100082F
:10011000E7010008E7010008E7010008E70100081F
:10012000E7010008E7010008E7010008E70100080F
:1001300000F002F800F03AF80AA090E8000C8244BF
:100140008344AAF10107DA4501D100F02FF8AFF29C
:10015000090EBAE80F0013F0010F18BFFB1A43F0A5
:1001600001031847F444000014450000103A24BF6E
:1001700078C878C1FAD8520724BF30C830C144BF0C
:1001800004680C607047000000230024002500264E
:10019000103A28BF78C1FBD8520728BF30C148BFEA
:1001A0000B6070471FB51FBD10B510BD00F058F8AB
:1001B0001146FFF7F7FF03F0DFFB00F076F803B41A
:1001C000FFF7F2FF03BC00F07DF80000094880470C
:1001D00009480047FEE7FEE7FEE7FEE7FEE7FEE729
:1001E000FEE7FEE7FEE7FEE704480549054A064B41
:1001F00070470000ED27000831010008C0220020F0
:10020000C0280020C0240020C02400204FF000029D
:1002100000B5134694469646203922BFA0E80C50FC
:10022000A0E80C50B1F12001BFF4F7AF090728BFD7
:10023000A0E80C5048BF0CC05DF804EB890028BF53
:1002400040F8042B08BF704748BF20F8022B11F07C
:10025000804F18BF00F8012B7047704770477047F8
:10026000754600F02BF8AE4605006946534620F06F
:100270000700854618B020B5FFF7B6FFBDE820405F
:100280004FF000064FF000074FF000084FF0000B52
:1002900021F00701AC46ACE8C009ACE8C009ACE805
:1002A000C009ACE8C0098D46704710B50446AFF3ED
:1002B00000802046BDE81040FFF781BF004870472E
:1002C0005C22002001491820ABBEFEE72600020098
:1002D000704700000146014800F0B3BED000002086
:1002E00010B5044800F0BFFE042801D0012010BD65
:1002F000002010BDD000002038B501208DF800008E
:100300009DF80000012801D0012038BD064800F00A
:10031000C0FE040006D14FF40061034800F068FD00
:1003200000B10124204638BDD000002038B500249B
:10033000009313460A460146034800F031FF00B11E
:100340000124204638BD0000D000002038B500242C
:10035000009313460A460146034800F0FBFF00B134
:100360000124204638BD0000D0000020FEE7704781
:1003700001B5009801E0401E00900028FBD108BDA7
:1003800070B5114A1068000719D510480821037884
:1003900013B1012B0AD00EE00D4C102363610D4DFB
:1003A0002960012606702960236104E0094B1B1DAA
:1003B0001960022303701160082000F003F9BDE802
:1003C0007040082000F000B9140401409C00002097
:1003D0000010014010140140002200F001B800009C
:1003E00030B50E4B054601205C7A012C15D8587AA1
:1003F00000241C54587A03EB800045605D7A03F1B9
:1004000008002A54587A421C5A72303008703A2038
:1004100048702F208870CC70002030BD5022002002
:1004200030B5B3F5804F05D06FF0704140F8221021
:10043000002030BD8C690B688D6823434C68898926
:10044000240144EA0524234343EA014150F82230C1
:10045000014C23401943E9E70000F0CF30B50A68AA
:1004600050F8223023F0010340F822308C68204BF2
:100470004A68082C1ED02243D1E903452C4322436D
:100480004C6922438C692243CC6922430C6A224383
:100490004C6A22438C6A2243CC6A22430C6B096863
:1004A000224350F821401C4052EA040240F8212027
:1004B000002030BDD1E9034542F008022C4322431D
:1004C0004C6922438C692243CC6922430C6A224343
:1004D0004C6A22438C6A2243CC6A22430C6B096823
:1004E000224350F821401C40224342F04002DDE705
:1004F0008100F7FF30B5D1E9003443EA04138C687A
:100500008D89240244EA054423430C8A094D00EBFB
:10051000820005EB045423430C7D6D0105EB04645C
:10052000896923430B43416801F040410B43436019
:10053000002030BD0000F0FF70B5044600F04EF919
:100540000546601C02D004480078044400F046F9D7
:10055000401BA042FAD370BDB400002030B585B076
:100560000020009001900290039012480168002939
:100570001ED1012101601048416941F4807141613F
:100580004069022400F4807004904FF68070CDE939
:100590000004032569460395084800F021F84CF64D
:1005A000B370CDE9000469460395054800F018F8DA
:1005B00005B030BDAC000020001002400018014022
:1005C0000014014070470000044910B50A68024257
:1005D00002D00860FFF7F6FF10BD000014040140D0
:1005E0002DE9F84FDFF8B8A100220AF1040B1446F8
:1005F00001274FF00F090BF1040E00BF0B6807FA3B
:1006000004F52B40AB4274D1DFF898C14E68A6EBDD
:100610000C0866452BD00DDC032E34D005DC36B338
:10062000012E19D0022E2FD11BE0112E16D0122E22
:100630002AD119E0B8F5881F19D006DCB8F5803F3B
:1006400015D0B8F5801F1FD111E0B8F5001F0ED0EE
:10065000B8F5041F18D10AE0CA6815E0CA68121D6F
:1006600012E0CA6808320FE0CA680C320CE08A68EF
:100670002AB1012A4FF0080203D0456104E00422A8
:1006800002E0056100E00022FF2B01D8064601E0F0
:1006900000F104064FEA840501D9A5F12005D6F83A
:1006A00000C009FA05F82CEA080C02FA05F54CEA34
:1006B000050CC6F800C04D68ED006AD53A4DAE692C
:1006C00046F00106AE61AD6924F0030605F00105B0
:1006D0000095364D06EB050CDCF80850A6074FEAEE
:1006E000167809FA08F6B543314EB04202D1002619
:1006F0001AE04EE02F4EB04201D1012614E02E4EFA
:10070000B04201D102260FE02C4EB04201D10326A7
:100710000AE02B4EB04201D1042605E0294EB0423A
:1007200001D1052600E0062606FA08F62E43CCF88D
:1007300008604D68DAF80060ED03554601D51E43A8
:1007400000E09E432E604D68AD0305D5DBF80060E8
:100750001E43CBF8006004E0DBF800509D43CBF86B
:1007600000504D68DEF80060ED02754601D51E436D
:1007700000E09E432E604D68AD0205D5084D0C3556
:100780002E681E432E6004E0054E0C3635689D43EE
:100790003560641C102CFFF431AFBDE8F88F000009
:1007A0000004014000001110001002400000014050
:1007B00000080140000C01400010014000140140FD
:1007C00000180140001C01408068084000D0012052
:1007D00070470AB1016170470904FBE7014880686E
:1007E00070470000B400002002488168027811447C
:1007F00081607047B4000020074810B5016841F0DF
:1008000010010160032000F073F8002000F006F8EA
:1008100000F024F8002010BD0020024070B50D4DFE
:1008200004464FF47A712878B1FBF0F00A49096860
:10083000B1FBF0F000F088FE48B9102C07D200227E
:100840002146501E00F034F800206C6070BD01207D
:1008500070BD0000B4000020C00000200C4808B5A6
:10086000816941F001018161816901F0010100911B
:10087000C16941F08051C161C06900F080500090B1
:100880000448416821F0E06141F00071416008BD19
:10089000001002400000014000F01F0201219140C1
:1008A0004009800000F1E020C0F80011704700000E
:1008B000F0B40E4B1B680C46C3F30223C3F10705CB
:1008C000042D00D90425191D072901D2002300E0B9
:1008D000DB1E012606FA05F1491E214099409E4083
:1008E000761E16403143F0BC01F0ECB80CED00E090
:1008F000064900F0070208684FF6FF03184040EA77
:100900000220034A10430860704700000CED00E02D
:100910000000FA052DE9F047DFF8548105460E4640
:10092000D8F8000000F00700B0420CD2D8F8001050
:1009300021F007013143C8F80010D8F8000000F09A
:100940000700B0426FD128684A4C810712D5400792
:1009500003D5606840F4E06060602878000703D544
:10096000606840F4605060606068A96820F0F00042
:10097000084360602878C00744D06868012816D012
:100980002168022816D0890700294CDA616821F015
:10099000030101436160FFF721FF6968074641F2E7
:1009A000883001290ED00229814618D026E021681E
:1009B0008903E9E78901E7E7FFF710FFC11B494514
:1009C00001D918E081466068C0F381000128F3D1A5
:1009D00018E000BFFFF702FFC11B49450BD8606854
:1009E000C0F381000228F5D10CE000BFFFF7F6FE4E
:1009F000C11B494502D90320BDE8F087606810F0AB
:100A00000C0FF3D1D8F80010404601F00701B142B5
:100A10000BD9016821F0070131430160006800F043
:100A20000700B04201D00120E6E72878400705D54D
:100A30006068E96820F4E060084360602878000797
:100A400006D56068296920F4605040EAC100606002
:100A500000F016F86168084AC1F30311515CC84000
:100A6000064908600020FFF7D9FE0020C4E7000017
:100A7000002002400010024086450008C00000200F
:100A800012A185B00FC98DE80F0014A0144A0068A8
:100A900004905168134801F00C03042B10D0082B6C
:100AA0000ED1C1F38343C9031DF803000AD5516871
:100AB00004AAC1F34041515C0A4A5043B0FBF1F033
:100AC00005B0704708494843FAE7000002030405EF
:100AD000060708090A0B0C0D0E0F1010010200008A
:100AE0000010024000127A0000093D002DE9F84F85
:100AF00004460078B94DC00748D06868C0F381004B
:100B0000012807D06868C0F38100022809D168680D
:100B1000C00306D52868800338D5606800286FD0E8
:100B200034E06068B0F5803F0BD010B1B0F5A02F75
:100B300011D0286820F480302860286820F48020B4
:100B400002E0286840F480302860606888B1FFF7D0
:100B500045FE064609E0286840F480202860F0E75A
:100B6000FFF73CFE801B642875D828688003F7D502
:100B70000CE0FFF733FE064605E000BFFFF72EFE50
:100B8000801B6428F0D828688003F7D42078944E1E
:100B900080074FF001094FF000083BD5686810F05E
:100BA0000C0F07D06868C0F38100022809D168687B
:100BB000C00306D42868800714D5206901281FD1F6
:100BC00010E02069B0B1C6F80090FFF707FE0746B5
:100BD00005E000BFFFF702FEC01B0228C4D828684A
:100BE0008007F7D52868616920F0F80040EAC10065
:100BF00028600FE0C6F80080FFF7F0FD074606E02A
:100C0000E9E000BFFFF7EAFDC01B022823D82868EF
:100C10008007F7D4207800072CD57248A169D9B194
:100C2000C0F80090FFF7DAFD074604E0FFF7D6FDB5
:100C3000C01B02280FD8686A8007F7D56A484FF4AE
:100C4000FA510068B0FBF1F0009000BF0098411E1F
:100C50000091FAD20EE080E0C0F80080FFF7BEFD00
:100C6000074604E0FFF7BAFDC01B022875D8686A82
:100C70008007F7D42078400760D5E8690027C000D6
:100C800008D4E86940F08050E861E869012700F085
:100C90008050009055480168C90513D40168834607
:100CA00041F480710160FFF799FD824606E000BFC4
:100CB000FFF794FDA0EB0A0064284ED8DBF8000093
:100CC000C005F5D5E06801280AD008B1052813D081
:100CD000286A20F001002862286A20F0040002E05F
:100CE000286A40F001002862E06841F2883B98B130
:100CF000FFF774FD82460BE0286A40F0040028628A
:100D0000EEE700BFFFF76AFDA0EB0A0159455AD88C
:100D1000286A8007F6D50CE0FFF760FD824605E003
:100D2000FFF75CFDA0EB0A0159454CD8286A800703
:100D3000F6D41FB1E86920F08050E861E06988B31B
:100D40006968C1F38101022945D00228C6F8608094
:100D500004D0FFF743FD044638E034E0FFF73EFDE2
:100D6000074604E0FFF73AFDC01B02282BD828688D
:100D70008001F7D4206AB0F5803F05D16868A1688A
:100D800020F4003008436860D4E90801084369682A
:100D900021F4741108436860C6F86090FFF71EFDE7
:100DA000044606E015E000BFFFF718FD001B02280F
:100DB00009D828688001F7D50BE000BFFFF70EFDCA
:100DC000001B022802D90320BDE8F88F28688001A3
:100DD000F4D40020F8E70120F6E7000000100240FC
:100DE0000000424280044242C000002000700040E7
:100DF000FEB5044603200D4684F83400606C0328D9
:100E000020D0B5F5805F1DD0B5F5006F05D045B198
:100E1000A06B40F00060A06309E0204601F011FCE7
:100E200002E0204601F0E6FBA16B0143A163A06B49
:100E3000012658B1216840F2FF50886384F834607D
:100E40000120FEBDA06B40F08050E4E7211DD4E9F5
:100E500005700EC90095CDE90170206800F088FF8B
:100E600084F834600020FEBDF0B5426E120E930986
:100E70000B70C2F383034B7002F003028A70426E60
:100E8000120CCA70B0F86420120A0A7190F864203B
:100E90004A71826E4FF6FF73120E03EA0212CA8085
:100EA000826ECB88C2F3074243EA1213CB8002F072
:100EB0000F020A72B0F86820C2F30722D3094B72FE
:100EC000C2F380138B72C2F34013CB72C2F30013D0
:100ED0000B7300264E73446C4FF4007701236CB102
:100EE000012C43D0026840F2FF519163816B41F0C5
:100EF0008051816380F834300120F0BD9207120DDB
:100F00000A6190F868200C6944EA82020A61C26EA4
:100F10000C69120E44EA92140C61C2F3C2040C75FF
:100F200002F007024A75C26EC2F3074254098C757B
:100F3000C2F38204CC759207520F0A76B0F86C2087
:100F4000C2F307240A7E42EAD4120A760A69521CC6
:100F500042650D7EAD1CAA4042650D7A03FA05F587
:100F600085656D0A6A43C0E917271CE090F8682080
:100F70009206920A0A61C26E0C69120E44EA0222BB
:100F80000A61C26E0C69C2F3074214430C61B0F8E7
:100F90006C20C2F307240A69521C4FEA8222426580
:100FA000C0E916720766C4F3801201F8192F4FEAE0
:100FB00084624FEA52624A7010F86C2F4C7844EA0F
:100FC000D2144C7002F07F028A7042684FEA1262BB
:100FD0004FEAD214CC70C2F341140C71C2F38204F4
:100FE0004C714FEA82724FEA12728A7142688C79B0
:100FF000C2F3074244EA92148C71C2F34014CC71DC
:101000000E7202F001024A728288C2F307224FEA8E
:10101000D2148C72C2F38014CC72C2F340140C73DD
:10102000C2F300144C73C2F381048C7302F0030208
:10103000CA7300794FEA500008744B744FF00000F7
:10104000F0BD426C0A60826C4A60C26C8A60026DBC
:10105000CA60426D0A61826D4A61C26D8A61006E2A
:10106000C8610020704770B50446B0F850000025F4
:101070000104206800F0FBFF18B1A16B0143A163DC
:1010800004E00021206800F06DFE0546C5F3432012
:1010900070BD70B5040004D094F83400002510B180
:1010A00005E0012070BD2577204600F037F80320C9
:1010B00084F83400204600F007F8A563256301207A
:1010C00084F83400002070BDFEB500250446C3201E
:1010D0000095CDE901502B462A462946206800F0AC
:1010E00047FE0D4E46F8A05F206800F053FE012534
:1010F00035600220FFF720FA204601F02AFA20B9D5
:10110000204601F0B3F9002805D084F83450A16BD3
:101110000143A1630120FEBD0000304230B585B01F
:1011200000210091019102910391006818498842C1
:101130002BD11848416941F480614161416901F452
:1011400080610491816941F010018161816901F040
:1011500010010491816941F02001816180690224BC
:1011600000F0200004904FF4F850CDE9000403256E
:10117000694603950848FFF733FA0420CDE90004D7
:10118000694603950548FFF72BFA05B030BD00000E
:101190000080014000100240001001400014014096
:1011A0002DE9F04F87B09A4617460E460446DDF803
:1011B00040B0FFF713FB00903EB194F834000128D3
:1011C00007D0A06B40F000500FE0A06B40F0006033
:1011D0000BE04FF00008C4F83880E06D07EB0A011F
:1011E000814204D9A06B40F00070A0637DE0032031
:1011F00084F834002068C0F82C80606C012800D08E
:101200007F024FF40071206800F014FE40F2FF5995
:10121000012530B12268C2F83890A16B0143A16367
:1012200061E04FF0FF3001904FEA4A200290902099
:1012300003900220CDE90408069501A9206800F07A
:101240007BFDBAF1010F06D90220206339462068E0
:1012500000F07EFE04E025633946206800F091FE30
:101260000028D7D140F22A382068416B11EA080FD4
:1012700022D1406B000409D50027206800F08EFDC4
:1012800046F827007F1C082FF7D32036BBF1000F4C
:1012900005D0FFF7A3FA0099411A5945E4D3216814
:1012A000C1F83890A06B40F00040A06384F834503F
:1012B000032007B0BDE8F08F416BC90509D5BAF12D
:1012C000010F06D9616C032903D000F001FF00284B
:1012D000A0D12068416B090709D5C0F83890A06BF0
:1012E00040F0080028E084F834500120E1E7416B29
:1012F000890705D5C0F83890A06B40F002001BE0CC
:10130000416B89061AD5C0F83890A06B40F02000D8
:1013100012E000BF00F042FD01C6BBF1000F05D096
:10132000FFF75CFA0099411A594507D32168C1F8C3
:101330003890A06B40F00040A063D4E72068416B78
:101340008902E7D42168C1F8389084F8345000202D
:10135000AFE700002DE9F04F87B09A4616460D46DC
:101360000446FFF73BFA06903DB194F8340001289B
:1013700007D0A06B40F000500DE0A06B40F0006083
:1013800009E00020A063E26D06EB0A01914204D956
:10139000A06B40F00070A06390E0032184F834104B
:1013A00021688146C862606C012800D076024FF443
:1013B0000071206800F03EFD40F2FF58012730B177
:1013C0002268C2F83880A16B0143A16317E0BAF12B
:1013D000010F06D9202020633146206800F092FEDC
:1013E00005E0102020633146206800F0A4FE0600CE
:1013F00008D02168C1F83880A06B3043A06384F81E
:1014000034705BE04FF0FF3000904FEA4A200190CB
:10141000902002904846CDE90407CDF80C90B946DB
:101420006946206800F088FC40F21A3B22E0406BDD
:1014300040040AD55FF0000705EB8701206800F043
:10144000C0FC7F1C082FF7D32035109830B1FFF770
:10145000C5F90699411A109881420BD32168C1F849
:101460003880A06B3043A06384F83490032007B029
:10147000BDE8F08F2068416B11EA0B0FD7D0416BAC
:10148000C9050FD5BAF1010F0CD9616C032909D038
:1014900000F01EFE30B12268C2F83880A16B014313
:1014A000A16309E02068416B090709D5C0F83880BD
:1014B000A06B40F0080014E084F834900120D6E7D7
:1014C000416B890705D5C0F83880A06B40F0020059
:1014D00007E0416BC0F83880C90604D5A06B40F026
:1014E0001000A063E8E784F834900020BFE770B5EF
:1014F00015460E46040003D094F83D0010B107E0F5
:10150000012070BD002084F83C00204600F01AF84D
:1015100004F108012068FEF7A1FF3146A2682068A7
:10152000FEF7E8FFD4E901022946236BFEF778FFB6
:10153000A168206850F8212042F0010240F82120E3
:10154000002070BDFFF70AB810B5401EB0F1807FD3
:1015500001D3012010BD4FF0E02460610F2160171E
:1015600000F0B0FA0020A06107202061002010BD2B
:10157000FEE70000044B4FF4805108B1002200E068
:1015800001221846FFF725B9001401403620010753
:1015900008800B48682202802A220A8000220280EA
:1015A0000280012202803F2202802B220A80002238
:1015B000028002800280EF2202802C200880704787
:1015C0000000026070B51D461446049E00F070F8DD
:1015D00004FB05F03146BDE8704000F049B800005A
:1015E00070B5203AD4B21023082200F061F82C2004
:1015F000C10608800C490D4B01EB041500204FF685
:10160000FF742A5C0021D60701D01C8001E000266F
:101610001E80491C5208C9B20829F4D3401CC0B22C
:101620001028EED370BD0000963F00080000026055
:10163000F0B516460D4604464FF4A07714E000BFFF
:1016400004F10800F02802D900241035ADB205F1EC
:101650001000B84201D90024254629462046FFF74C
:10166000BFFF0834A4B2761C3278002AE8D1F0BD5E
:1016700010B500222C23DC062380034B01E01980E7
:10168000521C8242FBD310BD0000026008B501204D
:10169000FFF770FF00F0E8F800F02AF800204FF4A0
:1016A000A073F02201460090FFF78CFF08BD0000F8
:1016B00070B54FF0C0452A242C800C4C060A2680B9
:1016C000C6B226801044401E020A2280C0B220808A
:1016D0002B202880080A2080C8B22080C818401E0D
:1016E000010A2180C0B2208070BD000000000260AD
:1016F00000B54FF0C041CF20088059480022028039
:101700008122028030220280ED220A80642202803F
:10171000032202801222028081220280E8220A80B3
:10172000852202801022028078220280CB220A8049
:10173000392202802C220280002202803422028080
:1017400002220280F7220A8020220280EA220A80F6
:10175000002202800280B1220A80002202801B2225
:101760000280B6220A800A220280A2220280C022BF
:101770000A8035220280C1220A8011220280C522FD
:101780000A80452202800280C7220A80A2220280AB
:10179000F2220A800022028026220A800122028090
:1017A000E0220A800F220280262202802422028068
:1017B0000B2202800E220280092202805422028023
:1017C000A8220280462202800C2202801722028078
:1017D000092202800F22028007220280002202805A
:1017E000E1220A8000220280192202801B2202804C
:1017F0000422028010220280072202802A22028014
:1018000047220280392202800322028006220280BF
:10181000028030220280382202800F22028036228B
:101820000A80C82202802A220A80002202800280C6
:101830000280EF2202802B220A8000220280028096
:10184000012202803F2202803A220A805522028031
:10185000112008800348FEF78BFD2920088000BD79
:1018600000000260FCBF020070B50A4C0022022199
:101870002046FEF7AEFF084D2846FEF779FD01220F
:1018800002212046FEF7A5FF2846BDE87040FEF77E
:101890006FBD000000180140FCBF02000149088034
:1018A000704700000000026010B504490448FEF7CC
:1018B00093FD0249491E087010BD0000A5000020DC
:1018C0004446000800B587B01C216846FEF79EFC20
:1018D00015484FF020411022016014494160002159
:1018E0008160C160C0E904128161C16113020162BB
:1018F000C0E90913C1620163416381630F20FF23C3
:101900000090CDE90103CDE903021120CDE90501E5
:10191000002269460448FFF7EAFD0548C16941F421
:101920008061C16107B000BD54010020040100A026
:10193000000001402DE9F04F85B000245948009483
:10194000019402940394816941F0100181618169DD
:1019500001F010010491816941F004018161816904
:1019600001F004010491816941F0080181618169FC
:1019700001F008010491816941F0400181618169B0
:1019800001F040010491816941F020018161806989
:10199000454F00F02000049000220C213846FEF74D
:1019A00018FFDFF808A10022F0215046FEF711FFD2
:1019B000DFF8FC90002203214846FEF70AFFDFF81B
:1019C000F4B041F20808002241465846FEF701FFF4
:1019D000002202213848FEF7FCFE7814CDE900040D
:1019E000694650460294FEF7FBFD082000903348FC
:1019F000CDE9010469465046FEF7F2FD0125CDE927
:101A00000054694638460294FEF7EAFD0C2003268E
:101A1000CDE90005CDE9024669463846FEF7E0FD0E
:101A20003020CDE90005CDE9024669465046FEF773
:101A3000D7FD022703970096CDE901546946484631
:101A4000FEF7CEFD4FF47F40CDE9000469464846DD
:101A50000294FEF7C5FDCDF800800396CDE9015450
:101A600069465846FEF7BCFDC020009001AA11202F
:101A700082E8510069465046FEF7B2FD0097039692
:101A8000CDE9015469460C48FEF7AAFD0022114633
:101A90000920FEF70DFF0920FEF7FEFE05B0BDE8A8
:101AA000F08F0000001002400008014000100140CB
:101AB000000C0140001401400018014000002110FA
:101AC000FEE770470907090E002806DA00F00F004C
:101AD00000F1E02080F8141D704700F1E02080F84C
:101AE00000147047F8B500248DF8004080211220C2
:101AF00000F0FCF800280BD00B220121684600F012
:101B00001FF8002804D09DF80000212801D00020F3
:101B1000F8BD094D6E1E0AE005EB4400417815F84A
:101B2000140000F0E3F80028F2D0641CA4B230786E
:101B30008442F1D30120F8BD01000020704700006D
:101B40002DE9F04714468846814600F081F80028C8
:101B50001DD0422000F05AF800F0AEF8A0B12046A7
:101B600000F054F800F0A8F800F092F800F070F8D7
:101B700000280CD0432000F049F800F09DF8224CDA
:101B80004FF0800A402698BB00F082F80020BDE8A4
:101B9000F0870025C4F810A007276806050E6661C7
:101BA00000F0C3F8266100F0C0F880212046FEF75F
:101BB0000BFE08B145F001057F1EFFB2EDD2666154
:101BC00089F80050B8F1010F666118D000F0ADF847
:101BD000C4F814A000F0A9F8266100F0A6F8666128
:101BE00000F0A3F8A8F1010009F101091FFA80F83B
:101BF000B8F1000FCDD100F04BF80120C7E700F09D
:101C000094F8C4F810A0E5E7001001402DE9F04178
:101C1000082507464FF0800840260C4C0FE000BF17
:101C200000F083F83806404601D5206100E060618D
:101C30007806070E00F079F8266100F076F86D1E40
:101C4000EDB26661ECD2BDE8F08100000010014009
:101C500070B50E4C802525614020206100F065F8AC
:101C600080212046FEF7B0FD002808D0656100F015
:101C70005CF880212046FEF7A7FD08B1002070BD6A
:101C8000656100F052F8012070BD000000100140B5
:101C900070B5084C4025656100F047F88026666104
:101CA00000F043F8256100F040F82661BDE870407F
:101CB00000F03BB80010014070B50B4D40246C6142
:101CC00000F033F88020286100F02FF82C6100F03C
:101CD0002CF880212846FEF777FD6C6108B10020C2
:101CE00070BD012070BD00000010014070B50D46B0
:101CF0000446FFF7ADFF002812D04220FFF786FF11
:101D0000FFF7DAFF68B1E0B2FFF780FFFFF7D4FF1B
:101D10002846FFF77BFFFFF7CFFFFFF7B9FF012052
:101D200070BDFFF7B5FF002070BD4FF4C870401EB6
:101D30000004000CFBD170470A6842624A68826264
:101D4000D1E902231A43D1E904310B43C16A1A4392
:101D500021F0F7011143C16200207047006800F0D4
:101D60000300704708B5084414300090006808BDAF
:101D700070B50DF1100C11439CE87000234319431A
:101D800029434268314347F6FF639A430A4342605E
:101D9000002070BD0321016000207047D0F8800052
:101DA00070470A688260D1E901231A43D1E90331FF
:101DB0000B43C1681A436FF30B011143C16000204C
:101DC00070470968C0F880100020704710B586B0D1
:101DD00004463720CDE900104020029000200390F7
:101DE0004FF48060049069462046FFF7DAFF41F225
:101DF00088323721204600F0B7F906B010BD000048
:101E000010B504460A4886B001432920CDE90010E8
:101E100040200290002003904FF4806004906946B7
:101E20002046FFF7BEFF204600F054FA06B010BD72
:101E30000000108010B586B004461020CDE90010D7
:101E400040200290002003904FF480600490694687
:101E50002046FFF7A6FF41F288321021204600F00D
:101E600083F906B010BD10B586B004460620CDE952
:101E7000001040200290002003904FF480600490F6
:101E800069462046FFF78DFF41F288320621204641
:101E900000F06AF906B010BD30B585B000240546E3
:101EA000009401944FF480600294CDE903406946A8
:101EB0002846FFF776FF0B484FF4FA510068B0FB55
:101EC000F1F041F288314843401E03D24FF0004008
:101ED00005B030BD696B0906F6D540F2FF50A86326
:101EE0002046F5E7C000002070B585B004464FF4E9
:101EF000D570009008204026CDE901060025C001DC
:101F0000CDE9035069462046FFF74BFF0F484FF4D9
:101F1000FA510068B0FBF1F041F288314843401EAD
:101F200002D24FF000450DE0616B11F0450FF6D085
:101F3000606B400702D5A663042503E0606B400692
:101F400000D5A66305B0284670BD0000C000002083
:101F500010B586B004461220CDE900104020029052
:101F6000002003904FF48060049069462046FFF7FC
:101F700018FF41F288321221204600F0F5F806B031
:101F800010BD10B586B004461120CDE900104020E8
:101F90000290002003904FF4806004906946204630
:101FA000FFF7FFFE41F288321121204600F0DCF8F5
:101FB00006B010BD10B586B004460720CDE900205C
:101FC00040200290002003904FF480600490694606
:101FD0002046FFF7E6FE41F288320721204600F056
:101FE000C3F806B010BD10B586B00446002102202B
:101FF000CDE90010C020CDE902014FF480600490CB
:1020000069462046FFF7CDFE204600F03BF906B0BA
:1020100010BD10B586B004460920CDE90010C020DF
:102020000290002003904FF480600490694620469F
:10203000FFF7B7FE204600F025F906B010BD10B539
:1020400086B0044600213320CDE900104020CDE9C0
:1020500002010001049069462046FFF7A2FE41F20A
:1020600088323321204600F07FF806B010BD10B54D
:1020700086B004460D20CDE90010402002900020DB
:1020800003904FF48060049069462046FFF789FE74
:1020900041F288320D21204600F066F806B010BDEE
:1020A00030B585B00C46054600210320CDE900106F
:1020B0004020CDE902010001049069462846FFF75F
:1020C00070FE22460321284600F024F905B030BDF9
:1020D00010B586B0044600210C20CDE90010402048
:1020E000CDE902010001049069462046FFF759FE40
:1020F000034A0C21204600F037F806B010BD00005E
:1021000000E1F50510B586B004461920CDE90010B0
:1021100040200290002003904FF4806004906946B4
:102120002046FFF73EFE41F288321921204600F09A
:102130001BF806B010BD10B586B004461820CDE9D6
:10214000001040200290002003904FF48060049023
:1021500069462046FFF725FE41F2883218212046C5
:1021600000F002F806B010BD444B10B51B684FF4E8
:10217000FA54B3FBF4F353435B1E02D24FF000401A
:1021800010BD426B12F0450FF6D0426B520703D5DB
:1021900004218163084610BD426BD20702D00121A1
:1021A000816303E00269D2B28A4201D0012010BDEE
:1021B00040F2FF5181630021FFF7D4FD304908420E
:1021C00001D1002010BD002802DA4FF0007010BDD0
:1021D000410001D5402010BD810001D5802010BDF7
:1021E000C10002D54FF4807010BD010102D54FF43B
:1021F000007010BD410102D54FF4806010BDC101D7
:1022000002D54FF4006010BD010202D54FF480509A
:1022100010BD410202D54FF4005010BD810202D51D
:102220004FF4804010BDC10202D54FF4004010BDF4
:10223000410302D54FF4003010BD810302D54FF4A5
:10224000802010BDC10302D54FF4002010BD010451
:1022500002D54FF4801010BD410402D54FF4001098
:1022600010BD810402D54FF4800010BD000702D5D7
:102270004FF4000010BD4FF4803010BDC0000020AE
:1022800008E0FFFD12494FF4FA520968B1FBF2F180
:1022900041F288325143491E02D24FF0004070474C
:1022A000426B12F0450FF6D0416B490703D504216C
:1022B000816308467047416BC90703D001218163E0
:1022C0000846704740F2FF518163002070470000CC
:1022D000C00000200E494FF4FA520968B1FBF2F138
:1022E00041F288325143491E02D24FF000407047FC
:1022F000426B12F0450FF6D0416B490703D504211C
:1023000081630846704740F2FF51816300207047A7
:10231000C00000201F4B10B51B684FF4FA54B3FBEC
:10232000F4F341F2883463435B1E02D24FF0004065
:1023300010BD446B14F0450FF6D0436B5B0703D51B
:1023400004218163084610BD436BDB0702D00121E5
:10235000816303E00369DBB28B4201D0012010BD31
:1023600040F2FF5181630021FFF7FCFC10F4604F45
:1023700004D0410406D54FF4005010BD000C10806D
:10238000002010BD000402D54FF4805010BD4FF462
:10239000803010BDC00000202DE9F04F89B00E46FE
:1023A0000446FEF71BFA00258346009501952F464B
:1023B00008212068FFF73EFD002834D1B4F8500012
:1023C00001042068FFF702FD00282CD1401E4FF0C9
:1023D0000808CDE9020830204FF00209CDE90409D0
:1023E0000120CDE9067002A92068FFF7A5FC20684E
:1023F000FFF725FE002816D1EA4640F22A4720685A
:10240000416B394212D1416B890204D5FFF7C6FCFA
:102410004AF825006D1CFEF7E1F9A0EB0B00401C0B
:10242000EDD14FF0004009B0BDE8F08F416B0907D6
:1024300003D5C0F838800820F5E7416B890703D53C
:10244000C0F838900220EEE7416B890603D52021C1
:1024500081630846E7E740F2FF518163009800BAC4
:102460007060019800BA30600020DCE710B590B0D1
:1024700004460120ADF838002068FFF76FFC002803
:1024800064D0606C032842D02068FFF7ACFD0028C0
:102490005AD100212068FFF765FC6067042120689D
:1024A000FFF760FCA06708212068FFF75BFCE0678E
:1024B0000C212068FFF756FCC4F88000606C0328EC
:1024C00025D00EA92068FFF7EBFD00283CD1606CF9
:1024D00003281CD0BDF83800206501042068FFF7F0
:1024E00098FD002830D100212068FFF73BFC606692
:1024F00004212068FFF736FCA06608212068FFF75A
:1025000031FCE0660C212068FFF72CFC20670421D9
:102510002068FFF727FC000DE06403A92046FEF7C2
:10252000A3FCB4F85000002302042068FFF742FD2A
:10253000002809D104F1100007C88DE8070094E8CD
:102540000F00FFF715FC002010B010BD4FF08060A9
:10255000FAE72DE9F8430025044600950068FFF7E7
:102560009BFC00281AD12068FFF7BEFC4FF0807852
:102570004FF6FF76D8B14FF08057A5640098411C04
:102580000091B0421AD000212068FFF71FFC20B94B
:1025900000212068FFF734FC10B13846BDE8F8830D
:1025A00000212068FFF7DEFBC00FE7D01FE0012706
:1025B000A7640098411C0091B04201D14046EDE76C
:1025C00000212068FFF702FC0028E7D14FF080418E
:1025D0002068FFF715FC0028E0D100212068FFF7F4
:1025E000C1FBC10FE5D0400001D5676400E0656420
:1025F0000020D3E71CB50446002000900190002184
:102600002068FFF7AFFB800102D54FF400601CBDCE
:1026100069462046FFF7C0FE0028F8D10198C003A4
:102620000CD5B4F8500001042068FFF7CFFB002858
:10263000EDD100212068FFF716FC1CBD4FF0806033
:102640001CBD1CB5044600200090019000212068AC
:10265000FFF788FB800102D54FF400601CBD69467E
:102660002046FFF799FE0028F8D1019840030CD5C9
:10267000B4F8500001042068FFF7A8FB0028EDD152
:1026800002212068FFF7EFFB1CBD4FF080601CBDEE
:1026900010B5064C01202070FDF72EFE18B92078E9
:1026A00020F001002070207810BD0000CC00002038
:1026B00010B5124888B014460078C00702D0032035
:1026C00008B010BDB9B1012905D0022908D00329ED
:1026D0000CD00420F4E76846FDF7FCFD069809E0FD
:1026E0006846FDF7F7FD0798208004E06846FDF78F
:1026F000F1FD079820600020E2E70000CC000020F8
:102700002DE9F0411E46174608460125094C0A4BA3
:1027100032463946FDF70AFE28B109E0641E02D2AE
:102720000120BDE8F081FDF7DBFD0028F6D1002592
:102730002846F6E7A086010000E1F50510B5064C35
:1027400001202070FDF7CCFD18B9207820F00100A1
:102750002070207810BD0000CC0000202DE9F04151
:102760001E46174608460125094C0A4B3246394693
:10277000FDF7ECFD28B109E0641E02D20120BDE89E
:10278000F081FDF7ADFD0028F6D100252846F6E7DB
:10279000A086010000E1F5057047FEF725B830B5C9
:1027A0008FB028216846FDF731FD14210AA8FDF7F6
:1027B0002DFD01210804CDE900100024029402251A
:1027C0000491CDE907504FF4E01009906846FEF7F8
:1027D0008DF90F20CDE90A056802CDE90C400221F0
:1027E0000AA80E94FEF796F80FB030BD0D480168A8
:1027F00041F00101016041680B4A114041600168EC
:102800000A4A11400160016821F480210160416899
:1028100021F4FE0141604FF41F0181600449C003AF
:1028200008607047001002400000FFF8FFFFF6FE4E
:1028300008ED00E0FEE7000010B5044600F580500A
:1028400000220271521EC262204601F011F908B145
:10285000032010BDB4F8FE01A0F52A41553901D07E
:10286000022010BD94F83600B4F8371040EA012178
:102870000848B0EB012F08D094F85210B4F8532058
:1028800041EA0221B0EB012F01D1002010BD01204F
:1028900010BD000000464154F0B50022174B14460D
:1028A00000F5805002EB420653F826506DB10768E0
:1028B000BD420BD103EB860587686E68BE4205D129
:1028C0002D89C688B54204D000E00124521C022A9A
:1028D000E8D3022A01D079B904E05CB9022909D011
:1028E0001220F0BD02EB420003EB80004089B0F5FE
:1028F000807F01D00020F0BD1020F0BD38220020E4
:1029000030B50021064A0C4601EB410352F8235032
:10291000854201D142F82340491C0229F4D330BD3D
:102920003822002000F58050426A006800F580508F
:10293000438980784343B1FBF3F0121D02CA19B1F9
:10294000884203D3401AF8E7002070471168084412
:10295000704700F58050891E4269921E8A4201D854
:1029600000207047826A807801FB002070472DE9C3
:10297000F04180460F0000F5805407D0404600F03B
:102980000FFF022809D20120BDE8F081E66816B1E8
:102990006069B04207D8012605E0411CF4D06169A6
:1029A0008142F1D83E46354660696D1CA84202D886
:1029B0000225022E0AD32946404600F0F1FE38B126
:1029C000411CE1D00128DFD0B542EDD10020DBE78A
:1029D0006FF070422946404601F0F2F830B957B125
:1029E0002A463946404601F0EBF820B101280DD0C7
:1029F00001252846C8E7E5602069411CF9D0401E42
:102A00002061607940F001006071F2E74FF0FF351E
:102A1000EFE700002DE9F04789460C6800E0641CF0
:102A200021782F29FBD05C29F9D000F580500B22AA
:102A300085692021284601F014F8002001460B4644
:102A40000826E25C5B1C202A35D92F2A33D05C2A69
:102A500031D02E2A01D0B04208D3082E38D12E2AE8
:102A600036D108200B268906090EEAE7802A05D30D
:102A7000234F41F003013A4412F8802C21A700E0D3
:102A80007F1C97F800C0BCF1000F02D09445F7D12D
:102A90001EE0A2F14107192F02D841F0020107E020
:102AA000A2F16107192F03D8203A41F00101D2B2F7
:102AB0002A54401CC5E71C44C9F80040202A01D80C
:102AC000042200E0002218B12878E52803D004E0B1
:102AD0000620BDE8F08705202870082E01D1880661
:102AE000010E01F00300012801D142F01002C1F3F0
:102AF0008100012801D142F00802EA720020E8E7D3
:102B000096450008222A2B2C3A3B3C3D3E3F5B5D1C
:102B10007C7F0000401E022815D20C4B00EB4002C7
:102B200003EB82014889B0F5807F05D008B1401ED3
:102B300080B2488110B104E00020FAE7002043F899
:102B40002200002070470220704700003822002039
:102B50002DE9F04100F580540F46E688761C3004DC
:102B6000000C38D0216991B3206800F58052538958
:102B70005B09B6FBF3F503FB1563002B67D1491C1A
:102B80002161E16821B3538992785B09B6FBF3F3C5
:102B9000521E13425BD100F003FE054601281FD9E7
:102BA000681C39D0206841F214010958A94248D85C
:102BB0006FB1E168FFF7DBFE05000FD0012D0FD0EC
:102BC000681C29D0206801F0A8F928BB0AE002E0BF
:102BD0001089B0423BD80420BDE8F0810720FBE714
:102BE0000220F9E741F20A0120680A5A002100F0A8
:102BF00038FF29462068FFF7ACFE2168002701F561
:102C000080514FF00108C8620FE000BF80F80480D7
:102C1000206801F082F908B10120DDE7206800F5A5
:102C20008050C16A491C7F1CC162206800F5805039
:102C30008178B942EAD8216801F58051C96AC91B77
:102C4000C162E56029462068FFF783FE2061E680C7
:102C500041F20A012068095A4909B6FBF1F201FB69
:102C6000126100EB411060610020B5E770B50446C9
:102C7000002100F033F888B904F5805529692868E7
:102C800000F0F6FE50B968690078E52809D040B137
:102C900001212046FFF75CFF0028EFD0042809D06F
:102CA00009E004F580542169206800F0E1FE050088
:102CB00003D011E0072005460EE0202200216069C4
:102CC00000F0CFFED4E905010B2200F0C1FE206820
:102CD000012100F580500171284670BD70B500F5E6
:102CE00080540D46E180A368012B42D0206800F596
:102CF0008050416999423CD923B90178032906D112
:102D0000436A23B1418980784E09464312E0018924
:102D1000A9422ED9406A13E000F042FD0346401C50
:102D200025D0022B25D3206800F5805040699842B9
:102D30001FD9AD1B2068B5421946EDD2FFF709FE39
:102D4000E360B0B121680A4601F580514B895B0907
:102D5000B5FBF3F31844206148894009B5FBF0F155
:102D600000FB115002EB40106061002070BD01209B
:102D700070BD022070BD0000084910B50B5C002238
:102D800053B901220A540A1801EB8000127A4068F4
:102D90000168104688470246104610BD50220020A8
:102DA00030B4054C231804EB80001B7A406804699A
:102DB0001846A44630BC60475022002030B4054D70
:102DC0002C1805EB8000247A406885682046AC46C4
:102DD00030BC604750220020044A111802EB8000EA
:102DE000097A4068426808461047000050220020D7
:102DF00030B4054D2C1805EB8000247A4068C56876
:102E00002046AC4630BC60475022002010B5044636
:102E100000F0FFF900280DD1204601F0A7F80028A6
:102E200008D104F58054A06AFFF774FE002801D190
:102E30000021216010BD00002DE9F74181B09046CE
:102E400002980090684600F020FD040003D50B2096
:102E500004B0BDE8F081104E002756F824502DB183
:102E60002846FFF74DFD05F580552F700198002885
:102E700003D000BF4FF480510F5446F8240002D015
:102E8000B8F1010F01D00020E2E7002202A901A859
:102E900000F0F4FADCE70000C80000202DE9F74F4D
:102EA000ADF5825D98B100F580564FF0000802F054
:102EB0001F0741F2440127F0010269440DF58050DB
:102EC000C6F8008000F0DAFA040006D0D4E0092049
:102ED00013B00DF5805DBDE8F08F0DF580500DF558
:102EE00081518161EB46416C584600F0FDFB0400C6
:102EF0000DF5805045690BD11DB1780803D0012133
:102F000002E0062404E000215846FFF7C5FC044611
:102F100017F01C0F74D04FF0010AE4B1042C13D148
:102F20000020574902E0401C022805D200EB400275
:102F300051F82220002AF6D1022804D05846FFF783
:102F400095FE044600E012240DF5805047F0080776
:102F5000456954B190E0E87A10F0110F01D00724D0
:102F60008AE0780701D5082486E0380756D500F0B6
:102F70008AFCA873010AE973010C2974000E6874B5
:102F800085F80B8085F81C8085F81D8085F81E80EB
:102F90000DF5805085F81F800068294600F0E0FCA0
:102FA00081460021284600F05CFF0DF58050B9F104
:102FB000000F006800F5805080F804A02CD00DF5BB
:102FC00080504946006800F58050D0F82CA00DF5DF
:102FD0008050006800F012FF04004DD10DF58050C4
:102FE000A9F10101006800F58050C1600DF5805025
:102FF0005146006800F03CFD04000BD03CE0FFE7C8
:10300000D4BBE87AC10601D5042435E0B90701D55F
:10301000C007A4D1380701D547F020070DF580502F
:10302000006800F58050C06AC6E90705780801D03D
:10303000012100E00021584600F046FCB062E8B1F2
:10304000B7710DF5805086F807804746006829461D
:1030500000F086FC3061287FD5F81D1040EA012081
:10306000C6E90270B7610DF5805077620068306084
:1030700000F58050C088B080204629E70224FBE795
:10308000382200202DE9F04F884687B0002199466C
:1030900015468346196000F069FF002812D10BF530
:1030A0008054E07900280DD1A079C00709D0D4E977
:1030B0000201081A01274FF0020A854200D905468D
:1030C000A2E0072007B0BDE8F08F2068A16800F5F6
:1030D00080535E89B1FBF6F206FB1212002A73D10F
:1030E000B1FBF6F29B785B1E1A4012F0FF0610D17E
:1030F00029B1626A2AB15846FFF714FC04E020693E
:1031000002E0616900F04CFB02281FD3411C55D03E
:10311000606161692068FFF71CFCB8B13044009021
:10312000206800F580504189B5FBF1F1039151B35E
:10313000721881788A4201D9891B039140784146EF
:10314000039B009AFFF73AFEC0BB03E084F807A098
:103150000220B7E7A07940060ED5A1690098081AA9
:103160000399884208D2216801F580514A8959465D
:1031700000FB028000F06CFC206800F5805046895E
:103180000398464336E0A26900998A421AD0A17991
:10319000490609D5407801235946FFF729FE68B949
:1031A000A07920F04000A0712068012300F5805034
:1031B00059464078009AFFF701FE18B1E7710120E7
:1031C00080E701E00098A0612068A16800F58050C8
:1031D0004089B1FBF0F200FB1212861AAE4200D910
:1031E0002E46B1FBF0F200FB121159443246404624
:1031F00000F02EFCA068B0443044A060D9F8000074
:103200008119AD1BC9F80010002D7FF45EAF0020BE
:1032100058E770B5054600F0A9FE002811D105F564
:103220008054A1798A060CD548060FD52068012361
:1032300000F5805029464078A269FFF7D9FD08B112
:10324000012070BDA07920F04000A071E1692068E4
:1032500000F00EFC0028F4D1256AE87A40F0200046
:10326000E872207B2877A089000A6877E068000C64
:10327000A877E068000EE8772846216900F0F1FDA4
:1032800000F001FBA875010AE975010C2976000E12
:1032900068760020A874E874A079012120F020004D
:1032A000A071206800F5805001712068BDE8704071
:1032B00000F0DFBD2DE9FC5F8846002199461546E8
:1032C0008346196000F052FE002808D10BF58054A7
:1032D000E079002803D1A079800702D40720BDE857
:1032E000FC9FA068012741194FF0020A81427AD35E
:1032F000B5E02068A168024600F580504389B1FB23
:10330000F3F603FB1616002E6ED1B1FBF3F38078B3
:10331000401E034013F0FF0618D129B1606A38B18E
:103320005846FFF7FFFA07E0206938B9002100E0AE
:1033300061691046FFF71BFB002854D0012833D0E9
:10334000411C62D06061216901B92061A079400609
:103350000DD52068012300F5805059464078A269B8
:10336000FFF746FDF0BBA07920F04000A071616935
:103370002068FFF7EEFAB8B130440190206800F5FC
:1033800080504189B5FBF1F1009171B372188178D9
:103390008A4201D9891B0091DDE90032407841461B
:1033A000FFF726FDF0B903E084F807A0022096E7B6
:1033B000A1690198081A009988420CD2216801F588
:1033C00080514A8900FB0281584600F041FBA079F8
:1033D00020F04000A071206800F5805046890098D8
:1033E000464332E011E03DE014E0FFE7A169019AB5
:1033F00091420DD0D4E90212914209D240780123C2
:103400005946019AFFF7DAFC10B1E771012066E72F
:103410000198A0612068A16800F580504089B1FB47
:10342000F0F200FB1212861AAE4200D92E46B1FB12
:10343000F0F200FB121101EB0B003246414600F0A6
:1034400007FBA07940F04000A071A068B044304470
:10345000A060D9F80000AD1B3044C9F80000002D71
:103460007FF447AFD4E90201884200D9E060A07937
:1034700040F02000A071002031E700002DE9FF5F3F
:103480004FF0000B0546C0F800B01746084600F0A4
:10349000FCF9060003D50B2004B0BDE8F09F8F486F
:1034A00050F826409CB12C6004F58055287820B156
:1034B0006878FFF791FCC1070BD085F800B0F0B237
:1034C0006870FFF759FCC10708D00320E4E70C201F
:1034D000E2E70FB1400704D40020DDE71FB1400749
:1034E00001D50A20D8E741F20A0162186878022162
:1034F000FFF756FC78BB6889B0F5007F34D3B0F590
:10350000805F31D8002631462046FFF795F9012823
:1035100026D100204FEA0D0204EB001191F8C231D0
:1035200001F5DF712BB10B7AD1F8091043EA0121C3
:1035300000E0002142F82010401C0428ECD30027B2
:103540004FEA020858F8276036B131462046FFF7A7
:1035500073F910B90AE007E002207F1C042FF1D3B1
:10356000032801D0F0BB01E0012095E7B4F80B007F
:10357000B5F80AC060455FD1E18A29B994F8240002
:10358000D4F8251040EA0121A961207C8A46E87020
:10359000012801D002284FD100FB01F9607BA870FF
:1035A00000B3411E084247D1B4F811104FEA5C1233
:1035B000B1FBF2F302FB131329819BB9B4F813702A
:1035C0002FB994F82030D4F8217043EA0727E38913
:1035D00043B1B1FBF2F803EB0902424497422BD30B
:1035E000BF1A00E028E0B7FBF0F028B3012740F64F
:1035F000F678404500D302274FF6F678404500D3D1
:103600000327801C3244AA6233446861C5E907631A
:10361000032F13D081B103EB09016962022F18D087
:1036200000F0010100EB400001EB5000401E60443F
:10363000B0FBFCF151450ED90D202DE70029FBD13F
:1036400094F82C10D4F82D20800041EA0221696200
:10365000ECE74000EAE74FF0FF302861E8608020A7
:103660006871032F2ED1208E01282BD12046711C8A
:1036700000F0FEF930BB85F805B0B4F8FE01A0F506
:103680002A4155391ED12078D4F8011040EA012092
:103690001349884216D194F8E401D4F8E51140EAC0
:1036A0000120104988420DD194F8E801D4F8E911BD
:1036B00040EA0120286194F8EC01D4F8ED1140EAC9
:1036C0000120E86005492F70091F0888401C088008
:1036D000E8802046FFF714F9FEE60000C80000204D
:1036E00052526141727241612DE9F34105460198E0
:1036F00001782F2901D05C2901D1401C019005F5EA
:1037000080560024B46001980078202806D2002159
:103710002846FFF7E3FA7461BDE8FC8101A9284659
:10372000FFF778F90028F7D100212846FFF7D6FAED
:1037300010BB05F580542169206800F099F9D8B9CB
:1037400061690A782AB1CA7A12070FD40A23A269DA
:1037500003E0042010E05B1E07D311F8017B12F890
:1037600001CBB7EB0C07F6D000E02FB100212846C3
:10377000FFF7EEF90028DED0B169C97A28B1042834
:10378000CAD14907C8D40520C6E74907C4D471691E
:10379000C87AC006F7D5306800F0E2F8B060BDE73F
:1037A0002DE9F0470D46074602290DD307F5805451
:1037B0006069A84208D920784FF0FF36012807D069
:1037C000022832D0032844D001263046BDE8F087D5
:1037D000618905EB5508B8FBF1F0216A01443846D0
:1037E00000F046F90028F0D16189B8FBF1F201FB45
:1037F000128008F1010817F80090B8FBF1F0216A77
:103800000144384600F034F90028DED16189B8FB64
:10381000F1F201FB1280395C49EA0120E90701D08D
:103820000609D2E7C0F30B06CFE76089216A40089A
:10383000B5FBF0F00144384600F01AF90028C4D175
:1038400061896800B0FBF1F201FB12003844068880
:10385000BBE76089216A8008B5FBF0F00144384677
:1038600000F006F90028B0D16189A800B0FBF1F2A0
:1038700001FB120038440178D0F8010041EA002031
:1038800020F07046A1E70020704710B504464FF0C5
:10389000FF302268002A13D0114600E0491C0B7843
:1038A000212B0ED33A2BF9D112F8013B303B0A2BD6
:1038B00006D28A4204D1002B02D1491C184621604D
:1038C00010BD002010BD0000F0B500F58053234866
:1038D0001C68002202EB420550F82560A64209D17F
:1038E00000EB85059F686E68BE4203D12D89DE8896
:1038F000B54202D0521C022AECD3022A18D100226F
:1039000002E0521C022A05D202EB420550F8255073
:10391000002DF6D1022A13D002EB420540F82540D3
:1039200000EB85049E686660DB8823810023638149
:10393000002902EB420100EB8101498902D019B153
:103940000020F0BD491C01E04FF4807102EB4203FE
:1039500000EB83004181501CF0BD000038220020A4
:10396000024602F58052488B1278032A02D1898AD6
:1039700040EA014070470000FCF73EFFFEF70FFFF2
:10398000FDF7D8FFFDF79EFF294828490024C0E92C
:1039900000148460C46004210461C0E90541FDF79E
:1039A00083FFFDF773FE00BFFEF79CF80128FBD1F3
:1039B000204D2C70204C012202212046FCF709FFEB
:1039C000012211462046FCF704FF01222021204657
:1039D000FCF7FFFE194EDFF868806714287802288C
:1039E0000ED101213046FCF7EFFE012808D115A0C9
:1039F00000F05AF820B9002201212046FCF7E9FE28
:103A000039464046FCF7E0FE0128E7D10DA000F062
:103A100067F90028E2D1012211462046FCF7D9FEC1
:103A2000002202212046FCF7D4FED7E700800140A7
:103A3000D00000209C000020000C01400008014044
:103A40000010014074657374312E626D70000000C7
:103A500004E000BF11F8013B00F8013B521EF9D20F
:103A60007047C9B201E000F8011B521EFBD270473B
:103A70002DE9F04100F580540746E06A0E46002526
:103A8000B0420ED0384600F048FA050009D16078FF
:103A9000012332463946FFF791F908B16E1E012520
:103AA000E6622846BDE8F0812DE9F84F0446012280
:103AB0003A493B48FFF7C0F9A8BB0A2221463948DA
:103AC000FFF7ECF978BB384844F64251002520F85E
:103AD000021B42218160354901608580C580282113
:103AE000C1604FF4A078C0F81080F021416101213D
:103AF0000183102141830321C1614FF4163101621A
:103B0000456285620563C5624FF4784141634FF4B5
:103B1000FC6181631F21C163254B42222249214858
:103B2000FFF7C8FB10B10120BDE8F88F2149042040
:103B30000860214E202474613461091F086074619B
:103B40003461C146DFF874800027AA4600257461FD
:103B5000D8F80010346101F47F417461D8F8000096
:103B6000C0F307200843ADF800003461104B022277
:103B700069460C48FFF79EFB6D1CADB24D45E6D380
:103B80007F1CBFB2F02FE1D30648FFF73FF9084989
:103B9000091F81F800A00020C6E70000A500002052
:103BA00098010020C8110020F42100204258020092
:103BB000A00000201408014000100140080C014042
:103BC0002DE9F04717460D460646022904D306F5AF
:103BD00080546069A84202D80220BDE8F0872178AD
:103BE00007F0FF094FF0010A012924D002295DD016
:103BF0000329F1D16089216A8008B5FBF0F0014406
:103C00003046FFF735FF0028E7D16289A900B1FBF4
:103C1000F2F302FB13118A194FF07043D2F801102E
:103C200003EA0121394311700B0A53700B0C937096
:103C3000090ED17050E0618905EB5508B8FBF1F031
:103C4000216A01443046FFF713FF0028C5D161897E
:103C5000B8FBF1F201FB1280304408F10108E907DA
:103C600003D0017869F31F1100E03946017084F830
:103C700004A06189B8FBF1F0216A01443046FFF7E6
:103C8000F7FE0028A9D16289B8FBF2F302FB138189
:103C90003144EA0702D0C7F3071205E00A78C7F3F8
:103CA000032302F0F0021A430A7015E06089216ACA
:103CB0004008B5FBF0F001443046FFF7D9FE00287C
:103CC0008BD162896900B1FBF2F302FB131131441D
:103CD0003A0A81F800904A7084F804A07DE7000059
:103CE000F8B5044601222F492F48FFF7A5F808B17F
:103CF0002EA206E0012221463248FFF7CFF830B16C
:103D000031A20A210846FDF793FC0120F8BD334893
:103D100044F64251282220F8021B4221816030499A
:103D2000016000218180C180C260D5000561F02260
:103D3000426101220283102242830322C2614FF4B6
:103D400016320262416281620163C1624FF47841BE
:103D500041634FF4FC6181631F21C163214B422207
:103D60001E491848FFF78EF908B11FA2C9E7FDF7F1
:103D70000DFC002400261B4B022269461148FFF768
:103D800081F9BDF80000FDF789FD761CB6B2AE42A0
:103D9000F1D3641CA4B2F02CECD30A48FFF736F838
:103DA0000020F8BDA50000209801002043616E743A
:103DB0002064657465637420534420636172642ECB
:103DC0002E2E0000C811002043616E7420726561C0
:103DD000642066696C652E2E2E000000F421002000
:103DE00042580200A000002043616E742072656199
:103DF0006420646174612E2E2E0000002DE9F041D4
:103E00000F468046022918D308F580556869B842E4
:103E100013D900261FE039464046FFF7C1FC0400D5
:103E20001CD0012C09D0601C09D000223946404624
:103E3000FFF7C6FE060011D103E002260EE00126C0
:103E40000CE02869411C05D0401C2861687940F0CD
:103E50000100687127466869B842DCD83046BDE881
:103E6000F08181760A0AC2760A0C0275090E417544
:103E7000704770B5044600F050F806004BD104F5C9
:103E80008055287803283FD1687901283CD16A8978
:103E900000212046FFF7E5FD552084F8FE01AA2009
:103EA00084F8FF015220207060706120A0704121D1
:103EB000E170722284F8E42184F8E52184F8E611A7
:103EC00084F8E701286984F8E801010A84F8E91117
:103ED000010C84F8EA11000E84F8EB01E86884F81C
:103EE000EC01010A84F8ED11010C84F8EE11000ECA
:103EF00084F8EF01EA690123521CEA6268782146DE
:103F0000FEF776FF00206871002268781146FEF700
:103F100047FF00B10126304670BD2DE9F04100F5A4
:103F20008054804620790027E8B1E56A6078012353
:103F30002A464146FEF75CFF08B1012713E0002046
:103F40002071206AA169281A88420CD2E67808E01C
:103F5000A0690123054460782A464146FEF748FFE0
:103F6000761E022EF4D23846BDE8F08110B580B13D
:103F700000F58050016861B101F580510A7842B1C5
:103F8000CA888088824204D14878FEF725FFC0079E
:103F900000D0092010BD000000000000000000005B
:103FA000000000000000000000183C3C3C18180015
:103FB000181800000000000000666666000000009F
:103FC0000000000000000000006C6CFE6C6C6CFED9
:103FD0006C6C000000000018183C66060C1830607D
:103FE000663C1818000000000E1B5B6E30180C7643
:103FF000DAD8700000000000001C36361C06F66699
:1040000066DC000000000000001818180000000026
:104010000000000000000000003018180C0C0C0C10
:104020000C18183000000000000C18183030303028
:104030003018180C000000000000006C38FE386CCE
:10404000000000000000000000000018187E181892
:104050000000000000000000000000000000000060
:10406000383830180000000000000000007E00001A
:104070000000000000000000000000000000000040
:104080003838000000000000006060303018180C64
:104090000C060600000000000078CCECECCCDCDC68
:1040A000CC780000000000000030383E3030303066
:1040B0003030000000000000003C66666030180CE4
:1040C000067E000000000000003C66666038606606
:1040D000663C000000000000000C0C6C6C6C66FE7E
:1040E0006060000000000000007E0606063E606082
:1040F000301E0000000000000038180C3E666666A6
:10410000663C000000000000007E60303018180C93
:104110000C0C000000000000003C66666E3C7666F9
:10412000663C000000000000003C666666667C306D
:10413000181C0000000000000000003838000000DB
:10414000383800000000000000000038380000008F
:104150003838301800000000006030180C060C18C9
:104160003060000000000000000000007E007E00C3
:10417000000000000000000000060C18306030183D
:104180000C06000000000000003C666630181800B5
:104190001818000000000000007EC3C3F3DBDBF34F
:1041A00003FE00000000000000183C6666667E66A4
:1041B0006666000000000000003E6666663E6666B9
:1041C000663E000000000000003C666606060666CB
:1041D000663C000000000000001E366666666666EB
:1041E000361E000000000000007E0606063E0606A1
:1041F000067E000000000000007E0606063E060661
:104200000606000000000000003C666606067666B2
:10421000667C00000000000000666666667E6666DA
:104220006666000000000000003C181818181818F6
:10423000183C000000000000006060606060606684
:10424000663C00000000000000666636361E36360A
:104250006666000000000000000606060606060668
:10426000067E00000000000000C6C6EED6D6D6C608
:10427000C6C600000000000000C6C6CEDEF6E6C6D8
:10428000C6C6000000000000003C66666666666602
:10429000663C000000000000003E6666663E0606C2
:1042A0000606000000000000003C66666666666662
:1042B000663C306000000000003E6666663E366682
:1042C0006666000000000000003C66060C183060C6
:1042D000663C000000000000007E1818181818182E
:1042E00018180000000000000066666666666666D4
:1042F000663C000000000000006666666666666652
:104300003C1800000000000000C6C6C6D6D6D66C19
:104310006C6C0000000000000066662C1818346603
:10432000666600000000000000666666663C1818BD
:104330001818000000000000007E606030180C06B5
:10434000067E000000000000003C0C0C0C0C0C0C65
:104350000C0C0C0C3C0000000006060C0C1818306D
:104360003060600000000000003C30303030303001
:10437000303030303C0000183C6600000000000087
:10438000000000000000000000000000000000002D
:1043900000000000FF00001C1830000000000000BA
:1043A00000000000000000000000003C60607C662F
:1043B000667C0000000000000006063E6666666639
:1043C000663E0000000000000000003C6606060695
:1043D000663C0000000000000060607C6666666667
:1043E000667C0000000000000000003C66667E065F
:1043F000063C00000000000000780C0C0C7E0C0C49
:104400000C0C0000000000000000007C6666666680
:10441000667C60603E0000000006063E66666666DA
:1044200066660000000000001818001E1818181812
:10443000187E0000000000003030003C303030308A
:10444000303030301E0000000006066666361E362C
:104450006666000000000000001E181818181818E2
:10446000187E0000000000000000007ED6D6D6D6E0
:10447000D6C60000000000000000003E66666666CA
:1044800066660000000000000000003C666666668C
:10449000663C0000000000000000003E66666666A4
:1044A000663E0606060000000000007C6666666642
:1044B000667C60606000000000000066760E060604
:1044C00006060000000000000000007C06063C60BC
:1044D000603E000000000000000C0C7E0C0C0C0C78
:1044E0000C7800000000000000000066666666664A
:1044F000667C0000000000000000006666666666DC
:104500003C18000000000000000000C6D6D6D6D639
:104510006C6C00000000000000000066663C183C67
:1045200066660000000000000000006666666666C1
:10453000663C30180F0000000000007E6030180C50
:10454000067E00000000000000301818180C060C51
:10455000181818300000000000181818181818183B
:104560001818181818000000000C181818306030BF
:104570001818180C00000000008EDB71000000000D
:104580000000000000000000000000000000010228
:10459000030406070809809A90B68EB78F80D2D39D
:1045A000D4D8D7DE8E8F909292E299E3EAEB5999B4
:1045B0009A9D9C9D9E9FB5D6E0E9A5A5A6A7A8A912
:1045C000AAABAC21AEAFB0B1B2B3B4B5B6B7B8B95F
:1045D000BABBBCBDBEBFC0C1C2C3C4C5C7C7C8C9C2
:1045E000CACBCCCDCECFD0D1D2D3D4D5D6D7D8D9B3
:1045F000DADBDCDDDEDFE0E1E2E3E5E5E6E7E7E9A3
:10460000EAEBEDEDEEEFF0F1F2F3F4F5F6F7F8F991
:10461000FAFBFCFDFEFF00040002000180004000E8
:10462000200010000800040002000000008000408C
:1046300000200010000800400020001000080004C6
:1046400000020000912600083D270008012700080D
:104650005D270008B1260008784600080000002009
:10466000D00000006C01000848470008D00000207E
:10467000F0270000880100084D11001246173F186E
:104680005019031A78320029502C782A00427F4DA5
:104690000963E064FF65206600670013F00D810F79
:1046A000C5142122FF23012434253C26A12B006BB5
:1046B000AA13FF695D900A910192019301945F959D
:1046C000539611971A983D995A9A1E9B009C25A7BC
:1046D00065A8659E81A6067E0C7F16802A814E8283
:1046E00061836F847B8586868E879788A489AF8A4D
:1046F000C58BD78CE88D20A980AA80ACFF3300221F
:104700009923034A00491347084B144C1746050CDC
:10471000D00EF500000000000000000000000000C6
:104720000000000000000000000000000100000088
:10473000100000000000000000A24A040000000079
:08474000000000000100000070
:0400000508000131BD
:00000001FF
