:020000040800F2
:10000000F8A200202D020008276A0008B91B00088A
:10001000256A0008890C00080D8D0008000000000A
:10002000000000000000000000000000857B0008C8
:10003000E10E00080000000021720008757E000833
:10004000470200084702000847020008470200086C
:10005000470200084702000847020008470200085C
:10006000470200084702000847020008470200084C
:10007000470200084702000847020008470200083C
:10008000470200084702000847020008470200082C
:10009000470200084702000847020008470200081C
:1000A000470200084702000847020008470200080C
:1000B000C97E000847020008F57E000847020008D4
:1000C00047020008470200084702000847020008EC
:1000D00047020008958A0008F98A000847020008CC
:1000E00047020008470200084702000847020008CC
:1000F00047020008470200084702000847020008BC
:1001000047020008470200084702000847020008AB
:10011000470200084702000847020008470200089B
:10012000470200084702000847020008470200088B
:1001300000F002F800F06BF80AA090E8000C82448E
:100140008344AAF10107DA4501D100F060F8AFF26B
:10015000090EBAE80F0013F0010F18BFFB1A43F0A5
:100160000103184738D0000058D000000A444FF06F
:10017000000C10F8013B13F0070408BF10F8014B06
:100180001D1108BF10F8015B641E05D010F8016B4B
:10019000641E01F8016BF9D113F0080F1EBF10F8AF
:1001A000014BAD1C0C1B09D16D1E58BF01F801CBD2
:1001B000FAD505E014F8016B01F8016B6D1EF9D555
:1001C0009142D6D37047000000230024002500266A
:1001D000103A28BF78C1FBD8520728BF30C148BFAA
:1001E0000B607047642900F0B580752900F0B2807B
:1001F000782900F01681632900F01983732900F033
:100200001E83002070471FB51FBD10B510BD00F044
:1002100061FB1146FFF7F7FF09F058F800F07FFB8C
:1002200003B4FFF7F2FF03BC08F0AFFD09488047B5
:1002300009480047FEE7FEE7FEE7FEE7FEE7FEE7C8
:10024000FEE7FEE7FEE7FEE704480549054A064BE0
:1002500070470000797E000831010008F89C0020FA
:10026000F8A20020F89E0020F89E002070470000B1
:100270000FB4044910B503AA029800F0E5FA10BCC7
:100280005DF814FBF00000200FB41CB5084B06AA63
:100290007B4469460090059800F0A7FA04460020C8
:1002A000694600F0B5FA20461CBC5DF814FB00005E
:1002B0007D05000070B5044685690068C10601D55A
:1002C000302600E02026C00707D070BDD4E9012108
:1002D00030469047206A401C20626D1EF6D570BDE6
:1002E00070B5044685690078C00707D170BDD4E9B0
:1002F000012120209047206A401C20626D1EF6D507
:1003000070BD70B50C460546012A05D028788006D8
:1003100000D5EA69002302E0012305E05B1C93425B
:1003200002D2E05C0028F9D1A869E618C01AA861D9
:10033000286A184428622846FFF7BCFF04E0D5E984
:10034000012114F8010B9047B442F8D32846FFF777
:10035000C7FF70BD2DE9F0410646002410687529DD
:10036000314616A510D0AFF30080002802DA4042D3
:1003700013A507E031688A0701D512A502E04907F5
:1003800004D511A5012401E0AFF3008000210A2269
:1003900006F1240709E0B0FBF2FCB0FBF2F302FB2C
:1003A0001C00303078541846491C0028F3D12346ED
:1003B0002A463046BDE8F04100F0B9B9000000001F
:1003C0002D0000002B00000020000000F0B40D46BE
:1003D0000188090502D5214C7C4402E01F4C7C4475
:1003E0000E34002100F1240608E002F00F07120984
:1003F000E75D42EA03721B097754491C52EA03077E
:10040000F3D102780023120704D5702D06D009B16C
:10041000022311342246F0BC00F089B901231034C4
:10042000F8E770B504460D4621461068AFF300802A
:10043000024629462046BDE870400023C6E7D21D8B
:1004400022F00703D3E90023C0E70368126843F0F2
:10045000200303600823C3610023B7E7B4CB000087
:100460002DE9F05F894604464FF0000ADFF874B1C9
:10047000FB44C0F820A02046E1688847002874D0DB
:10048000252806D0D4E901219047206A401C20622B
:10049000F1E700265F462046E168884720280546A8
:1004A00007DB312D05D2781910F8200C08B106436E
:1004B000F1E7B00701D526F00406C4F81CA0002718
:1004C000C4F818A02A2D09D0284608F057FC38B3E4
:1004D00004EB8708303DC8F8185019E059F8041BA0
:1004E000204604EB87029161E1688847012F0546A9
:1004F00018D1E069002820DA26F020061DE0D8F89F
:10050000180000EB800005EB40003038C8F81800F8
:100510002046E1688847054608F030FC0028EED107
:10052000012F0AD02E2D08D12046E16888477F1C74
:100530000546022F46F02006C4DBA069002803DA36
:10054000404246F00106A061F00701D026F01006F7
:100550006C2D0BD0682D09D04C2D39D06A2D35D09B
:10056000742D35D07A2D33D016E038E0E1682F466F
:1005700020468847B842054609D16C2F26D04FF453
:100580008060E168064320468847054604E06C2FFA
:100590001AD04FF4807006430DB3A5F1410019281D
:1005A00002D8203546F400664A4629462046266091
:1005B0004E46FFF717FE80B101280BD0F61D26F03E
:1005C000070000F1080956E74020E4E78020D8E75B
:1005D0000020D6E706F104094DE7284652E7206AD5
:1005E000BDE8F09F44CB000030B505460B462A46D7
:1005F00013F8014B12F8010B08B1A042F8D01CB15E
:10060000002802D06D1CF1E7284630BD10B5431C10
:1006100002E010F8011B71B18107FAD14FF00132ED
:1006200002C88C1A8C4314EAC211F9D0C01A0A0607
:1006300003D0C01E10BDC01A10BD0A0401D0801E18
:1006400010BD0902FCD0401E10BD4FF0000204296D
:10065000C0F0128010F0030C00F00A81CCF1040C01
:10066000BCF1020F18BF00F8012BA8BF20F8022B25
:10067000A1EB0C0100F0FCB85FEAC17C24BF00F8DC
:10068000012B00F8012B48BF00F8012B7047000038
:100690004FF0013C50F8042B51F8043B9A4221D111
:1006A000A2EB0C03934313EACC1317D150F8042B9D
:1006B00051F8043B9A4215D1A2EB0C03934313EA81
:1006C000CC130BD150F8042B51F8043B9A4209D1BA
:1006D000A2EB0C03934313EACC13DBD04FF00000E2
:1006E000704700BFD01A01BAB1FA81F101F01801C8
:1006F00022FA01F0CB40C1F12001DBB2C0B2C01A36
:100700002CFA01F3D11A914311EAC311E6D17047D3
:10071000704770477047704710B500F0CFF8006819
:1007200010BD10B5044600F0C9F8046010BD2DE9F5
:10073000F0470D4699469246044600F124080168A8
:10074000880604D5E06921F01001216000E0012055
:10075000A84201DD471B00E00027A1697A1902EBDE
:100760000900081AA0612078C00602D42046FFF7CD
:10077000A1FD002608E0D4E901211AF806009047FF
:10078000206A401C761C20624E45F4DB2078C006AF
:100790000AD52046FFF78EFD06E0D4E9012130207E
:1007A0009047206A401C2062381EA7F10107F4DC44
:1007B00007E0D4E9012118F805009047206A401CA1
:1007C0002062281EA5F10105F3DC2046FFF788FD15
:1007D0002078000602D50220BDE8F0870120FBE763
:1007E00001694A1C02610878704700B58FB0CDE9F5
:1007F00001310021059105497944CDE903101146E5
:100800006846FFF72DFE0FB000BD0000E5FFFFFFBB
:100810000A6802F8010B0A60704710B5436913B10A
:10082000AFF3008001E0FFF76CFD012010BD1278EE
:1008300000F124010A7000224A700122EDE71168DC
:100840004FF0FF32E9E70000074B70B50D467B44DF
:10085000FFF7CBFF0446284600F034F810B14FF004
:10086000FF3070BD204670BD278A00004FF00002A7
:1008700000B5134694469646203922BFA0E80C5096
:10088000A0E80C50B1F12001BFF4F7AF090728BF71
:10089000A0E80C5048BF0CC05DF804EB890028BFED
:1008A00040F8042B08BF704748BF20F8022B11F016
:1008B000804F18BF00F8012B7047000000487047B8
:1008C000989C0020007B00F0800070470048704733
:1008D000989C00207546FFF7F9FFAE460500694673
:1008E000534620F00700854618B020B5FFF7ACFC52
:1008F000BDE820404FF000064FF000074FF0000821
:100900004FF0000B21F00701AC46ACE8C009ACE8A1
:10091000C009ACE8C009ACE8C0098D46704710B505
:100920000446AFF300802046BDE81040FFF778BCD6
:1009300001F064B92DE9F0410D460146002004465E
:100940004E1908E00702301B401E80B200F007F885
:10095000641C3844E4B2AC42F4D3BDE8F08110B575
:10096000044601F0EFF9200AA02101EB4000C0B2DB
:1009700001F0B8F901F028FAE0B201F0B3F901F0A2
:1009800023FA01F0DFF9A12001F0ACF901F01CFA23
:10099000002001F071F9044601F0F4F9204610BD81
:1009A0002DE9F04116460D460746002409E0E00017
:1009B00025FA00F0C1B2381980B200F006F8641CC4
:1009C000E4B2B442F3D3BDE8F08170B50D460446FD
:1009D00001F0B8F9200AA02101EB4000C0B201F0FB
:1009E00081F901F0F1F9E0B201F07CF901F0ECF9E4
:1009F000284601F077F901F0E7F901F0C3F9BDE805
:100A000070400A2008F00EBA2DE9F04300260127B5
:100A10006C4D8BB0B9464FF6FF744FF0F008012FC4
:100A200004D0022F49D0032F62D180E0761C0094BD
:100A3000F6B22A88A0236421002001F0A3FE4A46D2
:100A400061A101A8FFF720FC102301AA6421002066
:100A5000CDF8008007F0D6F906F088FA50BB0026E2
:100A6000642008F0DFF9012006F054FA28B107F0FD
:100A700015F9C82008F0D6F9D8E700942A88A023F1
:100A80007821002001F07EFE102355A2782100205D
:100A9000CDF8008007F0B6F909F1010000F0FF0978
:100AA000B9F1050F02D34FF000090227C82008F062
:100AB000B9F9B4E707F0F2F81AE000942A88A02305
:100AC0006421002001F05EFE4746102349A2642104
:100AD0000020CDF8008007F095F906F0F5FAB0B1E6
:100AE000002707F0DBF800BF4FF47A7008F09AF99E
:100AF000C82008F097F9142E91D300942A88A023D7
:100B00006421002001F03EFE0BB0BDE8F0830094AC
:100B10002A88A0237821002001F034FE10233DA272
:100B200078210020009707F06DF90327DCE7009497
:100B30002A88A0236421002001F024FE47461023C8
:100B40003CA264210020CDF8008007F05BF910235F
:100B500040A278210020009707F054F94FF49677CF
:100B600000F06EFD0146B842FAD2012006F0D4FA38
:100B700008B100279EE700942A88A0236421002062
:100B800001F000FE102337A278210020CDF800806C
:100B900007F038F93A4806F0F7FA10200090384983
:100BA0003848891E032300884988421A5021084684
:100BB00005F088FE40F2DC5008F034F9A023F02262
:100BC00000949DE7AC030020506C65617320746F46
:100BD0007563682066696E67657228256429000060
:100BE00046696E6765727072696E7420636F7272A7
:100BF0006563740047656E65726174652066696E31
:100C00006765727072696E742074656D706C617462
:100C10006500000047656E65726174652066696EE7
:100C20006765727072696E74207375636365737340
:100C300000000000496E7470757420494420616E94
:100C4000642073617665207769746820454E544549
:100C500052210000303D3C204944203C3D3439398C
:100C6000000000004164642066696E6765727072FE
:100C7000696E7420737563636573732121210000AD
:100C800002000020A0030020FEE7000070B50D4C1C
:100C90000025C4F880510C48016821F470410160BE
:100CA000016841F440510160C4F88C510A2004F5F8
:100CB000C07408F0D1F8012020600A2008F0CCF8B8
:100CC000256070BD00002242001001400C4881697F
:100CD00041F0100181610B4801684FF20F0291430E
:100CE0000160016843F2030211430160C16841F0F1
:100CF0000201C160C16841F00801C1607047000095
:100D0000001002400010014070B50D4C0025C4F8E1
:100D100080510C48016821F470410160016841F480
:100D2000405101600126C4F88C610A2004F5C074AA
:100D300008F092F826600A2008F08EF8256070BD51
:100D400000002242001001402DE9F047814616487C
:100D50000024016821F470410160016841F4004100
:100D60000160124E254627464FF00108C6F88071F3
:100D70001E2008F071F8C6F880816006040ED6F8CF
:100D80000C0108B1641CE4B26D1CEDB2082DEDD36A
:100D9000B9F1000F04D0FFF779FF2046BDE8F087D6
:100DA000FFF7B2FFF9E70000001001400000224207
:100DB0002DE9F04106461248016821F470410160B6
:100DC000016841F4405101600E4C0027C4F8807165
:100DD0003D464FF00108F009C4F88C017006060E7C
:100DE000C4F880810A2008F037F8C4F880710A201E
:100DF00008F032F86D1CEDB2082DECD3BDE8F0819F
:100E0000001001400000224270B50D48016821F435
:100E100070410160016841F440510160094C0120BA
:100E2000C4F88C01C4F880010A2004F5C07408F0ED
:100E300013F80025E5600A2008F00EF8256070BD63
:100E4000001001400000224270B50D48016821F4F5
:100E500070410160016841F440510160094C00207B
:100E6000C4F88001C4F88C010A2004F5C07407F0AE
:100E7000F3FF012525600A2007F0EEFFE56070BD55
:100E8000001001400000224270B5134800240168A0
:100E900021F470410160016841F4004101600F4D8F
:100EA0000126C5F88C61304607F0D6FFC5F8806191
:100EB000012007F0D1FF07E0641CE4B2FA2C03D94B
:100EC000FFF7C2FF012070BDD5F80C010028F3D157
:100ED000C5F8800170BD00000010014000002242F2
:100EE00070470000F8B5374D4FF6FF7600962A8818
:100EF000A0236421002001F045FCF024102332A23D
:100F000064210020009406F07DFF102333A2782195
:100F10000020009406F076FF102337A28C210020D9
:100F2000009406F06FFF322007F07CFF364AAA21BA
:100F3000002001F0BBF800F083FBB0421DD0B0F5FB
:100F40007F4F2CD0012105F063FF58B306F0A6FEB9
:100F500040F2DC5007F066FF2B48423806F014F9E7
:100F600010200090284929484439032300884988E3
:100F7000421A5021084605F0A5FC00962A88A023B5
:100F80006421002001F0FEFB322007F04BFFBDE89A
:100F9000F8401D4AAA213C3A002001F087B805F02C
:100FA00075FFD2E700962A88A0237821002001F05F
:100FB000E9FB102316A28C210020009406F022FFEA
:100FC000C6E70000AC03002044656C6574652066CC
:100FD000696E6765727072696E740000496E707533
:100FE0007420494420616E6420746F7563682045E5
:100FF0006E74657221000000303D3C204944203C65
:101000003D3239390000000044000020A0030020D8
:1010100044656C6574652066696E67657270726997
:101020006E74207375636365737321212100000062
:10103000282853D2DFE800F01416181A1C1E2022AC
:101040002426282A2A2A2A2A2A2C2E3032343638D4
:101050003A3C3E40425244464852524A4C524E500C
:101060001FA070471FA0704722A0704728A070479C
:101070002CA0704733A070473AA0704740A070473B
:101080004DA070474FA0704754A0704757A07047BD
:101090005AA070475DA0704761A0704763A0704779
:1010A00066A070476EA0704771A070477AA0704725
:1010B0007DA070477FA0704782A0704786A07047D0
:1010C0008AA070478DA070478FA0704791A070478D
:1010D00094A070479BA070479EA07047A2A0704745
:1010E0004F4B0000CAFDBEDDB0FCBDD3CAD5B4ED88
:1010F000CEF300004E6F2066696E676572206F6EDA
:10110000207468652073656E736F722100000000A3
:10111000C2BCC8EBD6B8CEC6CDBCCFF1CAA7B0DC36
:1011200000000000D6B8CEC6CDBCCFF1CCABB8C95C
:10113000A1A2CCABB5ADB6F8C9FAB2BBB3C9CCD895
:10114000D5F70000D6B8CEC6CDBCCFF1CCABCAAA7D
:10115000A1A2CCABBAFDB6F8C9FAB2BBB3C9CCD820
:10116000D5F70000D6B8CEC6CDBCCFF1CCABC2D23D
:10117000B6F8C9FAB2BBB3C9CCD8D5F700000000A5
:10118000D6B8CEC6CDBCCFF1D5FDB3A3A3ACB5AB1D
:10119000CCD8D5F7B5E3CCABC9D9A3A8BBF2C3E68D
:1011A000BBFDCCABD0A1A3A9B6F8C9FAB2BBB3C9F9
:1011B000CCD8D5F700000000D6B8CEC6B2BBC6A5C5
:1011C000C5E400004E6F2066696E676572707269D3
:1011D0006E7420666F756E6421000000CCD8D5F760
:1011E000BACFB2A2CAA7B0DC00000000C9BEB3FDEE
:1011F000C4A3B0E5CAA7B0DC00000000C7E5BFD5B6
:10120000D6B8CEC6BFE2CAA7B0DC0000B2BBC4DC11
:10121000BDF8C8EBB5CDB9A6BAC4D7B4CCAC000004
:10122000BFDAC1EEB2BBD5FDC8B70000CFB5CDB3B4
:10123000B8B4CEBBCAA7B0DC00000000BBBAB3E5AF
:10124000C7F8C4DAC3BBD3D0D3D0D0A7D4ADCABCFF
:10125000CDBCB6F8C9FAB2BBB3C9CDBCCFF1000062
:10126000D4DACFDFC9FDBCB6CAA7B0DC00000000ED
:10127000B2D0C1F4D6B8CEC6BBF2C1BDB4CEB2C9ED
:10128000BCAFD6AEBCE4CAD6D6B8C3BBD3D0D2C6E8
:10129000B6AFB9FD00000000B6C1D0B420464C4145
:1012A000534820B3F6B4ED00CEB4B6A8D2E5B4ED01
:1012B000CEF30000CEDED0A7BCC4B4E6C6F7BAC5F4
:1012C00000000000BCC4B4E6C6F7C9E8B6A8C4DA9A
:1012D000C8DDB4EDCEF30000BCC7CAC2B1BED2B304
:1012E000C2EBD6B8B6A8B4EDCEF30000D7D4B6AFF3
:1012F000D7A2B2E1CAA7B0DC00000000D6B8CEC6C3
:10130000BFE2C2FA00000000B5D8D6B7B4EDCEF304
:1013100000000000D6B8CEC6C4A3B0E5CEAABFD5A3
:101320000000000046696E6765727072696E742015
:101330006C69627261727920697320656D7074796D
:1013400000000000D7D4B6AFD7A2B2E1B3ACCAB1A7
:1013500000000000D7D4B6AFD7A2B2E1D6B8CEC64F
:10136000D2D1B4E6D4DA0000C4A3BFE9B7B5BBD884
:10137000C8B7C8CFC2EBD3D0CEF300007CB50121F3
:10138000102005F067FF4FF40054ADF80440102022
:101390008DF8070003202D4D8DF8060001A9284681
:1013A00000F088F92146284600F00BFA0220ADF83B
:1013B000040048208DF8070001A9284600F07AF9BA
:1013C0000221284600F0FDF9FFF780FC204D0024A3
:1013D000C5F8B441142005F5DA7507F023FD0120A6
:1013E0002860322007F01EFD8DF80040012269467A
:1013F000002000F001F901226946A42000F0FCF869
:1014000016208DF8000001226946802000F0F4F8D3
:101410000C208DF8000001226946882000F0ECF8CD
:1014200002226946A12000F01BF89DF80000302838
:1014300003D19DF80100032801D001207CBD43F2B7
:10144000030104A0FEF714FF00207CBD0010014042
:10145000000022424354502049443A25780D0A00A6
:101460002DE9F04115460E460446FFF7CDFC7020ED
:10147000FFF79EFCFFF708FDE0B2FFF799FCFFF7CE
:1014800003FDFFF7C1FC7120FFF792FCFFF7FCFCA6
:1014900000246F1E09E0BC4201D0012000E00020C2
:1014A000FFF752FC3055641CE4B2AC42F3D3BDE804
:1014B000F041FFF7C9BC00002DE9F1474B4E002475
:1014C0004FF00A0A307881B0401CC0B2B0FBFAF28B
:1014D0000AFB1201DFF818812746307009B10A288B
:1014E00067D2012201A90220FFF7BAFF9DF804008C
:1014F00001075ED000F00F0106295AD2FF20884074
:10150000C04340F0C000454688F8200001274FF056
:10151000000900BF95F8200007FA04F108423BD00B
:1015200034480422694630F81400FFF799FF95F813
:1015300030009DF80010C0079DF8010001F00F0178
:101540000ED000EB012105EB4400C1829DF8022082
:101550009DF8031002F00F0201EB022181810FE0E0
:1015600000EB0120C0F5F07105EB440081819DF88E
:1015700002209DF8031002F00F0201EB0221C1824C
:101580009DF800000821B1EB101F05D005EB4400C9
:10159000A0F81690A0F80C90641CE4B2052CB9D306
:1015A000A889012718B9E88A08B98DF8049086F847
:1015B00000909DF80400C00610D198F820000106A4
:1015C00002D520F0800007E04FF6FF71A8F80C105C
:1015D000A8F8161000F0E00088F820003078F02815
:1015E00001D986F800A03846BDE8FC87DD00002060
:1015F000A8000020C4CE00082DE9F04116460F4691
:1016000004460025FFF700FC7020FFF7D1FBFFF731
:101610003BFCE0B2FFF7CCFBFFF736FC002408E010
:10162000385DFFF7C5FBFFF72FFC050003D1641CF5
:10163000E4B2B442F4D3FFF707FC2846BDE8F081DA
:1016400038B500244FF6FF75AA21002000F06EFC8B
:1016500020B3012813D0032813D0011F092907D272
:10166000632C05D204EB840100EB4101C91E8CB24E
:101670000D2809D00E280BD00F2818D00EE02846D0
:1016800038BD4FF47F4038BD0A20B4FBF0F405E0CC
:10169000632C03D204EB840005EA40041020009080
:1016A00006232246B1215F2005F00CF9CCE7204645
:1016B00038BD0000F0B5CA78002502F00F03D2064D
:1016C00001D58A7813430A784FF00F0E12F0FF0FFE
:1016D0004FF001021CD004680F8802FA05F637406B
:1016E000B74211D14FEA850C0EFA0CF724EA07072E
:1016F00003FA0CF43C43CF78282F02D0482F02D0B5
:1017000002E0466100E006616D1C082DE4D3046030
:101710000C88FF2C1ED944685FF0000606F108070C
:1017200002FA07F50F882F40AF420FD14FEA860C1F
:101730000EFA0CF7BC4303FA0CF73C43CF78282F82
:1017400000D14561CF78482F00D10561761C082E65
:10175000E4D34460F0BD0000F0B5144C002801DA79
:10176000E36900E06368420D120185B2C0F30157DE
:101770009540C0F30346032F05D0C2020AD50322C9
:10178000B240934307E023F07062636823F0706314
:10179000636002E0AB4343F0706201B12A4300286A
:1017A00001DAE261F0BD6260F0BD000000000140BE
:1017B0000246002092680A4200D001207047416131
:1017C0007047016170470000FEB50121102005F04F
:1017D00041FD42F20200ADF8080010208DF80B0028
:1017E0000320334E8DF80A0002A93046FFF762FF4E
:1017F00002213046FFF7E5FF71143046FFF7E1FFA5
:10180000FFF764FA2B4D0024C5F8B4410A2005F512
:10181000DA7507F007FB012028600A2007F002FBB9
:101820000225ADF8085028208DF80B0002A930469B
:10183000FFF740FF02213046FFF7C1FF642007F0A9
:10184000F1FA0422694648F2401000F049F88DF898
:101850000440694618A0FEF70BFD1AA16846FEF782
:1018600017FF08B10120FEBD8DF8005048F2400579
:1018700001226946284600F02BF901226946E81D3D
:1018800000F02EF89DF80010602905D20FA0FEF799
:10189000EFFC012000F0F4F80A2007F0C3FA8DF8FD
:1018A000004001226946284600F012F90020FEBDE2
:1018B00000100140000022424354502049443A2580
:1018C000730D0A0039313437000000004465666149
:1018D000756C74205665723A25640D0A000000008C
:1018E0002DE9F04115460E460446FFF78DFA2820F3
:1018F000FFF75EFAFFF7C8FA200AFFF759FAFFF779
:10190000C3FAE0B2FFF754FAFFF7BEFAFFF77CFA2A
:101910002920FFF74DFAFFF7B7FA00246F1E09E000
:10192000BC4201D0012000E00020FFF70DFA305545
:10193000641CE4B2AC42F3D3BDE8F041FFF784BAD3
:101940002DE9F14F4B4E00244FF00A0A307882B057
:10195000401CC0B2B0FBFAF20AFB1201DFF818819A
:10196000A146307009B10A2864D248F24E1B012208
:1019700002A95846FFF7B4FF9DF808004FF0000792
:10198000010748D000F00F01062944D2FF2088400B
:101990008DF80400C04340F0C000454688F82000A0
:1019A0004FF0010995F8201009FA04F0014225D002
:1019B00032480422694630F81400FFF791FF95F889
:1019C00030009DF80110C0079DF8000000EB0121D8
:1019D00005EB44000AD0C1829DF802109DF8032057
:1019E00001EB0221C1F54871818107E081819DF8F9
:1019F00002109DF8032001EB0221C182641CE4B2B5
:101A0000052CCFD3A8894FF0010918B9E88A08B985
:101A10008DF8087037709DF8080001060AD500F0AF
:101A20000F00062806D28DF80470012201A958463D
:101A300000F04EF89DF8080000F08F00802810D1CB
:101A400098F82000010602D520F0800007E04FF64C
:101A5000FF71A8F80C10A8F8161000F0E00088F844
:101A600020003078F02801D986F800A04846BDE86B
:101A7000FE8F0000DE000020A800002086CF0008B6
:101A800008B500218DF800108DF801000F4800BF47
:101A9000435C9DF80020491C1A44C9B28DF800200F
:101AA000B829F5D3D0B2C043401C8DF80000B8224D
:101AB000064948F2470000F00BF80222694648F256
:101AC000FF0000F005F8002008BD0000CECE0008A1
:101AD0002DE9F04116460F4604460025FFF794F91C
:101AE0002820FFF765F9FFF7CFF9200AFFF760F923
:101AF000FFF7CAF9E0B2FFF75BF9FFF7C5F9002479
:101B000008E0385DFFF754F9FFF7BEF9050003D18F
:101B1000641CE4B2B442F4D3FFF796F92846BDE85A
:101B2000F081000030B40C460146500700D001207F
:101B300000EBD2005043C5B208784B78812809D316
:101B4000402B07D3FF2B05D0FF2803D07F2B0DD2CE
:101B5000403B0CE00020014604E000BF401C04F8BC
:101B6000011BC0B2A842F9D330BC7047413B813859
:101B7000D9B2C0B2C0EB401303EB801001EB4000C0
:101B800068430C490C2A0BD0102A0ED0182AEBD12E
:101B9000D1F8191048220144204630BC05F08EBE11
:101BA000D1F8091018220144F6E7D1F811102022CB
:101BB0000144F1E7749C0020FEE7000070B50D4C75
:101BC0000025C4F8B0510C48416821F470414160CF
:101BD000416841F440514160C4F8AC51022004F521
:101BE000D67407F039F901206060022007F034F95B
:101BF000656070BD000022420010014008B501215F
:101C0000102005F027FB4FF4C050ADF80000102065
:101C10008DF8030003208DF8020069460448FFF7A1
:101C200049FD04480121C0F8B011C0F8AC1108BD4D
:101C3000001001400000224270B50D4C0025C4F890
:101C4000B0510C48416821F470414160416841F451
:101C5000405141600126C4F8AC61022004F5D674FD
:101C600007F0FAF86660022007F0F6F8656070BDCC
:101C700000002242001001402DE9F047814617483C
:101C80000024416821F470414160416841F4004101
:101C90004160134E254627464FF00108C6F8B07143
:101CA000022007F0D9F8C6F8B0816006040ED6F815
:101CB0002C0108B1641CE4B2012007F0CDF86D1CC2
:101CC000EDB2082DEAD3B9F1000F04D0FFF776FF8B
:101CD0002046BDE8F087FFF7AFFFF9E700100140AD
:101CE000000022422DE9F04106461448416821F4E3
:101CF00070414160416841F440514160104C0027FF
:101D0000C4F8B0713D464FF00108F009C4F8AC01C9
:101D10007006060E022007F09FF8C4F8B08102207A
:101D200007F09AF8C4F8B071022007F095F86D1C1E
:101D3000EDB2082DE9D3BDE8F081000000100140AC
:101D40000000224270B50D48416821F470414160A5
:101D5000416841F440514160094C0120C4F8AC0194
:101D6000C4F8B001042004F5D67407F075F8002516
:101D70002560042007F070F8656070BD0010014018
:101D8000000022420E4810B5416821F470414160C4
:101D9000416841F4405141600A4C0020C4F8B00150
:101DA000C4F8AC01042004F5D67407F055F80120FE
:101DB00060602060BDE81040042007F04DB80000CE
:101DC000001001400000224270B513480024416811
:101DD00021F470414160416841F4004141600F4D80
:101DE0000126C5F8AC61304607F036F8C5F8B06199
:101DF000012007F031F807E0641CE4B2FA2C03D9A3
:101E0000FFF7C0FF012070BDD5F82C010028F3D1E9
:101E1000C5F8B00170BD0000001001400000224272
:101E200038B50121142005F015FA01211148FFF7FA
:101E300093FC4FF40040ADF800000F4D48248DF89E
:101E4000034069462846FFF735FC2020ADF8000026
:101E50008DF8034069460948FFF72CFC0120ADF8D6
:101E6000000028208DF8030069462846FFF722FC71
:101E700038BD0000000230000008014000100140A1
:101E80002DE9F041264C274F274D01264FF40048FD
:101E900008B1267001E0207878B120213846FFF79C
:101EA00087FC88B141462846FFF782FC60B10121DA
:101EB0002846FFF77DFC012806D020213846FFF791
:101EC00077FC01281DD028E00A2006F0ABFF002097
:101ED000207020213846FFF76BFC58B14146284658
:101EE000FFF766FC48B101212846FFF761FC012895
:101EF00005D012E00120BDE8F0810220FBE70320BD
:101F0000F9E741462846FFF753FC012805D1012196
:101F10002846FFF74DFC00B926700020EBE70000D3
:101F20009400002000100140000801402DE9F05FFE
:101F30002F4E8A460546002471682046884796F849
:101F40002000DFF8B0B0000641D5B146B6890021C7
:101F5000C1EB01130AEB4303B9F816C0002003F1EB
:101F60001E0200BF00EB800705EB071707F15008C2
:101F7000464513D2BE4211D994450FD29C450DD986
:101F800001EB41021044401C10F0FF040AD09BF802
:101F900000005E46A0420AD1002425E0401C80B229
:101FA0000328DFD3491C89B20529D1D31CE0401E88
:101FB000C2B200235146284600F01EF8601EC2B28D
:101FC000347001235146284600F016F80CE09BF8C7
:101FD00000005E4640B1401EC2B200235146284672
:101FE00000F00AF8002030702046BDE8F09F0000A5
:101FF000A8000020000000202DE9F84380460320BF
:102000000F46B2FBF0F1B2FBF0F6144600FB1145AF
:10201000102A47D8BBB1012C44D04FF4FC6000908B
:10202000C6EB061007EB400101F11C0083B205EB83
:10203000850208EB021000F14E02491C401C92B2CE
:1020400089B280B218E0012C2CD04FF6FF700090BE
:10205000C6EB061007EB400000F11C018BB205EB4C
:10206000850208EB021101F14E02401C1FFA80FCB0
:10207000491C88B292B2614600F084FB5020009067
:10208000094805EB8503406850F82420C6EB06108C
:1020900007EB4000C01D81B208EB031080B2102393
:1020A00005F0B0FEBDE8F883000000202DE9FE4FEA
:1020B0000C46DFF80C814FF47841DFF808910546B3
:1020C000A8F80010C9F804204FF6FF7004F1960636
:1020D00005F1F0070090B3B2BAB22146284600F0ED
:1020E00051FBB3B2BAB22146284600F0AFF905F170
:1020F000A00082B25038B3B280B2214600F0A6F9F7
:1021000004F13C0083B21E3881B2BAB2284600F016
:102110009DF904F1780083B21E3881B2BAB2284624
:1021200000F094F91F21A8F8001000260327C846E4
:102130004FF0500B01E0012E23D0B6FBF7F0C0EBBF
:10214000001004EB4000C01D81B2B6FBF7F007FBA6
:102150001060CDF800B0D8F8042000EB800005EB4B
:10216000001080B252F82620102305F04BFE4FF0ED
:1021700000094FF0100A761CB6B20F2EDBD3BDE873
:10218000FE8FB6FBF7F0C0EB001004EB4000C01D63
:1021900081B2B6FBF7F0D8F804C007FB1060DCF89A
:1021A00004C000EB800005EB0010CDE900CA801CE4
:1021B00080B21E235022CDF8089005F0D9FDDAE751
:1021C00096000020000000202DE9F0431B4C8146C2
:1021D0000025208866884643A088A0F5D0410439B0
:1021E00002D1A07901280CD00021084604F05AF948
:1021F00004F0F2FB12484FF480734115114C802219
:1022000018E00020A0712A2767814FF02B08A4F85E
:102210000C80014604F046F90120A071A4F80A8060
:10222000A781E5E703614161C4F800904261026162
:1022300001616D1CB542F5D3BDE8F083AC0300200D
:10224000001001400C0C01402DE9F04F4A492A24AE
:102250002B25898845F2105A4FF4305B4FF4285EE5
:102260004FF448764FF0F00C49F241394FF4A07327
:1022700045F210374FF4F07280B13F484FF001083B
:10228000494580F806800380A0F802C001D0B94219
:102290003ED12C2606814481858157E036484FF097
:1022A0000008494580F80680A0F800C0438006D0A9
:1022B000A1F5D04CBCF1040C01D0B9420CD12C26B4
:1022C00006814481A1F5D0448581043C01D0B94206
:1022D00044D10380428041E0514507D1A0F808B0C5
:1022E000A0F80AE04FF42C5181810EE0A1F5C8530B
:1022F000633B06D02221018120214181212181815E
:102300002CE02C210181458184810280468025E0DA
:10231000A1F5D04CBCF1040C09D051450BD1A0F86B
:1023200008B0A0F80AE04FF42C54848121E02C2658
:102330000681458109E0A1F5C85CBCF1630C12D0AF
:10234000222404812124448120248481A1F5D044C5
:10235000043C01D0B94201D102804380BDE8F04F76
:10236000002003F0F7BE4FF02C0CA0F808C0448109
:10237000858106804280E9E7AC0300202DE9FE4F0D
:10238000161ACDE900104FF000085D1A47464FF0CD
:10239000FF30002E02DD4FF0010102E003D14FF0CB
:1023A00000018B4602E08346C6F10006002D02DDE7
:1023B0004FF0010002E003D14FF00000824602E03E
:1023C0008246C5F10005AE4201DD344600E02C46F0
:1023D000601C4FF00009029018E0009881B201984B
:1023E00080B200F019F8B0442F44A04504DD0198F4
:1023F000A8EB040858440190A74203DD00983F1B56
:102400005044009009F101001FFA80F902998945B2
:10241000E3DDBDE8FE8F000000B504F043F804F0F2
:10242000DBFA07484FF48071016141154161054AAB
:10243000054B12881A60802242610261016100BD71
:1024400000100140960000200C0C0140F0B51C4625
:1024500015460E4607460B46FFF790FF3A462346C1
:1024600031461046FFF78AFF23462A46194638466A
:10247000FFF784FF2A4623463146BDE8F040104668
:10248000FFF77CBF2DE9FC4F804600251446032052
:102490000F46A0EB440649E0381B81B208EB050A61
:1024A00001901FFA8AF0FFF7B7FF781B81B208EBA3
:1024B000040900901FFA89F0FFF7AEFF07EB050B48
:1024C0001FFA8BF11FFA89F0FFF7A6FF07EB04094B
:1024D0001FFA89F11FFA8AF0FFF79EFFA8EB050AA1
:1024E0001FFA89F11FFA8AF0FFF796FFA8EB04099B
:1024F0001FFA8BF11FFA89F0FFF78EFF019881B266
:102500001FFA8AF0FFF788FF009881B21FFA89F05E
:10251000FFF782FF6D1C002E03DA06EB8506B61D61
:1025200004E0281B06EB8006641E0A36A542B3DDD4
:10253000BDE8FC8F2DE9F74F07468F4881B0DFF8E3
:102540003CA2818802983E0A00F0FF094FEA102859
:10255000F8B200908848A1F513434FF4807B42897C
:102560004FF40074413B18D00546A1F5A640103841
:1025700013D0A1F5AA40103833D02846A1F5C8568B
:1025800083790088C01B401E633E5ED0A1F5D04613
:10259000043E7CD0012B7BD0CEE0104604F00AFA3A
:1025A000774DC5F810B06C615746CAF800608026B8
:1025B0006E612E612C61C5F810B06C610098CAF88C
:1025C00000006E612E612C616B48808904F0F2F985
:1025D000C5F810B06C61C7F800806E612E612C6187
:1025E0002DE0104604F0E6F9654DC5F810B06C61B9
:1025F0005746CAF8006080266E612E612C615E48E5
:102600004089401C80B204F0D5F9C5F810B06C6167
:10261000009838606E612E612C615748808904F003
:10262000C9F9C5F810B06C61C7F800806E612E6101
:102630002C6151488089401C80B204F0BBF9C5F878
:1026400010B06C61C7F8009071E003B987B2104612
:1026500004F0B0F94A4DC5F810B06C61380ACAF8F8
:10266000000080266E612E612C61C5F810B06C618F
:10267000F9B2CAF800106E612E612C61C5F810B075
:102680006C61CAF800006E612E612C6101E022E0ED
:1026900051E0C5F810B06C61CAF800106E612E618F
:1026A0002C613548808904F085F9C5F810B06C615B
:1026B0005146CAF800806E612E612C61C5F810B0D9
:1026C0006C61CAF800906E612E612C61C5F810B083
:1026D0006C61404622E0012B00D187B2104604F025
:1026E00069F9274DC5F810B06C61390ACAF80010B5
:1026F00080266E612E612C61C5F810B06C61F9B254
:10270000CAF800106E612E612C611B48808904F0AC
:1027100051F9C5F810B06C614046514608606E61D1
:102720002E612C61C5F810B06C61C1F800906E612B
:102730002E612C6108E087B23946104604F052F948
:10274000A889029904F04EF90D48C0F814B044610C
:1027500009490989CAF800108021416101610461B9
:10276000C0F810B04461039ACAF8002041610161C9
:102770000461BDE8FF8F0000AC0300200C0C014099
:10278000001001402DE9F84F274E1D468146B388C1
:102790000A9FA3F5D040043802D1B07901280BD0AC
:1027A000A2EB0900401C86B20C464FF48078DFF89B
:1027B0007CA04FF4007B33E034880846A11AA4EBD8
:1027C00009030024B4712A462A2474812B25491E4A
:1027D0005B1EB58189B29BB20097FFF7D3FF012042
:1027E000B0717581B481BDE8F88F2146484603F089
:1027F00059FE04F0F1F8002150465A46DFF830C087
:10280000802309E0C0F810804261CCF80070436179
:1028100003610261491C89B2B142F3D3641CA4B2C2
:10282000AC42E2D9DFE70000AC0300200010014019
:102830000C0C01402DE9F84F0121192004F00AFD8C
:102840000121FE48FEF788FF4FF4F864ADF8004020
:1028500010208DF80300DFF8E88303208DF80200D4
:10286000694645464046FEF725FF21462846FEF7C5
:10287000A8FFF44D4FF6FF74ADF8004069462846B6
:10288000FEF718FF21462846FEF79BFF322006F090
:10289000C9FA0121002004F0A5F8322006F0C2FA9E
:1028A000002003F001FCE84C49F2413746F60409E8
:1028B000A08045F2103A45F21056FF2806D3A0F545
:1028C0007F41FF3902D0B0F5134F70D1D32004F00F
:1028D00071F803F0B1FB03F0AFFB03F0ADFB4FF673
:1028E000FF7505EA0020A08003F0A6FBA18808433D
:1028F000A080B8425BD0BF2004F05CF803F09CFBE2
:1029000003F09AFB03F098FB03F096FB05EA002026
:10291000A08003F091FBA1880843A080484546D0E1
:10292000D42004F047F803F087FB03F085FB03F0A5
:1029300083FB05EA0020A08003F07EFBA18808430A
:10294000A080504533D04FF45A4004F033F803F0E0
:1029500073FB4FF45B4004F02DF803F06DFB05EAC8
:102960000020A0804FF45C4004F024F803F064FBE6
:10297000A1880843A080B0F5004F7DD0B04216D0AA
:10298000A12004F017F803F057FBA08003F054FBDC
:1029900005EA0020A08003F04FFBA1880843A0F5C2
:1029A000AE41A080613902D141F66310A080A188B8
:1029B000A6A0FDF75DFCA088B8427DD1CF2003F032
:1029C000F9FF002003F0E4FFC12003F0E1FF302015
:1029D00003F0DEFFED2003F0EDFF642003F0D8FFED
:1029E000032003F0D5FF122003F0D2FF812003F073
:1029F000CFFFE82003F0DEFF852003F0C9FF1020A1
:102A000003F0C6FF7A2003F0C3FFCB2003F0D2FF10
:102A1000392003F0BDFF2C2003F0BAFF002003F0A3
:102A2000B7FF342003F0B4FF022003F0B1FFF7201A
:102A300003F0C0FF202003F0ABFFEA2003F0BAFF51
:102A4000002003F0A5FF002003F0A2FFC02003F048
:102A5000B1FF1B2003F09CFFC12003F0ABFF01205E
:102A600003F096FFC52003F0A5FF302003F090FF90
:102A7000302003F08DFF00E0B3E0C72003F09AFFA1
:102A8000B72003F085FF362003F094FF482003F0C1
:102A90007FFF3A2003F08EFF552003F079FFB1202D
:102AA00003F088FF002003F073FF1A2003F070FF8B
:102AB000B62003F07FFF00E095E00A2003F068FFF6
:102AC000A22003F065FFF22003F074FF002003F062
:102AD0005FFF262003F06EFF012003F059FFE02086
:102AE00003F068FF0F2003F053FF2A2003F050FF8C
:102AF000282003F04DFF082003F04AFF0E2003F0CA
:102B000047FF082003F044FF542003F041FFA920B1
:102B100003F03EFF432003F03BFF0A2003F038FFA1
:102B20000F2003F035FF002003F032FF002003F0F8
:102B30002FFF002003F02CFF002003F029FFE120ED
:102B400003F038FF002003F023FF152003F020FFDF
:102B5000172003F01DFF072003F01AFF112003F0D8
:102B600017FF062003F014FF2B2003F011FF56205F
:102B700003F00EFF3C2003F00BFF052003F008FFDD
:102B8000102003F005FF0F2003F002FF3F2003F0A9
:102B9000FFFE3F2003F0FCFE0F2003F0F9FE2B2088
:102BA00003F008FF002003F0F3FE002003F0F0FE26
:102BB000012003F0EDFE3F2003F0EAFE2A2003F09F
:102BC000F9FE002003F0E4FE002003F0E1FE002007
:102BD00003F0DEFEEF2003F0DBFE112003F0EAFE3F
:102BE000B8E0A680E3E648457ED1112003F0E2FE7E
:102BF000142006F017F9D02003F0DCFE072003F0C4
:102C0000C7FE422003F0C4FE1D2003F0C1FED12008
:102C100003F0D0FE002003F0BBFE1A2003F0B8FE44
:102C2000092003F0B5FED22003F0C4FE012003F01A
:102C3000AFFE222003F0ACFEC0200FE00002300007
:102C400000100140000C0140AC030020204C434424
:102C50002049443A25780D0A0000000003F0AAFE3E
:102C6000102003F095FE3B2003F092FE002003F0BD
:102C70008FFE022003F08CFE112003F089FEC52098
:102C800003F098FE032003F083FEC82003F092FEB9
:102C9000002003F07DFE252003F07AFE212003F0C2
:102CA00077FE052003F074FE002003F071FE0A2079
:102CB00003F06EFE652003F06BFE252003F068FE36
:102CC000772003F065FE502003F062FE0F2003F032
:102CD0005FFE002003F05CFEF82003F06BFE012095
:102CE00003F056FEFE2000E03AE003F063FE002011
:102CF00003F04EFE022003F04BFE202003F05AFEAC
:102D0000362003F057FE082003F042FE3A2003F07D
:102D100051FE552003F03CFE2B2003F04BFE00201B
:102D200003F036FE002003F033FE012003F030FEF6
:102D30003F2003F02DFE2A2003F03CFE002003F08C
:102D400027FE002003F024FE012003F021FEDF20F7
:102D500003F01EFE782006F065F8292001F0FBBE86
:102D600050457CD1ED2003F025FE012003F010FE3C
:102D7000FE2003F00DFEEE2003F01CFEDE2003F02B
:102D800007FE212003F004FEF12003F013FE0120D2
:102D900003F0FEFDDF2003F00DFE102003F0F8FD30
:102DA000C42003F007FE8F2003F0F2FDC62003F0DD
:102DB00001FE002003F0ECFDE22003F0E9FDE2203B
:102DC00003F0E6FDE22003F0E3FDBF2003F0F2FD97
:102DD000AA2003F0DDFDB02003F0ECFD0D2003F090
:102DE000D7FD002003F0D4FD0D2003F0D1FD00201D
:102DF00003F0CEFD112003F0CBFD002003F0C8FD51
:102E0000192003F0C5FD002003F0C2FD212003F0CE
:102E1000BFFD002003F0BCFD2D2003F0B9FD002014
:102E200003F0B6FD3D2003F0B3FD002003F0B0FD3C
:102E30005D2003F0ADFD002003F0AAFD5D2003F04E
:102E4000A7FD002003F0A4FDB12003F0B3FD802016
:102E500003F09EFD002003F09BFD8B2000E0FCE3CF
:102E600003F096FD002003F093FD962003F090FD03
:102E7000002003F08DFDB22003F09CFD002003F044
:102E800087FD002003F084FD022003F081FD002077
:102E900003F07EFD032003F07BFD002003F078FDAE
:102EA000B32003F087FD002003F072FD002003F043
:102EB0006FFD002003F06CFD002003F069FD002091
:102EC00003F066FD002003F063FD002003F060FDC9
:102ED000002003F05DFD002003F05AFD002003F008
:102EE00057FD002003F054FD002003F051FD0020A9
:102EF00003F04EFD002003F04BFD002003F048FDE1
:102F0000002003F045FD002003F042FD002003F007
:102F10003FFD002003F03CFD002003F039FD0020C0
:102F200003F036FD002003F033FD002003F030FDF8
:102F3000002003F02DFDB42003F03CFD8B2003F0B6
:102F400027FD002003F024FD962003F021FD002042
:102F500003F01EFDA12003F01BFD002003F018FD6F
:102F6000B52003F027FD022003F012FD002003F03E
:102F70000FFD032003F00CFD002003F009FD0420E9
:102F800003F006FD002003F003FDB62003F012FD60
:102F9000002003F0FDFC002003F0FAFCB72003F052
:102FA00009FD002003F0F4FC002003F0F1FC3F20B9
:102FB00003F0EEFC002003F0EBFC5E2003F0E8FCE5
:102FC000002003F0E5FC642003F0E2FC002003F0A5
:102FD000DFFC8C2003F0DCFC002003F0D9FCAC20EB
:102FE00003F0D6FC002003F0D3FCDC2003F0D0FC7F
:102FF000002003F0CDFC702003F0CAFC002003F099
:10300000C7FC902003F0C4FC002003F0C1FCEB20BF
:1030100003F0BEFC002003F0BBFCDC2003F0B8FC96
:10302000002003F0B5FCB82003F0C4FC002003F03E
:10303000AFFC002003F0ACFC002003F0A9FC002052
:1030400003F0A6FC002003F0A3FC002003F0A0FC8A
:10305000002003F09DFC002003F09AFCBA2003F04E
:10306000A9FC242003F094FC002003F091FC002034
:1030700003F08EFC002003F08BFCC12003F09AFCCF
:10308000202003F085FC002003F082FC542003F094
:103090007FFC002003F07CFCFF2003F079FC002083
:1030A00003F076FCC22003F085FC0A2003F070FCDC
:1030B000002003F06DFC042003F06AFC002003F004
:1030C00067FCC32003F076FC3C2003F061FC002089
:1030D00003F05EFC3A2003F05BFC002003F058FC98
:1030E000392003F055FC002003F052FC372003F098
:1030F0004FFC002003F04CFC3C2003F049FC002076
:1031000003F046FC362003F043FC002003F040FCB3
:10311000322003F03DFC002003F03AFC2F2003F0A6
:1031200037FC002003F034FC2C2003F031FC00209D
:1031300003F02EFC292003F02BFC002003F028FCD8
:10314000262003F025FC002003F022FC242003F0BD
:103150001FFC002003F01CFC242003F019FC0020BD
:1031600003F016FC232003F013FC002003F010FCF6
:103170003C2003F00DFC002003F00AFC362003F095
:1031800007FC002003F004FC322003F001FC0020C7
:1031900003F0FEFB2F2003F0FBFB002003F0F8FB05
:1031A0002C2003F0F5FB002003F0F2FB292003F0B4
:1031B000EFFB002003F0ECFB262003F0E9FB0020EE
:1031C00003F0E6FB242003F0E3FB002003F0E0FB28
:1031D000242003F0DDFB002003F0DAFB232003F0C2
:1031E000D7FB002003F0D4FBC42003F0E3FB6220F4
:1031F00003F0CEFB002003F0CBFB052003F0C8FB5F
:10320000002003F0C5FB842003F0C2FB002003F084
:10321000BFFBF02003F0BCFB002003F0B9FB18203B
:1032200003F0B6FB002003F0B3FBA42003F0B0FBD7
:10323000002003F0ADFB182003F0AAFB002003F0F0
:10324000A7FB502003F0A4FB002003F0A1FB0C20FF
:1032500003F09EFB002003F09BFB172003F098FB7C
:10326000002003F095FB952003F092FB002003F073
:103270008FFBF32003F08CFB002003F089FBE6209A
:1032800003F086FB002003F083FBC52003F092FBD4
:10329000322003F07DFB002003F07AFB442003F092
:1032A00077FB002003F074FB652003F071FB002026
:1032B00003F06EFB762003F06BFB002003F068FB4D
:1032C000882003F065FB002003F062FBC62003F0BA
:1032D00071FB202003F05CFB002003F059FB17205A
:1032E00003F056FB002003F053FB012003F050FBDA
:1032F000002003F04DFBC72003F05CFB002003F02F
:1033000047FB002003F044FB002003F041FB0020BA
:1033100003F03EFBC82003F04DFB002003F038FB18
:10332000002003F035FB002003F032FB002003F007
:103330002FFBC92003F03EFB002003F029FB0020F7
:1033400003F026FB002003F023FB002003F020FB0A
:10335000002003F01DFB002003F01AFB002003F007
:1033600017FB002003F014FB002003F011FB0020EA
:1033700003F00EFB002003F00BFB002003F008FB22
:10338000002003F005FB002003F002FB002003F007
:10339000FFFA002003F0FCFAE02003F00BFB1620FC
:1033A00003F0F6FA002003F0F3FA1C2003F0F0FA21
:1033B000002003F0EDFA212003F0EAFA002003F0E8
:1033C000E7FA362003F0E4FA002003F0E1FA4620A1
:1033D00003F0DEFA002003F0DBFA522003F0D8FA03
:1033E000002003F0D5FA642003F0D2FA002003F0A5
:1033F000CFFA7A2003F0CCFA002003F0C9FA8B2030
:1034000003F0C6FA002003F0C3FA992003F0C0FAD3
:10341000002003F0BDFAA82003F0BAFA002003F060
:10342000B7FAB92003F0B4FA002003F0B1FAC420CF
:1034300003F0AEFA002003F0ABFACA2003F0A8FABA
:10344000002003F0A5FAD22003F0A2FA002003F036
:103450009FFAD92003F09CFA002003F099FAE020AB
:1034600003F096FA002003F093FAF32003F090FAA9
:10347000002003F08DFAE12003F09CFA162003F0FF
:1034800087FA002003F084FA1C2003F081FA002060
:1034900003F07EFA222003F07BFA002003F078FA92
:1034A000362003F075FA002003F072FA452003F08D
:1034B0006FFA002003F06CFA522003F069FA002042
:1034C00003F066FA642003F063FA002003F060FA68
:1034D0007A2003F05DFA002003F05AFA8B2003F003
:1034E00057FA002003F054FA992003F051FA002013
:1034F00003F04EFAA82003F04BFA002003F048FA3C
:10350000B92003F045FA002003F042FAC42003F08A
:103510003FFA002003F03CFACA2003F039FA0020F9
:1035200003F036FAD22003F033FA002003F030FA29
:10353000D82003F02DFA002003F02AFAE02003F04F
:1035400027FA002003F024FAF32003F021FA0020E8
:1035500003F01EFAE22003F02DFA052003F018FA1A
:10356000002003F015FA0B2003F012FA002003F0FC
:103570000FFA1B2003F00CFA002003F009FA3420A4
:1035800003F006FA002003F003FA442003F000FAE7
:10359000002003F0FDF94F2003F0FAF9002003F0BA
:1035A000F7F9612003F0F4F9002003F0F1F9792034
:1035B00003F0EEF9002003F0EBF9882003F0E8F9BE
:1035C000002003F0E5F9972003F0E2F9002003F072
:1035D000DFF9A62003F0DCF9002003F0D9F9B720C9
:1035E00003F0D6F9002003F0D3F9C22003F0D0F99C
:1035F000002003F0CDF9C72003F0CAF9002003F042
:10360000C7F9D12003F0C4F9002003F0C1F9D62096
:1036100003F0BEF9002003F0BBF9DD2003F0B8F998
:10362000002003F0B5F9F32003F0B2F9002003F015
:10363000AFF9E32003F0BEF9052003F0A9F900205B
:1036400003F0A6F90A2003F0A3F9002003F0A0F983
:103650001C2003F09DF9002000E0FDE203F098F942
:10366000332003F095F9002003F092F9442003F091
:103670008FF9002003F08CF9502003F089F9002025
:1036800003F086F9622003F083F9002003F080F94B
:10369000782003F07DF9002003F07AF9882003F008
:1036A00077F9002003F074F9972003F071F90020F6
:1036B00003F06EF9A62003F06BF9002003F068F91F
:1036C000B72003F065F9002003F062F9C22003F08F
:1036D0005FF9002003F05CF9C72003F059F90020DE
:1036E00003F056F9D12003F053F9002003F050F90C
:1036F000D52003F04DF9002003F04AF9DD2003F056
:1037000047F9002003F044F9F32003F041F90020C9
:1037100003F03EF9E42003F04DF9012003F038F9FD
:10372000002003F035F9012003F032F9002003F006
:103730002FF9022003F02CF9002003F029F92A20A8
:1037400003F026F9002003F023F93C2003F020F9D0
:10375000002003F01DF94B2003F01AF9002003F0BC
:1037600017F95D2003F014F9002003F011F974201B
:1037700003F00EF9002003F00BF9842003F008F9A0
:10378000002003F005F9932003F002F9002003F074
:10379000FFF8A22003F0FCF8002003F0F9F8B320B2
:1037A00003F0F6F8002003F0F3F8BE2003F0F0F881
:1037B000002003F0EDF8C42003F0EAF8002003F045
:1037C000E7F8CD2003F0E4F8002003F0E1F8D3207F
:1037D00003F0DEF8002003F0DBF8DD2003F0D8F87A
:1037E000002003F0D5F8F32003F0D2F8002003F016
:1037F000CFF8E52003F0DEF8002003F0C9F8002040
:1038000003F0C6F8002003F0C3F8002003F0C0F86E
:10381000022003F0BDF8002003F0BAF8292003F0DD
:10382000B7F8002003F0B4F83C2003F0B1F8002012
:1038300003F0AEF84B2003F0ABF8002003F0A8F83B
:103840005D2003F0A5F8002003F0A2F8742003F037
:103850009FF8002003F09CF8842003F099F80020E2
:1038600003F096F8932003F093F8002003F090F80B
:10387000A22003F08DF8002003F08AF8B32003F0B3
:1038800087F8002003F084F8BE2003F081F80020C0
:1038900003F07EF8C42003F07BF8002003F078F8F2
:1038A000CD2003F075F8002003F072F8D32003F068
:1038B0006FF8002003F06CF8DC2003F069F80020BA
:1038C00003F066F8F32003F063F8002003F060F8DB
:1038D000E62003F06FF8112003F05AF8002003F0FF
:1038E00057F8342003F054F8002003F051F8562024
:1038F00003F04EF8002003F04BF8762003F048F870
:10390000002003F045F8772003F042F8002003F090
:103910003FF8662003F03CF8002003F039F88820D7
:1039200003F036F8002003F033F8992003F030F864
:10393000002003F02DF8BB2003F02AF8002003F04C
:1039400027F8992003F024F8002003F021F86620DE
:1039500003F01EF8002003F01BF8552003F018F8C0
:10396000002003F015F8552003F012F8002003F0B2
:103970000FF8452003F00CF8002003F009F843206D
:1039800003F006F8002003F003F8442003F000F8E9
:10399000002002F0FDFFE72003F00CF8322002F0D7
:1039A000F7FF002002F0F4FF552002F0F1FF0020A5
:1039B00002F0EEFF762002F0EBFF002002F0E8FFBD
:1039C000662002F0E5FF002002F0E2FF672002F02F
:1039D000DFFF002002F0DCFF672002F0D9FF0020AB
:1039E00002F0D6FF872002F0D3FF002002F0D0FFC4
:1039F000992002F0CDFF002002F0CAFFBB2002F0A8
:103A0000C7FF002002F0C4FF992002F0C1FF002090
:103A100002F0BEFF772002F0BBFF002002F0B8FFEB
:103A2000442002F0B5FF002002F0B2FF562002F061
:103A3000AFFF002002F0ACFF232002F0A9FF00201E
:103A400002F0A6FF332002F0A3FF002002F0A0FF47
:103A5000452002F09DFF002002F09AFFE82002F0CE
:103A6000A9FF002002F094FF002002F091FF9920AE
:103A700002F08EFF002002F08BFF872002F088FF0B
:103A8000002002F085FF882002F082FF002002F073
:103A90007FFF772002F07CFF002002F079FF662094
:103AA00002F076FF002002F073FF882002F070FF22
:103AB000002002F06DFFAA2002F06AFF002002F051
:103AC00067FFBB2002F064FF002002F061FF992035
:103AD00002F05EFF002002F05BFF662002F058FF5C
:103AE000002002F055FF552002F052FF002002F0A6
:103AF0004FFF552002F04CFF002002F049FF442008
:103B000002F046FF002002F043FF442002F040FF95
:103B1000002002F03DFF552002F03AFF002002F0A5
:103B200037FFE92002F046FFAA2002F031FF002013
:103B300002F02EFF002002F02BFF002002F028FFF1
:103B4000002002F037FFAA2002F022FFCF2002F06F
:103B500031FF002002F01CFF002002F019FF0020BE
:103B600002F016FF002002F013FF002002F010FF09
:103B7000002002F00DFF002002F00AFF002002F0FA
:103B800007FF002002F004FF002002F001FF0020E8
:103B900002F0FEFE002002F0FBFE002002F0F8FE24
:103BA000002002F0F5FE002002F0F2FE002002F0FC
:103BB000EFFE002002F0ECFEF02002F0FBFE002001
:103BC00002F0E6FE502002F0E3FE002002F0E0FEEC
:103BD000002002F0DDFE002002F0DAFEF32002F009
:103BE000E9FE002002F0D4FEF92002F0E3FE0620F8
:103BF00002F0CEFE102002F0CBFE292002F0C8FE1B
:103C0000002002F0C5FE3A2002F0D4FE552002F05A
:103C1000BFFE112002F0CEFE642005F003F929203A
:103C200002F0C8FE352002F0C5FE002002F0B0FE12
:103C3000512002F0BFFEFF2002F0AAFE532002F046
:103C4000B9FE2C2002F0A4FE552002F0B3FE822023
:103C500002F09EFE2C20FCE3B0427DD14FF4704474
:103C60005521204602F0BEFE651CAA21284602F01E
:103C7000B9FEA61C5221304602F0B4FEE71C082112
:103C8000384602F0AFFE4FF204080121404602F030
:103C9000A9FE0D214FF4304002F0A4FE0D214BF29D
:103CA000010002F09FFE0D214BF2020002F09AFE8D
:103CB0004FF436493421484602F094FE34214BF249
:103CC000016002F08FFE34214BF2026002F08AFEA6
:103CD0004FF4314A0D21504602F084FE4BF2011B95
:103CE0000D21584602F07EFE0D214BF2021002F02B
:103CF00079FE34214FF4374002F074FE34214BF248
:103D0000017002F06FFE34214BF2027002F06AFE85
:103D100000214FF4324002F065FE00214BF20120F9
:103D200002F060FE00214BF2022002F05BFE242133
:103D30004FF4384002F056FE24214BF6010002F009
:103D400051FE24214BF6020002F04CFE01214FF4FB
:103D50003F4002F047FE00E0FEE30F214FF4334006
:103D600002F040FE0F214BF2013002F03BFE0F212A
:103D70004BF2023002F036FE34214FF4394002F0AB
:103D800031FE34214BF6011002F02CFE34214BF6AB
:103D9000021002F027FE08214FF4354002F022FE07
:103DA00008214BF2015002F01DFE08214BF2025097
:103DB00002F018FE03214FF4424002F013FE2421CA
:103DC0004FF43A4002F00EFE24214BF6012002F09F
:103DD00009FE24214BF6022002F004FE00214FF4DC
:103DE0003C4002F0FFFD78214BF6014002F0FAFD65
:103DF00000214BF6024002F0F5FD00214FF43D405A
:103E000002F0F0FD78214BF6015002F0EBFD0021AD
:103E10004BF6025002F0E6FD00214FF43E4002F066
:103E2000E1FD64214BF6016002F0DCFD00214FF45E
:103E3000514002F0D7FD33214DF2011002F0D2FDC6
:103E400000214DF2021002F0CDFD34214DF203109D
:103E500002F0C8FD00214DF2041002F0C3FD3A212A
:103E60004DF2051002F0BEFD00214DF2061002F0E9
:103E7000B9FD4A214DF2071002F0B4FD00214DF2C8
:103E8000081002F0AFFD5C214DF2091002F0AAFD0E
:103E900000214DF20A1002F0A5FD81214DF20B1018
:103EA00002F0A0FD00214DF20C1002F09BFDA621B6
:103EB0004DF20D1002F096FD00214DF20E1002F0B1
:103EC00091FDE5214DF20F1002F08CFD01214DF224
:103ED000101002F087FD13214DF2111002F082FD47
:103EE00001214DF2121002F07DFD54214DF213100C
:103EF00002F078FD01214DF2141002F073FD8221D1
:103F00004DF2151002F06EFD01214DF2161002F077
:103F100069FDCA214DF2171002F064FD02214DF235
:103F2000181002F05FFD00214DF2191002F05AFD49
:103F300002214DF21A1002F055FD01214DF21B1025
:103F400002F050FD02214DF21C1002F04BFD342115
:103F50004DF21D1002F046FD02214DF21E1002F03E
:103F600041FD67214DF21F1002F03CFD02214DF290
:103F7000201002F037FD84214DF2211002F032FDB5
:103F800002214DF2221002F02DFDA4214DF223104A
:103F900002F028FD02214DF2241002F023FDB7218A
:103FA0004DF2251002F01EFD02214DF2261002F006
:103FB00019FDCF214DF2271002F014FD02214DF220
:103FC000281002F00FFDDE214DF2291002F00AFD4B
:103FD00002214DF22A1002F005FDF2214DF22B10C4
:103FE00002F000FD02214DF22C1002F0FBFCFE213C
:103FF0004DF22D1002F0F6FC03214DF22E1002F0CE
:10400000F1FC10214DF22F1002F0ECFC03214DF2D7
:10401000301002F0E7FC33214DF2311002F0E2FCE7
:1040200003214DF2321002F0DDFC6D214DF2331010
:1040300002F0D8FC00214FF4524002F0D3FC3321AF
:104040004DF2012002F0CEFC00214DF2022002F0E0
:10405000C9FC34214DF2032002F0C4FC00214DF2D2
:10406000042002F0BFFC3A214DF2052002F0BAFC18
:1040700000214DF2062002F0B5FC4A214DF2072046
:1040800002F0B0FC00214DF2082002F0ABFC5C21F4
:104090004DF2092002F0A6FC00214DF20A2002F0A8
:1040A000A1FC81214DF20B2002F09CFC00214DF27D
:1040B0000C2002F097FCA6214DF20D2002F092FC9C
:1040C00000214DF20E2002F08DFCE5214DF20F2073
:1040D00002F088FC01214DF2102002F083FC132134
:1040E0004DF2112002F07EFC01214DF2122002F06F
:1040F00079FC54214DF2132002F074FC01214DF2A1
:10410000142002F06FFC82214DF2152002F06AFCAF
:1041100001214DF2162002F065FCCA214DF2172054
:1041200002F060FC02214DF2182002F05BFC00213D
:104130004DF2192002F056FC02214DF21A2002F035
:1041400051FC01214DF21B2002F04CFC02214DF2EA
:104150001C2002F047FC34214DF21D2002F042FCED
:1041600002214DF21E2002F03DFC67214DF21F207E
:1041700002F038FC02214DF2202002F033FC8421B1
:104180004DF2212002F02EFC02214DF2222002F0FD
:1041900029FCA4214DF2232002F024FC02214DF23F
:1041A000242002F01FFCB7214DF2252002F01AFC5A
:1041B00002214DF2262002F015FCCF214DF22720DE
:1041C00002F010FC02214DF2282002F00BFCDE214F
:1041D0004DF2292002F006FC02214DF22A2002F0C5
:1041E00001FCF2214DF22B2002F0FCFB02214DF2EA
:1041F0002C2002F0F7FBFE214DF22D2002F0F2FB05
:1042000003214DF22E2002F0EDFB10214DF22F2064
:1042100002F0E8FB03214DF2302002F0E3FB3321F2
:104220004DF2312002F0DEFB03214DF2322002F08C
:10423000D9FB6D214DF2332002F0D4FB00214FF465
:10424000534002F0CFFB33214DF2013002F0CAFBA4
:1042500000214DF2023002F0C5FB34214DF2033053
:1042600002F0C0FB00214DF2043002F0BBFB3A210A
:104270004DF2053002F0B6FB00214DF2063002F09F
:10428000B1FB4A214DF2073002F0ACFB00214DF2A8
:10429000083002F0A7FB5C214DF2093002F0A2FBCE
:1042A00000214DF20A3002F09DFB81214DF20B30CE
:1042B00002F098FB00214DF20C3002F093FBA62196
:1042C0004DF20D3002F08EFB00214DF20E3002F067
:1042D00089FBE5214DF20F3002F084FB01214DF204
:1042E000103002F07FFB13214DF2113002F07AFB07
:1042F00001214DF2123002F075FB54214DF21330C2
:1043000002F070FB01214DF2143002F06BFB8221B0
:104310004DF2153002F066FB01214DF2163002F02D
:1043200061FBCA214DF2173002F05CFB02214DF215
:10433000183002F057FB00214DF2193002F052FB09
:1043400002214DF21A3002F04DFB01214DF21B30DB
:1043500002F048FB02214DF21C3002F043FB3421F5
:104360004DF21D3002F03EFB02214DF21E3002F0F4
:1043700039FB67214DF21F3002F034FB02214DF270
:10438000203002F02FFB84214DF2213002F02AFB75
:1043900002214DF2223002F025FBA4214DF2233000
:1043A00002F020FB02214DF2243002F01BFBB7216A
:1043B0004DF2253002F016FB02214DF2263002F0BC
:1043C00011FBCF214DF2273002F00CFB02214DF200
:1043D000283002F007FBDE214DF2293002F002FB0B
:1043E00002214DF22A3002F0FDFAF2214DF22B307B
:1043F00002F0F8FA02214DF22C3002F0F3FAFE211D
:104400004DF22D3002F0EEFA03214DF22E3002F083
:10441000E9FA10214DF22F3002F0E4FA03214DF2B7
:10442000303002F0DFFA33214DF2313002F0DAFAA7
:1044300003214DF2323002F0D5FA6D214DF23330C6
:1044400002F0D0FA00214FF4544002F0CBFA3321AD
:1044500000E080E34DF2014002F0C4FA00214DF289
:10446000024002F0BFFA34214DF2034002F0BAFAE2
:1044700000214DF2044002F0B5FA3A214DF2054018
:1044800002F0B0FA00214DF2064002F0ABFA4A21E8
:104490004DF2074002F0A6FA00214DF2084002F06A
:1044A000A1FA5C214DF2094002F09CFA00214DF284
:1044B0000A4002F097FA81214DF20B4002F092FA85
:1044C00000214DF20C4002F08DFAA6214DF20D4074
:1044D00002F088FA00214DF20E4002F083FAE52145
:1044E0004DF20F4002F07EFA01214DF2104002F031
:1044F00079FA13214DF2114002F074FA01214DF2C4
:10450000124002F06FFA54214DF2134002F06AFAA1
:1045100001214DF2144002F065FA82214DF215405E
:1045200002F060FA01214DF2164002F05BFACA2156
:104530004DF2174002F056FA02214DF2184002F0F7
:1045400051FA00214DF2194002F04CFA02214DF2CD
:104550001A4002F047FA00E001E301214DF21B404E
:1045600002F040FA02214DF21C4002F03BFA3421E5
:104570004DF21D4002F036FA02214DF21E4002F0CB
:1045800031FA67214DF21F4002F02CFA02214DF260
:10459000204002F027FA84214DF2214002F022FA55
:1045A00002214DF2224002F01DFAA4214DF22340D7
:1045B00002F018FA02214DF2244002F013FAB7215A
:1045C0004DF2254002F00EFA02214DF2264002F093
:1045D00009FACF214DF2274002F004FA02214DF2F0
:1045E000284002F0FFF9DE214DF2294002F0FAF9ED
:1045F00002214DF22A4002F0F5F9F2214DF22B4052
:1046000002F0F0F902214DF22C4002F0EBF9FE210C
:104610004DF22D4002F0E6F903214DF22E4002F05A
:10462000E1F910214DF22F4002F0DCF903214DF2A7
:10463000304002F0D7F933214DF2314002F0D2F987
:1046400003214DF2324002F0CDF96D214DF233409D
:1046500002F0C8F900214FF4554002F0C3F93321AC
:104660004DF2015002F0BEF900214DF2025002F06D
:10467000B9F934214DF2035002F0B4F900214DF2A2
:10468000045002F0AFF93A214DF2055002F0AAF9B8
:1046900000214DF2065002F0A5F94A214DF20750D3
:1046A00002F0A0F900214DF2085002F09BF95C21C4
:1046B0004DF2095002F096F900214DF20A5002F035
:1046C00091F981214DF20B5002F08CF900214DF24D
:1046D0000C5002F087F9A6214DF20D5002F082F93C
:1046E00000214DF20E5002F07DF9E5214DF20F5000
:1046F00002F078F901214DF2105002F073F9132104
:104700004DF2115002F06EF901214DF2125002F0FB
:1047100069F954214DF2135002F064F901214DF270
:10472000145002F05FF982214DF2155002F05AF94F
:1047300001214DF2165002F055F9CA214DF21750E1
:1047400002F050F902214DF2185002F04BF900210D
:104750004DF2195002F046F902214DF21A5002F0C2
:1047600041F901214DF21B5002F03CF902214DF2BA
:104770001C5002F037F934214DF21D5002F032F98D
:1047800002214DF21E5002F02DF967214DF21F500B
:1047900002F028F902214DF2205002F023F9842181
:1047A0004DF2215002F01EF902214DF2225002F08A
:1047B00019F9A4214DF2235002F014F902214DF20F
:1047C000245002F00FF9B7214DF2255002F00AF9FA
:1047D00002214DF2265002F005F9CF214DF227506B
:1047E00002F000F902214DF2285002F0FBF8DE2120
:1047F0004DF2295002F0F6F802214DF22A5002F053
:10480000F1F8F2214DF22B5002F0ECF802214DF2BA
:104810002C5002F0E7F8FE214DF22D5002F0E2F8A4
:1048200003214DF22E5002F0DDF810214DF22F50F1
:1048300002F0D8F803214DF2305002F0D3F83321C2
:104840004DF2315002F0CEF803214DF2325002F019
:10485000C9F86D214DF2335002F0C4F800214FF435
:10486000564002F0BFF833214DF2016002F0BAF871
:1048700000214DF2026002F0B5F834214DF20360E0
:1048800002F0B0F800214DF2046002F0ABF83A21DA
:104890004DF2056002F0A6F800214DF2066002F02C
:1048A000A1F84A214DF2076002F09CF800214DF278
:1048B000086002F097F85C214DF2096002F092F86E
:1048C00000214DF20A6002F08DF881214DF20B605B
:1048D00002F088F800214DF20C6002F083F8A62166
:1048E0004DF20D6002F07EF800214DF20E6002F0F4
:1048F00079F8E5214DF20F6002F074F801214DF2D4
:10490000106002F06FF813214DF2116002F06AF8A6
:1049100001214DF2126002F065F854214DF213604E
:1049200002F060F801214DF2146002F05BF8822180
:104930004DF2156002F056F801214DF2166002F0BA
:1049400051F8CA214DF2176002F04CF802214DF2E5
:10495000186002F047F800214DF2196002F042F8A9
:1049600002214DF21A6002F03DF801214DF21B6068
:1049700002F038F802214DF21C6002F033F83421C5
:104980004DF21D6002F02EF802214DF21E6002F081
:1049900029F867214DF21F6002F024F802214DF240
:1049A000206002F01FF884214DF2216002F01AF815
:1049B00002214DF2226002F015F8A4214DF223608D
:1049C00002F010F802214DF2246002F00BF8B7213A
:1049D0004DF2256002F006F802214DF2266002F049
:1049E00001F8CF214DF2276001F0FCFF02214DF2CA
:1049F000286001F0F7FFDE214DF2296001F0F2FF9F
:104A000002214DF22A6001F0EDFFF2214DF22B6000
:104A100001F0E8FF02214DF22C6001F0E3FFFE21DE
:104A20004DF22D6001F0DEFF03214DF22E6001F00A
:104A3000D9FF10214DF22F6001F0D4FF03214DF278
:104A4000306001F0CFFF33214DF2316001F0CAFF39
:104A500003214DF2326001F0C5FF6D214DF233604C
:104A600001F0C0FF5521204601F0BCFFAA212846D5
:104A700001F0B8FF5221304601F0B4FF082138465A
:104A800001F0B0FF0021404601F0ACFFCC215046C0
:104A900001F0A8FF0021584601F0A4FF0521484677
:104AA00001F0A0FF70214FF4374001F09BFF70210F
:104AB0004BF2017001F096FF01214FF4384001F0F4
:104AC00091FF03214BF6010001F08CFF03214BF60F
:104AD000020001F087FF03214BF6030001F082FF83
:104AE00002214FF43C4001F07DFF00214BF60140D4
:104AF00001F078FF00214BF6024001F073FFD02156
:104B00004FF4494001F06EFF02214CF6011001F014
:104B100069FF50214CF6021001F064FF50214CF661
:104B2000031001F05FFF50214CF6041001F05AFF12
:104B300000214FF4545001F055FF55214FF46850B7
:104B400001F050FF4FF4885001F034FF782004F05A
:104B500083F94FF4245001F02DFF01F053BAA0F572
:104B600013414FF480774FF4E06940F2022A40F29B
:104B70003F144FF42746253934D0A0F513414FF4A4
:104B8000017B40F2077528397DD0A0F513414FF421
:104B90008876203978D0A0F51341313975D0A0F549
:104BA000A841083972D0A0F5A8514FF440760539D4
:104BB0006DD0A0F5354105396AD0A0F545410539DC
:104BC00067D0A0F5094189397DD0A0F58A413139F6
:104BD0007AD0A0F58A41353977D0A0F5C85163392C
:104BE00074D0BAE747F6F001E52001F0FBFE394644
:104BF000012001F0F7FE4946022001F0F3FE41F2E8
:104C00003001032001F0EEFE0021042001F0EAFE55
:104C10005146082001F0E6FE0021092001F0E2FEE5
:104C200000210A2001F0DEFE00210C2001F0DAFE56
:104C300000210D2001F0D6FE00210F2001F0D2FE50
:104C40000021102001F0CEFE0721112001F0CAFE44
:104C50000021122001F0C6FE0021132001F0C2FE47
:104C60000021072001F0BEFE41F29061102001F00A
:104C7000B9FE40F22721112001F0B4FE9D2112203F
:104C800001F0B0FE06E085E03FE1E2E1B5E250E38D
:104C9000FEE3FEE34FF4C851132001F0A3FE2521EB
:104CA000292001F09FFE0D212B2001F09BFE072102
:104CB000302001F097FE40F20331312001F092FEE6
:104CC0000321322003E0E5E3E5E3E5E3E5E301F07A
:104CD00089FE40F20621352001F084FE08213620AD
:104CE00001F080FE40F20641372001F07BFE4FF4D8
:104CF0004171382001F076FE0721392001F072FE63
:104D000040F202613C2001F06DFE08213D2001F0DF
:104D100069FE0021502001F065FEEF21512001F0D5
:104D200061FE0021522001F05DFE2146532001F07A
:104D300059FE3146602001F055FE0121612001F04D
:104D400051FE00216A2001F04DFE0021802001F07B
:104D500049FE0021812001F045FE0021822001F062
:104D600041FE0021832001F03DFE0021842001F05E
:104D700039FE0021852001F035FE1021902001F040
:104D800031FE4FF4C061922001F02CFE40F233114D
:104D90000720FDE341F28F01EC2001F023FE41F2F8
:104DA0003421EF2001F01EFE3946012001F01AFEE9
:104DB0004946022001F016FE41F23001032001F0C5
:104DC00011FE0021042001F00DFE5146082001F0E3
:104DD00009FE0021092001F005FE00210A2001F052
:104DE00001FE01210C2001F0FDFD00210D2001F04C
:104DF000F9FD00210F2001F0F5FD0021102001F048
:104E0000F1FD0721112001F0EDFD0021122001F03C
:104E1000E9FD0021132001F0E5FD0121072001F04B
:104E2000E1FD322003F0FEFF41F29041102001F03D
:104E3000D9FD40F22721112001F0D4FD322003F0EA
:104E4000F1FF8A21122001F0CDFD322003F0EAFFAC
:104E50004FF4D051132001F0C5FD0621292001F0A7
:104E6000C1FD0D212B2001F0BDFD322003F0DAFF42
:104E70000021202001F0B6FD0021212001F0B2FD2B
:104E8000322003F0CFFF0021302001F0ABFD40F2D3
:104E90000461312001F0A6FD40F20531322001F01D
:104EA000A1FD0021352001F09DFD40F6094136208D
:104EB00001F098FD5946372001F094FD40F2013190
:104EC000382001F08FFD2946392001F08BFD0021AB
:104ED0003C2001F087FD40F60A213D2001F082FDD3
:104EE000322003F09FFF0021502001F07BFDEF21D5
:104EF000512001F077FD0021522001F073FD214681
:104F0000532001F06FFD31464CE10021084601F0CD
:104F100069FD3946012001F065FD4946022001F096
:104F200061FD41F23001032001F05CFD002104200D
:104F300001F058FD5146082001F054FD00210920E0
:104F400001F050FD00210A2001F04CFD01210C2050
:104F500001F048FD00210D2001F044FD00210F204B
:104F600001F040FD322003F05DFF40F20111072007
:104F700001F038FD322003F055FF4FF48651102028
:104F800001F030FD0721112001F02CFD31461220E7
:104F900001F028FD4FF43061132001F023FD0021C2
:104FA000292001F01FFD44F210012B2001F01AFD11
:104FB0000021502001F016FDEF21512001F012FDDB
:104FC0000021522001F00EFD2146532001F00AFD80
:104FD0004FF41C51602001F005FD0121612001F01A
:104FE00001FD00216A2001F0FDFC0021802001F07C
:104FF000F9FC0021812001F0F5FC0021822001F064
:10500000F1FC0021832001F0EDFC0021842001F05F
:10501000E9FC0021852001F0E5FC1021902001F041
:10502000E1FC0021922001F0DDFC0121932001F040
:10503000D9FC3146952001F0D5FC0021972001F0E4
:10504000D1FC0021982001F0CDFC40F27311072023
:105050007FE341F21401E72001F0C4FC394601204E
:1050600001F0C0FC4FF40071022001F0BBFC41F2E2
:105070003801032001F0B6FC5146082001F0B2FCD3
:105080000021092001F0AEFC00210A2001F0AAFC59
:1050900000210C2001F0A6FC00210D2001F0A2FC53
:1050A00000210F2001F09EFC0021102001F09AFC4D
:1050B0000721112001F096FC0021122001F092FC42
:1050C0000021132001F08EFCC82003F0ABFE41F25A
:1050D0009061102001F086FC40F22721112001F0A0
:1050E00081FC322003F09EFE0C21122001F07AFC9C
:1050F000322003F097FE4FF40061132001F072FCA0
:105100001121292001F06EFC0B212B2001F06AFCFB
:10511000322003F087FE0021202001F063FC2146AD
:10512000212001F05FFC0021302001F05BFC4FF4F6
:1051300083763146312001F055FC0021322001F008
:1051400051FC5946352001F04DFC41F20A613620F0
:1051500001F048FC2946372001F044FC3146382054
:1051600001F040FC2946392001F03CFC40F20241AC
:105170003C2001F037FC40F60F413D2001F032FCAD
:105180000021502001F02EFCEF21512001F02AFCDB
:105190000021522001F026FC2146532001F022FC80
:1051A0004FF41C51602001F01DFC0121612001F031
:1051B00019FC00216A2001F015FC0021802001F07B
:1051C00011FC0021812001F00DFC0021822001F062
:1051D00009FC0021832001F005FC0021842001F05E
:1051E00001FC0021852001F0FDFB1021902001F041
:1051F000F9FB4FF4C0619220FEE33946012001F033
:10520000F1FB4946022001F0EDFB41F230010320A1
:1052100001F0E8FB0021042001F0E4FB40F207214B
:10522000082001F0DFFB0021092001F0DBFB002159
:105230000A2001F0D7FB00210C2001F0D3FB002154
:105240000D2001F0CFFB00210F2001F0CBFB14203B
:1052500003F0E8FD41F2B061102001F0C3FB012131
:10526000112001F0BFFB0121172001F0BBFB4FF41F
:105270009C71122001F0B6FB4FF40061132001F085
:10528000B1FB0921292001F0ADFB09212A2001F001
:10529000A9FB0021A42001F0A5FB0021502001F072
:1052A000A1FBEF21512001F09DFB0021522001F0D4
:1052B00099FB2146532001F095FB4FF41C516020CF
:1052C00001F090FB0121612001F08CFB00216A209C
:1052D00001F088FB0021802001F084FB0021812067
:1052E00001F080FB0021822001F07CFB0021832063
:1052F00001F078FB0021842001F074FB002185205F
:1053000001F070FB1321902001F06CFB0021922032
:1053100001F068FB0321932001F064FB31469520E6
:1053200001F060FB40F27311072001F05BFB3220BB
:105330000FE10021072001F055FB322003F072FD40
:105340004FF48E71122001F04DFB0121A42001F0D9
:1053500049FB0F21082001F045FB08210A2001F03C
:1053600041FB08210D2001F03DFBA84629463020D5
:1053700001F038FB0721312001F034FB40F20361DA
:10538000322001F02FFB4D464946332001F02AFB25
:105390005146342001F026FB0221352001F022FB8A
:1053A00041F60F71362001F01DFB4146372001F018
:1053B00019FB0021382001F015FB0021392001F0F4
:1053C00011FB41463A2001F00DFB00213B2001F08A
:1053D00009FB07213C2001F005FB00213D2001F0E5
:1053E00001FB322003F01EFD0121072001F0FAFA33
:1053F0000121172001F0F6FA322003F013FD4FF4DB
:10540000BD51102001F0EEFA40F21721112001F0F9
:10541000E9FA4FF48F71122001F0E4FA4FF4706151
:10542000132001F0DFFA00212A2001F0DBFA0A2123
:10543000292001F0D7FA4FF49F71122001F0D2FA1F
:105440000021502001F0CEFAEF21512001F0CAFADC
:105450000021522001F0C6FA2146532001F0C2FA81
:105460004FF41C51602001F0BDFA0121612001F0D0
:10547000B9FA00216A2001F0B5FA0021802001F07C
:10548000B1FA0021812001F0ADFA0021822005E06F
:1054900062E05FE126E2D9E28DE3FDE301F0A2FAEA
:1054A0000021832001F09EFA0021842001F09AFA65
:1054B0000021852001F096FA1321902001F092FA44
:1054C0003146922001F08EFA0521932001F08AFAEC
:1054D0000021952001F086FA0021972001F082FA40
:1054E0000021982001F07EFA3946012001F07AFA75
:1054F0002946022001F076FA41F23801032001F03A
:1055000071FA0021042001F06DFA00210C2001F055
:1055100069FA00210F2001F065FA0021202001F036
:1055200061FA0021212001F05DFA2121072001F01C
:1055300059FA142003F076FC6121072001F052FA99
:10554000142003F06FFC40F27311072001F04AFAB7
:10555000142003F067FC2DE30021084601F042FA15
:105560000021084601F03EFA0021084601F03AFA0F
:105570000021084601F036FA0121A42001F032FA98
:10558000142003F04FFC4FF41C552946602000E026
:10559000DBE001F027FA56465146082001F022FAD6
:1055A0004FF40571302001F01DFA43F215713120DE
:1055B00001F018FA40F20461322001F013FA40F6CB
:1055C0001661332001F00EFA42F21121342001F06D
:1055D00009FA4FF4A851352001F004FA48F20751B6
:1055E000362001F0FFF941F20741372001F0FAF9C6
:1055F00041F20341382001F0F5F92021392001F072
:10560000F1F91A21902001F0EDF90021102001F0AC
:10561000E9F90721112001F0E5F90021122001F03C
:10562000E1F90021132001F0DDF9142003F0FAFB69
:105630004FF4E661102001F0D5F940F23711112046
:1056400001F0D0F9142003F0EDFB4FF4DC711220CF
:1056500001F0C8F9142003F0E5FB4FF4706113204A
:1056600001F0C0F980212A2001F0BCF9482129204D
:1056700001F0B8F9142003F0D5FB3946012001F000
:10568000B1F94946022001F0ADF941F23801032099
:1056900001F0A8F93146082001F0A4F900210A2000
:1056A00001F0A0F900210C2001F09CF900210D204F
:1056B00001F098F930210E2001F094F900215020DA
:1056C00001F090F9EF21512001F08CF900215220D6
:1056D00001F088F92146532001F084F92946602021
:1056E00001F080F90121612001F07CF900216A209C
:1056F00001F078F91121902001F074F94FF4C061A4
:10570000922001F06FF940F20241932001F06AF912
:105710000221942001F066F9142003F083FB01219B
:10572000072001F05FF9142003F07CFB61210720C2
:1057300001F058F940F27311072001F053F90021EC
:10574000202001F04FF90021212001F04BF9222106
:1057500000202DE20021084601F044F9002108460E
:1057600001F040F9142003F05DFB0021084601F030
:1057700039F90021084601F035F90021084601F009
:1057800031F90021084601F02DF90121A42001F092
:1057900029F9142003F046FB4FF41C51602001F05E
:1057A00021F940F60601082001F01CF940F20375CA
:1057B0002946302001F016F90121312001F012F9BB
:1057C0000421322001F00EF94FF48171332001F0F1
:1057D00009F93146342001F005F940F20311352072
:1057E00001F000F91F21362001F0FCF8294637208E
:1057F00001F0F8F80121382001F0F4F804213920F3
:1058000001F0F0F81521902001F0ECF84FF48261DE
:10581000102001F0E7F840F24721112001F0E2F8F2
:105820004FF4DE71122001F0DDF84FF460611320B7
:1058300001F0D8F8782003F0F5FA3946012001F09C
:10584000D1F84FF40071022001F0CCF841F23001A0
:10585000032001F0C7F808210A2001F0C3F8002155
:105860000C2001F0BFF820210E2001F0BBF8002130
:105870000F2001F0B7F80021202001F0B3F800213B
:10588000212001F0AFF83D212A2001F0ABF81420CF
:1058900003F0C8FA2D21292001F0A4F8002150209E
:1058A00001F0A0F84DF2EF01512001F09BF800212A
:1058B000522001F097F82146532001F093F800217F
:1058C000612001F08FF800216A2001F08BF8314649
:1058D000922001F087F80521932001F083F83946E2
:1058E000FFF7B5BB0121002001F07CF84AF6A401C6
:1058F000032001F077F800210C2001F073F840F646
:105900000C010D2001F06EF84FF42C510E2001F027
:1059100069F8B0211E2001F065F842F63F31012000
:1059200001F060F84FF4C061022001F05BF8002143
:10593000102001F057F846F27801112001F052F8DA
:105940000021052001F04EF80021062001F04AF860
:105950004EF61C71162001F045F80321172001F0C6
:1059600041F840F23321072001F03CF800210B20E0
:1059700001F038F800210F2001F034F80021412017
:1059800001F030F80021422001F02CF800214820DD
:1059900001F028F82146492001F024F800214A208E
:1059A00001F020F800214B2001F01CF84FF46F416A
:1059B000442001F017F80021452001F013F821469A
:1059C000462001F00FF82946302001F00BF85C4624
:1059D0005946312001F006F82146322001F002F844
:1059E00040F202552946332000F0FCFF691D3420A7
:1059F00000F0F8FF214600E082E1352000F0F2FFE0
:105A00002146362000F0EEFF2946372000F0EAFF5D
:105A100040F2023421463A2000F0E4FF21463B20C8
:105A200000F0E0FF0021232000F0DCFF0021242013
:105A300000F0D8FF4FF40041252000F0D3FF0021F3
:105A40004F2000F0CFFF00214E20B1E001210020C7
:105A500000F0C8FF0A2003F0E5F941F228611020A8
:105A600000F0C0FF0E21122000F0BCFF40F63921EB
:105A7000132000F0B7FF0A2003F0D4F940211120D1
:105A800000F0B0FF5021152000F0ACFF0A2003F019
:105A9000C9F91E21122000F0A5FF0A2003F0C2F967
:105AA0004FF4B151102000F09DFF42F63921132030
:105AB00000F098FF0A2003F0B5F93946012000F004
:105AC00091FF3146022000F08DFF41F238010320A2
:105AD00000F088FF5146082000F084FF08210A20CA
