:020000040800F2
:10000000F0060020D5010008BF1D000847180008B1
:10001000BD1D0008CD060008951E00080000000068
:10002000000000000000000000000000E31D0008C8
:10003000CF06000800000000E11D0008E51D0008D3
:10004000EF010008EF010008EF010008EF010008D0
:10005000EF010008EF010008EF010008EF010008C0
:10006000EF010008E1060008EF010008EF010008B9
:10007000EF010008EF010008EF010008EF010008A0
:10008000EF010008EF010008EF010008EF01000890
:10009000EF010008EF010008EF010008EF01000880
:1000A000EF010008EF010008EF010008EF01000870
:1000B000EF010008EF010008EF010008EF01000860
:1000C000EF010008EF010008EF010008EF01000850
:1000D000EF010008EF010008EF010008EF01000840
:1000E000EF010008EF010008EF010008EF01000830
:1000F000EF010008EF010008EF010008EF01000820
:10010000EF010008EF010008EF010008EF0100080F
:10011000EF010008EF010008EF010008EF010008FF
:10012000EF010008EF010008EF010008EF010008EF
:1001300000F002F800F03FF80AA090E8000C8244BA
:100140008344AAF10107DA4501D100F034F8AFF297
:10015000090EBAE80F0013F0010F18BFFB1A43F0A5
:1001600001031847EC4000000C410000103A24BF86
:1001700078C878C1FAD8520724BF30C830C144BF0C
:1001800004680C607047000000230024002500264E
:10019000103A28BF78C1FBD8520728BF30C148BFEA
:1001A0000B607047642900F07180002070471FB514
:1001B0001FBD10B510BD00F0F5F91146FFF7F7FFB0
:1001C00001F0FAFE00F013FA03B4FFF7F2FF03BCEC
:1001D00000F016FA0948804709480047FEE7FEE7A5
:1001E000FEE7FEE7FEE7FEE7FEE7FEE7FEE7FEE7E7
:1001F00004480549054A064B704700004D1E00089B
:1002000031010008F0000020F0060020F00200207C
:10021000F00200200FB41CB5074B06AA7B446946C8
:100220000090059800F09DF90020694600F0ACF9B7
:100230001CBC5DF814FB00006903000070B50446A7
:1002400085690068C10601D5302600E02026C00778
:1002500007D070BDD4E9012130469047206A401C88
:1002600020626D1EF6D570BD70B5044685690078B4
:10027000C00707D170BDD4E9012120209047206A32
:10028000401C20626D1EF6D570BD00002DE9F041C6
:100290000646002410687529314616A510D0AFF324
:1002A0000080002802DA404213A507E031688A077F
:1002B00001D512A502E0490704D511A5012401E0EA
:1002C000AFF3008000210A2206F1240709E0B0FB09
:1002D000F2FCB0FBF2F302FB1C00303078541846FD
:1002E000491C0028F3D123462A463046BDE8F04198
:1002F00000F0D9B8000000002D0000002B00000025
:10030000200000002DE9F05F894604464FF0000A06
:10031000DFF824B1FB44C0F820A02046E1688847FC
:1003200000287DD0252806D0D4E901219047206AF5
:10033000401C2062F1E700255F462046E1688847BF
:100340002028064607DB312E05D2B81910F8200CFC
:1003500008B10543F1E7A80701D525F00405C4F865
:100360001CA00027C4F818A02A2E09D0304601F09E
:100370001BFE38B304EB8708303EC8F8186019E05C
:1003800059F8041B204604EB87029161E168884715
:10039000012F064618D1E069002820DA25F0200553
:1003A0001DE0D8F8180000EB800006EB4000303864
:1003B000C8F818002046E1688847064601F0F4FDB9
:1003C0000028EED1012F0AD02E2E08D12046E16858
:1003D00088477F1C0646022F45F02005C4DBA06934
:1003E000002803DA404245F00105A061E80701D08A
:1003F00025F01005A6B1A6F14100192802D8203633
:1004000045F400654A463146204625604D46FFF7D3
:10041000C9FE60B1012807D0ED1D25F0070000E0FE
:1004200007E000F1080978E705F1040975E73046AF
:100430007AE7206ABDE8F09F903E00004FF000028E
:1004400000B5134694469646203922BFA0E80C50CA
:10045000A0E80C50B1F12001BFF4F7AF090728BFA5
:10046000A0E80C5048BF0CC05DF804EB890028BF21
:1004700040F8042B08BF704748BF20F8022B11F04A
:10048000804F18BF00F8012B7047704770477047C6
:1004900010B500F07FF8006810BD10B5044600F0FC
:1004A00079F8046010BD2DE9F0470D469946924653
:1004B000044600F124080168880604D5E06921F0AB
:1004C0001001216000E00120A84201DD471B00E08F
:1004D0000027A1697A1902EB0900081AA0612078A7
:1004E000C00602D42046FFF7A9FE002608E0D4E9A2
:1004F00001211AF806009047206A401C761C2062F1
:100500004E45F4DB2078C0060AD52046FFF796FE5C
:1005100006E0D4E9012130209047206A401C206287
:10052000381EA7F10107F4DC07E0D4E9012118F82F
:1005300005009047206A401C2062281EA5F1010595
:10054000F3DC2046FFF790FE2078000602D502205B
:10055000BDE8F0870120FBE701694A1C02610878C9
:10056000704700B58FB0CDE90131002105910549F3
:100570007944CDE9031011466846FFF7C3FE0FB07A
:1005800000BD0000E5FFFFFF0A6802F8010B0A60EA
:1005900070470000004870478C00002000487047FA
:1005A0008C0000207546FFF7F9FFAE46050069464E
:1005B000534620F00700854618B020B5FFF718FE17
:1005C000BDE820404FF000064FF000074FF0000854
:1005D0004FF0000B21F00701AC46ACE8C009ACE8D5
:1005E000C009ACE8C009ACE8C0098D46704710B539
:1005F0000446AFF300802046BDE81040FFF7E4BD9D
:1006000001491820ABBEFEE726000200704700003B
:1006100070B5044600688168C943C9071CD1816868
:1006200021F00101816000F0D3FC05460FE000BF1E
:1006300000F0CEFC401B022809D9A06A40F010004F
:10064000A062E06A40F00100E062012070BD206815
:100650008068C043C007EBD0002070BDF8B500260D
:100660000446009600688168C943C90728D081689C
:1006700041F001018160134813490068B0FBF1F0BB
:1006800000E0401E00900028FBD100F0A1FC0546D0
:1006900011E000BF00F09CFC401B02280BD9A06AAF
:1006A00040F01000A062E06A40F00100E06284F8CF
:1006B00024600120F8BD20688068C043C007E9D1EC
:1006C0000020F8BD1400002040420F00FEE77047F4
:1006D00001B5009801E0401E00900028FBD108BD44
:1006E000082000F06FBB000030B5B3F5804F05D097
:1006F0006FF0704140F82210002030BD8C690B680B
:100700008D6823434C688989240144EA05242343E6
:1007100043EA014150F82230014C23401943E9E7F4
:100720000000F0CF30B50A6850F8223023F0010302
:1007300040F822308C68204B4A68082C1ED0224397
:10074000D1E903452C4322434C6922438C6922435F
:10075000CC6922430C6A22434C6A22438C6A2243AE
:10076000CC6A22430C6B0968224350F821401C409C
:1007700052EA040240F82120002030BDD1E90345AF
:1007800042F008022C4322434C6922438C692243E5
:10079000CC6922430C6A22434C6A22438C6A22436E
:1007A000CC6A22430C6B0968224350F821401C405C
:1007B000224342F04002DDE78100F7FF30B5D1E986
:1007C000003443EA04138C688D89240244EA05440A
:1007D00023430C8A094D00EB820005EB04542343AC
:1007E0000C7D6D0105EB0464896923430B4341686B
:1007F00001F040410B434360002030BD0000F0FF9A
:10080000F8B500250446009590F82400012808D08A
:10081000012084F824002046FFF7FAFE060002D0EB
:100820004BE00220F8BDA06A20F4885040F002009E
:10083000A062022000F068FC22490968B1FBF0F0D8
:10084000400000E0401E00900028FBD12046FFF74A
:1008500005FF2068816841F00801816000F0B8FB65
:10086000074604E000F0B4FBC01B0A2811D820683A
:1008700080680007F6D42068816841F00401816037
:1008800000F0A6FB07460EE000F0A2FBC01B0A2802
:1008900009D9A06A20F0020040F01000A06284F89C
:1008A00024500120F8BD206880684007ECD4A06A7D
:1008B00020F0020040F00100A06284F8245030468D
:1008C000F8BD000014000020F8B50024009490F852
:1008D00024202546012A12D0012280F824204A68CB
:1008E0001F23072A0DD20668776B521E02EB820285
:1008F00093409F430B6893401F43776319E00220A6
:10090000F8BD06680D2A0AD2376BD21F02EB8202AD
:1009100093409F430B6893401F43376309E0F76A96
:100920000D3A02EB820293409F430B6893401F43B2
:10093000F7620A68072306680A2A0AD3F7680A3AA0
:1009400002EB420293409F438B6893401F43F76042
:1009500008E0376902EB420293409F438B68934063
:100960001F4337610A68102A01D0112A20D1124B87
:1009700002689A4217D193681B0219D4936843F412
:10098000000393600968102912D10C490C4A0968C8
:10099000B1FBF2F101EB8101490000E0491E009139
:1009A0000029FBD104E0816A41F020018162012429
:1009B00080F824502046F8BD002401401400002097
:1009C00040420F000068C06C704700002DE9F04104
:1009D00004004FF000057FD0A06A002628B9E66227
:1009E00084F82460204600F081F82046FFF710FECE
:1009F000A16AC90600D420B1A06A40F01000A0622C
:100A00006AE0A16A21F4885141F00201A1623349F0
:100A100023688B42E16904D1B1F5402F01D14FF435
:100A20000021E7684FF4807C41EA470261680A438D
:100A3000A168614508D0012906D00021D4F814E04E
:100A4000BEF1010F02D00AE06146F7E7C7B1A76A1D
:100A500047F02007A762E76A47F00107E7625F688F
:100A600027F469470F435F60236899681C4F39403A
:100A700011439960A16861450BD0012909D00CE0B0
:100A8000DFF860E0A7690EEB47370F4347F40061DA
:100A9000E5E7218A0D05A5F580152168CB6A23F4C9
:100AA00070032B43CB62216889680F4B1940914238
:100AB00008D1E662A16A21F0020141F00101A162C0
:100AC000BDE8F081A06A20F0020040F01000A062B2
:100AD000E06A40F00100E0620120F1E7003C0140E3
:100AE000FDF7E1FF00E0FFFFFE0E1FFF00B585B040
:100AF0000021009101910291039100680E49884202
:100B000018D10E48816941F400718161816901F455
:100B100000710491816941F0100181618069694629
:100B200000F0100004900120009003200190044880
:100B300000F054F905B000BD00240140001002404F
:100B4000001001402DE9F84300260D4604460096AA
:100B500000F03EFA804620688168C90508D5A06A81
:100B600040F02000A06284F824600120BDE8F883F2
:100B70004168C90503D4C06A10F4700F26D0022062
:100B800000F0C2FA38490968B1FBF0F72068036940
:100B900036490B424FEA61014FEAA1121BD1C368EB
:100BA0004FEA611C13EA0C0F15D103690B4221D1E6
:100BB000C06810421ED114201FE0681C06D045B347
:100BC00000F006FAA0EB0800A84222D820680068CE
:100BD0008007F2D52AE003690B4202D1C1681142B5
:100BE00006D0026922490A4206D1C068084203D1F0
:100BF000542002E0292000E0FC204743009813E045
:100C0000681C0ED02DB100F0E3F9A0EB0800A8425B
:100C100007D9A06A40F00400A06284F82460032091
:100C2000A4E70098401C0090B842E9D321686FF017
:100C300012000860A06A40F40070A062206880681A
:100C4000C0F3424007280CD1E06850B9A06A20F4F4
:100C50008070A062A06AC00403D4A06A40F00100C2
:100C6000A062002082E700001400002024499224A2
:100C70004992240070B5044690F8240001280DD054
:100C8000012084F824002046FFF7E8FC02004FF022
:100C9000000005D084F82400104670BD022070BD0D
:100CA000A16A40F20123994341F48071A1621F4D72
:100CB00023681F49AB4218D10E6816F4702F14D068
:100CC000A66A46F48016A6620E68760505D5A66A61
:100CD00026F4005646F48056A662A66AF6040AD5A3
:100CE000E66A26F00606E66206E0A66A26F48016A4
:100CF000A6625E68E9E7E06284F824006FF0020013
:100D0000186020688368C3F34243072B05D1A842CB
:100D100008D1096811F4702F04D0816841F4801162
:100D20008160B9E7816841F4A001F9E7002801403A
:100D30000424014070B5044600F04AF90546601CE1
:100D400002D004480078044400F042F9401BA0425D
:100D5000FAD370BD0800002030B585B000200090A7
:100D60000190029003901248016800291ED10121D0
:100D700001601048416941F4807141614069022479
:100D800000F4807004904FF68070CDE900040325D4
:100D900069460395084800F021F84CF6B370CDE998
:100DA000000469460395054800F018F805B030BD09
:100DB0000000002000100240001801400014014013
:100DC00070470000044910B50A68024202D008606A
:100DD000FFF7F6FF10BD0000140401402DE9F84FA5
:100DE000DFF8B8A100220AF1040B144601274FF0E6
:100DF0000F090BF1040E00BF0B6807FA04F52B4036
:100E0000AB4274D1DFF898C14E68A6EB0C0866457A
:100E10002BD00DDC032E34D005DC36B3012E19D0D7
:100E2000022E2FD11BE0112E16D0122E2AD119E03E
:100E3000B8F5881F19D006DCB8F5803F15D0B8F595
:100E4000801F1FD111E0B8F5001F0ED0B8F5041FA8
:100E500018D10AE0CA6815E0CA68121D12E0CA6813
:100E600008320FE0CA680C320CE08A682AB1012A05
:100E70004FF0080203D0456104E0042202E005615E
:100E800000E00022FF2B01D8064601E000F1040635
:100E90004FEA840501D9A5F12005D6F800C009FA6A
:100EA00005F82CEA080C02FA05F54CEA050CC6F820
:100EB00000C04D68ED006AD53A4DAE6946F00106B6
:100EC000AE61AD6924F0030605F001050095364DCD
:100ED00006EB050CDCF80850A6074FEA167809FA6D
:100EE00008F6B543314EB04202D100261AE04EE07A
:100EF0002F4EB04201D1012614E02E4EB04201D156
:100F000002260FE02C4EB04201D103260AE02B4E00
:100F1000B04201D1042605E0294EB04201D1052698
:100F200000E0062606FA08F62E43CCF808604D6865
:100F3000DAF80060ED03554601D51E4300E09E43FC
:100F40002E604D68AD0305D5DBF800601E43CBF87D
:100F5000006004E0DBF800509D43CBF800504D6882
:100F6000DEF80060ED02754601D51E4300E09E43A9
:100F70002E604D68AD0205D5084D0C352E681E4318
:100F80002E6004E0054E0C3635689D433560641CC8
:100F9000102CFFF431AFBDE8F88F000000040140D1
:100FA0000000111000100240000001400008014044
:100FB000000C0140001001400014014000180140E5
:100FC000001C01400AB1016170470904FBE7000001
:100FD00001488068704700000800002002488168CE
:100FE000027811448160704708000020074810B55E
:100FF000016841F010010160032000F073F8002047
:1010000000F006F800F024F8002010BD0020024097
:1010100070B50D4D04464FF47A712878B1FBF0F0AD
:101020000A490968B1FBF0F000F0F9FB48B9102C4F
:1010300007D200222146501E00F034F800206C60D8
:1010400070BD012070BD00000800002014000020C9
:101050000C4808B5816941F001018161816901F0A5
:1010600001010091C16941F08051C161C06900F086
:10107000805000900448416821F0E06141F0007127
:10108000416008BD001002400000014000F01F0256
:10109000012191404009800000F1E020C0F80011DA
:1010A00070470000F0B40E4B1B680C46C3F30223DC
:1010B000C3F10705042D00D90425191D072901D204
:1010C000002300E0DB1E012606FA05F1491E21403F
:1010D00099409E40761E16403143F0BC00F070BE31
:1010E0000CED00E0064900F0070208684FF6FF0328
:1010F000184040EA0220034A10430860704700008D
:101100000CED00E00000FA0510B52CA401461DCC42
:1011100086B08DE81D002DA02D4C006804900020A5
:1011200004292FD00BDC01292FD0022928D100F06F
:1011300081F96168C1F38131491C49001EE0082929
:1011400020D010291CD161682268D20118D5C1F3C2
:101150008342C9031DF8020009D5616804AAC1F3DE
:101160004041515C1B4AB2FBF1F1484301E01A498E
:1011700048436168490203D440000321B0FBF1F009
:1011800006B010BD00F066F9FAE7226AC2F3012149
:10119000012903D1920701D5C803F1E7022905D13E
:1011A000626A920702D549F64040E9E70329E7D190
:1011B00021688903E4D54FF22440E1E702030405E6
:1011C000060708090A0B0C0D0E0F10100102000093
:1011D0000010024000127A0000093D002DE9F8439A
:1011E00005460078354CC00754D0E0690026C000A1
:1011F00008D4E06940F08050E061E069012600F029
:10120000805000902E480168C90512D401688046BC
:1012100041F480710160FFF7DBFE074605E000BF87
:10122000FFF7D6FEC01B642823D8D8F80000C005FD
:10123000F6D5206A10F4407021D0A98801F44071DD
:1012400081421CD0206A1F49012220F440700A60AC
:1012500000220A602062C00711D0FFF7B9FE0746DE
:1012600041F2883808E000BFFFF7B2FEC11B4145DC
:1012700002D90320BDE8F883206A8007F4D5206AEC
:10128000696820F44070084320621EB1E06920F0D4
:101290008050E0612878800705D56068A96820F44F
:1012A0004040084360602878C00605D560686969D9
:1012B00020F48000084360600020DBE7001002405B
:1012C00000700040400442422DE9F047DFF85481AD
:1012D00005460E46D8F8000000F00700B0420CD2D8
:1012E000D8F8001021F007013143C8F80010D8F8F1
:1012F000000000F00700B0426FD128684A4C810717
:1013000012D5400703D5606840F4E060606028783B
:10131000000703D5606840F4605060606068A968A9
:1013200020F0F000084360602878C00744D0686867
:10133000012816D02168022816D0890700294CDA26
:10134000616821F0030101436160FFF741FE6968B4
:10135000074641F2883001290ED00229814618D073
:1013600026E021688903E9E78901E7E7FFF730FE16
:10137000C11B494501D918E081466068C0F381006E
:101380000128F3D118E000BFFFF722FEC11B494539
:101390000BD86068C0F381000228F5D10CE000BFD3
:1013A000FFF716FEC11B494502D90320BDE8F087AF
:1013B000606810F00C0FF3D1D8F80010404601F02F
:1013C0000701B1420BD9016821F0070131430160E7
:1013D000006800F00700B04201D00120E6E728785D
:1013E000400705D56068E96820F4E0600843606064
:1013F0002878000706D56068296920F4605040EA23
:10140000C100606000F026F86168084AC1F303116A
:10141000515CC840064908600020FFF7F9FD002034
:10142000C4E7000000200240001002409041000884
:10143000140000200448054900684968044AC1F3C3
:10144000C221515CC84070471400002000100240C7
:10145000A041000812A185B00FC98DE80F0014A0AB
:10146000144A006804905168134801F00C03042BDF
:1014700010D0082B0ED1C1F38343C9031DF803001C
:101480000AD5516804AAC1F34041515C0A4A50434D
:10149000B0FBF1F005B0704708494843FAE7000097
:1014A00002030405060708090A0B0C0D0E0F1010A5
:1014B000010200000010024000127A0000093D0005
:1014C0002DE9F84F04460078B94DC00748D0686848
:1014D000C0F38100012807D06868C0F381000228AA
:1014E00009D16868C00306D52868800338D56068CC
:1014F00000286FD034E06068B0F5803F0BD010B1A9
:10150000B0F5A02F11D0286820F48030286028681A
:1015100020F4802002E0286840F480302860606871
:1015200088B1FFF755FD064609E0286840F48020A1
:101530002860F0E7FFF74CFD801B642875D8286809
:101540008003F7D50CE0FFF743FD064605E000BF3A
:10155000FFF73EFD801B6428F0D828688003F7D48D
:101560002078944E80074FF001094FF000083BD5DA
:10157000686810F00C0F07D06868C0F3810002287B
:1015800009D16868C00306D42868800714D520698B
:1015900001281FD110E02069B0B1C6F80090FFF714
:1015A00017FD074605E000BFFFF712FDC01B02282C
:1015B000C4D828688007F7D52868616920F0F8004A
:1015C00040EAC10028600FE0C6F80080FFF700FD88
:1015D000074606E0E9E000BFFFF7FAFCC01B02285F
:1015E00023D828688007F7D4207800072CD57248C4
:1015F000A169D9B1C0F80090FFF7EAFC074604E002
:10160000FFF7E6FCC01B02280FD8686A8007F7D5F1
:101610006A484FF4FA510068B0FBF1F0009000BF47
:101620000098411E0091FAD20EE080E0C0F80080E0
:10163000FFF7CEFC074604E0FFF7CAFCC01B0228F8
:1016400075D8686A8007F7D42078400760D5E869C4
:101650000027C00008D4E86940F08050E861E869DC
:10166000012700F08050009055480168C90513D447
:101670000168834641F480710160FFF7A9FC82464E
:1016800006E000BFFFF7A4FCA0EB0A0064284ED8D8
:10169000DBF80000C005F5D5E06801280AD008B1E4
:1016A000052813D0286A20F001002862286A20F05B
:1016B000040002E0286A40F001002862E06841F27C
:1016C000883B98B1FFF784FC82460BE0286A40F023
:1016D00004002862EEE700BFFFF77AFCA0EB0A01E6
:1016E00059455AD8286A8007F6D50CE0FFF770FCF8
:1016F000824605E0FFF76CFCA0EB0A0159454CD887
:10170000286A8007F6D41FB1E86920F08050E861AC
:10171000E06988B36968C1F38101022945D00228D4
:10172000C6F8608004D0FFF753FC044638E034E08C
:10173000FFF74EFC074604E0FFF74AFCC01B0228F7
:101740002BD828688001F7D4206AB0F5803F05D1F6
:101750006868A16820F4003008436860D4E9080193
:101760000843696821F4741108436860C6F8609002
:10177000FFF72EFC044606E015E000BFFFF728FC4B
:10178000001B022809D828688001F7D50BE000BFAC
:10179000FFF71EFC001B022802D90320BDE8F88FCA
:1017A00028688001F4D40020F8E70120F6E7000063
:1017B0000010024000004242800442421400002017
:1017C0000070004070B515460E46040003D094F832
:1017D0003D0010B107E0012070BD002084F83C00FE
:1017E000204600F01AF804F108012068FEF79AFF7D
:1017F0003146A2682068FEF7E1FFD4E901022946DC
:10180000236BFEF771FFA168206850F8212042F099
:10181000010240F82120002070BDFFF79DBA10B5ED
:10182000401EB0F1807F01D3012010BD4FF0E024B5
:1018300060610F21601700F0C3FA0020A06107204B
:101840002061002010BDFEE7044B4FF4805108B129
:10185000002200E001221846FFF7B4BB001401404B
:1018600070B51D461446049E00F072F804FB05F0A6
:101870003146BDE8704000F049B8000070B5203A2C
:10188000D4B21023082200F063F82C20C10608808F
:101890000C490D4B01EB041500204FF6FF742A5C38
:1018A0000021D60702D01F261E8000E01C80491CA4
:1018B0005208C9B20829F4D3401CC0B21028EED394
:1018C00070BD0000A03B000800000260F0B51646A5
:1018D0000D4604464FF4A07714E000BF04F1080061
:1018E000F02802D900241035ADB205F11000B8423D
:1018F00001D90024254629462046FFF7BFFF0834BA
:10190000A4B2761C3278002AE8D1F0BD10B50022CE
:101910002C23DC062380034B01E01980521C8242F9
:10192000FBD310BD0000026008B50120FFF78CFF5B
:1019300000F0EAF800F02CF84FF6FF70002100905C
:101940004FF4A073F0220846FFF78AFF08BD00009D
:1019500070B54FF0C0452A242C800C4C060A268016
:10196000C6B226801044401E020A2280C0B22080E7
:101970002B202880080A2080C8B22080C818401E6A
:10198000010A2180C0B2208070BD0000000002600A
:1019900000B54FF0C041CF20088059480022028096
:1019A0008122028030220280ED220A80642202809D
:1019B000032202801222028081220280E8220A8011
:1019C000852202801022028078220280CB220A80A7
:1019D000392202802C2202800022028034220280DE
:1019E00002220280F7220A8020220280EA220A8054
:1019F000002202800280B1220A80002202801B2283
:101A00000280B6220A800A220280A2220280C0221C
:101A10000A8035220280C1220A8011220280C5225A
:101A20000A80452202800280C7220A80A222028008
:101A3000F2220A800022028026220A8001220280ED
:101A4000E0220A800F2202802622028024220280C5
:101A50000B2202800E220280092202805422028080
:101A6000A8220280462202800C22028017220280D5
:101A7000092202800F2202800722028000220280B7
:101A8000E1220A8000220280192202801B220280A9
:101A90000422028010220280072202802A22028071
:101AA000472202803922028003220280062202801D
:101AB000028030220280382202800F2202803622E9
:101AC0000A80C82202802A220A8000220280028024
:101AD0000280EF2202802B220A80002202800280F4
:101AE000012202803F2202803A220A80552202808F
:101AF000112008800348FEF7EBFD2920088000BD77
:101B000000000260FCBF020070B50A4C00220221F6
:101B10002046FFF757FA084D2846FEF7D9FD012267
:101B200002212046FFF74EFA2846BDE87040FEF736
:101B3000CFBD000000180140FCBF02003EB50021EF
:101B40000E48009101910C4A029102600124C0E903
:101B5000021441614FF460220461C2614160FEF7EA
:101B600035FF0A20CDE900040520029069460348AC
:101B7000FEF7AAFE3EBD0000002401401800002030
:101B800000B587B01C216846FEF758FC15484FF099
:101B90002041102201601449416000218160C16030
:101BA000C0E904128161C16113020162C0E9091335
:101BB000C1620163416381630F20FF230090CDE97F
:101BC0000103CDE903021120CDE905010022694698
:101BD0000448FFF7F7FD0548C16941F48061C16120
:101BE00007B000BD48000020040100A00000014033
:101BF0002DE9F04F85B000246948009401940294C7
:101C00000394816941F040018161816901F04001E3
:101C10000491816941F010018161816901F0100135
:101C20000491816941F004018161816901F004013D
:101C30000491816941F008018161816901F0080125
:101C40000491816941F0200181618069DFF854B11C
:101C500000F02000049000224FF4FF715846FFF777
:101C6000B1F9DFF844910022F0214846FFF7AAF9C4
:101C7000DFF838A1002221215046FFF7A3F941F2F5
:101C80000808002241464A48FFF79CF90022022139
:101C90004848FFF797F9602001258DE83100694633
:101CA0004448FFF79BF86803CDE9000469464846BD
:101CB0000294FFF793F8082000903F48CDE9010413
:101CC00069464846FFF78AF8CDE900546946584608
:101CD0000294FFF783F84FF4F9700227CDE900056D
:101CE000CDE9024769465846FFF778F80C200326ED
:101CF000CDE90005CDE9024669465846FFF76EF882
:101D00003020CDE90005CDE9024669464846FFF797
:101D100065F82120CDE90005CDE902466946504627
:101D2000FFF75CF804208DE8310069465046FFF764
:101D300055F84FF47F40CDE90004694650460294BF
:101D4000FFF74CF8CDF800800396CDE901546946C1
:101D50001748FFF743F8C020009001AA112082E83D
:101D6000510069464846FFF739F828038DE83100ED
:101D700069465846FFF732F800970396CDE90154BB
:101D800069460C48FFF72AF8002211460920FFF7A0
:101D900089F90920FFF77AF905B0BDE8F08F000056
:101DA000001002400008014000100140000C0140FA
:101DB000001401400018014000002110FEE77047A8
:101DC0000907090E002806DA00F00F0000F1E020F4
:101DD00080F8141D704700F1E02080F8001470476F
:101DE00070477047FFF7FAB830B595B028216846BC
:101DF000FEF724FB14210AA8FEF720FB18210FA8E8
:101E0000FEF71CFB01210804CDE900100024029418
:101E100002250491CDE907504FF4E010099068467F
:101E2000FFF74EFB0F20CDE90A056802CDE90C4013
:101E300002210AA80E94FFF747FAA80311900F9504
:101E40000FA8FFF7CBF915B030BD00000D480168B1
:101E500041F00101016041680B4A11404160016895
:101E60000A4A11400160016821F480210160416843
:101E700021F4FE0141604FF41F0181600449C00359
:101E800008607047001002400000FFF8FFFFF6FEF8
:101E900008ED00E0FEE7490050EAC12018BF042029
:101EA0004A0D18BF40F0010040F2FF72B2EB515FE3
:101EB00008BF40F00200012808BF052070472DE947
:101EC000F0414F1E00EBC7010446D1E90001154661
:101ED0001E4637F006020DD02A46334601F01EF9A1
:101EE0007F1E04EBC703D3E9002300F06DFE37F03B
:101EF0000602F1D1022F25D0042F13D0062F18BFD0
:101F0000BDE8F0812A46334601F008F9D4E90A23F6
:101F100000F05AFE2A46334601F000F9D4E90823BE
:101F200000F052FE2A46334601F0F8F8D4E90623C1
:101F300000F04AFE2A46334601F0F0F8D4E90423C3
:101F400000F042FE2A46334601F0E8F8D4E90223C5
:101F500000F03AFE2A46334601F0E0F8D4E90023C7
:101F6000BDE8F04100F030BE0022134610460149A2
:101F700000F0E6BE0000F03F00F026BE002213464F
:101F80001046114600F0DCBE40F2013200204FF056
:101F9000E04101F0BFBD0000024A0020110701F03E
:101FA000B9BD000001FDFFFF30380A2801D2012031
:101FB00070470020704700001CB5FFF717F8FFF7C7
:101FC00013FFFFF715FEFFF7DBFDFFF7B7FDFFF788
:101FD000ABFC4948FEF714FC4748FEF74BFE4FF4B4
:101FE0007A714548FEF7AEFDDFF8108101221146F7
:101FF00044464046FEF7E6FF012220212046FEF738
:10200000E1FF3D48FEF7DEFC01F038F86FF009040F
:10201000224601F07FFD00F0A5FD01F08FFB384D59
:1020200002460B460020294600F08AFE0022354B6E
:1020300001F09AFA0022344B01F070F800F092FDA2
:10204000324901F0A7FB019040F6B830FEF772FE6E
:10205000A946A2464FF4FA7B6D460A265846FEF77B
:1020600069FE2548FEF7AEFC01F008F8524601F083
:1020700051FD00F077FD01F061FB0F4604460022A0
:102080004B4601F07FF922463B4600F059FE00F036
:1020900069FD019901F07EFB1D4901F03DFC01F055
:1020A0004DFB1C4A1C4B00F04BF800221B4B01F06F
:1020B00035F800F09DFF04460A2806DD00222021A5
:1020C0004046FEF77FFF16A200E018A21E210A205C
:1020D000FFF7FCFB224618A16846FEF79BF8002498
:1020E00006EBC4002A5D80B20A21FFF7C7FB641C1F
:1020F000022CF5DBB2E7000018000020000C0140C4
:10210000000014400000F03F0088C3400000CE41B2
:10211000009C2D47CD3B4ED1915CF8BF00408F40D5
:102120004861766520434F20676173004E6F2043FE
:102130004F2067617300000025303264000000000A
:102140002DE9F04D1D460C4698B0174621F0004190
:1021500023F00043002814BF4FF0010C4FF0000C97
:102160000CEB440CFE4A0CEB02064FEA620C66458F
:102170002BD33E0018BF012606EB45061644F94A4C
:10218000964222D3F84A53EA070C02D0944205D172
:1021900048B918B000201146BDE8F08D002808BFEE
:1021A0004FF0000C01D04FF0010C0CEB440212F583
:1021B000001F0AD8002F14BF4FF0010C4FF0000C85
:1021C0000CEB450212F5001F07D918B03A462B4612
:1021D0002146BDE8F04DFFF7CFBE0022DFF88CA30B
:1021E000002CB8BF534526DADFF884C36345A8BF87
:1021F000022220DADFF870C39C451CDCDFF874C3D0
:102200000CEB235CBCF1140F08DDCCF1340627FA8B
:1022100006FC0CFA06F6BE420DD108E05FB9CCF11F
:10222000140623FA06FC0CFA06F69E4203D10CF0C3
:102230000102C2F1020251EA000C19D1002D17DA95
:10224000002C18BF022A01D0012A07D00220FEF775
:1022500024F918B0BDE8F04DFFF786BE0220FEF766
:102260001CF9FFF781FE18B081F00041BDE8F08D48
:10227000B7F1000C6CD1534525D104F1804212F521
:10228000801201BF00280020B74918B008BFBDE880
:10229000F08DB548884207DC002DA1BF6046294675
:1022A00018B0BDE8F08D07E0281E05DA80F0004187
:1022B00018B06046BDE8F08DAF497944D1E900011E
:1022C00018B0BDE8F08DDFF8A0C2634525D1002D20
:1022D0001FDA19B1514512D1D8B909E0002840F0F0
:1022E000EC82A24A214618B062F31E01BDE8F08DCF
:1022F0000020214618B060F31E01BDE8F08D08DA19
:1023000018B02346BDE8F04D02460020614600F0BB
:1023100017BD18B02146BDE8F08D514518DAB5F16A
:10232000804F0DD0A5F1005CBCF1FF5C10D1B4F181
:10233000000C0DDB18B06146BDE8F04D00F0ECBBC1
:10234000234618B00246BDE8F04D194600F0E6BE3F
:10235000060024F0004C3BD1D9B1514533D1002CBB
:1023600006DD002DA1BF0020514618B0BDE8F08D5C
:10237000002C01DD002D1BDB002C13DA002D11DBFE
:10238000012A4FF0000014BF78497C4918B0BDE81D
:10239000F08D022A18BF002C0AD0012A08D1002C87
:1023A00006DA0AE0002CB8BF002D11DA012A04D0A9
:1023B000002018B00146BDE8F08D18B000204FF0A5
:1023C0000041BDE8F08DA1F14050B0F17F601AD01E
:1023D000012000EBE47050EA020421D0624C521E4E
:1023E0004FF0000B104304BF4FF0000B644C6548E6
:1023F00083427CDD644A654893421FDD884217DBD7
:10240000002D25DB37E0002C00DA4AB1022A0CBF90
:1024100001204FF0FF3018B0BDE8F04D00F017BEBE
:102420000120FEF73AF818B0BDE8F04DFFF7A6BD61
:102430004D4A8A4202DC002D0ADC1CE0814202DAAD
:10244000002D18DA04E0484B994220DD002D12DD02
:102450000220FEF722F8FFF797FD05460E46002200
:1024600053465846214600F059FE18B066F31E0147
:102470002846BDE8F08D0220FEF70FF8FFF78CFD2F
:102480000A46214618B062F31E01BDE8F08D002215
:102490003046614601F068F880460E466FF0010252
:1024A00001F038FB4FF05532394B00F06BFF4246DC
:1024B000334600F033FE0022364B00F063FF8246C5
:1024C0004246334604911046194600F027FE524614
:1024D000049B00F023FE8A4600904FF0C0422E4B32
:1024E0004046314600F01AFE2C4A2B4B00E027E014
:1024F000CDE906015146009800F010FE8246019198
:10250000274A284B4046314600F008FE5246019BC0
:1025100001F02AF882460B4602460591DDE90601E4
:1025200000F052FBDDE9062300268846304601F024
:102530001BF85246059B00F025FF024600F07EB9CD
:102540000020B1F5801F07DA35223046614601F0E0
:10255000E1FA06466FF0340000EB215024E0000061
:10256000FFFF1F00FFFF0F000000F03F0000F07FA3
:102570000000404301FCFFFF8A1F00000000F0FF45
:102580000000F0BF0000E0410000F043FFFFEF3F1C
:102590005555D53F0000E03F4715F73FFE822B65BC
:1025A00044DF5DF80BAE543EA0F2FF300190C1F362
:1025B000130040F07F6141F040510291FE49884292
:1025C000D8BF002004DDFD498142C8BF012001DDE4
:1025D0000D9008E000200D900198401C0190029899
:1025E000A0F5801002900299F54878440B910D995E
:1025F00000EBC100D0E900230F9330460A920B99FB
:1026000000F0B2FFCDE90601DDE90A2130460F9B5B
:1026100000F0DAFA02460B460020EA4900F090FB8F
:10262000059102460B460090DDE9060100F076FDBB
:102630001490E5488A464FF00008784402990068F3
:1026400012904FF0005040EA61010D980F9B01EB92
:10265000804000F5002109910A9A129800F084FF49
:1026600032460B9B00F08EFE4246534600F056FD6C
:102670000646029140465146099B129A00F04EFDD3
:10268000DDE9062300F07EFE3246029B00F06CFF7F
:10269000059B009A00F042FD0091149A0490534665
:1026A0001046194600F03AFD06460246C7480B465A
:1026B000029106217844FFF702FCCDE90510029B48
:1026C00032461046194600F029FDDDE9053200F0DA
:1026D00025FD05910646534640461946149A00F0DA
:1026E00073FA009B049A00F019FD3246059B00F036
:1026F0006BFACDE90510424653461046194600F0E4
:102700000DFD0022B24B02910A9000F05DFADDE966
:10271000053200F059FA0E464246AD4B404600F0F5
:1027200023FF029B0A9A00F01FFFDDE9053200F04B
:1027300029FE424602910A9033461046514600F067
:10274000EDFCCDE906015346149A02990A9800F06F
:10275000E5FC8A460290334642460099049800F010
:10276000DDFC5346029A00F02FFA82460B460246E1
:102770000591DDE9060100F027FADDE906230020D6
:102780008846064600F0F0FE5246059B00F0FAFD32
:10279000824609914FF060428E4B3046414600F030
:1027A000BDFC049006918C4A8A4B5046099900F072
:1027B000B5FC82460291894A894B3046414600F079
:1027C000ADFC5246029B00F0FFF9864B7B440D9A0C
:1027D00003EBC203D3E9002300F0F6F90E90079152
:1027E000019800F034FC0591DDE9061382460E9A4B
:1027F000049800F0E9F97C4A7A440D9B02EBC3038C
:10280000D3E900230093029200F0DEF95246059BC3
:1028100000F0DAF90026884652463046059B00F063
:10282000A3FE009B029A00F09FFE069B049A00F014
:102830009BFE079B0E9A00F0A5FD024600200B466A
:1028400002903846294600F069FC824601912B46E9
:1028500038461946029A00F087FE3246434600F099
:102860005DFC5246019B00F0AFF907468A463246AE
:1028700043462946029800F051FC05460E463A466A
:10288000534600F0A1F9594A8846914221DBA8EB52
:10289000020353EA000210D12A46334600F064FED8
:1028A000CDE90401524A534B3846514600F08CF9A9
:1028B000DDE9042300F030FD21D20220FDF7EDFD1B
:1028C000FFF762FB0A46214618B062F31E01BDE81D
:1028D000F08D494B28F000429A4210D3474A08EB4A
:1028E000020353EA00027FF4C6AD2A46334600F0E5
:1028F0003BFE3A46534600F00FFD7FF6BCAD00228A
:10290000019228F000403E493E4A01EB20518242AC
:1029100023DA481C4FF4801121FA00F040443A4A6F
:10292000C0F30A517A44394BA1F2FF31CB4020EA7F
:102930000303C0F3130040F48010C1F11401C84038
:1029400012680190B8F1000FBCBF404201902846C8
:10295000314600F009FE05460E462A463346384603
:10296000514600F031F94FF000084246284B4046EE
:10297000059100F0D3FBCDE90601264A264B4046DF
:10298000059900F0CBFB009102902A463346404661
:10299000059900F0E9FD3A46534600F0F3FC1F4A62
:1029A0001F4B00F0BBFB009B029A00F00DF907469D
:1029B000884602460B4635E08E9803007AB60B0037
:1029C000D21B00000000F03F0A1C0000381B000072
:1029D0000000084009C7EE3FFD033ADCF5015B1437
:1029E000E02F3EBE101A0000D419000000009040F5
:1029F000FE822B654715973C00CC904000346F3F1A
:102A000001FCFFFF0000E03F20190000FFFF0F0066
:102A1000432EE63F396CA80C615C20BEEF39FAFE0C
:102A2000422EE63FDDE9060100F0CEF8DDE906239F
:102A300005460E4600F098FD3A46434600F0A2FCDB
:102A40000F462A46334600901046194600F066FBB2
:102A5000824602462E4888460B4605217844FFF7F9
:102A60002EFA5246434600F059FB2A46334600F000
:102A700089FC80468A463B4628463146009A00F04B
:102A80004DFB3B46009A00F09FF806910090002213
:102A90004FF080434046514600F066FD0F460C90D3
:102AA000424653462846314600F038FB3B460C9AD6
:102AB00000F046F9069B009A00F056FD2A46334680
:102AC00000F052FD0022134B00F05CFC054601981B
:102AD0000E4601EB00510815002810DC284631464F
:102AE000019A01F017F8FFF7D6F9042808BFFFF79D
:102AF00053FA28463146019A01F00CF805460B4678
:102B000018B02A4658462146BDE8F04D00F006BBF5
:102B1000C01700000000F03F2DE9F04106460F46C7
:102B200000F03CFC041E0D4618BF0120284320F095
:102B30000040C0F17F6000F1E040C00F0ED0301CBB
:102B400018BF0120384320F00040C0F17F6000F141
:102B5000E040C00F04BF0120FDF79FFC204629463E
:102B6000BDE8F08121F00042A2F16052B2F5801F71
:102B700001F0004328BFD2F17F6C0BD95FEA001C43
:102B800043EAC20242EB507018BF704728BF20F0E2
:102B900001007047B2F5801FBCBF184670474FEA6E
:102BA000410C1CF5001F02D2084600F07CBF70B536
:102BB00000F05EFB00000089FFF7F6BF4FF0004019
:102BC000A0F580007047000010B591EA030F48BFE0
:102BD00083F0004300F1D084841A71EB030C05D21A
:102BE000121943EB0C03001B61EB0C01DFF824E12D
:102BF0004FEA1154A4EB135C1EEA430F18BF9EEA80
:102C0000445F73D023EA0E03DCF1200E21EA045165
:102C100043F4801332D322FA0CFE10EB0E0023FA99
:102C20000CFE41EB0E01CCF1200E03FA0EFE10EB70
:102C30000E0051F10001B1F5801FCCF1200E32D20F
:102C400001EB045112FA0EF2BDE8104058BF704774
:102C5000401C38BF5FEA420218BF7047002814BF0B
:102C600020F0010041F100014FEA410313F5001F7C
:102C700038BF7047A1F1C04100F048BB012A43EBC7
:102C80000302ACF1200CDCF11F0E32BF4FF0000E3E
:102C900023FA0CF310EB030041EB0451B4EB115F8A
:102CA000D0D0A1EB045101F5801149085FEA300052
:102CB00001EB04510ED350F1000038BF12FA0EFEA2
:102CC00008D1BDE81040C9E7401C38BF5FEA4202A6
:102CD000CAD1C3E7BDE810404FEA410313F5001F16
:102CE00038BF7047A1F1C04100F010BB9EEA445FBD
:102CF00008D011EA5E0FBDE8104004BF01F00041AA
:102D000000207047BDE8104070B500F0B1FA00BF78
:102D100064FBBE3E0000E0FF02494FF0000000F0FF
:102D2000C7BE00BF0000F87F491058BFC1F1404145
:102D30005B1058BFC3F140438B42EFF300807047F4
:102D40002DE9C04130B4DFF8A0C23CEA111418BF2D
:102D50003CEA131400F0EC8081EA03051CEA11142C
:102D600044EAD57418BF1CEA131500F0C780A4EB21
:102D700005044FF0004545EAC12145EAC32341EA75
:102D8000505143EA525304F17F74994204F50034E0
:102D90004FEAC0204FEAC22208BF904200F09C8058
:102DA0004FEA13650FF24016765D4FEA134506FBB6
:102DB00005F7C7F1807706FB07F74FEAD737A7FB80
:102DC00003687642C8F58038A7FB06CE38BFA8F165
:102DD000010807FB08E64FF0000EA6FB028CE6FB9D
:102DE00003CEDCF1000CCEF1004E38BFAEF1010E87
:102DF000A6FB0C584FF000074FF00005E6FB0E87CE
:102E0000A1FB08C6A0FB07CE16EB0E0645F1000598
:102E1000E1FB076515F1E04E7EBFA4F580345FEA63
:102E200046066D4116F1800745F100054FEA172768
:102E30004FEA066647EA0567A6F1DE46B6F1805F0F
:102E40004FEA15251FD9384624F0010C05EBC47153
:102E5000BCF1FE6F01EB0C1102D8F0BCBDE80081A3
:102E600024425CBF01F5801E9EEAC47F02D4F0BC00
:102E7000BDE80081244238D4F0BCA1F1C041BDE8D6
:102E8000004100F043BA4FEAD22242EA43524FEAED
:102E9000D323A7FB02864FEAD02040EA415007FB2C
:102EA00003661EEA0E0F4FEAD12105FB026658BFEA
:102EB000A6EB0056B6EB00564FEA520E4EEAC37E22
:102EC00018EB0E0E56EB530EBDD518EB02085E4103
:102ED0007F1C55F10005B6E74FF480154FF0000751
:102EE0004FF000064FF00008ADE7F0BC4FF00000D7
:102EF00001F1C04101F00041BDE8008111EA0C1F61
:102F00000CEA131500D00CE013EA0C1F00F025802A
:102F10004FF00000F0BC81EA030101F00041BDE880
:102F20000081F0BCBDE8004181EA030100F0EEB988
:102F3000F0BCBDE8004170B500F09AF9097EFC3E96
:102F400000F007B881EA03014FF0000001F00041F2
:102F5000704781EA030100F0D9B9F0BCBDE8004137
:102F60004FF0000021497047FFFDFBF9F7F5F4F23F
:102F7000F0EEEDEBE9E8E6E4E3E1E0DEDDDBDAD814
:102F8000D7D5D4D3D1D0CFCDCCCBCAC8C7C6C5C472
:102F9000C2C1C0BFBEBDBCBBBAB9B8B7B6B5B4B389
:102FA000B2B1B0AFAEADACABAAA9A8A8A7A6A5A474
:102FB000A3A3A2A1A09F9F9E9D9C9C9B9A99999838
:102FC0009797969595949393929191908F8F8E8EDB
:102FD0008D8C8C8B8B8A8989888887878685858468
:102FE00084838382828181800000FF070000F87F54
:102FF0004FEA41034FEA5353A3F58063D3F11E0315
:10300000C8BFD3F1210C0CDD4FF0004242EAC122CF
:1030100042EA505232FA03FC8CEAE17CACEBE170FC
:103020007047102BC4BF0020704703F5787CBCF1BB
:10303000FF3F04D06FF0004282EA2100704770B574
:1030400000F016F94992248000207047F2E710F052
:10305000004248BF4042B0FA80F310FA03F10AD0B0
:10306000C3F11D0303F580634FEA415002EB0352A5
:1030700002EBD12170474FF000007047B0FA80F3A7
:1030800010FA03F10AD0C3F11D0303F580634FEA80
:1030900041504FEA035202EBD12170474FF000003C
:1030A0007047000051EA030C17D41CF5801F58BF6D
:1030B000BCF5801F00F10680994218BF704708BF19
:1030C0009042704707D711F5801F58BF13F5801F36
:1030D00019D499427047894270471CF5801F08D562
:1030E000BCF5801FF7D58B4218BF704708BF8242DE
:1030F00070474FF4001C1CEB410F38BF1CEB430F13
:1031000001D28B42704770B500F0B2F892244900AA
:103110004FF000514FF08053FFF706BEDFF848C173
:1031200070B51CEA111E1EBF1CEA13159EEA0C0F97
:1031300095EA0C0F00F06F8081EA030423EA4C1338
:103140004EEAD47E21EA4C1141F4801143F48013FD
:10315000AE44A1FB024CA0FB0365AEF17F7E3619A5
:1031600055EB0C05A1FB034C4CF10003A0FB021C2A
:1031700016EB0C06654153F10003094218BF46F0F7
:10318000010613F4007F0BD14FEA03314FEA0530FB
:10319000340341EA155140EA16506FF003020AE089
:1031A0004FEAC3214FEAC520F40241EA555140EAF3
:1031B00056506FF0020202EB2E4201EB025585EAF7
:1031C000CE710AD05FEA440C18BF24F0004450F1DD
:1031D000000041F1000120EAD47040F2FE7C62451B
:1031E00000D270BDA84214BF4FF080444FF040445D
:1031F000002E08BF0024BEF1806FA8BFA1F1C0411E
:10320000BDE8704080F282804FF0000001F1C041C3
:1032100001F0004170479EEA0C0F0CEA131518BF2D
:1032200095EA0C0F06D04FF0000081EA030E0EF075
:10323000004170BD00F01CF88900013E00F007B8A5
:1032400000F009B84FEA430C5FEA5C5C08D081EA01
:10325000030100F05BB84FEA410C5FEA5C5CF6D119
:103260004FF00000014970470000FF070000F87FA1
:103270000EF1020E2EF0030E5EF8046B364205D4FA
:10328000012A43EB030515F5001F12D8012841EB75
:10329000010C1CF5001F0CD80ED14FEAD17C15F59E
:1032A000001F0CEB4C0C0CF1020C08BF4CEBD37C58
:1032B00004E04FF0080C01E04FEAD37C0CEB4C0526
:1032C00026FA05F606F00706B6F1040C06D20EEB58
:1032D000860CBDE870404CF0010C6047DFE80CF054
:1032E000090B02024FF000414FF00000A1F5002150
:1032F00070BD19461046012851EB010418BFD4F5E2
:10330000001484BF002001F0004170BD0808A0F542
:1033100000114FEA3101704753EA010C17D41CF534
:10332000801F58BFBCF5801F00F106808B4218BF7C
:10333000704708BF8242704707D713F5801F58BFF8
:1033400011F5801F19D48B4270479B4270471CF5C2
:10335000801F08D5BCF5801FF7D5994218BF70476C
:1033600008BF904270474FF4001C1CEB430F38BF5E
:103370001CEB410F01D2994270470FB40CBC03BC47
:10338000FFF7C1BE91EA030F10B581F000413FF590
:1033900023AC83F0004300F0EFB800002DE9F041CA
:1033A00001F5801CBCF5001FC0F2C3804FEA115C20
:1033B00021EA0C510CF1FD0C41F480115FEA5C0C28
:1033C0000CF5C07C01D3400049413DA4890241EA8B
:1033D000905187028E0E0A0CA45D04FB04F602FBDA
:1033E00006F6C6F14046A4FB0662F60D46EA422602
:1033F00006FB06F4A4FB01235242C3F1404338BF4D
:103400005B1EA6FB02420024E6FB0324D20B42EA29
:103410004446A6FB0623A1FB02E2A3FB07E4A41893
:103420004FF0000252F10002E3FB01426442C2F19C
:10343000404E38BFAEF1010EA6FB04234FF0000250
:10344000E6FB0E32A2FB03464FF00004B61954F11E
:103450000004E2FB0264A1FB06E6A4FB07E816EB0E
:1034600008064FF0000858F10008E4FB01687642B6
:10347000C8F1405838BFA8F10108A2FB06E4A3FB3D
:1034800008E52D194FF0000454F10004E2FB085444
:10349000A1FB05E6A7FB04E818EB06084FF00006C1
:1034A00056F10006E1FB048618F1200556F10006EE
:1034B000A809A8F11B08B10908F03F08B8F10A0FE4
:1034C00040EA86601CD901EB0C51BDE8F08100BFD9
:1034D000FCF5EEE8E2DDD8D3CFCBC7C3C0BDB9B6AB
:1034E000B4B1AEACA9A7A5A3A19F9D9B9A989695B0
:1034F0009392908F8D8C8B89888786858483828137
:10350000A0FB006800FB01F208EB4208B8EB87283B
:1035100007D5341858EB0104D5D5401C51F10001F2
:10352000D1E7341A78EB0104CDD4401E71F10001CB
:10353000C9E75FEA4C0C5FEA9C5C0DD105D34FF004
:10354000000001F00041BDE8F081BDE8F04170B538
:10355000FFF78EFE6DDBFFBEBDE8F0414FF00000CF
:10356000004970470000F87F10B591EA030F48BF8B
:1035700083F000433FF530AB841A71EB030C07D2A4
:1035800012198CF0004C43EB0C03001B61EB0C0197
:10359000DFF8A4E14FEA1154A4EB135C1EEA430FD9
:1035A00018BF9EEA445F00F0B08023EA6E035242E7
:1035B00021EA0451C3EB6E0338BF5B1EDCF1200E21
:1035C00025D322FA0CFE10EB0E0043FA0CFE41EB61
:1035D0000E01CCF1200E03FA0EFE10EB0E0051F19D
:1035E0000001CCF1200E29D412FA0EF201EB0451A5
:1035F000BDE8104058BF7047401C1CBFB2F1004FDF
:10360000704700280CBF491C20F00100704712EBE6
:10361000020E43EB030218BF4FF0010E4EEA4202C6
:10362000ACF1200CDCF11E0E54D943FA0CFE10EB69
:103630000E0051F1FF31CCF11E0ED5D50EF1010E69
:1036400012FA0EFE404141EB010101EB445C5FEADE
:103650005C5C10D910EBDE7001EB045138BFBEF199
:10366000004FBDE8104018BF704700280CBF491C30
:1036700020F00100704730D24FEAD42C11F5001130
:1036800024F400641BD0B1FA81F20B3AA41AA41EF0
:10369000D2F12003914030FA03F31943904001EB3B
:1036A000CC71002C01EB0451BDE81040A8BF70475D
:1036B00001F1C0414FF0000001F000417047B0FA45
:1036C00080F310FA03F100D110BDE41A173C48054D
:1036D000C90AE4E701EB045110BD491001EB0451A4
:1036E000BDE810404FEA300002E04FF000017047A3
:1036F0004A0008BF0042F8D0B2F5001F28BF70474B
:1037000001F000414FF0000070479EEA445F07D08F
:1037100011EA5E0FBDE8104004BF00210020704791
:10372000BDE8104070B5FFF7A3FD00BF40DFF63ED7
:1037300083F00041104670470000E0FF43004FEA6D
:10374000D30C4FEA3C0C43401FBF40070CF16051C3
:1037500013F0FE4F70471CF0006F03D100200CF0F7
:10376000004170470CF0004343EA507010B540EA46
:10377000CC0000F052F900BF000000924FEA0001B7
:10378000FFF7C4BD4FF000414FF00000A1F500214C
:10379000704700004FF47F0C1CEAD0121EBF1CEAD9
:1037A000D11392EA0C0F93EA0C0F00F0858090EA97
:1037B000010F48BF42F4807240F4000C41F4000055
:1037C0002CF07F4120F07F4000B58142A2EB030244
:1037D0000FF2081CACEB504EC0F100009EF800E068
:1037E0004FEA4E0E00FB0EFC38BF49004FEA2C1C7E
:1037F00002F5FA020CFB0EF34FEACE1E4FEA112C33
:103800004FEAC1210EEB635E42EB22420EFB0CFC41
:103810004FEA1C5300FB03114FEA112C4FEA013110
:103820000EFB0CFC4FEADC4C00FB0C11C14228BF24
:1038300009184CEB03335DF804EB10EB410143EB4B
:10384000C250B2F57C0F38BF704729D512F0F00F87
:103850001CBF00F1C04000F000407047008182832F
:103860008485868788898B8C8D8E8F91929395968F
:1038700097999A9C9D9FA0A2A3A5A7A8AAACAEB019
:10388000B2B3B5B7B9BCBEC0C2C5C7C9CCCED1D41E
:10389000D7D9DCDFE2E6E9ECF0F3F7FAFE0000004E
:1038A0004FEA400C0CF1807CBCF17E4F28BF704782
:1038B000B0F1C04000F0F7B890EA010F0CEAD11364
:1038C00048BF42F48072624538BF634507D213F4A3
:1038D0007F0F16D080EA010000F00040704710B55D
:1038E00000F09BF8097EFC3E00F005B880EA01007C
:1038F00000F00040704780EA010000F0004000F056
:10390000D2B812F47F0F04BF0248704780EA01006A
:1039100000F0C9B80000C07F4FF47F0C1CEAD01241
:103920001EBF1CEAD11392EA0C0F93EA0C0F00F0B1
:10393000478090EA010F48BF42F480724FF0004C7C
:103940004CEA00204CEA012102EB0302A0FB011328
:10395000A2F50002002918BF43F001035B0028BF55
:103960004FEA330342EB22425FEA132C4CEBC25086
:103970002EBFBCEB436FB2F57C0F70474FEA036C70
:10398000BCF1004F08BF20F00100B2F57C0F38BF3A
:1039900070470BD582F0FF0212F5803FC8BF704719
:1039A00000F1C040D8BF00F00040704700F5000CA7
:1039B0005FEA4C0C48BF7047B0F1C04000F073B8EC
:1039C00090EA010F0CEAD11348BF42F480726245BD
:1039D00038BF634504D280EA010000F00040704720
:1039E00010B500F01AF800BF8900013E00F007B8DA
:1039F00000F009B85FEA410C5FEA1C6C08D080EA6D
:103A0000010000F050B85FEA400C5FEA1C6CF6D190
:103A10004FF00040A0F5800070470EF1020E2EF02E
:103A2000030E5EF8044B244204D44FEA4102B2F183
:103A30007F4F11D84FEA4003B3F17F4F0CD80ED11E
:103A40004FEAD07CB2F17F4F0CEB4C0C0CF1020C26
:103A500008BF4CEBD17C04E04FF0080C01E04FEACA
:103A6000D17C0CEB4C0324FA03F404F00704B4F10A
:103A7000040C06D20EEB840CBDE810404CF0010C97
:103A80006047DFE80CF0070802024FF00040A0F5A5
:103A9000800010BD0846420018BFD2F1807288BF76
:103AA00000F0004010BDFF2141EAD050C005704732
:103AB0000CF00F03092B08BF082000F059800A2BD7
:103AC0000BD0082B18BF704708BF1CF0400F0AD05E
:103AD0004FF000004FF0000170471CF0400F18BF7E
:103AE0004FF0004070471CF0100F08D020F07043DA
:103AF00000F07F4242EAD3014FEA4370704700F082
:103B0000604021F07F4242EA000201F07F4040EA3B
:103B1000727070474FF0FF0C4CF4E06C1CEA1153CC
:103B20001CBF9CEA030C9445C2BFDA4201EB025170
:103B30007047002B0DD0BCF1000F0FD0002A01F010
:103B40000041A4BF41F0E04141F07F614FF000002F
:103B5000704701F000414FF00000704750EA013318
:103B60004FF09B0C18BF4CF0806C7FF4D5A87047C9
:103B70001CF4801F11D01CF4E02F03D06FEACC316D
:103B8000490070474FF04050EFF3008222F070423E
:103B900042EA000282F3008870474FF0000070474D
:103BA0000000000000000000000000000000000015
:103BB000000000183C3C3C181800181800000000D9
:103BC00000000066666600000000000000000000C3
:103BD0000000006C6CFE6C6C6CFE6C6C00000000F5
:103BE0000018183C66060C183060663C1818000077
:103BF00000000E1B5B6E30180C76DAD870000000E7
:103C00000000001C36361C06F66666DC000000006C
:103C1000000000181818000000000000000000005C
:103C20000000003018180C0C0C0C0C181830000098
:103C30000000000C1818303030303018180C00001C
:103C400000000000006C38FE386C0000000000002E
:103C5000000000000018187E181800000000000086
:103C6000000000000000000000003838301800009C
:103C7000000000000000007E0000000000000000C6
:103C800000000000000000000000383800000000C4
:103C90000000006060303018180C0C0606000000B0
:103CA00000000078CCECECCCDCDCCC780000000030
:103CB00000000030383E303030303030000000003E
:103CC0000000003C66666030180C067E00000000B4
:103CD0000000003C666660386066663C00000000DC
:103CE0000000000C0C6C6C6C66FE60600000000054
:103CF0000000007E0606063E6060301E00000000E8
:103D000000000038180C3E666666663C0000000045
:103D10000000007E60303018180C0C0C0000000011
:103D20000000003C66666E3C7666663C0000000063
:103D30000000003C666666667C30181C00000000CF
:103D40000000000000383800000038380000000093
:103D5000000000000038380000003838301800003B
:103D60000000006030180C060C18306000000000E5
:103D70000000000000007E007E0000000000000047
:103D8000000000060C18306030180C06000000001F
:103D90000000003C6666301818001818000000008B
:103DA0000000007EC3C3F3DBDBF303FE0000000072
:103DB000000000183C6666667E66666600000000CD
:103DC0000000003E6666663E6666663E00000000D5
:103DD0000000003C666606060666663C00000000C1
:103DE0000000001E366666666666361E000000002D
:103DF0000000007E0606063E0606067E0000000065
:103E00000000007E0606063E0606060600000000CC
:103E10000000003C666606067666667C00000000D0
:103E2000000000666666667E6666666600000000E4
:103E30000000003C181818181818183C0000000062
:103E400000000060606060606066663C000000002A
:103E5000000000666636361E3636666600000000D4
:103E600000000006060606060606067E00000000A4
:103E7000000000C6C6EED6D6D6C6C6C600000000F4
:103E8000000000C6C6CEDEF6E6C6C6C600000000CC
:103E90000000003C666666666666663C00000000E0
:103EA0000000003E6666663E06060606000000004C
:103EB0000000003C666666666666663C3060000030
:103EC0000000003E6666663E3666666600000000DC
:103ED0000000003C66060C183060663C00000000E4
:103EE0000000007E18181818181818180000000094
:103EF00000000066666666666666663C0000000056
:103F0000000000666666666666663C180000000093
:103F1000000000C6C6C6D6D6D66C6C6C0000000089
:103F200000000066662C1818346666660000000003
:103F3000000000666666663C18181818000000004D
:103F40000000007E606030180C06067E0000000055
:103F50000000003C0C0C0C0C0C0C0C0C0C0C3C0071
:103F600000000006060C0C181830306060000000DD
:103F70000000003C303030303030303030303C00E9
:103F800000183C6600000000000000000000000077
:103F90000000000000000000000000000000FF0022
:103FA000001C1830000000000000000000000000AD
:103FB00000000000003C60607C66667C0000000041
:103FC00000000006063E66666666663E000000006B
:103FD00000000000003C66060606663C000000008B
:103FE00000000060607C66666666667C000000001B
:103FF00000000000003C66667E06063C00000000F3
:10400000000000780C0C0C7E0C0C0C0C0000000066
:1040100000000000007C66666666667C60603E00AC
:1040200000000006063E66666666666600000000E2
:1040300000001818001E18181818187E000000003C
:1040400000003030003C30303030303030301E0036
:1040500000000006066666361E3666660000000032
:104060000000001E181818181818187E000000000C
:1040700000000000007ED6D6D6D6D6C600000000CE
:1040800000000000003E666666666666000000008E
:1040900000000000003C66666666663C00000000AA
:1040A00000000000003E66666666663E0606060084
:1040B00000000000007C66666666667C60606000EA
:1040C000000000000066760E0606060600000000EE
:1040D00000000000007C06063C60603E000000001E
:1040E0000000000C0C7E0C0C0C0C0C780000000086
:1040F00000000000006666666666667C00000000E0
:10410000000000000066666666663C18000000005D
:104110000000000000C6D6D6D6D66C6C00000000A9
:10412000000000000066663C183C66660000000067
:1041300000000000006666666666663C30180F0088
:1041400000000000007E6030180C067E00000000B9
:10415000000000301818180C060C18181830000051
:10416000000000181818181818181818181818002F
:104170000000000C1818183060301818180C0000D7
:104180000000008EDB710000000000000000000055
:1041900000000000000000000102030406070809F7
:1041A00000000000010203040400000800000000F9
:1041B00000000002000100001000000000000000EC
:1041C000000000000000F03F000000000000F83F89
:1041D00000000000000000000000004003B8E23FC3
:1041E000000000000000000006D0CF43EBFD4C3E75
:1041F000033333333333E33FFFAB6FDBB66DDB3F6A
:104200004D268F515555D53F01411DA96074D13FB1
:1042100065DBC9934A86CD3FEF4E454A287ECA3FAB
:104220003E5555555555C53F93BDBE166CC166BF2D
:104230002CDE25AF6A56113FF16BD2C541BDBBBE26
:10424000D0A4BE726937663E000000000000000086
:104250007042000800000020180000006C010008F7
:104260008842000818000020D806000088010008D5
:10427000000000000000000001000000100000002D
:084280000000000000A24A0446
:0400000508000131BD
:00000001FF
