:020000040800F2
:10000000B0040020450100082F1E0008FB15000861
:100010002D1E000899060008F11E000800000000CF
:10002000000000000000000000000000531E000857
:100030009B06000800000000511E0008551E000825
:100040005F0100085F0100085F0100085F01000810
:100050005F0100085F0100085F0100085F01000800
:100060005F0100085F0100085F0100085F010008F0
:100070005F0100085F0100085F0100085F010008E0
:100080005F0100085F0100085F0100085F010008D0
:100090005F0100085F0100085F0100085F010008C0
:1000A0005F0100085F0100085F0100085F010008B0
:1000B0005F0100085F0100085F0100085F010008A0
:1000C0005F0100085F0100085F0100085F01000890
:1000D0005F0100085F0100085F0100085F01000880
:1000E0005F0100085F0100085F0100085F01000870
:1000F0005F0100085F0100085F0100085F01000860
:100100005F0100085F0100085F0100085F0100084F
:100110005F0100085F0100085F0100085F0100083F
:100120005F0100085F0100085F0100085F0100082F
:10013000DFF80CD000F09EFA004800475527000871
:10014000B00400200648804706480047FEE7FEE767
:10015000FEE7FEE7FEE7FEE7FEE7FEE7FEE7FEE777
:10016000A91E000831010008202A04DB203A21FAE8
:1001700002F00021704721FA02F3D040C2F12002C0
:100180009140084319467047D2B201E000F8012BB4
:10019000491EFBD270470022F6E710B513460A4607
:1001A00004461946FFF7F0FF204610BD2DE9FE4F2B
:1001B000804681EA0300C00F0C46009021F0004108
:1001C00023F00045B8EB0200A94105D24046214684
:1001D00090461C460B46024623F00040104347D091
:1001E000270DC7F30A00C3F30A510290401A019089
:1001F00040286BDAC3F3130040F4801B009892464A
:1002000020B10023D2EB030A63EB0B0B0198594694
:10021000C0F14002504600F03FF906460D465046F8
:100220005946019A00F047F910EB0800614100249B
:1002300087EA115284EAE7731A4340D0009A62B306
:10024000019A012A4FEA075215DC001B61EB0201FB
:100250004FF0004202EA0752CDE90042001C41F58E
:10026000801132462B4600F047F903B0BDE8F08F0D
:1002700040462146F9E7001B61EB0201001C41F5F5
:10028000801300185B412018A2F5001747EB03010B
:1002900040EAD570B6196D4111E06D084FEA360697
:1002A00045EAC0754FEA0752001B61EB0201001CD2
:1002B00041F5801149084FEA30000019514132469A
:1002C0002B4603B0BDE8F04F00F007B900980122BB
:1002D00040000023D0EB020263EBE073009821465C
:1002E0004FEAE074B8EB000061EB0401E9E783F04A
:1002F00000435BE781F0004158E72DE9FE4F81EABA
:10030000030404F0004421F0004100944FF0000B7E
:1003100023F0004350EA01045ED052EA03045BD0AC
:10032000C3F30A54C1F30A552C44A4F2F3340194E4
:10033000A0FB0254C1F3130141F48011C3F3130372
:1003400043F4801301FB024400FB034E840A970A26
:1003500044EA815447EA8357A4FB076802958D0A53
:1003600005FB07854FEA932C04FB0C542705029DDF
:100370004FEA065847EA1637B5EB08056EEB070C4F
:10038000870E920E47EA811742EA8312A7FB020109
:10039000B6EB0B0164EB00042B0D43EA0C335E1843
:1003A00044EB1C50DA465146E7FB0201C5F3130447
:1003B0004FEA0B3343EA14534FEA0432019C43EAF9
:1003C0000603A4F10C040294009CCDE900B400F0F3
:1003D00093F803B0BDE8F08F00200146F9E770B54F
:1003E00021F0004303430CD0C1F30A550024D5EBA0
:1003F000040564EB0403D617AD1AB34102DB0020F9
:10040000014670BD201841EB025170BD0EB5C10F01
:1004100080EAE0700844CA07002140F233438DE8C7
:100420000E000A460B4600F067F803B000BD70B539
:10043000C1F30A5201F000450024C1F3130140F258
:10044000FF3341F480119A4201DA002070BD40F27E
:1004500033439A42A2F2334203DC5242FFF784FE56
:1004600000E090402C43F1D0404270BD30B50B46C7
:10047000014600202022012409E021FA02F59D42D4
:1004800005D303FA02F5491B04FA02F52844151EA8
:10049000A2F10102F1DC30BD202A04DB203A00FA8F
:1004A00002F1002070479140C2F1200320FA03F3CB
:1004B000194390407047202A06DBCB17203A41FAB7
:1004C00002F043EAE07306E041FA02F3D040C2F1E1
:1004D0002002914008431946704710B5141E73F16D
:1004E000000408DA401C41F1000192185B411A43F4
:1004F00001D120F0010010BD2DE9F04D92469B4640
:1005000011B1B1FA81F202E0B0FA80F220329046E5
:10051000FFF7C2FF04460F4640EA0A0041EA0B011A
:1005200053465A46084313D0114653EA010019D0E6
:10053000C8F140025046FFF717FE05460E465046EA
:1005400059464246FFF7A8FF084305D0012004E0C2
:1005500020463946BDE8F08D0020054346EAE076A6
:100560002C4337430A986305E40AA0EB08000022F5
:10057000FD0A44EA47540A3002D500200146E9E763
:10058000010510196941DDE9084500196941BDE817
:10059000F04DA2E72DE9F04D81EA030404F0004B91
:1005A00021F0004514464FF0000A23F0004150EAC4
:1005B000050220D054EA01021DD0C5F30A570246B5
:1005C000C5F31303C1F31300C1F30A5640F48015B9
:1005D00043F48013A7EB0608101BD64608F2FD383B
:1005E00073EB050002D308F1010801E092185B41AA
:1005F000B8F1000F03DA00200146BDE8F08D0020BD
:100600004FF48011064684460EE0171B73EB050776
:1006100005D3121B63EB050306434CEA010C4908A2
:100620004FEA300092185B4150EA0107EDD152EADF
:10063000030012D082EA040083EA0501084305D0D2
:10064000101BAB4106D20122002306E000224FF02E
:10065000004302E06FF0010253101AEB06004CEB6E
:10066000085110EB0A0041EB0B01BDE8F04DFFF71C
:1006700034BF0000064C074D06E0E06840F001037F
:1006800094E8070098471034AC42F6D3FFF754FDC6
:10069000482F0008682F0008FEE7704701B5009852
:1006A00001E0401E00900028FBD108BD30B5B3F535
:1006B000804F05D06FF0704140F82210002030BD0F
:1006C0008C690B688D6823434C688989240144EA4E
:1006D0000524234343EA014150F82230014C2340D2
:1006E0001943E9E70000F0CF30B50A6850F822302E
:1006F00023F0010340F822308C68204B4A68082C14
:100700001ED02243D1E903452C4322434C692243A6
:100710008C692243CC6922430C6A22434C6A2243EF
:100720008C6A2243CC6A22430C6B0968224350F83E
:1007300021401C4052EA040240F82120002030BD34
:10074000D1E9034542F008022C4322434C6922437D
:100750008C692243CC6922430C6A22434C6A2243AF
:100760008C6A2243CC6A22430C6B0968224350F8FE
:1007700021401C40224342F04002DDE78100F7FFA8
:1007800030B5D1E9003443EA04138C688D89240222
:1007900044EA054423430C8A094D00EB820005EB33
:1007A000045423430C7D6D0105EB046489692343E4
:1007B0000B43416801F040410B434360002030BDD2
:1007C0000000F0FF70B5044600F03CF90546601CDF
:1007D00002D004480078044400F034F9401BA042E1
:1007E000FAD370BD0800002030B585B0002000901D
:1007F0000190029003901248016800291ED1012146
:1008000001601048416941F48071416140690224EE
:1008100000F4807004904FF68070CDE90004032549
:1008200069460395084800F013F84CF6B370CDE91B
:10083000000469460395054800F00AF805B030BD8C
:100840000000002000100240001801400014014088
:100850002DE9F84FDFF8B8A100220AF1040B144685
:1008600001274FF00F090BF1040E00BF0B6807FAC8
:1008700004F52B40AB4274D1DFF898C14E68A6EB6B
:100880000C0866452BD00DDC032E34D005DC36B3C6
:10089000012E19D0022E2FD11BE0112E16D0122EB0
:1008A0002AD119E0B8F5881F19D006DCB8F5803FC9
:1008B00015D0B8F5801F1FD111E0B8F5001F0ED07C
:1008C000B8F5041F18D10AE0CA6815E0CA68121DFD
:1008D00012E0CA6808320FE0CA680C320CE08A687D
:1008E0002AB1012A4FF0080203D0456104E0042236
:1008F00002E0056100E00022FF2B01D8064601E07E
:1009000000F104064FEA840501D9A5F12005D6F8C7
:1009100000C009FA05F82CEA080C02FA05F54CEAC1
:10092000050CC6F800C04D68ED006AD53A4DAE69B9
:1009300046F00106AE61AD6924F0030605F001053D
:100940000095364D06EB050CDCF80850A6074FEA7B
:10095000167809FA08F6B543314EB04202D10026A6
:100960001AE04EE02F4EB04201D1012614E02E4E87
:10097000B04201D102260FE02C4EB04201D1032635
:100980000AE02B4EB04201D1042605E0294EB042C8
:1009900001D1052600E0062606FA08F62E43CCF81B
:1009A00008604D68DAF80060ED03554601D51E4336
:1009B00000E09E432E604D68AD0305D5DBF8006076
:1009C0001E43CBF8006004E0DBF800509D43CBF8F9
:1009D00000504D68DEF80060ED02754601D51E43FB
:1009E00000E09E432E604D68AD0205D5084D0C35E4
:1009F0002E681E432E6004E0054E0C3635689D437C
:100A00003560641C102CFFF431AFBDE8F88F000096
:100A100000040140000011100010024000000140DD
:100A200000080140000C014000100140001401408A
:100A300000180140001C01400AB10161704709041F
:100A4000FBE70000014880687047000008000020B4
:100A500070B504001BD094F83D00002520B984F83F
:100A60003C50204600F042FA242084F83D002068E3
:100A7000016821F00101016000F0B6FB404A6168A5
:100A8000914201D83F4900E03F49884201D201200C
:100A900070BD3E492368B0FBF1F159606368934231
:100AA00006D94FF4967359434FF47A73B1FBF3F1BF
:100AB0002368491C19626168914210D84900401EA0
:100AC000B0FBF1F2521CC2F30B02042A01D2042043
:100AD00022E0B0FBF1F0401CC0F30B001CE0A36867
:100AE000CBB301EBC10202EB0116421EB2FBF6F2E0
:100AF000521C42F48042120536D06BB301EBC102A6
:100B000002EB0111401EB0FBF1F0401CC0F30B00E2
:100B100040F4804040F400402168C861D4E90701F6
:100B2000084321680860D4E90310084321688860FD
:100B3000D4E9050108432168C8602068016841F0D4
:100B4000010101602564202084F83D00256384F8BC
:100B50003E50002070BD00E008E001EB4106421E5F
:100B6000B2FBF6F2521CC6E70120D5E701EB4101CA
:100B7000401EB0FBF1F0401CC0F30B00CAE70000C0
:100B8000A086010080841E0000093D0040420F0045
:100B90002DE9FF4F83B09A46DDE91187934604465D
:100BA000DDF84090FFF74EFF054694F83D00202801
:100BB00072D1192301227B492046009500F021FEC5
:100BC0000028F5D194F83C00012865D0012084F874
:100BD0003C0020680168C90703D1016841F00101A8
:100BE00001602068016821F400610160222084F81E
:100BF0003D00402084F83E0000262664C4F824907E
:100C0000A4F82A806848E062608D2085CDE90075EF
:100C100053465A462046049900F004FD28B1206C42
:100C200084F83C60042851D075E0208DDFF87C8189
:100C300068B1012814D00228206801681ED041F450
:100C40008061016020684169806900909BE02068B4
:100C5000416981690091016841F40071016092E08D
:100C60002068016821F48061016072B620684169E2
:100C700081690091016841F400710AE041F400616A
:100C8000016072B62068416981690091016821F4B0
:100C90008061016062B676E081E0032850D80128C7
:100CA0000BD002283B464FF00002414620460095FB
:100CB00012D000F0A6FD70BB13E02A46394620464C
:100CC00000F014FE30B1206C202824D0012007B0A1
:100CD000BDE8F08F20684BE000F093FDD8B972B604
:100CE0001BE02068016821F48061016072B6206811
:100CF0000169606A421C62620170208D401E20857D
:100D0000608D401E60853B4600224146204600958E
:100D100000F077FD08B10320D9E72068016841F4AD
:100D20000071016020680169606A421C62620170A2
:100D3000208D401E2085608D401E608562B6C9E70B
:100D40002A463946204600F0D1FD0028BBD1206854
:100D50000169606A421C62620170208D401E20851C
:100D6000608D401E608520684169C94349070AD4E7
:100D70000169606A421C62620170208D401E2085FC
:100D8000608D401E6085208D002886D1202084F84B
:100D90003D0084F83E6084F83C60002097E7022024
:100DA00095E70000020010000000FFFF04000100B2
:100DB0002DE9FF4F83B09A46DDE91187934604463B
:100DC000DDF84090FFF73EFE064694F83D002028EF
:100DD0007DD11923012243492046009600F011FDE0
:100DE00000287CD194F83C00012878D0012084F8B8
:100DF0003C0020680168C90703D1016841F0010186
:100E000001602068016821F400610160212084F8FC
:100E10003D00402084F83E0000252564C4F824905D
:100E2000A4F82A803048E062608D2085CDE9007604
:100E300053465A462046049900F06CFC80B3206C5F
:100E400084F83C50042848D008E032463946204611
:100E500000F07DFD30B1206C042839D0032007B0AC
:100E6000BDE8F08F606A411C61622168007808610A
:100E7000208D401E80B22085618D491E61852168CC
:100E80004A69D24352070BD468B1606A421C62625D
:100E900000780861208D401E2085608D401E608591
:100EA000208D0028D1D132463946204600F082FC00
:100EB0000028D0D154F83D0B016841F40071016065
:100EC000202004F81E09E57765770020C7E706E0D3
:100ED0002068016841F4007101600120BFE7022031
:100EE000BDE70000020010000000FFFF10B586B053
:100EF00000210091019102910391006817498842F5
:100F00002AD1174CA06940F00800A061A06900F048
:100F100008000490A06940F00800A061A06900F0FA
:100F200008000490E06940F40010E061E06969465F
:100F300000F400100490C0200090122001900320C3
:100F400003900848FFF784FC206940F400102061FA
:100F5000206920F40010206106B010BD005400404C
:100F600000100240000C01400248816802781144E0
:100F70008160704708000020074810B5016841F003
:100F800010010160032000F067F8002000F006F86F
:100F900000F024F8002010BD0020024070B50D4D77
:100FA00004464FF47A712878B1FBF0F00A490968D9
:100FB000B1FBF0F000F00DFB48B9102C07D2002275
:100FC0002146501E00F028F800206C6070BD012002
:100FD00070BD000008000020140000200C4808B577
:100FE000816941F001018161816901F00101009194
:100FF000C16941F08051C161C06900F0805000902A
:101000000448416821F0E06141F00071416008BD91
:101010000010024000000140F0B40E4B1B680C466B
:10102000C3F30223C3F10705042D00D90425191DBC
:10103000072901D2002300E0DB1E012606FA05F194
:10104000491E214099409E40761E16403143F0BC17
:1010500000F0EEBE0CED00E0064900F00702086863
:101060004FF6FF03184040EA0220034A104308608D
:10107000704700000CED00E00000FA052DE9F04794
:10108000DFF8548105460E46D8F8000000F007004E
:10109000B0420CD2D8F8001021F007013143C8F853
:1010A0000010D8F8000000F00700B0426FD12868A7
:1010B0004A4C810712D5400703D5606840F4E060D0
:1010C00060602878000703D5606840F46050606075
:1010D0006068A96820F0F000084360602878C007C5
:1010E00044D06868012816D02168022816D08907E4
:1010F00000294CDA616821F0030101436160FFF7C8
:10110000A1FC6968074641F2883001290ED0022906
:10111000814618D026E021688903E9E78901E7E7DD
:10112000FFF790FCC11B494501D918E08146606872
:10113000C0F381000128F3D118E000BFFFF782FC63
:10114000C11B49450BD86068C0F381000228F5D166
:101150000CE000BFFFF776FCC11B494502D9032014
:10116000BDE8F087606810F00C0FF3D1D8F80010DC
:10117000404601F00701B1420BD9016821F0070197
:1011800031430160006800F00700B04201D0012047
:10119000E6E72878400705D56068E96820F4E06054
:1011A000084360602878000706D56068296920F444
:1011B000605040EAC100606000F026F86168084AAB
:1011C000C1F30311515CC840064908600020FFF7D5
:1011D000E5FE0020C4E700000020024000100240AD
:1011E000922E000814000020044805490068496850
:1011F000044AC1F30221515CC8407047140000202A
:1012000000100240A22E000812A185B00FC98DE87F
:101210000F0014A0144A006804905168134801F0AC
:101220000C03042B10D0082B0ED1C1F38343C90348
:101230001DF803000AD5516804AAC1F34041515C6E
:101240000A4A5043B0FBF1F005B0704708494843E3
:10125000FAE7000002030405060708090A0B0C0D53
:101260000E0F1010010200000010024000127A0060
:1012700000093D002DE9F84F04460078B94DC0073C
:1012800048D06868C0F38100012807D06868C0F3BF
:101290008100022809D16868C00306D52868800348
:1012A00038D5606800286FD034E06068B0F5803FC2
:1012B0000BD010B1B0F5A02F11D0286820F48030E9
:1012C0002860286820F4802002E0286840F48030FC
:1012D0002860606888B1FFF7B5FB064609E028681A
:1012E00040F480202860F0E7FFF7ACFB801B642807
:1012F00075D828688003F7D50CE0FFF7A3FB0646F6
:1013000005E000BFFFF79EFB801B6428F0D828682B
:101310008003F7D42078944E80074FF001094FF0F6
:1013200000083BD5686810F00C0F07D06868C0F360
:101330008100022809D16868C00306D428688007A4
:1013400014D5206901281FD110E02069B0B1C6F87A
:101350000090FFF777FB074605E000BFFFF772FB41
:10136000C01B0228C4D828688007F7D5286861699F
:1013700020F0F80040EAC10028600FE0C6F80080C5
:10138000FFF760FB074606E0E9E000BFFFF75AFB06
:10139000C01B022823D828688007F7D420780007CC
:1013A0002CD57248A169D9B1C0F80090FFF74AFB6B
:1013B000074604E0FFF746FBC01B02280FD8686A07
:1013C0008007F7D56A484FF4FA510068B0FBF1F096
:1013D000009000BF0098411E0091FAD20EE080E01C
:1013E000C0F80080FFF72EFB074604E0FFF72AFB5A
:1013F000C01B022875D8686A8007F7D42078400798
:1014000060D5E8690027C00008D4E86940F0805042
:10141000E861E869012700F08050009055480168B4
:10142000C90513D40168834641F480710160FFF758
:1014300009FB824606E000BFFFF704FBA0EB0A00B1
:1014400064284ED8DBF80000C005F5D5E068012817
:101450000AD008B1052813D0286A20F001002862BC
:10146000286A20F0040002E0286A40F001002862A7
:10147000E06841F2883B98B1FFF7E4FA82460BE05E
:10148000286A40F004002862EEE700BFFFF7DAFAAE
:10149000A0EB0A0159455AD8286A8007F6D50CE016
:1014A000FFF7D0FA824605E0FFF7CCFAA0EB0A017D
:1014B00059454CD8286A8007F6D41FB1E86920F056
:1014C0008050E861E06988B36968C1F3810102294D
:1014D00045D00228C6F8608004D0FFF7B3FA04466E
:1014E00038E034E0FFF7AEFA074604E0FFF7AAFA67
:1014F000C01B02282BD828688001F7D4206AB0F5D9
:10150000803F05D16868A16820F400300843686016
:10151000D4E908010843696821F47411084368603C
:10152000C6F86090FFF78EFA044606E015E000BFAB
:10153000FFF788FA001B022809D828688001F7D530
:101540000BE000BFFFF77EFA001B022802D9032040
:10155000BDE8F88F28688001F4D40020F8E7012066
:10156000F6E70000001002400000424280044242C0
:10157000140000200070004070B515460E460400AF
:1015800003D094F83D0010B107E0012070BD0020A9
:1015900084F83C00204600F01AF804F108012068A5
:1015A000FFF7A2F83146A2682068FFF7E9F8D4E90E
:1015B00001022946236BFFF779F8A168206850F8EB
:1015C000212042F0010240F82120002070BDFFF7E9
:1015D0000BB910B5401EB0F1807F01D3012010BDC2
:1015E0004FF0E02460610F21601700F021FC002023
:1015F000A06107202061002010BDFEE701684A6954
:10160000D24352050CD46FF480624A610421016414
:10161000002140F8301F20224273017301207047DF
:10162000002070472DE9F84F0446006889460B9D5D
:1016300001689846174641F480610160206801689E
:1016400041F48071016000954FF0011A002251466B
:1016500020460A9B00F0D5F8F0BB216809F0FE0097
:1016600008610AF1010B2B46594620460A9A00F000
:10167000F9F818B1206C042812D03AE020684169CA
:10168000806900902A4620460A9900F060F950B11E
:10169000206C04282DD12068016841F4007101609C
:1016A0000120BDE8F88FFEB2B8F1010F09D0216822
:1016B000380A08612A4620460A9900F048F90028AD
:1016C000E6D1206806612A4620460A9900F03FF9D3
:1016D0000028DDD1206800E00BE0016841F4807152
:1016E000016000950022514620460A9B00F089F8CF
:1016F00008B10320D5E7216809F0FF0040F00100A0
:1017000008612B46594620460A9A00F0ABF800289B
:10171000B0D1C6E72DE9F843044600680D46DDE97F
:10172000089701689846164641F4807101604B465F
:1017300000224FF001112046009700F062F8E8B94E
:10174000216805F0FE0008613B464A4618492046DC
:1017500000F088F828B1206C04280FD10120BDE8E2
:10176000F88320684169806900903A4649462046DE
:1017700000F0EDF820B1206C042813D00320EEE730
:10178000F5B2B8F1010F09D02168300A08613A4674
:101790004946204600F0DBF80028ECD120680561BE
:1017A0000020DCE72068016841F400710160D5E7A2
:1017B0000200010070B516460D4604461AE02046A8
:1017C000FFF71CFF08B1012070BD681C12D025B1C5
:1017D000FFF738F9801BA8420CD954F8400F40F0AD
:1017E000200044F81009002020602021617320733C
:1017F000032070BD20684069C0434007DFD400204B
:1018000070BD2DE9F0471E4690460D460446C1F3D3
:101810000747DDF8209012E0701C10D02EB1FFF7C2
:1018200011F9A0EB0900B04209D9002044F8300FAB
:1018300020216173A07320730320BDE8F087206826
:10184000012F0AD0806925EA00000004000C06D0B0
:1018500000214145E0D00020EFE74069F3E7012196
:10186000F7E700002DE9F0479A4691460D460446F9
:1018700000264FF02008C1F307472AE0206840699E
:10188000C043400512D42068016841F40071016032
:1018900021686FF48060486104202064266384F826
:1018A0003D8084F83C600120BDE8F087B9F1FF3F3E
:1018B0000FD0B9F1000F05D0FFF7C4F8A0EB0A0173
:1018C000494506D944F8306F84F80D80267303200B
:1018D000EAE72068012F07D0D0F8180025EA0000B9
:1018E0000004000CE0D0C9E74069F7E72DE9F041BA
:1018F000002590460E460446202721E04069C0435B
:10190000C0060CD421686FF010004861256425637F
:1019100084F83D7084F83C500120BDE8F0812EB180
:10192000FFF790F8A0EB0800B04209D954F8400F37
:1019300040F0200044F80409677025700320ECE7AC
:1019400020684169C9434906D8D40020E5E770B54D
:1019500016460D4604461AE02046FFF74FFE08B132
:10196000012070BD681C12D025B1FFF76BF8801BF9
:10197000A8420CD954F8400F40F0200044F8100958
:1019800000202060202161732073032070BD206837
:101990004069C0430006DFD4002070BD044B4FF403
:1019A000805108B1002200E001221846FFF744B838
:1019B0000014014070B51D461446049E00F070F8F6
:1019C00004FB05F03146BDE8704000F049B8000066
:1019D00070B5203AD4B21023082200F061F82C2010
:1019E000C10608800C490D4B01EB041500204FF691
:1019F000FF742A5C0021D60701D01C8001E000267C
:101A00001E80491C5208C9B20829F4D3401CC0B238
:101A10001028EED370BD0000982800080000026076
:101A2000F0B516460D4604464FF4A07714E000BF0B
:101A300004F10800F02802D900241035ADB205F1F8
:101A40001000B84201D90024254629462046FFF758
:101A5000BFFF0834A4B2761C3278002AE8D1F0BD6A
:101A600010B500222C23DC062380034B01E01980F3
:101A7000521C8242FBD310BD0000026008B5012059
:101A8000FFF78CFF00F0E8F800F02AF800204FF490
:101A9000A073F02201460090FFF78CFF08BD000004
:101AA00070B54FF0C0452A242C800C4C060A2680C5
:101AB000C6B226801044401E020A2280C0B2208096
:101AC0002B202880080A2080C8B22080C818401E19
:101AD000010A2180C0B2208070BD000000000260B9
:101AE00000B54FF0C041CF20088059480022028045
:101AF0008122028030220280ED220A80642202804C
:101B0000032202801222028081220280E8220A80BF
:101B1000852202801022028078220280CB220A8055
:101B2000392202802C22028000220280342202808C
:101B300002220280F7220A8020220280EA220A8002
:101B4000002202800280B1220A80002202801B2231
:101B50000280B6220A800A220280A2220280C022CB
:101B60000A8035220280C1220A8011220280C52209
:101B70000A80452202800280C7220A80A2220280B7
:101B8000F2220A800022028026220A80012202809C
:101B9000E0220A800F220280262202802422028074
:101BA0000B2202800E22028009220280542202802F
:101BB000A8220280462202800C2202801722028084
:101BC000092202800F220280072202800022028066
:101BD000E1220A8000220280192202801B22028058
:101BE0000422028010220280072202802A22028020
:101BF00047220280392202800322028006220280CC
:101C0000028030220280382202800F220280362297
:101C10000A80C82202802A220A80002202800280D2
:101C20000280EF2202802B220A80002202800280A2
:101C3000012202803F2202803A220A80552202803D
:101C4000112008800348FEF729FD2920088000BDE7
:101C500000000260FCBF020070B50A4C00220221A5
:101C60002046FEF7E9FE084D2846FEF717FD012243
:101C700002212046FEF7E0FE2846BDE87040FEF750
:101C80000DBD000000180140FCBF020000B587B088
:101C90001C216846FEF77FFA15484FF020411022BC
:101CA00001601449416000218160C160C0E90412F3
:101CB0008161C16113020162C0E90913C16201635C
:101CC000416381630F20FF230090CDE90103CDE93B
:101CD00003021120CDE90501002269460448FFF7FF
:101CE0004BFC0548C16941F48061C16107B000BD8A
:101CF0006C000020040100A0000001402DE9F04F1D
:101D000085B00024434800940194029403948169AF
:101D100041F040018161816901F0400104918169D4
:101D200041F010018161816901F010010491816924
:101D300041F004018161816901F00401049181692C
:101D400041F008018161816901F008010491816914
:101D500041F0200181618069DFF8BCA000F0200023
:101D60000490002220215046FEF766FEDFF8ACB05A
:101D70004FF40057002239465846FEF75DFE4FF4F7
:101D80000F68002241462648FEF756FE0122232115
:101D90002448FEF751FE4FF480590122494622485B
:101DA000FEF74AFE012202215046FEF745FE2220A0
:101DB00001250326CDE90005CDE9024669465046D6
:101DC000FEF746FD00970396CDE901546946584653
:101DD000FEF73EFDCDF800800396CDE9015469463B
:101DE0000F48FEF735FD2320CDE900050220CDE99F
:101DF000024069460B48FEF72BFDCDF80090039694
:101E0000CDE9015469460848FEF722FD05B0BDE85A
:101E1000F08F000000100240001801400010014047
:101E200000080140000C014000140140FEE770472B
:101E30000907090E002806DA00F00F0000F1E02083
:101E400080F8141D704700F1E02080F800147047FE
:101E500070477047FFF788B830B58FB028216846C3
:101E6000FEF799F914210AA8FEF795F90121080453
:101E7000CDE900100024029402250491CDE9075019
:101E80004FF4E01009906846FFF7F4F90F20CDE910
:101E90000A056802CDE90C4002210AA80E94FFF75A
:101EA000EDF80FB030BD00000D48016841F00101B0
:101EB000016041680B4A1140416001680A4A1140C3
:101EC0000160016821F480210160416821F4FE0174
:101ED00041604FF41F0181600449C00308607047EE
:101EE000001002400000FFF8FFFFF6FE08ED00E0E2
:101EF000FEE700000FB4084B10B504A902AA03982E
:101F000000F090F8044602A9002000F02CFA2046C8
:101F100010BC5DF814FB000067230008490050EA7C
:101F2000C12018BF04204A0D18BF40F0010040F244
:101F3000FF72B2EB515F08BF40F00200012808BFFA
:101F4000052070472DE9F0414F1E00EBC701044604
:101F5000D1E9000115461E4637F006020DD02A468B
:101F60003346FEF7CAF97F1E04EBC703D3E900230B
:101F7000FEF71CF937F00602F1D1022F25D0042F0D
:101F800013D0062F18BFBDE8F0812A463346FEF76E
:101F9000B4F9D4E90A23FEF709F92A463346FEF7D5
:101FA000ACF9D4E90823FEF701F92A463346FEF7D7
:101FB000A4F9D4E90623FEF7F9F82A463346FEF7DA
:101FC0009CF9D4E90423FEF7F1F82A463346FEF7DC
:101FD00094F9D4E90223FEF7E9F82A463346FEF7DE
:101FE0008CF9D4E90023BDE8F041FEF7DFB8012207
:101FF000FEF7F5B9024A00201107FEF7F0B900001C
:1020000001FDFFFF02E008C8121F08C1002AFAD133
:1020100070477047002001E001C1121F002AFBD168
:10202000704700002DE9FF4F8BB08846054600261B
:1020300006E025280BD0DDE90D1290476D1C761CBB
:1020400028780028F5D10FB03046BDE8F08F002485
:10205000A146A2460122AE4900E0044315F8013F23
:10206000203B02FA03F00842F7D128782A2810D042
:102070006FF02F022878A0F13001092915D809EB5B
:10208000890102EB410144F0020400EB01096D1CDF
:10209000F0E758F8041B5FEA010903D544F4005443
:1020A000C9F1000944F002046D1C28782E2817D1CC
:1020B00015F8010F44F004042A280ED06FF02F0207
:1020C0002878A0F1300109290AD80AEB8A0102EB2D
:1020D000410100EB010A6D1CF2E758F804AB6D1CDE
:1020E00028786C280FD006DC4C2817D068280DD033
:1020F0006A2814D104E0742810D07A280FD10DE09A
:1021000044F400140AE044F4801401E044F4401460
:102110006978814202D104F580146D1C6D1C287809
:10212000692865D006DC00288DD0632827D0642874
:1021300006D15DE06E2808D073282AD0752877D0A4
:10214000DDE90D129047761CE0E0C4F3025002284E
:1021500009D003280DD0D8F8001004280DD00E6047
:1021600008F10408D2E0D8F80010F217C1E90062C3
:10217000F6E7D8F800100E80F2E70E70F0E718F8D6
:10218000041B8DF8001000208DF80100EB460120A3
:1021900003E058F804BB4FF0FF3061074FF0000731
:1021A00001D40AE07F1C57450DDA8742FADB1BF8A1
:1021B00007100029F6D106E07F1C8742FCDB1BF8E4
:1021C00007100029F8D1DDE90D23A9EB07008146AE
:1021D000214600F0B1F83044C61904E0DDE90D12E3
:1021E0001BF8010B90477F1EF8D22146484688E035
:1021F00058F8040BC4F302514FF00A0B032900D125
:1022000000B2042900D140B2002802DA40422D2158
:1022100002E0210505D52B218DF82410012104E0D1
:1022200006E0E10710D02021F6E708AF089113E09F
:1022300058F8040BC4F302514FF00A0B032900D1E4
:1022400080B2042900D1C0B20021EEE75946FEF762
:102250000DF9303107F8011D0028F7D1ADEB07006B
:1022600000F1200B600702D524F4803401E04FF028
:10227000010ADA4502DDAAEB0B0000E000208246ED
:1022800000EB0B0108980144A9EB01000A90E00360
:1022900006D4DDE90D2321460A9800F04DF80644E6
:1022A0004FF0000908E009A911F80900DDE90D1255
:1022B000904709F10109761C08998945F3DBE00391
:1022C0000CD5DDE90D2321460A9800F035F80644C7
:1022D00004E0DDE90D1230209047761CBAF10001D0
:1022E000AAF1010AF5DC05E0DDE90D1217F8010B92
:1022F0009047761CBBF10001ABF1010BF4DC0A98AE
:102300002146DDE90D2300F005F806446D1C97E633
:10231000092801002DE9F041044600251E46174614
:10232000880404D405E039462020B0476D1C641EA3
:10233000F9D52846BDE8F0812DE9F0410446002595
:102340001E469046C80301D5302700E020278804A8
:1023500004D505E041463846B0476D1C641EF9D5EA
:102360002846BDE8F0810A68531C0B601070704766
:102370002DE9F84F04460D4621F0004000917349C5
:10238000814211DC7249884201DC06D12CB1204621
:102390002946BDE8F84FFFF72ABE6E48002DCCBF96
:1023A0006D496E49BDE8F88F6D49814211DD6D4977
:1023B0008142D8BF4FF0FF366DDD20462946FFF73A
:1023C000ADFD042808BFFFF715FE20462946BDE8ED
:1023D000F88F6549654F25F00045814233DD64493A
:1023E000814219DD002632464FF0804320462946BF
:1023F000FDF7DCFE80468A46012220462946FDF78D
:10240000EEFF00223B46FDF772FF42465346FEF7C1
:10241000C1F804460D463EE001260022BA463B467E
:1024200020462946FDF7C2FE80460F46002253464D
:1024300020462946FDF75BFF42463B46FEF7AAF8D9
:1024400004460D4627E04B4981421BDDDFF828A1F9
:1024500002260022534620462946FDF74EFF002261
:102460003B46FDF7A3FE80460F460022534620461A
:102470002946FDF73CFF42463B46FEF78BF80446F3
:102480000D4608E0032622462B4600203B49FEF776
:1024900081F804460D4622462B4610461946FDF7A4
:1024A0002CFF8B46824602460B46FDF726FF074669
:1024B0000246334888460B4606217844FFF742FD22
:1024C00052465B46FDF719FF82462E488B463A4638
:1024D000434605217844FFF735FD3A464346FDF76C
:1024E0000CFF02460B46002E504659460CDAFDF70B
:1024F0005DFE22462B46FDF700FF01B022462B462B
:10250000BDE8F04FFDF7F6BEFDF750FE22462B4624
:10251000FDF7F3FE1C4A7A4402EBC603D3E900231D
:10252000FDF7E5FE22462B46FDF7E1FE174A7A4409
:1025300002EBC603D3E90023FDF7DCFE009A002A74
:10254000B8BF81F00041BDE8F88F000000001044E2
:102550000000F07F182D4454FB21F93FFB21F9BF07
:102560000000DC3F0000203E0000F33F0000F03F91
:102570000000E63F008003400000F83F0000F0BF8D
:102580005A0A0000180A0000B60900007E0900007F
:1025900000B50DA21E210A20FFF742FA0DA21E214E
:1025A0008220FFF73DFA0BA21E21B420FFF738FA74
:1025B00009A232210A20FFF733FA322105A2822034
:1025C0005DF804EBFFF72CBA5820616E64205920A7
:1025D0003A00000030000000414E474C45203A00D0
:1025E00000000000F0B587B00C46054602464DA13C
:1025F0006846FFF77FFC22464AA102A8FFF77AFC53
:102600006A461E218220FFF70BFA02AA1E21B4207F
:10261000FFF706FA444E454F002D0CDB002C29DB5A
:1026200094FBF5F0FDF7F2FEFFF7A2FE32463B46C3
:10263000FDF763FE2DE0002C0DDB684290FBF4F00B
:10264000FDF7E4FEFFF794FE32463B46FDF755FEEC
:102650000022374B0BE094FBF5F0FDF7D7FEFFF7B8
:1026600087FE32463B46FDF748FE0022314BFDF720
:102670009DFD0EE0604290FBF5F0FDF7C7FEFFF711
:1026800077FE32463B46FDF738FE00222A4BFDF727
:1026900031FEFDF7CCFE0446024628A104A8FFF750
:1026A00029FC04AA32218220FFF7BAF90A2094FB00
:1026B000F0F100FB1144234D0126234F285D10212A
:1026C00026EA90123846FEF7B7F9285D202126EA5F
:1026D00050123846FEF7B0F9285D202126EA101284
:1026E0001A48FEF7A9F9285D402126EAD0023846AB
:1026F000FEF7A2F9285DF10226EA90023846FEF7BD
:102700009BF9285D710326EA50021148FEF794F9FF
:10271000285D802140F300023846521CFEF78CF9F8
:1027200007B0F0BD25640000775AF01ADCA54C40D4
:10273000008056400080664000707640253033644B
:1027400000000000882E0008000801400018014029
:10275000001001408AB0FEF70FFCFFF77DFBFFF78A
:10276000CDFAFFF793FA494847490A220160091454
:10277000016147494160002141618160C16101629D
:10278000C2608161FEF764F9FFF778F9FFF700FF97
:10279000404D686920F48070686170208DF81C00DD
:1027A000A02001248DF820008DF82440642607A87D
:1027B0008DE851001E273C21234600223348FEF7B6
:1027C000F7FA1420FDF7FEFF08A88DE85100012359
:1027D0003C211A462D48FEF7EBFA8DF80C408DF897
:1027E00010408DF814408DF818407F00686920F47F
:1027F0008070686109A88DE85100012302223946E2
:102800002248FEF7D5FA0A20FDF7DCFF03A88DE881
:1028100051000123032239461C48FEF7B9F904A8E8
:102820008DE851000123042239461848FEF7B0F91B
:1028300005A88DE851000123072239461348FEF709
:10284000A7F906A88DE851000123082239460F4850
:10285000FEF79EF9686940F48070686168699DF8C8
:102860000C2000F4807000909DF818009DF8141062
:1028700000EB012001B29DF8100000EB022000B235
:10288000FFF7B0FEB2E7000000540040180000203F
:10289000801A060000100240000000000000000046
:1028A0000000000000000000000000183C3C3C1844
:1028B000180018180000000000000066666600009E
:1028C00000000000000000000000006C6CFE6C6C5A
:1028D0006CFE6C6C000000000018183C66060C18BA
:1028E0003060663C1818000000000E1B5B6E30184C
:1028F0000C76DAD8700000000000001C36361C068A
:10290000F66666DC000000000000001818180000E1
:1029100000000000000000000000003018180C0C3F
:102920000C0C0C18183000000000000C1818303087
:1029300030303018180C000000000000006C38FE29
:10294000386C000000000000000000000018187E35
:102950001818000000000000000000000000000047
:102960000000383830180000000000000000007E31
:102970000000000000000000000000000000000057
:10298000000038380000000000000060603030189F
:10299000180C0C060600000000000078CCECECCC13
:1029A000DCDCCC780000000000000030383E303025
:1029B00030303030000000000000003C66666030BF
:1029C000180C067E000000000000003C66666038BF
:1029D0006066663C000000000000000C0C6C6C6C33
:1029E00066FE6060000000000000007E0606063EF5
:1029F0006060301E0000000000000038180C3E66C9
:102A00006666663C000000000000007E6030301802
:102A1000180C0C0C000000000000003C66666E3CC8
:102A20007666663C000000000000003C6666666654
:102A30007C30181C00000000000000000038380046
:102A400000003838000000000000000000383800A6
:102A500000003838301800000000006030180C0604
:102A60000C183060000000000000000000007E0034
:102A70007E00000000000000000000060C1830601E
:102A800030180C06000000000000003C666630189C
:102A900018001818000000000000007EC3C3F3DB1C
:102AA000DBF303FE00000000000000183C666666D1
:102AB0007E666666000000000000003E6666663EB8
:102AC0006666663E000000000000003C6666060682
:102AD0000666663C000000000000001E3666666662
:102AE0006666361E000000000000007E0606063EF8
:102AF0000606067E000000000000007E0606063E78
:102B000006060606000000000000003C6666060699
:102B10007666667C00000000000000666666667EE1
:102B200066666666000000000000003C1818181871
:102B30001818183C00000000000000606060606031
:102B40006066663C00000000000000666636361EC7
:102B5000363666660000000000000006060606061F
:102B60000606067E00000000000000C6C6EED6D6AF
:102B7000D6C6C6C600000000000000C6C6CEDEF6FF
:102B8000E6C6C6C6000000000000003C6666666639
:102B90006666663C000000000000003E6666663E19
:102BA00006060606000000000000003C6666666639
:102BB0006666663C306000000000003E6666663E69
:102BC00036666666000000000000003C66060C18D1
:102BD0003060663C000000000000007E18181818E5
:102BE0001818181800000000000000666666666687
:102BF0006666663C00000000000000666666666669
:102C000066663C1800000000000000C6C6C6D6D6A6
:102C1000D66C6C6C0000000000000066662C181872
:102C20003466666600000000000000666666663C6A
:102C300018181818000000000000007E60603018AE
:102C40000C06067E000000000000003C0C0C0C0C82
:102C50000C0C0C0C0C0C3C0000000006060C0C18B4
:102C600018303060600000000000003C3030303030
:102C70003030303030303C0000183C66000000003E
:102C80000000000000000000000000000000000044
:102C9000000000000000FF00001C183000000000D1
:102CA000000000000000000000000000003C606028
:102CB0007C66667C0000000000000006063E66663A
:102CC0006666663E0000000000000000003C6606EC
:102CD0000606663C0000000000000060607C66663E
:102CE0006666667C0000000000000000003C66662E
:102CF0007E06063C00000000000000780C0C0C7EF4
:102D00000C0C0C0C0000000000000000007C66664B
:102D10006666667C60603E0000000006063E6666F1
:102D2000666666660000000000001818001E18188D
:102D30001818187E0000000000003030003C3030D1
:102D40003030303030301E00000000060666663637
:102D50001E366666000000000000001E18181818D5
:102D60001818187E0000000000000000007ED6D673
:102D7000D6D6D6C60000000000000000003E666601
:102D8000666666660000000000000000003C6666A3
:102D90006666663C0000000000000000003E6666BB
:102DA0006666663E0606060000000000007C666659
:102DB0006666667C60606000000000000066760E5B
:102DC000060606060000000000000000007C060663
:102DD0003C60603E000000000000000C0C7E0C0C0B
:102DE0000C0C0C7800000000000000000066666615
:102DF0006666667C000000000000000000666666F3
:102E000066663C18000000000000000000C6D6D630
:102E1000D6D66C6C00000000000000000066663C26
:102E2000183C666600000000000000000066666650
:102E30006666663C30180F0000000000007E6030BF
:102E4000180C067E00000000000000301818180C56
:102E5000060C181818300000000000181818181870
:102E600018181818181818000000000C1818183036
:102E700060301818180C00000000008EDB71000094
:102E800000000000000000007E306D79335B5F7051
:102E90007F7B000000000000000001020304060721
:102EA0000809000000000102030400000000000007
:102EB0004FBB610567ACDD3F182D4454FB21E93F52
:102EC0009BF681D20B73EF3F182D4454FB21F93F41
:102ED000E2652F227F2B7A3C075C143326A6813CC7
:102EE000BDCBF07A8807703C075C143326A6913C72
:102EF000C4EB98999999C9BF711623FEC671BCBFDE
:102F00006D9A74AFF2B0B3BF9AFDDE522DDEADBF45
:102F10002F6C6A2C44B4A2BF0D5555555555D53F5D
:102F2000FF8300922449C23F6E204CC5CD45B73F78
:102F3000513DD0A0660DB13FEB0D76244B7BA93FF0
:102F400011DA22E33AAD903F682F0008000000201C
:102F50001800000004200008802F0008180000203E
:102F60009804000014200008000000000000000089
:102F700001000000100000000000000000A24A0450
:0400000508000131BD
:00000001FF
