:020000040800F2
:10000000602B0020150200083F310008CD270008B2
:100010003D310008B907000849430008000000000E
:100020000000000000000000000000005540000833
:100030008108000800000000F9330008C5400008EE
:100040002F0200082F0200082F0200082F020008CC
:100050002F0200082F0200082F020008D90800080C
:100060002F02000819090008750900082F0200086E
:100070002F0200082F0200082F0200082F0200089C
:100080002F0200082F0200082F0200082F0200088C
:100090002F0200082F0200082F020008A109000803
:1000A0002F0200082F0200082F0200082F0200086C
:1000B0002F0200082F0200082F0200082F0200085C
:1000C0002F0200082F0200082F0200082F0200084C
:1000D0002F0200082F0200082F0200082F0200083C
:1000E0002F0200082F0200082F0200082F0200082C
:1000F0002F0200082F0200082F0200082F0200081C
:100100002F0200082F0200082F0200082F0200080B
:100110002F0200082F0200082F0200082F020008FB
:100120002F0200082F0200082F0200082F020008EB
:1001300000F002F800F05FF80AA090E8000C82449A
:100140008344AAF10107DA4501D100F054F8AFF277
:10015000090EBAE80F0013F0010F18BFFB1A43F0A5
:1001600001031847587B0000787B00000A444FF0D9
:10017000000C10F8013B13F0070408BF10F8014B06
:100180001D1108BF10F8015B641E05D010F8016B4B
:10019000641E01F8016BF9D113F0080F1EBF10F8AF
:1001A000014BAD1C0C1B09D16D1E58BF01F801CBD2
:1001B000FAD505E014F8016B01F8016B6D1EF9D555
:1001C0009142D6D37047000000230024002500266A
:1001D000103A28BF78C1FBD8520728BF30C148BFAA
:1001E0000B607047642900F07D80002070471FB5C8
:1001F0001FBD10B510BD00F0FAF91146FFF7F7FF6B
:1002000005F01AFE00F018FA03B4FFF7F2FF03BC82
:1002100000F022FA0948804709480047FEE7FEE758
:10022000FEE7FEE7FEE7FEE7FEE7FEE7FEE7FEE7A6
:1002300004480549054A064B704700002D41000857
:100240003101000860250020602B0020602700207D
:10025000602700200FB41CB5074B06AA7B446946F3
:100260000090059800F0ABF90020694600F0BAF95B
:100270001CBC5DF814FB0000850300002DE9F04173
:100280000E460446002020622046E168884730B3CD
:10029000252805D0D4E901219047206A401CF2E7C7
:1002A000E168204600278847050018D0A5F14100E5
:1002B000192802D820354FF40067324629462046D7
:1002C0002760FFF78FFF40B1012804D0F61D26F00C
:1002D00007060836D8E7361DD6E72846DAE7206A4B
:1002E000BDE8F0812DE9F04106460024106875292B
:1002F000314616A510D0AFF30080002802DA404244
:1003000013A507E031688A0701D512A502E0490765
:1003100004D511A5012401E0AFF3008000210A22D9
:1003200006F1240709E0B0FBF2FCB0FBF2F302FB9C
:100330001C00303078541846491C0028F3D123465D
:100340002A463046BDE8F04100F0DAB8000000006F
:100350002D0000002B0000002000000030B50546F5
:100360000B462A4613F8014B12F8010B08B1A042C4
:10037000F8D01CB1002802D06D1CF1E7284630BD32
:1003800040EA010310B59B070FD1042A0DD310C812
:1003900008C9121F9C42F8D020BA19BA884201D964
:1003A000012010BD4FF0FF3010BD1AB1D30703D0AC
:1003B000521C07E0002010BD10F8013B11F8014B62
:1003C0001B1B07D110F8013B11F8014B1B1B01D17E
:1003D000921EF1D1184610BD10B5431C02E010F872
:1003E000011B71B18107FAD14FF0013202C88C1A9A
:1003F0008C4314EAC211F9D0C01A0A0603D0C01EF9
:1004000010BDC01A10BD0A0401D0801E10BD090223
:10041000FCD0401E10BD40EA010370B59B072ED1F1
:100420004FF00136042A2AD308C810C99D1B9D43EA
:10043000121F15EAC61517D0D8B2E1B2401A50EA19
:10044000056110D198B2A1B2401A50EA05410AD113
:1004500023F07F4024F07F41401A50EA052102D169
:10046000180EA0EB146070BDA342DBD018BA21BAFD
:10047000884201D9012070BD4FF0FF3070BD0AB92C
:10048000002070BD10F8013B11F8014B63B1A3428D
:100490000AD1521E08D010F8013B11F8014B1BB1D4
:1004A000A34201D1521EEDD1181B70BD4FF00002C6
:1004B00000B5134694469646203922BFA0E80C505A
:1004C000A0E80C50B1F12001BFF4F7AF090728BF35
:1004D000A0E80C5048BF0CC05DF804EB890028BFB1
:1004E00040F8042B08BF704748BF20F8022B11F0DA
:1004F000804F18BF00F8012B704770477047704756
:100500002DE9F0470D4699469246044600F124082D
:100510000168880604D5E06921F01001216000E03F
:100520000120A84201DD471B00E00027A1697A19DC
:1005300002EB0900081AA0612078C00602D4204608
:10054000AFF30080002608E0D4E901211AF8060084
:100550009047206A401C761C20624E45F4DB2078D0
:10056000C0060AD52046AFF3008006E0D4E9012199
:1005700030209047206A401C2062381EA7F10107F6
:10058000F4DC07E0D4E9012118F805009047206A5F
:10059000401C2062281EA5F10105F3DC2046AFF3C4
:1005A00000802078000602D50220BDE8F0870120F7
:1005B000FBE7000001694A1C02610878704700B53A
:1005C0008FB0CDE901310021059105497944CDE98C
:1005D000031011466846FFF751FE0FB000BD000042
:1005E000E5FFFFFF0A6802F8010B0A6070477546D5
:1005F00000F02CF8AE4605006946534620F007008F
:10060000854618B020B5FFF713FEBDE820404FF037
:1006100000064FF000074FF000084FF0000B21F0EC
:100620000701AC46ACE8C009ACE8C009ACE8C009B9
:10063000ACE8C0098D46704710B50446AFF30080A2
:100640002046BDE81040FFF7DFBD000000487047BE
:10065000002500207047000001491820ABBEFEE7CE
:100660002600020070B5044600688168C943C907C6
:100670001CD1816821F00101816001F017F8054665
:100680000FE000BF01F012F8401B022809D9A06A50
:1006900040F01000A062E06A40F00100E06201203A
:1006A00070BD20688068C043C007EBD0002070BDDB
:1006B000F8B500260446009600688168C943C9075A
:1006C00028D0816841F00101816013481349006816
:1006D000B0FBF1F000E0401E00900028FBD100F0DC
:1006E000E5FF054611E000BF00F0E0FF401B0228D7
:1006F0000BD9A06A40F01000A062E06A40F001004F
:10070000E06284F824600120F8BD20688068C0435E
:10071000C007E9D10020F8BD6401002040420F006D
:100720000146014801F0F5BC4422002010B5044800
:1007300001F001FD042801D0012010BD002010BDF2
:100740004422002038B501208DF800009DF80000FB
:10075000012801D0012038BD064801F002FD040047
:1007600006D14FF40061034801F0AAFB00B1012457
:10077000204638BD4422002038B50024009313469B
:100780000A460146034801F073FD00B101242046EA
:1007900038BD00004422002038B5002400931346E1
:1007A0000A460146034801F03DFE00B101242046FF
:1007B00038BD000044220020FEE7000038B5204884
:1007C00000F06AFCA0F2145240F2DC554FF6FF71C3
:1007D0004FF4A07341F28834AA420ED20091002156
:1007E000F022084602F052F80A2116A2084602F04A
:1007F000BFF8204600F008FE1DE0A0F52F60B0F520
:100800002F7F1CD200910021F022084602F03EF812
:100810000A2113A2084602F0ABF8184D012202216A
:10082000284600F03EFF204600F0EEFD00220221A7
:10083000284600F036FFBDE8384002F043BA38BD24
:100840001422002041626E6F726D616C20434F2054
:100850006C6576656C20646574656374656400001E
:1008600044616E6765726F757320434F206C6576C7
:10087000656C2064657465637465640000080140FC
:100880007047000008B5012102F096FC70B94FF6E0
:10089000FF70002100904FF4A073F022084601F091
:1008A000F5FF0A2104A2084602F062F8BDE80840FC
:1008B00040F2DC5000F0A8BD46696E6765722064A6
:1008C000656C65746564210001B5009801E0401E07
:1008D00000900028FBD108BD10B50C4C20688007A3
:1008E0000DD502210A4800F0D7FE68B1002202218E
:1008F000084800F0D6FE0220206000F0CBFDBDE8E5
:100900001040022000F0C8BD0122F0E714040140AD
:10091000000C01400008014070B5124A1068000741
:100920001AD51148037808211BB10378012B0AD08E
:100930000EE00E4C102363610D4D296001260670F8
:100940002960236104E00A4B1B1D19600223037018
:100950001160082000F09EFDBDE87040082000F006
:100960009BBD000014040140D9000020001001408C
:1009700010140140084810B50168C90607D5074A98
:100980000121117010210160084600F083FDBDE8CF
:100990001040102000F080BD140401400000002031
:1009A0002DE9F047DFF824828EB0D8F800004FF42C
:1009B000807AC0057DD5864D287800274FF6FF74D4
:1009C0004FF4A07330B1287801281DD02878022870
:1009D00048D0E4E00021F0220846009401F056FFE0
:1009E0000A217CA2084601F0C3FF05F0DDFB7E4C26
:1009F0002188012905D1411C02D080B2FFF742FFB6
:100A0000278002F05FF9CAE000211E46F022084666
:100A1000009401F03BFF0A2174A2084601F0A8FFF0
:100A200002F031FC00282CD1012002F00EFC00283D
:100A30004FF0000133464FF0F0020846009407D013
:100A400001F024FF6DA20A21084601F091FFA5E004
:100A500001F01CFF0A216FA2084601F089FF022065
:100A600028709CE000211E46F0220846009401F008
:100A70000DFF0A216DA2084601F07AFF02F003FC87
:100A800040B100213346F0220846009401F0FEFEFA
:100A90006AA2D8E7022002F0D8FB00284FF000013C
:100AA00033464FF0F0020846009405D001F0EEFE08
:100AB00000E079E065A2C6E701F0E8FE0A2169A23C
:100AC000084601F055FF00213346F0220846009405
:100AD00001F0DCFE0A216AA2084601F049FF02F09B
:100AE0002EFC00284FF0000133464FF0F00208467C
:100AF000009403D001F0CAFE6AA247E001F0C6FEEE
:100B00000A216DA2084601F033FF00213346F0228E
:100B10000846009401F0BAFE0A216DA2084601F0D1
:100B200027FF02F026FC009438B100213346F02262
:100B3000084601F0ABFE6DA228E0B14600214B460D
:100B4000F022084601F0A2FE0A216FA2084601F039
:100B50000FFF00213346F0220846009401F096FE74
:100B60000A216EA2084601F003FF724E022031886E
:100B700002F019FC00284FF000014B464FF0F00244
:100B80000846009416D001F081FE6BA20A210846A7
:100B900001F0EEFE4FF4FA7000F036FC2F70504674
:100BA000C8F800A000F076FC0EB05046BDE8F04753
:100BB00000F072BC01F06AFE328865A1501C3080E2
:100BC00001A8FFF747FB01AAE0E700001404014079
:100BD0003C01002044657465637465642066696E39
:100BE0006765722100000000DA0000204669727318
:100BF00074207072657373000000000046697273A0
:100C000074207072657373206661696C65642E0070
:100C1000000000004669727374207072657373205F
:100C20007375636365656465642E00005365636F67
:100C30006E642070726573730000000052657370FB
:100C40006F6E7365206572726F7200005365636F1B
:100C50006E64207072657373206661696C65642EC2
:100C6000000000005365636F6E64207072657373DB
:100C7000207375636365656465642E000000000081
:100C80005374617274206D61746368696E67207457
:100C9000776F2066696E6765727072696E74732E05
:100CA000000000004D61746368696E6720666169C9
:100CB0006C65642E000000004D61746368696E67A6
:100CC000207375636365656465642E000000000031
:100CD00053746172742067656E65726174696E67C2
:100CE000206D6F64656C2E00000000004D6F646520
:100CF0006C2067656E65726174696F6E20666169EC
:100D00006C65642E000000004D6F64656C206765A3
:100D10006E6572617465642E000000005374617228
:100D20007420736176696E67206D6F64656C2E0048
:100D3000000000003E010020536176696E67206D5F
:100D40006F64656C206661696C65642E000000004C
:100D50005375636365737366756C6C792073617624
:100D60006564206D6F64656C2C2069643A2025648D
:100D700000000000002200F001B8000030B50E4B6A
:100D8000054601205C7A012C15D8587A00241C54A1
:100D9000587A03EB800045605D7A03F108002A541D
:100DA000587A421C5A72303008703A2048702F200E
:100DB0008870CC70002030BDF424002030B5B3F52D
:100DC000804F05D06FF0704140F82210002030BDF8
:100DD0008C690B688D6823434C688989240144EA37
:100DE0000524234343EA014150F82230014C2340BB
:100DF0001943E9E70000F0CF30B50A6850F8223017
:100E000023F0010340F822308C68204B4A68082CFC
:100E10001ED02243D1E903452C4322434C6922438F
:100E20008C692243CC6922430C6A22434C6A2243D8
:100E30008C6A2243CC6A22430C6B0968224350F827
:100E400021401C4052EA040240F82120002030BD1D
:100E5000D1E9034542F008022C4322434C69224366
:100E60008C692243CC6922430C6A22434C6A224398
:100E70008C6A2243CC6A22430C6B0968224350F8E7
:100E800021401C40224342F04002DDE78100F7FF91
:100E900030B5D1E9003443EA04138C688D8924020B
:100EA00044EA054423430C8A094D00EB820005EB1C
:100EB000045423430C7D6D0105EB046489692343CD
:100EC0000B43416801F040410B434360002030BDBB
:100ED0000000F0FFF8B500250446009590F82400C6
:100EE000012808D0012084F824002046FFF7BAFB2F
:100EF000060002D04BE00220F8BDA06A20F4885022
:100F000040F00200A062022000F06CFC2249096857
:100F1000B1FBF0F0400000E0401E00900028FBD143
:100F20002046FFF7C5FB2068816841F00801816019
:100F300000F0BCFB074604E000F0B8FBC01B0A2829
:100F400011D8206880680007F6D42068816841F0D5
:100F50000401816000F0AAFB07460EE000F0A6FB4A
:100F6000C01B0A2809D9A06A20F0020040F0100036
:100F7000A06284F824500120F8BD206880684007F2
:100F8000ECD4A06A20F0020040F00100A06284F8D6
:100F900024503046F8BD000064010020F8B500245C
:100FA000009490F824202546012A12D0012280F8CE
:100FB00024204A681F23072A0DD20668776B521E29
:100FC00002EB820293409F430B6893401F43776379
:100FD00019E00220F8BD06680D2A0AD2376BD21F2D
:100FE00002EB820293409F430B6893401F43376399
:100FF00009E0F76A0D3A02EB820293409F430B68C7
:1010000093401F43F7620A68072306680A2A0AD337
:10101000F7680A3A02EB420293409F438B68934081
:101020001F43F76008E0376902EB420293409F4399
:101030008B6893401F4337610A68102A01D0112A38
:1010400020D1124B02689A4217D193681B0219D41F
:10105000936843F4000393600968102912D10C4986
:101060000C4A0968B1FBF2F101EB8101490000E093
:10107000491E00910029FBD104E0816A41F0200162
:101080008162012480F824502046F8BD00240140EC
:101090006401002040420F000068C06C70470000EF
:1010A0002DE9F04104004FF000057FD0A06A002632
:1010B00028B9E66284F82460204600F081F82046D2
:1010C000FFF7D0FAA16AC90600D420B1A06A40F0A7
:1010D0001000A0626AE0A16A21F4885141F0020187
:1010E000A162334923688B42E16904D1B1F5402FF5
:1010F00001D14FF40021E7684FF4807C41EA4702B8
:1011000061680A43A168614508D0012906D0002121
:10111000D4F814E0BEF1010F02D00AE06146F7E70F
:10112000C7B1A76A47F02007A762E76A47F001073F
:10113000E7625F6827F469470F435F602368996837
:101140001C4F394011439960A16861450BD00129BA
:1011500009D00CE0DFF860E0A7690EEB47370F43DA
:1011600047F40061E5E7218A0D05A5F580152168A2
:10117000CB6A23F470032B43CB62216889680F4B41
:101180001940914208D1E662A16A21F0020141F0C2
:101190000101A162BDE8F081A06A20F0020040F0E8
:1011A0001000A062E06A40F00100E0620120F1E777
:1011B000003C0140FDF7E1FF00E0FFFFFE0E1FFFD6
:1011C00000B585B000210091019102910391006862
:1011D0000E49884218D10E48816941F4007181613D
:1011E000816901F400710491816941F0100181610C
:1011F0008069694600F010000490012000900320EF
:101200000190044800F054F905B000BD00240140ED
:1012100000100240001001402DE9F84300260D4661
:101220000446009600F042FA804620688168C905AD
:1012300008D5A06A40F02000A06284F82460012054
:10124000BDE8F8834168C90503D4C06A10F4700F83
:1012500026D0022000F0C6FA38490968B1FBF0F741
:101260002068036936490B424FEA61014FEAA11237
:101270001BD1C3684FEA611C13EA0C0F15D1036937
:101280000B4221D1C06810421ED114201FE0681CFF
:1012900006D045B300F00AFAA0EB0800A84222D815
:1012A000206800688007F2D52AE003690B4202D16A
:1012B000C168114206D0026922490A4206D1C068BB
:1012C000084203D1542002E0292000E0FC204743DB
:1012D000009813E0681C0ED02DB100F0E7F9A0EBE8
:1012E0000800A84207D9A06A40F00400A06284F870
:1012F00024600320A4E70098401C0090B842E9D382
:1013000021686FF012000860A06A40F40070A062CB
:1013100020688068C0F3424007280CD1E06850B9CB
:10132000A06A20F48070A062A06AC00403D4A06AFE
:1013300040F00100A062002082E70000640100206C
:10134000244992244992240070B5044690F8240060
:1013500001280DD0012084F824002046FFF7A8F9C9
:1013600002004FF0000005D084F82400104670BD44
:10137000022070BDA16A40F20123994341F48071BB
:10138000A1621F4D23681F49AB4218D10E6816F4A5
:10139000702F14D0A66A46F48016A6620E687605F1
:1013A00005D5A66A26F4005646F48056A662A66ABB
:1013B000F6040AD5E66A26F00606E66206E0A66AA4
:1013C00026F48016A6625E68E9E7E06284F82400ED
:1013D0006FF00200186020688368C3F34243072B54
:1013E00005D1A84208D1096811F4702F04D0816892
:1013F00041F480118160B9E7816841F4A001F9E707
:10140000002801400424014070B5044600F04EF964
:101410000546601C02D004480078044400F046F9F8
:10142000401BA042FAD370BD5801002030B585B0F2
:10143000002000900190029003901248016800295A
:101440001ED1012101601048416941F48071416160
:101450004069022400F4807004904FF68070CDE95A
:101460000004032569460395084800F021F84CF66E
:10147000B370CDE9000469460395054800F018F8FB
:1014800005B030BD480100200010024000180140A6
:101490000014014070470000044910B50A68024278
:1014A00002D00860FFF7F6FF10BD000014040140F1
:1014B0002DE9F84FDFF8B8A100220AF1040B144619
:1014C00001274FF00F090BF1040E00BF0B6807FA5C
:1014D00004F52B40AB4274D1DFF898C14E68A6EBFF
:1014E0000C0866452BD00DDC032E34D005DC36B35A
:1014F000012E19D0022E2FD11BE0112E16D0122E44
:101500002AD119E0B8F5881F19D006DCB8F5803F5C
:1015100015D0B8F5801F1FD111E0B8F5001F0ED00F
:10152000B8F5041F18D10AE0CA6815E0CA68121D90
:1015300012E0CA6808320FE0CA680C320CE08A6810
:101540002AB1012A4FF0080203D0456104E00422C9
:1015500002E0056100E00022FF2B01D8064601E011
:1015600000F104064FEA840501D9A5F12005D6F85B
:1015700000C009FA05F82CEA080C02FA05F54CEA55
:10158000050CC6F800C04D68ED006AD53A4DAE694D
:1015900046F00106AE61AD6924F0030605F00105D1
:1015A0000095364D06EB050CDCF80850A6074FEA0F
:1015B000167809FA08F6B543314EB04202D100263A
:1015C0001AE04EE02F4EB04201D1012614E02E4E1B
:1015D000B04201D102260FE02C4EB04201D10326C9
:1015E0000AE02B4EB04201D1042605E0294EB0425C
:1015F00001D1052600E0062606FA08F62E43CCF8AF
:1016000008604D68DAF80060ED03554601D51E43C9
:1016100000E09E432E604D68AD0305D5DBF8006009
:101620001E43CBF8006004E0DBF800509D43CBF88C
:1016300000504D68DEF80060ED02754601D51E438E
:1016400000E09E432E604D68AD0205D5084D0C3577
:101650002E681E432E6004E0054E0C3635689D430F
:101660003560641C102CFFF431AFBDE8F88F00002A
:101670000004014000001110001002400000014071
:1016800000080140000C014000100140001401401E
:1016900000180140001C01408068084000D0012073
:1016A00070470AB1016170470904FBE7014880688F
:1016B00070470000580100200248816802781144F8
:1016C0008160704758010020074810B5016841F05B
:1016D00010010160032000F073F8002000F006F80C
:1016E00000F024F8002010BD0020024070B50D4D20
:1016F00004464FF47A712878B1FBF0F00A49096882
:10170000B1FBF0F000F088FF48B9102C07D200229E
:101710002146501E00F034F800206C6070BD01209E
:1017200070BD000058010020640100200C4808B57D
:10173000816941F001018161816901F0010100913C
:10174000C16941F08051C161C06900F080500090D2
:101750000448416821F0E06141F00071416008BD3A
:10176000001002400000014000F01F0201219140E2
:101770004009800000F1E020C0F80011704700002F
:10178000F0B40E4B1B680C46C3F30223C3F10705EC
:10179000042D00D90425191D072901D2002300E0DA
:1017A000DB1E012606FA05F1491E214099409E40A4
:1017B000761E16403143F0BC01F0C2BC0CED00E0D7
:1017C000064900F0070208684FF6FF03184040EA98
:1017D0000220034A10430860704700000CED00E04F
:1017E0000000FA0510B52CA401461DCC86B08DE88A
:1017F0001D002DA02D4C00680490002004292FD03E
:101800000BDC01292FD0022928D100F091F9616861
:10181000C1F38131491C49001EE0082920D010295C
:101820001CD161682268D20118D5C1F38342C90373
:101830001DF8020009D5616804AAC1F34041515C5A
:101840001B4AB2FBF1F1484301E01A494843616881
:10185000490203D440000321B0FBF1F006B010BDF3
:1018600000F076F9FAE7226AC2F30121012903D1D7
:10187000920701D5C803F1E7022905D1626A9207F0
:1018800002D549F64040E9E70329E7D121688903F9
:10189000E4D54FF22440E1E70203040506070809F6
:1018A0000A0B0C0D0E0F1010010200000010024078
:1018B00000127A0000093D002DE9F8430546007842
:1018C000354CC00754D0E0690026C00008D4E06958
:1018D00040F08050E061E069012600F08050009007
:1018E0002E480168C90512D40168804641F4807110
:1018F0000160FFF7DBFE074605E000BFFFF7D6FEFD
:10190000C01B642823D8D8F80000C005F6D5206A8B
:1019100010F4407021D0A98801F4407181421CD09C
:10192000206A1F49012220F440700A6000220A60E8
:101930002062C00711D0FFF7B9FE074641F2883890
:1019400008E000BFFFF7B2FEC11B414502D90320EA
:10195000BDE8F883206A8007F4D5206A696820F41E
:101960004070084320621EB1E06920F08050E061C1
:101970002878800705D56068A96820F440400843AE
:1019800060602878C00605D56068696920F4800029
:10199000084360600020DBE7001002400070004058
:1019A000400442422DE9F047DFF8548105460E46D7
:1019B000D8F8000000F00700B0420CD2D8F80010B0
:1019C00021F007013143C8F80010D8F8000000F0FA
:1019D0000700B0426FD128684A4C810712D54007F2
:1019E00003D5606840F4E06060602878000703D5A4
:1019F000606840F4605060606068A96820F0F000A2
:101A0000084360602878C00744D06868012816D071
:101A10002168022816D0890700294CDA616821F074
:101A2000030101436160FFF741FE6968074641F227
:101A3000883001290ED00229814618D026E021687D
:101A40008903E9E78901E7E7FFF730FEC11B494554
:101A500001D918E081466068C0F381000128F3D104
:101A600018E000BFFFF722FEC11B49450BD8606894
:101A7000C0F381000228F5D10CE000BFFFF716FE8D
:101A8000C11B494502D90320BDE8F087606810F00A
:101A90000C0FF3D1D8F80010404601F00701B14215
:101AA0000BD9016821F0070131430160006800F0A3
:101AB0000700B04201D00120E6E72878400705D5AD
:101AC0006068E96820F4E0600843606028780007F7
:101AD00006D56068296920F4605040EAC100606062
:101AE00000F036F86168084AC1F30311515CC84040
:101AF000064908600020FFF7F9FD0020C4E7000058
:101B00000020024000100240F47A00086401002026
:101B10000448054900684968044AC1F30221515C40
:101B2000C84070476401002000100240047B000898
:101B30000448054900684968044AC1F3C221515C60
:101B4000C84070476401002000100240047B000878
:101B500012A185B00FC98DE80F0014A0144A0068C7
:101B600004905168134801F00C03042B10D0082B8B
:101B70000ED1C1F38343C9031DF803000AD5516890
:101B800004AAC1F34041515C0A4A5043B0FBF1F052
:101B900005B0704708494843FAE70000020304050E
:101BA000060708090A0B0C0D0E0F101001020000A9
:101BB0000010024000127A0000093D002DE9F84FA4
:101BC00004460078B94DC00748D06868C0F381006A
:101BD000012807D06868C0F38100022809D168682D
:101BE000C00306D52868800338D5606800286FD008
:101BF00034E06068B0F5803F0BD010B1B0F5A02F95
:101C000011D0286820F480302860286820F48020D3
:101C100002E0286840F480302860606888B1FFF7EF
:101C200045FD064609E0286840F480202860F0E77A
:101C3000FFF73CFD801B642875D828688003F7D522
:101C40000CE0FFF733FD064605E000BFFFF72EFD71
:101C5000801B6428F0D828688003F7D42078944E3D
:101C600080074FF001094FF000083BD5686810F07D
:101C70000C0F07D06868C0F38100022809D168689A
:101C8000C00306D42868800714D5206901281FD115
:101C900010E02069B0B1C6F80090FFF707FD0746D5
:101CA00005E000BFFFF702FDC01B0228C4D828686A
:101CB0008007F7D52868616920F0F80040EAC10084
:101CC00028600FE0C6F80080FFF7F0FC074606E04A
:101CD000E9E000BFFFF7EAFCC01B022823D8286810
:101CE0008007F7D4207800072CD57248A169D9B1B4
:101CF000C0F80090FFF7DAFC074604E0FFF7D6FCD7
:101D0000C01B02280FD8686A8007F7D56A484FF4CD
:101D1000FA510068B0FBF1F0009000BF0098411E3E
:101D20000091FAD20EE080E0C0F80080FFF7BEFC20
:101D3000074604E0FFF7BAFCC01B022875D8686AA2
:101D40008007F7D42078400760D5E8690027C000F5
:101D500008D4E86940F08050E861E869012700F0A4
:101D60008050009055480168C90513D40168834626
:101D700041F480710160FFF799FC824606E000BFE4
:101D8000FFF794FCA0EB0A0064284ED8DBF80000B3
:101D9000C005F5D5E06801280AD008B1052813D0A0
:101DA000286A20F001002862286A20F0040002E07E
:101DB000286A40F001002862E06841F2883B98B14F
:101DC000FFF774FC82460BE0286A40F004002862AA
:101DD000EEE700BFFFF76AFCA0EB0A0159455AD8AD
:101DE000286A8007F6D50CE0FFF760FC824605E024
:101DF000FFF75CFCA0EB0A0159454CD8286A800724
:101E0000F6D41FB1E86920F08050E861E06988B33A
:101E10006968C1F38101022945D00228C6F86080B3
:101E200004D0FFF743FC044638E034E0FFF73EFC03
:101E3000074604E0FFF73AFCC01B02282BD82868AD
:101E40008001F7D4206AB0F5803F05D16868A168A9
:101E500020F4003008436860D4E908010843696849
:101E600021F4741108436860C6F86090FFF71EFC07
:101E7000044606E015E000BFFFF718FC001B02282F
:101E800009D828688001F7D50BE000BFFFF70EFCEA
:101E9000001B022802D90320BDE8F88F28688001C2
:101EA000F4D40020F8E70120F6E70000001002401B
:101EB0000000424280044242640100200070004061
:101EC000FEB5044603200D4684F83400606C0328F8
:101ED00020D0B5F5805F1DD0B5F5006F05D045B1B8
:101EE000A06B40F00060A06309E0204602F007F814
:101EF00002E0204601F0DCFFA16B0143A163A06B6F
:101F0000012658B1216840F2FF50886384F834609C
:101F10000120FEBDA06B40F08050E4E7211DD4E914
:101F200005700EC90095CDE90170206801F07EFBB7
:101F300084F834600020FEBDF0B5426E120E9309A5
:101F40000B70C2F383034B7002F003028A70426E7F
:101F5000120CCA70B0F86420120A0A7190F864205A
:101F60004A71826E4FF6FF73120E03EA0212CA80A4
:101F7000826ECB88C2F3074243EA1213CB8002F091
:101F80000F020A72B0F86820C2F30722D3094B721D
:101F9000C2F380138B72C2F34013CB72C2F30013EF
:101FA0000B7300264E73446C4FF4007701236CB121
:101FB000012C43D0026840F2FF519163816B41F0E4
:101FC0008051816380F834300120F0BD9207120DFA
:101FD0000A6190F868200C6944EA82020A61C26EC4
:101FE0000C69120E44EA92140C61C2F3C2040C751F
:101FF00002F007024A75C26EC2F3074254098C759B
:10200000C2F38204CC759207520F0A76B0F86C20A6
:10201000C2F307240A7E42EAD4120A760A69521CE5
:1020200042650D7EAD1CAA4042650D7A03FA05F5A6
:1020300085656D0A6A43C0E917271CE090F868209F
:102040009206920A0A61C26E0C69120E44EA0222DA
:102050000A61C26E0C69C2F3074214430C61B0F806
:102060006C20C2F307240A69521C4FEA822242659F
:10207000C0E916720766C4F3801201F8192F4FEAFF
:1020800084624FEA52624A7010F86C2F4C7844EA2E
:10209000D2144C7002F07F028A7042684FEA1262DA
:1020A0004FEAD214CC70C2F341140C71C2F3820413
:1020B0004C714FEA82724FEA12728A7142688C79CF
:1020C000C2F3074244EA92148C71C2F34014CC71FB
:1020D0000E7202F001024A728288C2F307224FEAAE
:1020E000D2148C72C2F38014CC72C2F340140C73FD
:1020F000C2F300144C73C2F381048C7302F0030228
:10210000CA7300794FEA500008744B744FF0000016
:10211000F0BD426C0A60826C4A60C26C8A60026DDB
:10212000CA60426D0A61826D4A61C26D8A61006E49
:10213000C8610020704770B50446B0F85000002513
:102140000104206801F0F1FB18B1A16B0143A16308
:1021500004E00021206801F063FA0546C5F343203E
:1021600070BD70B5040004D094F83400002510B19F
:1021700005E0012070BD2577204600F037F80320E8
:1021800084F83400204600F007F8A5632563012099
:1021900084F83400002070BDFEB500250446C3203D
:1021A0000095CDE901502B462A462946206801F0CA
:1021B0003DFA0D4E46F8A05F206801F049FA01256E
:1021C00035600220FFF720F9204601F020FE20B9FB
:1021D000204601F0A9FD002805D084F83450A16BF9
:1021E0000143A1630120FEBD0000304230B585B03F
:1021F00000210091019102910391006818498842E1
:102200002BD11848416941F480614161416901F471
:1022100080610491816941F010018161816901F05F
:1022200010010491816941F02001816180690224DB
:1022300000F0200004904FF4F850CDE9000403258D
:10224000694603950848FFF733F90420CDE90004F7
:10225000694603950548FFF72BF905B030BD00002E
:1022600000800140001002400010014000140140B5
:102270002DE9F04F87B09A4617460E460446DDF822
:1022800040B0FFF713FA00903EB194F834000128F3
:1022900007D0A06B40F000500FE0A06B40F0006052
:1022A0000BE04FF00008C4F83880E06D07EB0A013E
:1022B000814204D9A06B40F00070A0637DE0032050
:1022C00084F834002068C0F82C80606C012800D0AD
:1022D0007F024FF40071206801F00AFA40F2FF59C2
:1022E000012530B12268C2F83890A16B0143A16387
:1022F00061E04FF0FF3001904FEA4A2002909020B9
:1023000003900220CDE90408069501A9206801F098
:1023100071F9BAF1010F06D902202063394620680D
:1023200001F074FA04E025633946206801F087FA69
:102330000028D7D140F22A382068416B11EA080FF3
:1023400022D1406B000409D50027206801F084F9F0
:1023500046F827007F1C082FF7D32036BBF1000F6B
:1023600005D0FFF7A3F90099411A5945E4D3216834
:10237000C1F83890A06B40F00040A06384F834505E
:10238000032007B0BDE8F08F416BC90509D5BAF14C
:10239000010F06D9616C032903D001F0F7FA002878
:1023A000A0D12068416B090709D5C0F83890A06B0F
:1023B00040F0080028E084F834500120E1E7416B48
:1023C000890705D5C0F83890A06B40F002001BE0EB
:1023D000416B89061AD5C0F83890A06B40F02000F8
:1023E00012E000BF01F038F901C6BBF1000F05D0C3
:1023F000FFF75CF90099411A594507D32168C1F8E4
:102400003890A06B40F00040A063D4E72068416B97
:102410008902E7D42168C1F8389084F8345000204C
:10242000AFE700002DE9F04F87B09A4616460D46FB
:102430000446FFF73BF906903DB194F834000128BB
:1024400007D0A06B40F000500DE0A06B40F00060A2
:1024500009E00020A063E26D06EB0A01914204D975
:10246000A06B40F00070A06390E0032184F834106A
:1024700021688146C862606C012800D076024FF462
:102480000071206801F034F940F2FF58012730B1A3
:102490002268C2F83880A16B0143A16317E0BAF14A
:1024A000010F06D9202020633146206801F088FA08
:1024B00005E0102020633146206801F09AFA0600FA
:1024C00008D02168C1F83880A06B3043A06384F83D
:1024D00034705BE04FF0FF3000904FEA4A200190EB
:1024E000902002904846CDE90407CDF80C90B946FB
:1024F0006946206801F07EF840F21A3B22E0406B0A
:1025000040040AD55FF0000705EB8701206801F061
:10251000B6F87F1C082FF7D32035109830B1FFF79D
:10252000C5F80699411A109881420BD32168C1F869
:102530003880A06B3043A06384F83490032007B048
:10254000BDE8F08F2068416B11EA0B0FD7D0416BCB
:10255000C9050FD5BAF1010F0CD9616C032909D057
:1025600001F014FA30B12268C2F83880A16B01433F
:10257000A16309E02068416B090709D5C0F83880DC
:10258000A06B40F0080014E084F834900120D6E7F6
:10259000416B890705D5C0F83880A06B40F0020078
:1025A00007E0416BC0F83880C90604D5A06B40F045
:1025B0001000A063E8E784F834900020BFE770B50E
:1025C00015460E46040003D094F83D0010B107E014
:1025D000012070BD002084F83C00204600F01AF86D
:1025E00004F108012068FEF707FC3146A268206864
:1025F000FEF74EFCD4E901022946236BFEF7DEFB11
:10260000A168206850F8212042F0010240F8212002
:10261000002070BDFEF70ABF10B5401EB0F1807FEC
:1026200001D3012010BD4FF0E02460610F2160173D
:1026300000F086FD0020A06107202061002010BD71
:1026400070B5040004D094F83900002510B106E0FC
:10265000012070BD84F83850204600F023F8242073
:1026600084F839002068C16821F40051C160204617
:1026700001F080FD2068016921F49041016120682A
:10268000416921F02A0141612068C16841F400518B
:10269000C160E563202084F8390084F83A00002006
:1026A00070BD000030B585B0002400940194029400
:1026B000039400681449884224D11448816941F484
:1026C00080418161816901F480410491816941F017
:1026D0000401816180690E4D00F0040004904FF404
:1026E0000070009002200190032003906946284664
:1026F000FEF7DEFE2815CDE900046946284602945F
:10270000FEF7D6FE05B030BD003801400010024093
:10271000000801402DE9F843044690F83A00994634
:1027200016460D4620284FD195B18EB194F8380049
:10273000012849D0012084F838000027E7632220CF
:1027400084F83A00FEF7B2FFA6858046E68531E0C0
:102750000120BDE8F883E08D401EE085A068434677
:10276000B0F5805F4FF000024FF020012046CDF819
:10277000009004D001F0B6FD98B10320E9E701F024
:10278000B1FD0028F9D1206900282068406803D0F5
:10279000C1B225F8011B0DE0C0F3080125F8021BAA
:1027A00008E0206900282068406801D000F07F0020
:1027B00005F8010BE08D0028CDD1202084F83A00E7
:1027C00084F838700020C4E70220C2E7FEE700006A
:1027D0001CB5EF218DF8001001218DF8011014496E
:1027E0008308154849680A0E8DF802200A0C8DF8F6
:1027F00003200A0A8DF804208DF8051007218DF8B2
:10280000061000218DF807104FF4C8720949FFF730
:1028100081FF072207496846FDF7B2FD28B96946DE
:102820000448FDF79BFD002800D100201CBD0000DE
:10283000500100204C230020C8220020044B4FF4FC
:10284000805108B1002200E001221846FEF729BF9E
:10285000001401403620010708800B4868220280DE
:102860002A220A80002202800280012202803F2266
:1028700002802B220A800022028002800280EF2246
:1028800002802C20088070470000026070B51D4651
:102890001446049E00F01AF904FB05F03146BDE829
:1028A000704000F0ADB8000070B5203AD4B21023EB
:1028B000082200F00BF92C20C10608800C490D4BB2
:1028C00001EB041500204FF6FF742A5C0021D607A7
:1028D00002D01F261E8000E01C80491C5208C9B28D
:1028E0000829F4D3401CC0B21028EED370BD0000FC
:1028F0000475000800000260F0B5203A1C46D6B20C
:1029000010230822059D00F0E1F82C20C106088064
:102910000A490B4B002001EB06160021325CD70759
:1029200001D01D8000E01C80491C5208C9B2082952
:10293000F5D3401CC0B21028EFD3F0BD04750008D9
:102940000000026078B504464FF478460A380D4618
:1029500080B2012314220096FFF798FF0A3DA9B226
:102960001423012220460096FFF790FF78BD000057
:10297000F0B516460D4604464FF4A07714E000BFAC
:1029800004F10800F02802D900241035ADB205F199
:102990001000B84201D90024254629462046FFF7F9
:1029A00083FF0834A4B2761C3278002AE8D1F0BD47
:1029B0002DE9F843994616460D4604464FF4A07794
:1029C000DDF8208017E000BF04F10800F02802D9EC
:1029D00000241035ADB205F11000B84201D9002431
:1029E00025464B4629462046CDF80080FFF784FF58
:1029F0000834A4B2761C3278002AE5D1BDE8F88309
:102A000010B500222C23DC062380034B01E0198043
:102A1000521C8242FBD310BD0000026020494FF0DF
:102A2000C042012806D0022808D003280ED004286E
:102A300009D120E036201080C8201FE03620108009
:102A4000682006E008802C20108070473620108017
:102A5000282008802A20108000200880088001207B
:102A600008803F2008802B201080002008800880EC
:102A70000880EF20E6E736201080482008802A20D2
:102A800010800020088008800880EF2008802B201C
:102A90001080002008800880012008803F20D1E7B6
:102AA0000000026008B50120FFF7C8FE00F0EAF858
:102AB00000F02CF84FF6FF70002100904FF4A07347
:102AC000F0220846FFF7E2FE08BD000070B54FF0A7
:102AD000C0452A242C800C4C060A2680C6B22680CB
:102AE0001044401E020A2280C0B220802B20288081
:102AF000080A2080C8B22080C818401E010A218020
:102B0000C0B2208070BD00000000026000B54FF030
:102B1000C041CF20088059480022028081220280D3
:102B200030220280ED220A80642202800322028089
:102B30001222028081220280E8220A8085220280FD
:102B40001022028078220280CB220A803922028061
:102B50002C22028000220280342202800222028083
:102B6000F7220A8020220280EA220A8000220280C4
:102B70000280B1220A80002202801B220280B6223B
:102B80000A800A220280A2220280C0220A80352204
:102B90000280C1220A8011220280C5220A804522B9
:102BA00002800280C7220A80A2220280F2220A80CA
:102BB0000022028026220A8001220280E0220A806E
:102BC0000F22028026220280242202800B22028011
:102BD0000E2202800922028054220280A822028052
:102BE000462202800C2202801722028009220280E3
:102BF0000F2202800722028000220280E1220A8046
:102C000000220280192202801B22028004220280FC
:102C100010220280072202802A220280472202809C
:102C200039220280032202800622028002803022A2
:102C30000280382202800F22028036220A80C822B7
:102C400002802A220A800022028002800280EF2273
:102C500002802B220A800022028002800122028050
:102C60003F2202803A220A805522028011200880E9
:102C70000348FDF729FE2920088000BD00000260FE
:102C8000FCBF020070B50A4C002202212046FEF76C
:102C900008FD084D2846FDF717FE012202212046B7
:102CA000FEF7FFFC2846BDE87040FDF70DBE0000B2
:102CB00000180140FCBF0200014908807047000075
:102CC0000000026038B54FF6FF7500214FF4A07385
:102CD000F02208460095FFF7D9FD1F242B461FA2BE
:102CE0000A211E200094FFF763FE1E23E6221946E8
:102CF00005200094FFF7CAFD2B461EA224211C20AC
:102D00000094FFF755FE1E23E6224621052000947D
:102D1000FFF7BCFD2B461DA24C2119200094FFF7A4
:102D200047FE1E23E6226E2105200094FFF7AEFD2C
:102D30002B461DA2742105200094FFF739FE1E23A7
:102D4000E622962105200094FFF7A0FD2B461EA247
:102D50009C2132200094FFF72BFE38BD486F6D6533
:102D60002050726F74656374696E67205379737451
:102D7000656D0000536574206E65772F4368616E42
:102D800067652070617373776F726400526567695D
:102D900073746572206E65772066696E6765727000
:102DA00072696E740000000044656C657465207281
:102DB0006567697374657265642066696E676572BC
:102DC0007072696E7400000050686F746F732069D0
:102DD0006E20534420636172640000003EB5002100
:102DE0000E48009101910C4A029102600124C0E951
:102DF000021441614FF460220461C2614160FEF738
:102E00004FF90A20CDE900040520029069460348E5
:102E1000FEF7C4F83EBD000000240140142200204B
:102E200010B504490448FDF7A5FF0249491E087082
:102E300010BD000041010020B87B000800B587B03C
:102E40001C216846FDF732FB15484FF02041102247
:102E500001601449416000218160C160C0E9041231
:102E60008161C16113020162C0E90913C16201639A
:102E7000416381630F20FF230090CDE90103CDE979
:102E800003021120CDE90501002269460448FFF73D
:102E900096FB0548C16941F48061C16107B000BD7E
:102EA00008230020040100A0000001402DE9F04F9C
:102EB00085B00024824800940194029403948169AF
:102EC00041F040018161816901F040010491816913
:102ED00041F010018161816901F010010491816963
:102EE00041F004018161816901F00401049181696B
:102EF00041F008018161816901F008010491816953
:102F000041F0200181618069DFF8B89100F0200074
:102F10000490002207214846FEF7C3FB002240F63A
:102F2000FE016948FEF7BDFBDFF8A0B10022F021E9
:102F30005846FEF7B6FB002221216548FEF7B1FB9B
:102F4000DFF890A143F20808002241465046FEF700
:102F5000A8FB072001250326CDE90005CDE902469F
:102F600069464846FEF7A4FA68208DE831006946B4
:102F70004846FEF79DFA584F1020CDE900076946F4
:102F800002954846FEF794FA6803CDE900046946C5
:102F900058460294FEF78CFA0820CDE900076946EE
:102FA00002945846FEF784FACDE900546946464833
:102FB0000294FEF77DFA40F60E00CDE90005CDE95A
:102FC000024669464048FEF773FAF0200227CDE931
:102FD0000005CDE9024769463B48FEF769FA302013
:102FE000CDE90005CDE9024669465846FEF760FA8C
:102FF0002120CDE90005CDE9024669463448FEF7B7
:1030000057FA36480097CDE9010469463048FEF783
:103010004FFA04208DE8310069462D48FEF748FA42
:103020004FF47F40CDE90004694629480294FEF739
:103030003FFACDF800800396CDE901546946504629
:10304000FEF736FAC020009001AA112082E8510054
:1030500069465846FEF72CFA280200902048CDE930
:10306000010469461848FEF723FA28038DE8310069
:1030700069461548FEF71CFA002211460720FEF7A4
:103080007FFB0720FEF770FB002211460920FEF7A8
:1030900077FB0920FEF768FB002211460A20FEF7A5
:1030A0006FFB0A20FEF760FB002201211720FEF7CC
:1030B00067FB1720FEF758FB05B0BDE8F08F000056
:1030C00000100240001801400008014000100140BB
:1030D000000C0140001401400000211000003110DC
:1030E0000000111010B50F4C0D480C2120604FF45A
:1030F000614060600020A060E060C4E90401A0615C
:10310000E0612046FFF79CFA2068C16841F0200189
:10311000C1602068C16841F01001C16010BD0000AD
:1031200000380140C822002003490A685206FCD535
:103130000149091D0860704700380140FEE77047EB
:103140000907090E002806DA00F00F0000F1E02060
:1031500080F8141D704700F1E02080F800147047DB
:10316000F8B500248DF800408021122000F01CFAF0
:1031700000280BD00B220121684600F03FF90028FF
:1031800004D09DF80000212801D00020F8BD094D91
:103190006E1E0AE005EB4400417815F8140000F0BB
:1031A00003FA0028F2D0641CA4B230788442F1D330
:1031B0000120F8BD3900002070B50C46054600F02E
:1031C0006DFF00F049FF0120FFF7AEFF072000F080
:1031D0006EFF0C20FFF7A8FF280AFFF7A5FFE8B253
:1031E000FFF7A2FF200AFFF79FFFE0B2FFF79CFF67
:1031F000E8B200EB152000EB1420E1B208441430D3
:1032000000F042FF4FF4FA60FFF7E2FA08B1407AAB
:1032100070BDFF2070BD10B500F040FF00F01CFF36
:103220000120FFF781FF032000F041FF0D20FFF791
:103230007BFF112000F028FF4FF4FA60FFF7C8FA77
:1032400008B1407A10BDFF2010BD10B5044600F053
:1032500025FF00F001FF0120FFF766FF042000F0CA
:1032600026FF0220FFF760FF2046FFF75DFFE01D0D
:1032700000F00AFF4FF4FA60FFF7AAFA08B1407AAB
:1032800010BDFF2010BD10B500F008FF00F0E4FEF7
:103290000120FFF749FF032000F009FF0120FFF79D
:1032A00043FF052000F0F0FE4FF4FA60FFF790FABC
:1032B00008B1407A10BDFF2010BD2DE9F0411E4637
:1032C00014460D46074600F0E9FE00F0C5FE012059
:1032D000FFF72AFF082000F0EAFE1B20FFF724FF7B
:1032E0003846FFF721FF280AFFF71EFFE8B2FFF775
:1032F0001BFF200AFFF718FFE0B2FFF715FF07EBEF
:103300001520E9B2084400EB1420E1B2084424304F
:1033100000F0BAFE4FF4FA60FFF75AFA58B1C27AD9
:10332000837A417A02EB03223280427B007B02EBFC
:103330000020708000E0FF210846BDE8F08110B554
:1033400000F0ACFE00F088FE0120FFF7EDFE032048
:1033500000F0ADFE0320FFF7E7FE072000F094FE2B
:103360004FF4FA60FFF734FA08B1407A10BDFF203D
:1033700010BD10B500F092FE00F06EFE0120FFF7C8
:10338000D3FE032000F093FE0520FFF7CDFE0920B9
:1033900000F07AFE4FF4FA60FFF71AFA08B1407AAB
:1033A00010BDFF2010BD70B50C46054600F076FE3E
:1033B00000F052FE0120FFF7B7FE062000F077FE76
:1033C0000620FFF7B1FE2846FFF7AEFE200AFFF702
:1033D000ABFEE0B2FFF7A8FE05EB1420E1B2084413
:1033E0000D3000F051FE4FF4FA60FFF7F1F908B12B
:1033F000407A70BDFF2070BD704700002DE9F04796
:1034000014468846814600F081F800281DD04220ED
:1034100000F05AF800F0AEF8A0B1204600F054F8E1
:1034200000F0A8F800F092F800F070F800280CD036
:10343000432000F049F800F09DF8224C4FF0800A3C
:10344000402698BB00F082F80020BDE8F0870025F8
:10345000C4F810A007276806050E666100F0C3F8DF
:10346000266100F0C0F880212046FEF715F908B16A
:1034700045F001057F1EFFB2EDD2666189F800506C
:10348000B8F1010F666118D000F0ADF8C4F814A0CF
:1034900000F0A9F8266100F0A6F8666100F0A3F834
:1034A000A8F1010009F101091FFA80F8B8F1000F35
:1034B000CDD100F04BF80120C7E700F094F8C4F834
:1034C00010A0E5E7001001402DE9F041082507466E
:1034D0004FF0800840260C4C0FE000BF00F083F84E
:1034E0003806404601D5206100E060617806070E8D
:1034F00000F079F8266100F076F86D1EEDB2666195
:10350000ECD2BDE8F08100000010014070B50E4C17
:10351000802525614020206100F065F8802120464B
:10352000FEF7BAF8002808D0656100F05CF8802149
:103530002046FEF7B1F808B1002070BD656100F0CB
:1035400052F8012070BD00000010014070B5084C19
:103550004025656100F047F88026666100F043F879
:10356000256100F040F82661BDE8704000F03BB8EE
:103570000010014070B50B4D40246C6100F033F831
:103580008020286100F02FF82C6100F02CF88021B9
:103590002846FEF781F86C6108B1002070BD01205B
:1035A00070BD00000010014070B50D460446FFF7E5
:1035B000ADFF002812D04220FFF786FFFFF7DAFFA9
:1035C00068B1E0B2FFF780FFFFF7D4FF2846FFF7AE
:1035D0007BFFFFF7CFFFFFF7B9FF012070BDFFF7BB
:1035E000B5FF002070BD4FF4C870401E0004000CF1
:1035F000FBD170470A6842624A688262D1E90223BD
:103600001A43D1E904310B43C16A1A4321F0F7018F
:103610001143C16200207047006800F0030070474A
:1036200008B5084414300090006808BD70B50DF16D
:10363000100C11439CE8700023431943294342684E
:10364000314347F6FF639A430A434260002070BD4E
:103650000321016000207047D0F8800070470A689D
:103660008260D1E901231A43D1E903310B43C168D8
:103670001A436FF30B011143C160002070470968C2
:10368000C0F880100020704710B586B0044637207F
:10369000CDE9001040200290002003904FF480609C
:1036A000049069462046FFF7DAFF41F2883237215D
:1036B000204600F0B7F906B010BD000010B5044672
:1036C0000A4886B001432920CDE90010402002902D
:1036D000002003904FF48060049069462046FFF775
:1036E000BEFF204600F054FA06B010BD0000108066
:1036F00010B586B004461020CDE90010402002909D
:10370000002003904FF48060049069462046FFF744
:10371000A6FF41F288321021204600F083F906B05E
:1037200010BD10B586B004460620CDE9001040203B
:103730000290002003904FF4806004906946204678
:10374000FFF78DFF41F288320621204600F06AF92A
:1037500006B010BD30B585B0002405460094019434
:103760004FF480600294CDE9034069462846FFF794
:1037700076FF0B484FF4FA510068B0FBF1F041F2CC
:1037800088314843401E03D24FF0004005B030BDA1
:10379000696B0906F6D540F2FF50A8632046F5E7AD
:1037A0006401002070B585B004464FF4D5700090D8
:1037B00008204026CDE901060025C001CDE90350CF
:1037C00069462046FFF74BFF0F484FF4FA51006857
:1037D000B0FBF1F041F288314843401E02D24FF075
:1037E00000450DE0616B11F0450FF6D0606B4007AE
:1037F00002D5A663042503E0606B400600D5A663EE
:1038000005B0284670BD00006401002010B586B0E8
:1038100004461220CDE900104020029000200390C1
:103820004FF48060049069462046FFF718FF41F28C
:1038300088321221204600F0F5F806B010BD10B510
:1038400086B004461120CDE90010402002900020EF
:1038500003904FF48060049069462046FFF7FFFE16
:1038600041F288321121204600F0DCF806B010BD8C
:1038700010B586B004460720CDE900204020029014
:10388000002003904FF48060049069462046FFF7C3
:10389000E6FE41F288320721204600F0C3F806B068
:1038A00010BD10B586B0044600210220CDE90010FD
:1038B000C020CDE902014FF48060049069462046A3
:1038C000FFF7CDFE204600F03BF906B010BD10B565
:1038D00086B004460920CDE90010C02002900020E7
:1038E00003904FF48060049069462046FFF7B7FECE
:1038F000204600F025F906B010BD10B586B004468C
:1039000000213320CDE900104020CDE90201000163
:10391000049069462046FFF7A2FE41F28832332127
:10392000204600F07FF806B010BD10B586B0044602
:103930000D20CDE9001040200290002003904FF4AC
:103940008060049069462046FFF789FE41F2883284
:103950000D21204600F066F806B010BD30B585B0E8
:103960000C46054600210320CDE900104020CDE99A
:1039700002010001049069462846FFF770FE2246C6
:103980000321284600F024F905B030BD10B586B0FB
:10399000044600210C20CDE900104020CDE90201B1
:1039A0000001049069462046FFF759FE034A0C21A6
:1039B000204600F037F806B010BD000000E1F50524
:1039C00010B586B004461920CDE9001040200290C1
:1039D000002003904FF48060049069462046FFF772
:1039E0003EFE41F288321921204600F01BF806B055
:1039F00010BD10B586B004461820CDE90010402057
:103A00000290002003904FF48060049069462046A5
:103A1000FFF725FE41F288321821204600F002F817
:103A200006B010BD444B10B51B684FF4FA54B3FBFD
:103A3000F4F353435B1E02D24FF0004010BD426BC3
:103A400012F0450FF6D0426B520703D50421816373
:103A5000084610BD426BD20702D00121816303E00A
:103A60000269D2B28A4201D0012010BD40F2FF515A
:103A700081630021FFF7D4FD3049084201D10020C5
:103A800010BD002802DA4FF0007010BD410001D5D2
:103A9000402010BD810001D5802010BDC10002D59D
:103AA0004FF4807010BD010102D54FF4007010BDBD
:103AB000410102D54FF4806010BDC10102D54FF421
:103AC000006010BD010202D54FF4805010BD4102CC
:103AD00002D54FF4005010BD810202D54FF4804052
:103AE00010BDC10202D54FF4004010BD410302D504
:103AF0004FF4003010BD810302D54FF4802010BD7B
:103B0000C10302D54FF4002010BD010402D54FF4CB
:103B1000801010BD410402D54FF4001010BD810487
:103B200002D54FF4800010BD000702D54FF400000D
:103B300010BD4FF4803010BD6401002008E0FFFD8F
:103B400012494FF4FA520968B1FBF2F141F288329E
:103B50005143491E02D24FF000407047426B12F0B1
:103B6000450FF6D0416B490703D504218163084610
:103B70007047416BC90703D0012181630846704734
:103B800040F2FF5181630020704700006401002073
:103B90000E494FF4FA520968B1FBF2F141F2883252
:103BA0005143491E02D24FF000407047426B12F061
:103BB000450FF6D0416B490703D5042181630846C0
:103BC000704740F2FF51816300207047640100207C
:103BD0001F4B10B51B684FF4FA54B3FBF4F341F2DA
:103BE000883463435B1E02D24FF0004010BD446B2B
:103BF00014F0450FF6D0436B5B0703D504218163B6
:103C0000084610BD436BDB0702D00121816303E04E
:103C10000369DBB28B4201D0012010BD40F2FF519D
:103C200081630021FFF7FCFC10F4604F04D04104D5
:103C300006D54FF4005010BD000C1080002010BDC0
:103C4000000402D54FF4805010BD4FF4803010BDF9
:103C5000640100202DE9F04F89B00E460446FDF7BF
:103C600025FD00258346009501952F4608212068F3
:103C7000FFF73EFD002834D1B4F85000010420685D
:103C8000FFF702FD00282CD1401E4FF00808CDE9B7
:103C9000020830204FF00209CDE904090120CDE9E6
:103CA000067002A92068FFF7A5FC2068FFF725FE33
:103CB000002816D1EA4640F22A472068416B394273
:103CC00012D1416B890204D5FFF7C6FC4AF82500E2
:103CD0006D1CFDF7EBFCA0EB0B00401CEDD14FF091
:103CE000004009B0BDE8F08F416B090703D5C0F86B
:103CF00038800820F5E7416B890703D5C0F8389074
:103D00000220EEE7416B890603D520218163084636
:103D1000E7E740F2FF518163009800BA70600198B4
:103D200000BA30600020DCE710B590B004460120F6
:103D3000ADF838002068FFF76FFC002864D0606C95
:103D4000032842D02068FFF7ACFD00285AD100219B
:103D50002068FFF765FC606704212068FFF760FCBE
:103D6000A06708212068FFF75BFCE0670C21206852
:103D7000FFF756FCC4F88000606C032825D00EA91C
:103D80002068FFF7EBFD00283CD1606C03281CD0B5
:103D9000BDF83800206501042068FFF798FD002871
:103DA00030D100212068FFF73BFC606604212068C9
:103DB000FFF736FCA06608212068FFF731FCE066BB
:103DC0000C212068FFF72CFC206704212068FFF7F6
:103DD00027FC000DE06403A92046FEF7ADF8B4F817
:103DE0005000002302042068FFF742FD002809D19B
:103DF00004F1100007C88DE8070094E80F00FFF7F2
:103E000015FC002010B010BD4FF08060FAE72DE9DE
:103E1000F8430025044600950068FFF79BFC002846
:103E20001AD12068FFF7BEFC4FF080784FF6FF767E
:103E3000D8B14FF08057A5640098411C0091B04262
:103E40001AD000212068FFF71FFC20B9002120684C
:103E5000FFF734FC10B13846BDE8F8830021206834
:103E6000FFF7DEFBC00FE7D01FE00127A764009833
:103E7000411C0091B04201D14046EDE7002120688D
:103E8000FFF702FC0028E7D14FF080412068FFF7E0
:103E900015FC0028E0D100212068FFF7C1FBC10F0D
:103EA000E5D0400001D5676400E065640020D3E7F9
:103EB0001CB5044600200090019000212068FFF707
:103EC000AFFB800102D54FF400601CBD694620465F
:103ED000FFF7C0FE0028F8D10198C0030CD5B4F854
:103EE000500001042068FFF7CFFB0028EDD100212E
:103EF0002068FFF716FC1CBD4FF080601CBD1CB590
:103F0000044600200090019000212068FFF788FB04
:103F1000800102D54FF400601CBD69462046FFF7C2
:103F200099FE0028F8D1019840030CD5B4F8500050
:103F300001042068FFF7A8FB0028EDD102212068CA
:103F4000FFF7EFFB1CBD4FF080601CBD10B5064CA9
:103F500001202070FCF7F6FB18B9207820F0010052
:103F60002070207810BD00007001002010B51248AC
:103F700088B014460078C00702D0032008B010BDF6
:103F8000B9B1012905D0022908D003290CD0042099
:103F9000F4E76846FCF7C4FB069809E06846FCF7BE
:103FA000BFFB0798208004E06846FCF7B9FB079840
:103FB00020600020E2E70000700100202DE9F041C0
:103FC0001E46174608460125094C0A4B324639461B
:103FD000FCF7D2FB28B109E0641E02D20120BDE843
:103FE000F081FCF7A3FB0028F6D100252846F6E770
:103FF000A086010000E1F50510B5064C01202070F7
:10400000FCF794FB18B9207820F00100207020788C
:1040100010BD0000700100202DE9F0411E4617463A
:1040200008460125094C0A4B32463946FCF7B4FBD9
:1040300028B109E0641E02D20120BDE8F081FCF73E
:1040400075FB0028F6D100252846F6E7A08601007A
:1040500000E1F5057047000010B50A4C6068000EDD
:10406000FFF762F86068C0F30740FFF75DF8A088CB
:10407000C0F30720FFF758F82079BDE81040FFF79C
:1040800053B800005001002010B50446000AFFF7A5
:104090004BF8E0B2BDE81040FFF746B810B5EF208E
:1040A000FFF742F8BDE810400120FFF73DB810B51A
:1040B0000446C0F30720FFF737F8E0B2BDE8104030
:1040C000FFF732B8FDF7F8BA30B595B02821684649
:1040D000FCF7ECF914210AA8FCF7E8F918210FA85D
:1040E000FCF7E4F901210804CDE900100024029452
:1040F00002250491CDE907504FF4E010099068467D
:10410000FDF75CFD0F20CDE90A056802CDE90C4002
:1041100002210AA80E94FDF745FCA80311900F9503
:104120000FA8FDF7C9FB15B030BD00000D480168B0
:1041300041F00101016041680B4A11404160016892
:104140000A4A11400160016821F480210160416840
:1041500021F4FE0141604FF41F0181600449C00356
:1041600008607047001002400000FFF8FFFFF6FEF5
:1041700008ED00E02DE9F041044600680169E268BD
:1041800021F44051114301612169A068084361692C
:1041900008432168CA6841F20C639A430243CA602B
:1041A00020684169A26921F44071114341614C4981
:1041B00020686425322688423CD1FDF7B9FC00EB2B
:1041C000C00101EB001061688900B0FBF1F7FDF759
:1041D000AFFC00EBC00101EB00106168B046890044
:1041E000B0FBF1F0B0FBF5F06FF01801484307EBBE
:1041F000800106EB0110B0FBF5F000F0F006FDF7D2
:1042000097FC00EBC00101EB001061688900B0FB76
:10421000F1F0B0FBF5F006EB0016FDF789FC00EBC2
:10422000C00101EB001061688900B0FBF1F7FDF7F8
:104230007FFC3BE0FDF76CFC00EBC00101EB0010E4
:1042400061688900B0FBF1F7FDF762FC00EBC0018B
:1042500001EB00106168B0468900B0FBF1F0B0FBE3
:10426000F5F06FF01801484307EB800106EB0110F1
:10427000B0FBF5F000F0F006FDF74AFC00EBC001E2
:1042800001EB001061688900B0FBF1F0B0FBF5F0C4
:1042900006EB0016FDF73CFC00EBC00101EB001043
:1042A00061688900B0FBF1F7FDF732FC00EBC0015B
:1042B00001EB001061688900B0FBF1F0B0FBF5F094
:1042C0006FF01801484307EB800108EB0110B0FBC9
:1042D000F5F0216800F00F0030448860BDE8F081FF
:1042E000003801402DE9F041984617460E46044635
:1042F000069D1DE0681C1BD02DB1FDF7D7F9A0EB82
:104300000800A84214D92068C16821F4D071C160A6
:104310002068416921F001014161202084F83900C1
:1043200084F83A00002084F838000320BDE8F081CA
:104330002068006836EA000004D00020B842D9D0D6
:104340000020F3E70120F9E7FEE72DE9F0470C46EE
:104350000546088809891646421AE38860890127BC
:104360001B1A5A43A388C91A6388181A01FB002034
:1043700002F0B5FE00221346C6E90C0102F046FE2B
:1043800001D1002783E028882989E388421A6089BF
:104390001B1A5A43AB88C91A6388181A01FB0020FC
:1043A00002F09DFEC6E9000121882089AB880A1A27
:1043B00029895B1A5A432B88C91AA388181A01FB4A
:1043C000002002F08CFEC6E902012389AA88A18898
:1043D000B5F8088003FB02F001FB180C60889146D9
:1043E0000CFB00FC208800FB08F2B5F8008003FB02
:1043F000182201FB08F1E38800FB191002FB03C33C
:10440000618900FB013002F06AFEC6E90401688898
:104410006989E388421A60891B1A5A43EB88C91AD2
:104420006388181A01FB002002F059FEC6E9060154
:1044300021882089EB880A1A69895B1A5A436B889C
:10444000C91AA388181A01FB002002F048FEC6E929
:1044500008012289B5F80680A1886B8902FB08F063
:1044600001FB130C60886D880CFB00FC20886943FD
:10447000434302FB1532E38800FB181002FB03C222
:10448000618900FB012002F02AFEC6E90A013846D4
:10449000BDE8F08701B5002004E00B21491EC9B238
:1044A000FCD2401C00998842F7D308BD2DE9F8439F
:1044B00080460C460127684600F070F8E0B3BDF86E
:1044C000020002F023FED4E9022302F033FE054687
:1044D0000E46BDF8000002F019FED4E9002302F0F8
:1044E00029FE2A46334602F085FBD4E9042302F074
:1044F00081FB02F0C7FDA8F80000BDF8020002F041
:1045000005FED4E9082302F015FE05460E46BDF867
:10451000000002F0FBFDD4E9062302F00BFE2A4660
:10452000334602F067FBD4E90A2302F063FB02F092
:10453000A9FDA8F8020001E0FFE700273846BDE822
:10454000F883000070B500F03DFA134E00252A46AE
:1045500004213046FDF7A5F8012211463046FDF74B
:10456000A0F80024002201213046FDF79AF8082126
:104570003046FDF791F8C4F10B018840284385B21D
:10458000012211463046FDF78CF8641CE4B20C2C75
:10459000E8D3284670BD0000001801402DE9F04125
:1045A0008AB00546002628216846FBF77FFFDFF822
:1045B00020816C469020FFF7C5FF07460120FFF7DA
:1045C00069FFD020FFF7BEFF24F8167004EB460108
:1045D000761C8882F6B210214046FDF75DF808B9D6
:1045E0000A2EE7D310214046FDF756F810B139499D
:1045F000002008700A2E03D000200AB0BDE8F08128
:10460000BDF90010BDF914008C4662460346012630
:1046100034F916708F4201DA394602E0974200DD24
:104620003A46761CF6B20A2EF2D3012604EB460770
:10463000B7F914709F4201DA3B4602E0874200DD81
:104640003846761CF6B20A2EF0D3BDF90240BDF909
:104650000460BDF9067064443E443444BDF908600A
:104660003444BDF90A603444BDF90C603444BDF9EA
:104670000E603444BDF910603444BDF91260344416
:10468000611A891AC9082980BDF91410BDF91620CC
:10469000BDF91A401144BDF9182022441144BDF956
:1046A0001C201144BDF91E201144BDF920201144E5
:1046B000BDF922201144BDF924201144BDF9262062
:1046C0001144C91A081AC0086880012095E7000043
:1046D00000180140000000202DE9F04FABB03C2154
:1046E000B4225020F025ADF86810ADF87420ADF874
:1046F0006A00ADF86C10ADF87020ADF876004FF49C
:10470000A076ADF86E50ADF872500120FEF786F934
:104710006FF00F0000EB5609680800241390700832
:104720004FF6FF7A4FF4784B1290002157463346EC
:104730002A460846CDF800A0FEF7A8F88BA2D84676
:104740003B46CDF800B03C201299FEF731F9621CCF
:104750008BA127A8FBF77EFD1FFA89F13B4627AA0C
:10476000CDF800801398FEF723F98648FFF792FEF4
:104770001AA800EB840130F824004988FEF7E2F81B
:1047800014A800EB84073846FFF708FF0028FAD08A
:10479000641CE4B2042CC8D304AA14A91AA8FFF715
:1047A000D4FDDDE910010022134602F02FFC7DD07C
:1047B000BDF85E0002F0AAFCDDE906231391199012
:1047C00002F0B8FC04460F46BDF85C0002F09EFC07
:1047D000CDE90001DDE9042391461F9302F0AAFC14
:1047E00022463B4602F006FADDE9082302F002FA0F
:1047F000DDE910439846224602F0B0FA02F042FC8E
:10480000DDE90C2387B21399199802F093FC1391F8
:104810002490DDE90001DDE90A2302F08BFC139B03
:10482000249A02F0E7F9DDE90E2302F0E3F94346AA
:10483000224602F093FA02F025FCBDF8741080B213
:10484000B94201D2791A00E0C91B8AB2BDF87610CC
:10485000814201D2401A00E0081A80B20A2A56D8D2
:104860000A2854D847462246434648461F9902F034
:1048700075FADFF8148122463B46C8E90001DDE9FC
:10488000060102F06BFAC8E90201DDE908012246DF
:104890003B4602F063FAC8E90401DDE90A01224659
:1048A0003B4602F05BFA22463B4600E02FE0C8E9B7
:1048B0000601DDE90C0102F051FAC8E90801DDE961
:1048C0000E0122463B4602F049FAC8E90A010021DE
:1048D000544633462A460846CDF800A0FDF7D6FFD9
:1048E0002AA63046FBF778FD404205EBC000C0F336
:1048F0004F0023463246CDF800B01299FEF758F823
:104900002748FFF7C7FD01202BB0BDE8F08F00213D
:1049100033462A460846CDF800A0FDF7B7FF21A48C
:104920002046FBF759FD404205EBC000C0F34F00A5
:104930005F4653462246CDF800B01299FEF738F88C
:104940001CA42046FBF748FD404205EBC0001021A7
:10495000C0F34F0001EB5601534622460097FEF785
:1049600027F81748FFF796FD0020CDE7546F7563D1
:10497000682043616C696272617465202E2E2E007E
:1049800025640000A08601000800002043616C69D6
:104990006272617465205375636365640000000092
:1049A000400D030043616C69627261746520666149
:1049B000696C000074727920616761696E000000A3
:1049C00040420F0070B5174D0646002204212846CC
:1049D000FCF767FE002201212846FCF762FE002456
:1049E000C4F1070026FA00F0C00701D0012200E060
:1049F000002204212846FCF754FE0520FFF74AFD5B
:104A0000012211462846FCF74CFE0520FFF742FD27
:104A1000002201212846FCF744FE641CE4B2082C65
:104A2000DED370BD0018014010B5044600F580507B
:104A300000220271521EC262204601F0FFFA08B144
:104A4000032010BDB4F8FE01A0F52A41553901D06C
:104A5000022010BD94F83600B4F8371040EA012166
:104A60000848B0EB012F08D094F85210B4F8532046
:104A700041EA0221B0EB012F01D1002010BD01203D
:104A800010BD0000004641547CB53C4901A8FFF729
:104A90000DFD002870D0BDF80400801FE52865D208
:104AA000BDF806004FF6FF74A0F11F014FF4A0738C
:104AB0001D2918D20021F02208460094FDF7E6FED9
:104AC0001F250A2123462EA208460095FDF770FFF8
:104AD000354800F087FB234634A296210A20009532
:104AE000FDF766FF42E0A0F1470101251D291BD219
:104AF0000021F02208460094FDF7C8FE324C2570D4
:104B00000A2132A20846FDF733FF20780128FCD0A5
:104B10002078022804D10A2133A20846FDF728FF95
:104B200020780228FCD021E0A0F16F011D2916D2C7
:104B30000021F02208460094FDF7A8FE0A2132A2C7
:104B40000846FDF715FF184C0C3C658020226421B7
:104B50000A20FDF7A9FE60880128F7D006E0973803
:104B60001D2803D201F086FDFDF7D0FF40F2DC5096
:104B7000FCF74AFCFEF7A6F87CBD00000800002008
:104B8000506C65617365207365742061207061737A
:104B900073776F72642077697468203420706C6159
:104BA000636573203A000000E400002050617373D5
:104BB000776F7264207375636365737366756C6C6D
:104BC00079207365740000003C010020506C656121
:104BD000736520707265737320796F7572206669D2
:104BE0006E67657200000000506C6561736520702F
:104BF0007265737320796F75722066696E6765726E
:104C000020616761696E0000506C6561736520709A
:104C100072657373207468652066696E67657200DB
:104C200000000000F0B50022174B144600F580503C
:104C300002EB420653F826506DB10768BD420BD116
:104C400003EB860587686E68BE4205D12D89C6884C
:104C5000B54204D000E00124521C022AE8D3022A03
:104C600001D079B904E05CB9022909D01220F0BD65
:104C700002EB420003EB80004089B0F5807F01D059
:104C80000020F0BD1020F0BDDC24002030B5002154
:104C9000064A0C4601EB410352F82350854201D1EC
:104CA00042F82340491C0229F4D330BDDC24002003
:104CB00000F58050426A006800F580504389807892
:104CC0004343B1FBF3F0121D02CA19B1884203D36A
:104CD000401AF8E70020704711680844704700F553
:104CE0008050891E4269921E8A4201D80020704776
:104CF000826A807801FB002070472DE9F0418046F0
:104D00000F0000F5805407D0404600F0A9FF0228AC
:104D100009D20120BDE8F081E66816B16069B042B1
:104D200007D8012605E0411CF4D061698142F1D821
:104D30003E46354660696D1CA84202D80225022E07
:104D40000AD32946404600F08BFF38B1411CE1D020
:104D50000128DFD0B542EDD10020DBE76FF07042D3
:104D60002946404601F0DAFA30B957B12A463946A9
:104D7000404601F0D3FA20B101280DD00125284684
:104D8000C8E7E5602069411CF9D0401E20616079C8
:104D900040F001006071F2E74FF0FF35EFE70000EF
:104DA0002DE9F04789460C6800E0641C21782F2922
:104DB000FBD05C29F9D000F580500B2285692021B9
:104DC000284601F034F9002001460B460826E25C33
:104DD0005B1C202A35D92F2A33D05C2A31D02E2AC9
:104DE00001D0B04208D3082E38D12E2A36D108205F
:104DF0000B268906090EEAE7802A05D3234F41F0E6
:104E000003013A4412F8802C21A700E07F1C97F898
:104E100000C0BCF1000F02D09445F7D11EE0A2F112
:104E20004107192F02D841F0020107E0A2F1610702
:104E3000192F03D8203A41F00101D2B22A54401C64
:104E4000C5E71C44C9F80040202A01D8042200E02C
:104E5000002218B12878E52803D004E00620BDE838
:104E6000F08705202870082E01D18806010E01F078
:104E70000300012801D142F01002C1F38100012892
:104E800001D142F00802EA720020E8E70C7B00083A
:104E9000222A2B2C3A3B3C3D3E3F5B5D7C7F000051
:104EA000401E022815D20C4B00EB400203EB82019E
:104EB0004889B0F5807F05D008B1401E80B2488196
:104EC00010B104E00020FAE7002043F8220000209F
:104ED0007047022070470000DC24002008B5FEF770
:104EE0009AF928B1BDE8084040F2DC50FCF78CBAD2
:104EF0004FF6FF70002100904FF4A073F022084697
:104F0000FDF7C4FC0A21BDE8084002A20846FDF7EF
:104F10002FBD000044656C6574656420616C6C2075
:104F20006D6F64656C7300002DE9F04100F58054ED
:104F30000F46E688761C3004000C38D0216991B306
:104F4000206800F5805253895B09B6FBF3F503FB3B
:104F50001563002B67D1491C2161E16821B3538996
:104F600092785B09B6FBF3F3521E13425BD100F05B
:104F700077FE054601281FD9681C39D0206841F208
:104F800014010958A94248D86FB1E168FFF7B5FE8E
:104F900005000FD0012D0FD0681C29D0206801F02A
:104FA00051FD28BB0AE002E01089B0423BD8042042
:104FB000BDE8F0810720FBE70220F9E741F20A0192
:104FC00020680A5A002101F032F829462068FFF7CC
:104FD00086FE2168002701F580514FF00108C86264
:104FE0000FE000BF80F80480206801F02BFD08B1BD
:104FF0000120DDE7206800F58050C16A491C7F1C54
:10500000C162206800F580508178B942EAD82168F1
:1050100001F58051C96AC91BC162E5602946206853
:10502000FFF75DFE2061E68041F20A012068095A1F
:105030004909B6FBF1F201FB126100EB411060611E
:105040000020B5E770B50446002100F033F888B9B8
:1050500004F580552969286800F0F0FF50B96869A7
:105060000078E52809D040B101212046FFF75CFF18
:105070000028EFD0042809D009E004F58054216904
:10508000206800F0DBFF050003D011E00720054693
:105090000EE020220021606900F0C9FFD4E905017B
:1050A0000B2200F0BBFF2068012100F58050017148
:1050B000284670BD70B500F580540D46E180A368A8
:1050C000012B42D0206800F58050416999423CD9BB
:1050D00023B90178032906D1436A23B14189807835
:1050E0004E09464312E00189A9422ED9406A13E0D5
:1050F00000F0B6FD0346401C25D0022B25D32068C6
:1051000000F58050406998421FD9AD1B2068B54218
:105110001946EDD2FFF7E3FDE360B0B121680A461E
:1051200001F580514B895B09B5FBF3F3184420610D
:1051300048894009B5FBF0F100FB115002EB40102B
:105140006061002070BD012070BD022070BD0000B4
:10515000084910B50B5C002253B901220A540A1801
:1051600001EB8000127A40680168104688470246C9
:10517000104610BDF424002030B4054C231804EB75
:1051800080001B7A406804691846A44630BC60471A
:10519000F424002030B4054D2C1805EB8000247A4F
:1051A000406885682046AC4630BC6047F424002047
:1051B000044A111802EB8000097A406842680846E8
:1051C00010470000F424002030B4054D2C1805EBE6
:1051D0008000247A4068C5682046AC4630BC6047F1
:1051E000F42400202DE9F84F4FF01F094FF6FF7807
:1051F00006464C464546434622A22D210A20CDF8BC
:105200000090FDF7D5FB2B4628A24E210A200094E2
:10521000FDF7CEFB00242C4D4FF0640A202701E05F
:10522000042C00DA375501F009F928706420FCF7E6
:10523000EBF82A784E2AF6D02A2A12D0042C1ED057
:10524000232A0AD032550AEBC40080B243461B2100
:10525000CDF80090FDF750FB641C042CE0DDBDE8A8
:10526000F88F002CDCD0641E0AEBC40080B210233F
:1052700008221B21CDF80080FDF708FBEDE7232A6B
:10528000D1D1ECE75072657373202A20746F2064CB
:10529000656C657465207468652070726576696FE9
:1052A000757320706C616365000000005072657357
:1052B00073202320616674657220796F7520636F97
:1052C0006D706C6574650000D800002010B5044650
:1052D00000F0FFF900280DD1204601F0DCFB00288A
:1052E00008D104F58054A06AFFF7DAFD002801D147
:1052F0000021216010BD00002DE9F74181B09046EA
:1053000002980090684600F020FD040003D50B20B1
:1053100004B0BDE8F081104E002756F824502DB19E
:105320002846FFF7B3FC05F580552F70019800283B
:1053300003D000BF4FF480510F5446F8240002D030
:10534000B8F1010F01D00020E2E7002202A901A874
:1053500000F0F4FADCE700006C0100202DE9F74FC3
:10536000ADF5825D98B100F580564FF0000802F06F
:105370001F0741F2440127F0010269440DF58050F6
:10538000C6F8008000F0DAFA040006D0D4E0092064
:1053900013B00DF5805DBDE8F08F0DF580500DF573
:1053A00081518161EB46416C584600F0FDFB0400E1
:1053B0000DF5805045690BD11DB1780803D001214E
:1053C00002E0062404E000215846FFF72BFC0446C7
:1053D00017F01C0F74D04FF0010AE4B1042C13D164
:1053E0000020574902E0401C022805D200EB400291
:1053F00051F82220002AF6D1022804D05846FFF79F
:1054000021FE044600E012240DF5805047F0080705
:10541000456954B190E0E87A10F0110F01D00724EB
:105420008AE0780701D5082486E0380756D500F0D1
:105430008AFCA873010AE973010C2974000E6874D0
:1054400085F80B8085F81C8085F81D8085F81E8006
:105450000DF5805085F81F800068294600F0E0FCBB
:1054600081460021284601F091FA0DF58050B9F1EE
:10547000000F006800F5805080F804A02CD00DF5D6
:1054800080504946006800F58050D0F82CA00DF5FA
:105490008050006801F00EFA04004DD10DF58050E7
:1054A000A9F10101006800F58050C1600DF5805040
:1054B0005146006800F0C2FD04000BD03CE0FFE75D
:1054C000D4BBE87AC10601D5042435E0B90701D57B
:1054D000C007A4D1380701D547F020070DF580504B
:1054E000006800F58050C06AC6E90705780801D059
:1054F000012100E00021584600F046FCB062E8B10E
:10550000B7710DF5805086F8078047460068294638
:1055100000F086FC3061287FD5F81D1040EA01209C
:10552000C6E90270B7610DF580507762006830609F
:1055300000F58050C088B080204629E70224FBE7B0
:10554000DC2400202DE9F04F884687B000219946E1
:1055500015468346196001F09EFA002812D10BF51A
:105560008054E07900280DD1A079C00709D0D4E992
:105570000201081A01274FF0020A854200D90546A8
:10558000A2E0072007B0BDE8F08F2068A16800F511
:1055900080535E89B1FBF6F206FB1212002A73D12A
:1055A000B1FBF6F29B785B1E1A4012F0FF0610D199
:1055B00029B1626A2AB15846FFF77AFB04E02069F4
:1055C00002E0616900F04CFB02281FD3411C55D05A
:1055D000606161692068FFF782FBB8B130440090D8
:1055E000206800F580504189B5FBF1F1039151B37A
:1055F000721881788A4201D9891B0391407841460B
:10560000039B009AFFF7C6FDC0BB03E084F807A028
:105610000220B7E7A07940060ED5A1690098081AC4
:105620000399884208D2216801F580514A89594678
:1056300000FB028000F0F2FC206800F580504689F3
:105640000398464336E0A26900998A421AD0A179AC
:10565000490609D5407801235946FFF7B5FD68B9D9
:10566000A07920F04000A0712068012300F580504F
:1056700059464078009AFFF78DFD18B1E771012077
:1056800080E701E00098A0612068A16800F58050E3
:105690004089B1FBF0F200FB1212861AAE4200D92B
:1056A0002E46B1FBF0F200FB12115944324640463F
:1056B00000F0B4FCA068B0443044A060D9F8000009
:1056C0008119AD1BC9F80010002D7FF45EAF0020DA
:1056D00058E770B5054601F0DEF9002811D105F54F
:1056E0008054A1798A060CD548060FD5206801237D
:1056F00000F5805029464078A269FFF765FD08B1A2
:10570000012070BDA07920F04000A071E1692068FF
:1057100000F094FC0028F4D1256AE87A40F02000DB
:10572000E872207B2877A089000A6877E068000C7F
:10573000A877E068000EE8772846216901F026F98D
:1057400000F001FBA875010AE975010C2976000E2D
:1057500068760020A874E874A079012120F0200068
:10576000A071206800F5805001712068BDE870408C
:1057700001F014B92DE9FC5F8846002199461546D1
:105780008346196001F087F9002808D10BF5805491
:10579000E079002803D1A079800702D40720BDE872
:1057A000FC9FA068012741194FF0020A81427AD379
:1057B000B5E02068A168024600F580504389B1FB3E
:1057C000F3F603FB1616002E6ED1B1FBF3F38078CF
:1057D000401E034013F0FF0618D129B1606A38B1AA
:1057E0005846FFF765FA07E0206938B9002100E064
:1057F00061691046FFF781FA002854D0012833D0A0
:10580000411C62D06061216901B92061A079400624
:105810000DD52068012300F5805059464078A269D3
:10582000FFF7D2FCF0BBA07920F04000A0716169C5
:105830002068FFF754FAB8B130440190206800F5B1
:1058400080504189B5FBF1F1009171B372188178F4
:105850008A4201D9891B0091DDE900324078414636
:10586000FFF7B2FCF0B903E084F807A0022096E746
:10587000A1690198081A009988420CD2216801F5A3
:1058800080514A8900FB0281584600F0C7FBA0798D
:1058900020F04000A071206800F5805046890098F3
:1058A000464332E011E03DE014E0FFE7A169019AD0
:1058B00091420DD0D4E90212914209D240780123DD
:1058C0005946019AFFF766FC10B1E771012066E7BF
:1058D0000198A0612068A16800F580504089B1FB63
:1058E000F0F200FB1212861AAE4200D92E46B1FB2E
:1058F000F0F200FB121101EB0B003246414600F0C2
:105900008DFBA07940F04000A071A068B044304405
:10591000A060D9F80000AD1B3044C9F80000002D8C
:105920007FF447AFD4E90201884200D9E060A07952
:1059300040F02000A071002031E700002DE9FF5F5A
:105940004FF0000B0546C0F800B01746084600F0BF
:10595000FCF9060003D50B2004B0BDE8F09F8F488A
:1059600050F826409CB12C6004F58055287820B171
:105970006878FFF71DFCC1070BD085F800B0F0B2C6
:105980006870FFF7E5FBC10708D00320E4E70C20AF
:10599000E2E70FB1400704D40020DDE71FB1400764
:1059A00001D50A20D8E741F20A016218687802217D
:1059B000FFF7E2FB78BB6889B0F5007F34D3B0F520
:1059C000805F31D8002631462046FFF72DF80128A8
:1059D00026D100204FEA0D0204EB001191F8C231EC
:1059E00001F5DF712BB10B7AD1F8091043EA0121DF
:1059F00000E0002142F82010401C0428ECD30027CE
:105A00004FEA020858F8276036B131462046FFF7C2
:105A10000BF810B90AE007E002207F1C042FF1D335
:105A2000032801D0F0BB01E0012095E7B4F80B009A
:105A3000B5F80AC060455FD1E18A29B994F824001D
:105A4000D4F8251040EA0121A961207C8A46E8703B
:105A5000012801D002284FD100FB01F9607BA8701A
:105A600000B3411E084247D1B4F811104FEA5C124E
:105A7000B1FBF2F302FB131329819BB9B4F8137045
:105A80002FB994F82030D4F8217043EA0727E3892E
:105A900043B1B1FBF2F803EB0902424497422BD326
:105AA000BF1A00E028E0B7FBF0F028B3012740F66A
:105AB000F678404500D302274FF6F678404500D3EC
:105AC0000327801C3244AA6233446861C5E9076336
:105AD000032F13D081B103EB09016962022F18D0A3
