:020000040800F2
:1000000018080020CD010008631A000871150008C7
:10001000611A00086D030008D527000800000000E1
:100020000000000000000000000000003927000868
:100030006F03000800000000DD1A00083B270008DD
:10004000E7010008E7010008E7010008E7010008F0
:10005000E7010008E7010008E7010008E7010008E0
:10006000E701000881030008E7010008E701000834
:10007000E7010008E7010008E7010008E7010008C0
:10008000E7010008E7010008E7010008E7010008B0
:10009000E7010008E7010008E7010008E7010008A0
:1000A000E7010008E7010008E7010008E701000890
:1000B000E7010008E7010008E7010008E701000880
:1000C000E7010008E7010008E7010008E701000870
:1000D000E7010008E7010008E7010008E701000860
:1000E000E7010008E7010008E7010008E701000850
:1000F000E7010008E7010008E7010008E701000840
:10010000E7010008E7010008E7010008E70100082F
:10011000E7010008E7010008E7010008E70100081F
:10012000E7010008E7010008E7010008E70100080F
:1001300000F002F800F03AF80AA090E8000C8244BF
:100140008344AAF10107DA4501D100F02FF8AFF29C
:10015000090EBAE80F0013F0010F18BFFB1A43F0A5
:1001600001031847403B0000603B0000103A24BFE9
:1001700078C878C1FAD8520724BF30C830C144BF0C
:1001800004680C607047000000230024002500264E
:10019000103A28BF78C1FBD8520728BF30C148BFEA
:1001A0000B6070471FB51FBD10B510BD00F058F8AB
:1001B0001146FFF7F7FF03F0E7FA00F076F803B413
:1001C000FFF7F2FF03BC00F07DF80000094880470C
:1001D00009480047FEE7FEE7FEE7FEE7FEE7FEE729
:1001E000FEE7FEE7FEE7FEE704480549054A064B41
:1001F000704700008D270008310100081802002018
:100200001808002018040020180400204FF00002F5
:1002100000B5134694469646203922BFA0E80C50FC
:10022000A0E80C50B1F12001BFF4F7AF090728BFD7
:10023000A0E80C5048BF0CC05DF804EB890028BF53
:1002400040F8042B08BF704748BF20F8022B11F07C
:10025000804F18BF00F8012B7047704770477047F8
:10026000754600F02BF8AE4605006946534620F06F
:100270000700854618B020B5FFF7B6FFBDE820405F
:100280004FF000064FF000074FF000084FF0000B52
:1002900021F00701AC46ACE8C009ACE8C009ACE805
:1002A000C009ACE8C0098D46704710B50446AFF3ED
:1002B00000802046BDE81040FFF781BF004870472E
:1002C000B401002001491820ABBEFEE72600020061
:1002D000704700000146014800F0B3BEC80000208E
:1002E00010B5044800F0BFFE042801D0012010BD65
:1002F000002010BDC800002038B501208DF8000096
:100300009DF80000012801D0012038BD064800F00A
:10031000C0FE040006D14FF40061034800F068FD00
:1003200000B10124204638BDC800002038B50024A3
:10033000009313460A460146034800F031FF00B11E
:100340000124204638BD0000C800002038B5002434
:10035000009313460A460146034800F0FBFF00B134
:100360000124204638BD0000C8000020FEE7704789
:1003700001B5009801E0401E00900028FBD108BDA7
:1003800070B5114A1068000719D510480821037884
:1003900013B1012B0AD00EE00D4C102363610D4DFB
:1003A0002960012606702960236104E0094B1B1DAA
:1003B0001960022303701160082000F003F9BDE802
:1003C0007040082000F000B9140401409B00002098
:1003D0000010014010140140002200F001B800009C
:1003E00030B50E4B054601205C7A012C15D8587AA1
:1003F00000241C54587A03EB800045605D7A03F1B9
:1004000008002A54587A421C5A72303008703A2038
:1004100048702F208870CC70002030BDA8010020CB
:1004200030B5B3F5804F05D06FF0704140F8221021
:10043000002030BD8C690B688D6823434C68898926
:10044000240144EA0524234343EA014150F82230C1
:10045000014C23401943E9E70000F0CF30B50A68AA
:1004600050F8223023F0010340F822308C68204BF2
:100470004A68082C1ED02243D1E903452C4322436D
:100480004C6922438C692243CC6922430C6A224383
:100490004C6A22438C6A2243CC6A22430C6B096863
:1004A000224350F821401C4052EA040240F8212027
:1004B000002030BDD1E9034542F008022C4322431D
:1004C0004C6922438C692243CC6922430C6A224343
:1004D0004C6A22438C6A2243CC6A22430C6B096823
:1004E000224350F821401C40224342F04002DDE705
:1004F0008100F7FF30B5D1E9003443EA04138C687A
:100500008D89240244EA054423430C8A094D00EBFB
:10051000820005EB045423430C7D6D0105EB04645C
:10052000896923430B43416801F040410B43436019
:10053000002030BD0000F0FF70B5044600F04EF919
:100540000546601C02D004480078044400F046F9D7
:10055000401BA042FAD370BDB000002030B585B07A
:100560000020009001900290039012480168002939
:100570001ED1012101601048416941F4807141613F
:100580004069022400F4807004904FF68070CDE939
:100590000004032569460395084800F021F84CF64D
:1005A000B370CDE9000469460395054800F018F8DA
:1005B00005B030BDA400002000100240001801402A
:1005C0000014014070470000044910B50A68024257
:1005D00002D00860FFF7F6FF10BD000014040140D0
:1005E0002DE9F84FDFF8B8A100220AF1040B1446F8
:1005F00001274FF00F090BF1040E00BF0B6807FA3B
:1006000004F52B40AB4274D1DFF898C14E68A6EBDD
:100610000C0866452BD00DDC032E34D005DC36B338
:10062000012E19D0022E2FD11BE0112E16D0122E22
:100630002AD119E0B8F5881F19D006DCB8F5803F3B
:1006400015D0B8F5801F1FD111E0B8F5001F0ED0EE
:10065000B8F5041F18D10AE0CA6815E0CA68121D6F
:1006600012E0CA6808320FE0CA680C320CE08A68EF
:100670002AB1012A4FF0080203D0456104E00422A8
:1006800002E0056100E00022FF2B01D8064601E0F0
:1006900000F104064FEA840501D9A5F12005D6F83A
:1006A00000C009FA05F82CEA080C02FA05F54CEA34
:1006B000050CC6F800C04D68ED006AD53A4DAE692C
:1006C00046F00106AE61AD6924F0030605F00105B0
:1006D0000095364D06EB050CDCF80850A6074FEAEE
:1006E000167809FA08F6B543314EB04202D1002619
:1006F0001AE04EE02F4EB04201D1012614E02E4EFA
:10070000B04201D102260FE02C4EB04201D10326A7
:100710000AE02B4EB04201D1042605E0294EB0423A
:1007200001D1052600E0062606FA08F62E43CCF88D
:1007300008604D68DAF80060ED03554601D51E43A8
:1007400000E09E432E604D68AD0305D5DBF80060E8
:100750001E43CBF8006004E0DBF800509D43CBF86B
:1007600000504D68DEF80060ED02754601D51E436D
:1007700000E09E432E604D68AD0205D5084D0C3556
:100780002E681E432E6004E0054E0C3635689D43EE
:100790003560641C102CFFF431AFBDE8F88F000009
:1007A0000004014000001110001002400000014050
:1007B00000080140000C01400010014000140140FD
:1007C00000180140001C01408068084000D0012052
:1007D00070470AB1016170470904FBE7014880686E
:1007E00070470000B0000020024881680278114480
:1007F00081607047B0000020074810B5016841F0E3
:1008000010010160032000F073F8002000F006F8EA
:1008100000F024F8002010BD0020024070B50D4DFE
:1008200004464FF47A712878B1FBF0F00A49096860
:10083000B1FBF0F000F088FE48B9102C07D200227E
:100840002146501E00F034F800206C6070BD01207D
:1008500070BD0000B0000020AC0000200C4808B5BE
:10086000816941F001018161816901F0010100911B
:10087000C16941F08051C161C06900F080500090B1
:100880000448416821F0E06141F00071416008BD19
:10089000001002400000014000F01F0201219140C1
:1008A0004009800000F1E020C0F80011704700000E
:1008B000F0B40E4B1B680C46C3F30223C3F10705CB
:1008C000042D00D90425191D072901D2002300E0B9
:1008D000DB1E012606FA05F1491E214099409E4083
:1008E000761E16403143F0BC01F0BCB80CED00E0C0
:1008F000064900F0070208684FF6FF03184040EA77
:100900000220034A10430860704700000CED00E02D
:100910000000FA052DE9F047DFF8548105460E4640
:10092000D8F8000000F00700B0420CD2D8F8001050
:1009300021F007013143C8F80010D8F8000000F09A
:100940000700B0426FD128684A4C810712D5400792
:1009500003D5606840F4E06060602878000703D544
:10096000606840F4605060606068A96820F0F00042
:10097000084360602878C00744D06868012816D012
:100980002168022816D0890700294CDA616821F015
:10099000030101436160FFF721FF6968074641F2E7
:1009A000883001290ED00229814618D026E021681E
:1009B0008903E9E78901E7E7FFF710FFC11B494514
:1009C00001D918E081466068C0F381000128F3D1A5
:1009D00018E000BFFFF702FFC11B49450BD8606854
:1009E000C0F381000228F5D10CE000BFFFF7F6FE4E
:1009F000C11B494502D90320BDE8F087606810F0AB
:100A00000C0FF3D1D8F80010404601F00701B142B5
:100A10000BD9016821F0070131430160006800F043
:100A20000700B04201D00120E6E72878400705D54D
:100A30006068E96820F4E060084360602878000797
:100A400006D56068296920F4605040EAC100606002
:100A500000F016F86168084AC1F30311515CC84000
:100A6000064908600020FFF7D9FE0020C4E7000017
:100A70000020024000100240D43B0008AC000020DF
:100A800012A185B00FC98DE80F0014A0144A0068A8
:100A900004905168134801F00C03042B10D0082B6C
:100AA0000ED1C1F38343C9031DF803000AD5516871
:100AB00004AAC1F34041515C0A4A5043B0FBF1F033
:100AC00005B0704708494843FAE7000002030405EF
:100AD000060708090A0B0C0D0E0F1010010200008A
:100AE0000010024000127A0000093D002DE9F84F85
:100AF00004460078B94DC00748D06868C0F381004B
:100B0000012807D06868C0F38100022809D168680D
:100B1000C00306D52868800338D5606800286FD0E8
:100B200034E06068B0F5803F0BD010B1B0F5A02F75
:100B300011D0286820F480302860286820F48020B4
:100B400002E0286840F480302860606888B1FFF7D0
:100B500045FE064609E0286840F480202860F0E75A
:100B6000FFF73CFE801B642875D828688003F7D502
:100B70000CE0FFF733FE064605E000BFFFF72EFE50
:100B8000801B6428F0D828688003F7D42078944E1E
:100B900080074FF001094FF000083BD5686810F05E
:100BA0000C0F07D06868C0F38100022809D168687B
:100BB000C00306D42868800714D5206901281FD1F6
:100BC00010E02069B0B1C6F80090FFF707FE0746B5
:100BD00005E000BFFFF702FEC01B0228C4D828684A
:100BE0008007F7D52868616920F0F80040EAC10065
:100BF00028600FE0C6F80080FFF7F0FD074606E02A
:100C0000E9E000BFFFF7EAFDC01B022823D82868EF
:100C10008007F7D4207800072CD57248A169D9B194
:100C2000C0F80090FFF7DAFD074604E0FFF7D6FDB5
:100C3000C01B02280FD8686A8007F7D56A484FF4AE
:100C4000FA510068B0FBF1F0009000BF0098411E1F
:100C50000091FAD20EE080E0C0F80080FFF7BEFD00
:100C6000074604E0FFF7BAFDC01B022875D8686A82
:100C70008007F7D42078400760D5E8690027C000D6
:100C800008D4E86940F08050E861E869012700F085
:100C90008050009055480168C90513D40168834607
:100CA00041F480710160FFF799FD824606E000BFC4
:100CB000FFF794FDA0EB0A0064284ED8DBF8000093
:100CC000C005F5D5E06801280AD008B1052813D081
:100CD000286A20F001002862286A20F0040002E05F
:100CE000286A40F001002862E06841F2883B98B130
:100CF000FFF774FD82460BE0286A40F0040028628A
:100D0000EEE700BFFFF76AFDA0EB0A0159455AD88C
:100D1000286A8007F6D50CE0FFF760FD824605E003
:100D2000FFF75CFDA0EB0A0159454CD8286A800703
:100D3000F6D41FB1E86920F08050E861E06988B31B
:100D40006968C1F38101022945D00228C6F8608094
:100D500004D0FFF743FD044638E034E0FFF73EFDE2
:100D6000074604E0FFF73AFDC01B02282BD828688D
:100D70008001F7D4206AB0F5803F05D16868A1688A
:100D800020F4003008436860D4E90801084369682A
:100D900021F4741108436860C6F86090FFF71EFDE7
:100DA000044606E015E000BFFFF718FD001B02280F
:100DB00009D828688001F7D50BE000BFFFF70EFDCA
:100DC000001B022802D90320BDE8F88F28688001A3
:100DD000F4D40020F8E70120F6E7000000100240FC
:100DE0000000424280044242AC00002000700040FB
:100DF000FEB5044603200D4684F83400606C0328D9
:100E000020D0B5F5805F1DD0B5F5006F05D045B198
:100E1000A06B40F00060A06309E0204601F0E1FB18
:100E200002E0204601F0B6FBA16B0143A163A06B79
:100E3000012658B1216840F2FF50886384F834607D
:100E40000120FEBDA06B40F08050E4E7211DD4E9F5
:100E500005700EC90095CDE90170206800F058FFBB
:100E600084F834600020FEBDF0B5426E120E930986
:100E70000B70C2F383034B7002F003028A70426E60
:100E8000120CCA70B0F86420120A0A7190F864203B
:100E90004A71826E4FF6FF73120E03EA0212CA8085
:100EA000826ECB88C2F3074243EA1213CB8002F072
:100EB0000F020A72B0F86820C2F30722D3094B72FE
:100EC000C2F380138B72C2F34013CB72C2F30013D0
:100ED0000B7300264E73446C4FF4007701236CB102
:100EE000012C43D0026840F2FF519163816B41F0C5
:100EF0008051816380F834300120F0BD9207120DDB
:100F00000A6190F868200C6944EA82020A61C26EA4
:100F10000C69120E44EA92140C61C2F3C2040C75FF
:100F200002F007024A75C26EC2F3074254098C757B
:100F3000C2F38204CC759207520F0A76B0F86C2087
:100F4000C2F307240A7E42EAD4120A760A69521CC6
:100F500042650D7EAD1CAA4042650D7A03FA05F587
:100F600085656D0A6A43C0E917271CE090F8682080
:100F70009206920A0A61C26E0C69120E44EA0222BB
:100F80000A61C26E0C69C2F3074214430C61B0F8E7
:100F90006C20C2F307240A69521C4FEA8222426580
:100FA000C0E916720766C4F3801201F8192F4FEAE0
:100FB00084624FEA52624A7010F86C2F4C7844EA0F
:100FC000D2144C7002F07F028A7042684FEA1262BB
:100FD0004FEAD214CC70C2F341140C71C2F38204F4
:100FE0004C714FEA82724FEA12728A7142688C79B0
:100FF000C2F3074244EA92148C71C2F34014CC71DC
:101000000E7202F001024A728288C2F307224FEA8E
:10101000D2148C72C2F38014CC72C2F340140C73DD
:10102000C2F300144C73C2F381048C7302F0030208
:10103000CA7300794FEA500008744B744FF00000F7
:10104000F0BD426C0A60826C4A60C26C8A60026DBC
:10105000CA60426D0A61826D4A61C26D8A61006E2A
:10106000C8610020704770B50446B0F850000025F4
:101070000104206800F0CBFF18B1A16B0143A1630C
:1010800004E00021206800F03DFE0546C5F3432042
:1010900070BD70B5040004D094F83400002510B180
:1010A00005E0012070BD2577204600F037F80320C9
:1010B00084F83400204600F007F8A563256301207A
:1010C00084F83400002070BDFEB500250446C3201E
:1010D0000095CDE901502B462A462946206800F0AC
:1010E00017FE0D4E46F8A05F206800F023FE012594
:1010F00035600220FFF720FA204601F0FAF920B906
:10110000204601F083F9002805D084F83450A16B03
:101110000143A1630120FEBD0000304230B585B01F
:1011200000210091019102910391006818498842C1
:101130002BD11848416941F480614161416901F452
:1011400080610491816941F010018161816901F040
:1011500010010491816941F02001816180690224BC
:1011600000F0200004904FF4F850CDE9000403256E
:10117000694603950848FFF733FA0420CDE90004D7
:10118000694603950548FFF72BFA05B030BD00000E
:101190000080014000100240001001400014014096
:1011A0002DE9F04F87B09A4617460E460446DDF803
:1011B00040B0FFF713FB00903EB194F834000128D3
:1011C00007D0A06B40F000500FE0A06B40F0006033
:1011D0000BE04FF00008C4F83880E06D07EB0A011F
:1011E000814204D9A06B40F00070A0637DE0032031
:1011F00084F834002068C0F82C80606C012800D08E
:101200007F024FF40071206800F0E4FD40F2FF59C6
:10121000012530B12268C2F83890A16B0143A16367
:1012200061E04FF0FF3001904FEA4A200290902099
:1012300003900220CDE90408069501A9206800F07A
:101240004BFDBAF1010F06D9022020633946206810
:1012500000F04EFE04E025633946206800F061FE90
:101260000028D7D140F22A382068416B11EA080FD4
:1012700022D1406B000409D50027206800F05EFDF4
:1012800046F827007F1C082FF7D32036BBF1000F4C
:1012900005D0FFF7A3FA0099411A5945E4D3216814
:1012A000C1F83890A06B40F00040A06384F834503F
:1012B000032007B0BDE8F08F416BC90509D5BAF12D
:1012C000010F06D9616C032903D000F0D1FE00287C
:1012D000A0D12068416B090709D5C0F83890A06BF0
:1012E00040F0080028E084F834500120E1E7416B29
:1012F000890705D5C0F83890A06B40F002001BE0CC
:10130000416B89061AD5C0F83890A06B40F02000D8
:1013100012E000BF00F012FD01C6BBF1000F05D0C6
:10132000FFF75CFA0099411A594507D32168C1F8C3
:101330003890A06B40F00040A063D4E72068416B78
:101340008902E7D42168C1F8389084F8345000202D
:10135000AFE700002DE9F04F87B09A4616460D46DC
:101360000446FFF73BFA06903DB194F8340001289B
:1013700007D0A06B40F000500DE0A06B40F0006083
:1013800009E00020A063E26D06EB0A01914204D956
:10139000A06B40F00070A06390E0032184F834104B
:1013A00021688146C862606C012800D076024FF443
:1013B0000071206800F00EFD40F2FF58012730B1A7
:1013C0002268C2F83880A16B0143A16317E0BAF12B
:1013D000010F06D9202020633146206800F062FE0C
:1013E00005E0102020633146206800F074FE0600FE
:1013F00008D02168C1F83880A06B3043A06384F81E
:1014000034705BE04FF0FF3000904FEA4A200190CB
:10141000902002904846CDE90407CDF80C90B946DB
:101420006946206800F058FC40F21A3B22E0406B0D
:1014300040040AD55FF0000705EB8701206800F043
:1014400090FC7F1C082FF7D32035109830B1FFF7A0
:10145000C5F90699411A109881420BD32168C1F849
:101460003880A06B3043A06384F83490032007B029
:10147000BDE8F08F2068416B11EA0B0FD7D0416BAC
:10148000C9050FD5BAF1010F0CD9616C032909D038
:1014900000F0EEFD30B12268C2F83880A16B014344
:1014A000A16309E02068416B090709D5C0F83880BD
:1014B000A06B40F0080014E084F834900120D6E7D7
:1014C000416B890705D5C0F83880A06B40F0020059
:1014D00007E0416BC0F83880C90604D5A06B40F026
:1014E0001000A063E8E784F834900020BFE770B5EF
:1014F00015460E46040003D094F83D0010B107E0F5
:10150000012070BD002084F83C00204600F01AF84D
:1015100004F108012068FEF7A1FF3146A2682068A7
:10152000FEF7E8FFD4E901022946236BFEF778FFB6
:10153000A168206850F8212042F0010240F82120E3
:10154000002070BDFFF70AB810B5401EB0F1807FD3
:1015500001D3012010BD4FF0E02460610F2160171E
:1015600000F080FA0020A06107202061002010BD5B
:10157000FEE700002DE9F04700F036F80027124D95
:10158000DFF8488020244FF4A07900266C61D8F859
:1015900000102C6101F47F416C61D8F800002C61CF
:1015A000C0F30720084300F05FF9761CB6B24E4541
:1015B000ECD37F1CBFB2F02FE7D3BDE8F0474FF468
:1015C0007A70FEF7B9BF000000100140080C01401E
:1015D000044B4FF4805108B1002200E0012218466C
:1015E000FFF7F7B8001401403620010708800B48C8
:1015F000682202802A220A800022028002800122C0
:1016000002803F2202802B220A8000220280028078
:101610000280EF2202802C200880704700000260C8
:1016200070B51D461446049E00F028F804FB05F032
:101630003146BDE8704000F001B8000010B500224E
:101640002C23DC062380034B01E01980521C8242CC
:10165000FBD310BD0000026008B50120FFF7B8FF02
:1016600000F0E8F800F02AF800204FF4A073F02210
:1016700001460090FFF7D4FF08BD000070B54FF0A1
:10168000C0452A242C800C4C060A2680C6B226802F
:101690001044401E020A2280C0B220802B202880E5
:1016A000080A2080C8B22080C818401E010A218084
:1016B000C0B2208070BD00000000026000B54FF095
:1016C000C041CF2008805948002202808122028038
:1016D00030220280ED220A806422028003220280EE
:1016E0001222028081220280E8220A808522028062
:1016F0001022028078220280CB220A8039220280C6
:101700002C220280002202803422028002220280E7
:10171000F7220A8020220280EA220A800022028028
:101720000280B1220A80002202801B220280B6229F
:101730000A800A220280A2220280C0220A80352268
:101740000280C1220A8011220280C5220A8045221D
:1017500002800280C7220A80A2220280F2220A802E
:101760000022028026220A8001220280E0220A80D2
:101770000F22028026220280242202800B22028075
:101780000E2202800922028054220280A8220280B6
:10179000462202800C220280172202800922028047
:1017A0000F2202800722028000220280E1220A80AA
:1017B00000220280192202801B2202800422028061
:1017C00010220280072202802A2202804722028001
:1017D0003922028003220280062202800280302207
:1017E0000280382202800F22028036220A80C8221C
:1017F00002802A220A800022028002800280EF22D8
:1018000002802B220A8000220280028001220280B4
:101810003F2202803A220A8055220280112008804D
:101820000348FEF7A5FD2920088000BD00000260E6
:10183000FCBF020070B50A4C002202212046FEF7D0
:10184000C8FF084D2846FEF793FD012202212046DD
:10185000FEF7BFFF2846BDE87040FEF789BD0000D7
:1018600000180140FCBF02000149088070470000D9
:101870000000026010B504490448FEF7ADFD0249BE
:10188000491E087010BD00009D000020903C00081B
:1018900000B587B01C216846FEF7B8FC15484FF02C
:1018A0002041102201601449416000218160C16023
:1018B000C0E904128161C16113020162C0E9091328
:1018C000C1620163416381630F20FF230090CDE972
:1018D0000103CDE903021120CDE90501002269468B
:1018E0000448FFF704FE0548C16941F48061C16105
:1018F00007B000BD4C010020040100A00000014021
:101900002DE9F04F85B000244E48009401940294D4
:101910000394816941F010018161816901F0100136
:101920000491816941F004018161816901F0040140
:101930000491816941F040018161816901F04001B8
:101940000491816941F008018161816901F0080118
:101950000491816941F0200181618069DFF8E880AC
:1019600000F02000049000220C214046FEF731FFD9
:10197000DFF8D8A00022F0215046FEF72AFFDFF85A
:10198000D09041F20807002239464846FEF721FF71
:10199000DFF8C0B0002202215846FEF71AFF0820E7
:1019A00000902D48CDE9010469465046FEF718FE27
:1019B0000125CDE90054694640460294FEF710FE29
:1019C0000C200326CDE90005CDE9024669464046D4
:1019D000FEF706FE3020CDE90005CDE90246694656
:1019E0005046FEF7FDFD4FF47F40CDE90004694607
:1019F0001A480294FEF7F4FD00970396CDE90154CE
:101A000069464846FEF7ECFDC020009001AA11206F
:101A100082E8510069465046FEF7E2FD0220CDE91A
:101A20000005CDE9024669465846FEF7D9FD002279
:101A300011460920FEF73CFF0920FEF72DFF05B0F7
:101A4000BDE8F08F00100240000801400010014086
:101A5000001401400018014000002110000C01405A
:101A6000FEE770470907090E002806DA00F00F00AC
:101A700000F1E02080F8141D704700F1E02080F8AC
:101A800000147047F8B500248DF800408021122022
:101A900000F0FCF800280BD00B220121684600F072
:101AA0001FF8002804D09DF80000212801D0002054
:101AB000F8BD094D6E1E0AE005EB4400417815F8AB
:101AC000140000F0E3F80028F2D0641CA4B23078CF
:101AD0008442F1D30120F8BD0100002070470000CE
:101AE0002DE9F04714468846814600F081F8002829
:101AF0001DD0422000F05AF800F0AEF8A0B1204608
:101B000000F054F800F0A8F800F092F800F070F837
:101B100000280CD0432000F049F800F09DF8224C3A
:101B20004FF0800A402698BB00F082F80020BDE804
:101B3000F0870025C4F810A007276806050E666127
:101B400000F0C3F8266100F0C0F880212046FEF7BF
:101B50003BFE08B145F001057F1EFFB2EDD2666184
:101B600089F80050B8F1010F666118D000F0ADF8A7
:101B7000C4F814A000F0A9F8266100F0A6F8666188
:101B800000F0A3F8A8F1010009F101091FFA80F89B
:101B9000B8F1000FCDD100F04BF80120C7E700F0FD
:101BA00094F8C4F810A0E5E7001001402DE9F041D9
:101BB000082507464FF0800840260C4C0FE000BF78
:101BC00000F083F83806404601D5206100E06061EE
:101BD0007806070E00F079F8266100F076F86D1EA1
:101BE000EDB26661ECD2BDE8F0810000001001406A
:101BF00070B50E4C802525614020206100F065F80D
:101C000080212046FEF7E0FD002808D0656100F045
:101C10005CF880212046FEF7D7FD08B1002070BD9A
:101C2000656100F052F8012070BD00000010014015
:101C300070B5084C4025656100F047F88026666164
:101C400000F043F8256100F040F82661BDE87040DF
:101C500000F03BB80010014070B50B4D40246C61A2
:101C600000F033F88020286100F02FF82C6100F09C
:101C70002CF880212846FEF7A7FD6C6108B10020F2
:101C800070BD012070BD00000010014070B50D4610
:101C90000446FFF7ADFF002812D04220FFF786FF71
:101CA000FFF7DAFF68B1E0B2FFF780FFFFF7D4FF7C
:101CB0002846FFF77BFFFFF7CFFFFFF7B9FF0120B3
:101CC00070BDFFF7B5FF002070BD4FF4C870401E17
:101CD0000004000CFBD170470A6842624A688262C5
:101CE000D1E902231A43D1E904310B43C16A1A43F3
:101CF00021F0F7011143C16200207047006800F035
:101D00000300704708B5084414300090006808BD0F
:101D100070B50DF1100C11439CE87000234319437A
:101D200029434268314347F6FF639A430A434260BE
:101D3000002070BD0321016000207047D0F88000B2
:101D400070470A688260D1E901231A43D1E903315F
:101D50000B43C1681A436FF30B011143C1600020AC
:101D600070470968C0F880100020704710B586B031
:101D700004463720CDE90010402002900020039057
:101D80004FF48060049069462046FFF7DAFF41F285
:101D900088323721204600F0B7F906B010BD0000A8
:101DA00010B504460A4886B001432920CDE9001049
:101DB00040200290002003904FF480600490694618
:101DC0002046FFF7BEFF204600F054FA06B010BDD3
:101DD0000000108010B586B004461020CDE9001038
:101DE00040200290002003904FF4806004906946E8
:101DF0002046FFF7A6FF41F288321021204600F06E
:101E000083F906B010BD10B586B004460620CDE9B2
:101E1000001040200290002003904FF48060049056
:101E200069462046FFF78DFF41F2883206212046A1
:101E300000F06AF906B010BD30B585B00024054643
:101E4000009401944FF480600294CDE90340694608
:101E50002846FFF776FF0B484FF4FA510068B0FBB5
:101E6000F1F041F288314843401E03D24FF0004068
:101E700005B030BD696B0906F6D540F2FF50A86386
:101E80002046F5E7AC00002070B585B004464FF45D
:101E9000D570009008204026CDE901060025C0013C
:101EA000CDE9035069462046FFF74BFF0F484FF43A
:101EB000FA510068B0FBF1F041F288314843401E0E
:101EC00002D24FF000450DE0616B11F0450FF6D0E6
:101ED000606B400702D5A663042503E0606B4006F3
:101EE00000D5A66305B0284670BD0000AC000020F8
:101EF00010B586B004461220CDE9001040200290B3
:101F0000002003904FF48060049069462046FFF75C
:101F100018FF41F288321221204600F0F5F806B091
:101F200010BD10B586B004461120CDE90010402048
:101F30000290002003904FF4806004906946204690
:101F4000FFF7FFFE41F288321121204600F0DCF855
:101F500006B010BD10B586B004460720CDE90020BC
:101F600040200290002003904FF480600490694666
:101F70002046FFF7E6FE41F288320721204600F0B6
:101F8000C3F806B010BD10B586B00446002102208B
:101F9000CDE90010C020CDE902014FF4806004902B
:101FA00069462046FFF7CDFE204600F03BF906B01B
:101FB00010BD10B586B004460920CDE90010C02040
:101FC0000290002003904FF4806004906946204600
:101FD000FFF7B7FE204600F025F906B010BD10B59A
:101FE00086B0044600213320CDE900104020CDE921
:101FF00002010001049069462046FFF7A2FE41F26B
:1020000088323321204600F07FF806B010BD10B5AD
:1020100086B004460D20CDE900104020029000203B
:1020200003904FF48060049069462046FFF789FED4
:1020300041F288320D21204600F066F806B010BD4E
:1020400030B585B00C46054600210320CDE90010CF
:102050004020CDE902010001049069462846FFF7BF
:1020600070FE22460321284600F024F905B030BD59
:1020700010B586B0044600210C20CDE900104020A8
:10208000CDE902010001049069462046FFF759FEA0
:10209000034A0C21204600F037F806B010BD0000BE
:1020A00000E1F50510B586B004461920CDE9001011
:1020B00040200290002003904FF480600490694615
:1020C0002046FFF73EFE41F288321921204600F0FB
:1020D0001BF806B010BD10B586B004461820CDE937
:1020E000001040200290002003904FF48060049084
:1020F00069462046FFF725FE41F288321821204626
:1021000000F002F806B010BD444B10B51B684FF448
:10211000FA54B3FBF4F353435B1E02D24FF000407A
:1021200010BD426B12F0450FF6D0426B520703D53B
:1021300004218163084610BD426BD20702D0012101
:10214000816303E00269D2B28A4201D0012010BD4E
:1021500040F2FF5181630021FFF7D4FD304908426E
:1021600001D1002010BD002802DA4FF0007010BD30
:10217000410001D5402010BD810001D5802010BD57
:10218000C10002D54FF4807010BD010102D54FF49B
:10219000007010BD410102D54FF4806010BDC10137
:1021A00002D54FF4006010BD010202D54FF48050FB
:1021B00010BD410202D54FF4005010BD810202D57E
:1021C0004FF4804010BDC10202D54FF4004010BD55
:1021D000410302D54FF4003010BD810302D54FF406
:1021E000802010BDC10302D54FF4002010BD0104B2
:1021F00002D54FF4801010BD410402D54FF40010F9
:1022000010BD810402D54FF4800010BD000702D537
:102210004FF4000010BD4FF4803010BDAC00002022
:1022200008E0FFFD12494FF4FA520968B1FBF2F1E0
:1022300041F288325143491E02D24FF000407047AC
:10224000426B12F0450FF6D0416B490703D50421CC
:10225000816308467047416BC90703D00121816340
:102260000846704740F2FF5181630020704700002C
:10227000AC0000200E494FF4FA520968B1FBF2F1AC
:1022800041F288325143491E02D24FF0004070475C
:10229000426B12F0450FF6D0416B490703D504217C
:1022A00081630846704740F2FF5181630020704708
:1022B000AC0000201F4B10B51B684FF4FA54B3FB61
:1022C000F4F341F2883463435B1E02D24FF00040C6
:1022D00010BD446B14F0450FF6D0436B5B0703D57C
:1022E00004218163084610BD436BDB0702D0012146
:1022F000816303E00369DBB28B4201D0012010BD92
:1023000040F2FF5181630021FFF7FCFC10F4604FA5
:1023100004D0410406D54FF4005010BD000C1080CD
:10232000002010BD000402D54FF4805010BD4FF4C2
:10233000803010BDAC0000202DE9F04F89B00E4672
:102340000446FEF74BFA00258346009501952F467B
:1023500008212068FFF73EFD002834D1B4F8500072
:1023600001042068FFF702FD00282CD1401E4FF029
:102370000808CDE9020830204FF00209CDE9040930
:102380000120CDE9067002A92068FFF7A5FC2068AE
:10239000FFF725FE002816D1EA4640F22A472068BA
:1023A000416B394212D1416B890204D5FFF7C6FC5B
:1023B0004AF825006D1CFEF711FAA0EB0B00401C3B
:1023C000EDD14FF0004009B0BDE8F08F416B090737
:1023D00003D5C0F838800820F5E7416B890703D59D
:1023E000C0F838900220EEE7416B890603D5202122
:1023F00081630846E7E740F2FF518163009800BA25
:102400007060019800BA30600020DCE710B590B031
:1024100004460120ADF838002068FFF76FFC002863
:1024200064D0606C032842D02068FFF7ACFD002820
:102430005AD100212068FFF765FC606704212068FD
:10244000FFF760FCA06708212068FFF75BFCE067EE
:102450000C212068FFF756FCC4F88000606C03284C
:1024600025D00EA92068FFF7EBFD00283CD1606C59
:1024700003281CD0BDF83800206501042068FFF750
:1024800098FD002830D100212068FFF73BFC6066F2
:1024900004212068FFF736FCA06608212068FFF7BA
:1024A00031FCE0660C212068FFF72CFC206704213A
:1024B0002068FFF727FC000DE06403A92046FEF723
:1024C000D3FCB4F85000002302042068FFF742FD5B
:1024D000002809D104F1100007C88DE8070094E82E
:1024E0000F00FFF715FC002010B010BD4FF080600A
:1024F000FAE72DE9F8430025044600950068FFF748
:102500009BFC00281AD12068FFF7BEFC4FF08078B2
:102510004FF6FF76D8B14FF08057A5640098411C64
:102520000091B0421AD000212068FFF71FFC20B9AB
:1025300000212068FFF734FC10B13846BDE8F8836D
:1025400000212068FFF7DEFBC00FE7D01FE0012766
:10255000A7640098411C0091B04201D14046EDE7CC
:1025600000212068FFF702FC0028E7D14FF08041EE
:102570002068FFF715FC0028E0D100212068FFF754
:10258000C1FBC10FE5D0400001D5676400E0656480
:102590000020D3E71CB504460020009001900021E4
:1025A0002068FFF7AFFB800102D54FF400601CBD2F
:1025B00069462046FFF7C0FE0028F8D10198C00305
:1025C0000CD5B4F8500001042068FFF7CFFB0028B9
:1025D000EDD100212068FFF716FC1CBD4FF0806094
:1025E0001CBD1CB50446002000900190002120680D
:1025F000FFF788FB800102D54FF400601CBD6946DF
:102600002046FFF799FE0028F8D1019840030CD529
:10261000B4F8500001042068FFF7A8FB0028EDD1B2
:1026200002212068FFF7EFFB1CBD4FF080601CBD4E
:1026300010B5064C01202070FDF75EFE18B9207819
:1026400020F001002070207810BD0000C4000020A0
:1026500010B5124888B014460078C00702D0032095
:1026600008B010BDB9B1012905D0022908D003294D
:102670000CD00420F4E76846FDF72CFE069809E02C
:102680006846FDF727FE0798208004E06846FDF7BE
:1026900021FE079820600020E2E70000C40000202F
:1026A0002DE9F0411E46174608460125094C0A4B04
:1026B00032463946FDF73AFE28B109E0641E02D2DF
:1026C0000120BDE8F081FDF70BFE0028F6D10025C2
:1026D0002846F6E7A086010000E1F50510B5064C96
:1026E00001202070FDF7FCFD18B9207820F00100D2
:1026F0002070207810BD0000C40000202DE9F041BA
:102700001E46174608460125094C0A4B32463946F3
:10271000FDF71CFE28B109E0641E02D20120BDE8CD
:10272000F081FDF7DDFD0028F6D100252846F6E70B
:10273000A086010000E1F5057047FEF755B830B5F9
:102740008FB028216846FDF761FD14210AA8FDF726
:102750005DFD01210804CDE900100024029402254A
:102760000491CDE907504FF4E01009906846FEF758
:10277000BDF90F20CDE90A056802CDE90C40022120
:102780000AA80E94FEF7C6F80FB030BD0D480168D8
:1027900041F00101016041680B4A1140416001684C
:1027A0000A4A11400160016821F4802101604168FA
:1027B00021F4FE0141604FF41F0181600449C00310
:1027C00008607047001002400000FFF8FFFFF6FEAF
:1027D00008ED00E0FEE7000010B5044600F580506B
:1027E00000220271521EC262204601F07BF808B13D
:1027F000032010BDB4F8FE01A0F52A41553901D0DF
:10280000022010BD94F83600B4F8371040EA0121D8
:102810000848B0EB012F08D094F85210B4F85320B8
:1028200041EA0221B0EB012F01D1002010BD0120AF
:1028300010BD000000464154F0B50022174B14466D
:1028400000F5805002EB420653F826506DB1076840
:10285000BD420BD103EB860587686E68BE4205D189
:102860002D89C688B54204D000E00124521C022AFA
:10287000E8D3022A01D079B904E05CB9022909D071
:102880001220F0BD02EB420003EB80004089B0F55E
:10289000807F01D00020F0BD1020F0BD900100200D
:1028A00030B50021064A0C4601EB410352F8235093
:1028B000854201D142F82340491C0229F4D330BD9E
:1028C0009001002000F58050426A006800F58050B9
:1028D000438980784343B1FBF3F0121D02CA19B15A
:1028E000884203D3401AF8E7002070471168084473
:1028F000704700F58050891E4269921E8A4201D8B5
:1029000000207047826A807801FB002070472DE923
:10291000F04180460F0000F5805407D0404600F09B
:1029200047FE022809D20120BDE8F081E66816B111
:102930006069B04207D8012605E0411CF4D0616906
:102940008142F1D83E46354660696D1CA84202D8E6
:102950000225022E0AD32946404600F029FE38B14E
:10296000411CE1D00128DFD0B542EDD10020DBE7EA
:102970006FF070422946404600F0D0FF30B957B1A1
:102980002A463946404600F0C9FF20B101280DD043
:1029900001252846C8E7E5602069411CF9D0401EA2
:1029A0002061607940F001006071F2E74FF0FF357F
:1029B000EFE700002DE9F04789460C6800E0641C51
:1029C00021782F29FBD05C29F9D000F580500B220B
:1029D00085692021284600F07EFF002001460B4635
:1029E0000826E25C5B1C202A35D92F2A33D05C2ACA
:1029F00031D02E2A01D0B04208D3082E38D12E2A49
:102A000036D108200B268906090EEAE7802A05D36D
:102A1000234F41F003013A4412F8802C21A700E033
:102A20007F1C97F800C0BCF1000F02D09445F7D18D
:102A30001EE0A2F14107192F02D841F0020107E080
:102A4000A2F16107192F03D8203A41F00101D2B257
:102A50002A54401CC5E71C44C9F80040202A01D86C
:102A6000042200E0002218B12878E52803D004E011
:102A70000620BDE8F08705202870082E01D18806C1
:102A8000010E01F00300012801D142F01002C1F350
:102A90008100012801D142F00802EA720020E8E733
:102AA000E43B0008222A2B2C3A3B3C3D3E3F5B5D39
:102AB0007C7F0000401E022815D20C4B00EB400228
:102AC00003EB82014889B0F5807F05D008B1401E34
:102AD00080B2488110B104E00020FAE7002043F8FA
:102AE0002200002070470220704700009001002063
:102AF0002DE9F04100F580540F46E688761C30043D
:102B0000000C38D0216991B3206800F580525389B8
:102B10005B09B6FBF3F503FB1563002B67D1491C7A
:102B20002161E16821B3538992785B09B6FBF3F325
:102B3000521E13425BD100F03BFD054601281FD910
:102B4000681C39D0206841F214010958A94248D8BC
:102B50006FB1E168FFF7DBFE05000FD0012D0FD04C
:102B6000681C29D0206800F0F7FF28BB0AE002E0CB
:102B70001089B0423BD80420BDE8F0810720FBE774
:102B80000220F9E741F20A0120680A5A002100F008
:102B9000A2FE29462068FFF7ACFE2168002701F558
:102BA00080514FF00108C8620FE000BF80F8048038
:102BB000206800F0D1FF08B10120DDE7206800F5B2
:102BC0008050C16A491C7F1CC162206800F580509A
:102BD0008178B942EAD8216801F58051C96AC91BD8
:102BE000C162E56029462068FFF783FE2061E68028
:102BF00041F20A012068095A4909B6FBF1F201FBCA
:102C0000126100EB411060610020B5E770B5044629
:102C1000002100F033F888B904F580552969286847
:102C200000F060FE50B968690078E52809D040B12D
:102C300001212046FFF75CFF0028EFD0042809D0CF
:102C400009E004F580542169206800F04BFE05007E
:102C500003D011E0072005460EE020220021606924
:102C600000F039FED4E905010B2200F02BFE2068AC
:102C7000012100F580500171284670BD70B500F546
:102C800080540D46E180A368012B42D0206800F5F6
:102C90008050416999423CD923B90178032906D172
:102CA000436A23B1418980784E09464312E0018985
:102CB000A9422ED9406A13E000F07AFC0346401C7A
:102CC00025D0022B25D3206800F58050406998421A
:102CD0001FD9AD1B2068B5421946EDD2FFF709FE9A
:102CE000E360B0B121680A4601F580514B895B0968
:102CF000B5FBF3F31844206148894009B5FBF0F1B6
:102D000000FB115002EB40106061002070BD0120FB
:102D100070BD022070BD0000084910B50B5C002298
:102D200053B901220A540A1801EB8000127A406854
:102D30000168104688470246104610BDA8010020D1
:102D400030B4054C231804EB80001B7A40680469FA
:102D50001846A44630BC6047A801002030B4054D99
:102D60002C1805EB8000247A406885682046AC4624
:102D700030BC6047A8010020044A111802EB800013
:102D8000097A40684268084610470000A801002000
:102D900030B4054D2C1805EB8000247A4068C568D6
:102DA0002046AC4630BC6047A801002010B5044660
:102DB00000F038F900280DD1204600F0F6FE00287A
:102DC00008D104F58054A06AFFF774FE002801D1F1
:102DD0000021216010BD00002DE9F74181B090462F
:102DE00002980090684600F058FC040003D50B20C0
:102DF00004B0BDE8F081104E002756F824502DB1E4
:102E00002846FFF74DFD05F580552F7001980028E5
:102E100003D000BF4FF480510F5446F8240002D075
:102E2000B8F1010F01D00020E2E7002202A901A8B9
:102E300000F02CFADCE70000C00000202DE9F74F7D
:102E4000ADF5825D98B100F580564FF0000802F0B4
:102E50001F0741F2440127F0010269440DF580503B
:102E6000C6F8008000F012FA040006D0D4E0092071
:102E700013B00DF5805DBDE8F08F0DF580500DF5B8
:102E800081518161EB46416C584600F035FB0400EE
:102E90000DF5805045690BD11DB1780803D0012193
:102EA00002E0062404E000215846FFF7C5FC044672
:102EB00017F01C0F74D04FF0010AE4B1042C13D1A9
:102EC0000020574902E0401C022805D200EB4002D6
:102ED00051F82220002AF6D1022804D05846FFF7E4
:102EE00095FE044600E012240DF5805047F00807D7
:102EF000456954B190E0E87A10F0110F01D0072431
:102F00008AE0780701D5082486E0380756D500F016
:102F1000C2FBA873010AE973010C2974000E6874DE
:102F200085F80B8085F81C8085F81D8085F81E804B
:102F30000DF5805085F81F800068294600F018FCC8
:102F400081460021284600F0ABFD0DF58050B9F117
:102F5000000F006800F5805080F804A02CD00DF51B
:102F600080504946006800F58050D0F82CA00DF53F
:102F70008050006800F061FD04004DD10DF58050D7
:102F8000A9F10101006800F58050C1600DF5805085
:102F90005146006800F0A6FC04000BD03CE0FFE7BF
:102FA000D4BBE87AC10601D5042435E0B90701D5C0
:102FB000C007A4D1380701D547F020070DF5805090
:102FC000006800F58050C06AC6E90705780801D09E
:102FD000012100E00021584600F07EFBB062E8B11C
:102FE000B7710DF5805086F807804746006829467E
:102FF00000F0BEFB3061287FD5F81D1040EA0120AB
:10300000C6E90270B7610DF58050776200683060E4
:1030100000F58050C088B080204629E70224FBE7F5
:103020009001002070B5054600F0BFFD002811D1C9
:1030300005F58054A1798A060CD548060FD520687D
:10304000012300F5805029464078A269FFF7A0FED1
:1030500008B1012070BDA07920F04000A071E169A5
:10306000206800F03FFC0028F4D1256AE87A40F09F
:103070002000E872207B2877A089000A6877E06842
:10308000000CA877E068000EE8772846216900F078
:1030900007FD00F000FBA875010AE975010C29760F
:1030A000000E68760020A874E874A079012120F051
:1030B0002000A071206800F5805001712068BDE8F3
:1030C000704000F0F5BC2DE9FC5F88460021994670
:1030D00015468346196000F068FD002808D10BF5FD
:1030E0008054E079002803D1A079800702D407201A
:1030F000BDE8FC9FA068012741194FF0020A8142F8
:103100007AD3B5E02068A168024600F58050438973
:10311000B1FBF3F603FB1616002E6ED1B1FBF3F3F1
:103120008078401E034013F0FF0618D129B1606A71
:1031300038B15846FFF7C6FB07E0206938B90021CF
:1031400000E061691046FFF7E2FB002854D0012837
:1031500033D0411C62D06061216901B92061A0793E
:1031600040060DD52068012300F58050594640786F
:10317000A269FFF70DFEF0BBA07920F04000A0711E
:1031800061692068FFF7B5FBB8B130440190206851
:1031900000F580504189B5FBF1F1009171B37218CF
:1031A00081788A4201D9891B0091DDE9003240789B
:1031B0004146FFF7EDFDF0B903E084F807A00220D7
:1031C00096E7A1690198081A009988420CD22168F3
:1031D00001F580514A8900FB0281584600F072FBDC
:1031E000A07920F04000A071206800F58050468949
:1031F0000098464332E011E03DE014E0FFE7A169AA
:10320000019A91420DD0D4E90212914209D240783C
:1032100001235946019AFFF7A1FD10B1E771012082
:1032200066E70198A0612068A16800F58050408998
:10323000B1FBF0F200FB1212861AAE4200D92E4604
:10324000B1FBF0F200FB121101EB0B0032464146DC
:1032500000F038FBA07940F04000A071A068B044B5
:103260003044A060D9F80000AD1B3044C9F800001C
:10327000002D7FF447AFD4E90201884200D9E06015
:10328000A07940F02000A071002031E72DE9FF5F18
:103290004FF0000B0546C0F800B01746084600F096
:1032A000FCF9060003D50B2004B0BDE8F09F8F4861
:1032B00050F826409CB12C6004F58055287820B148
:1032C0006878FFF759FDC1070BD085F800B0F0B260
:1032D0006870FFF721FDC10708D00320E4E70C2048
:1032E000E2E70FB1400704D40020DDE71FB140073B
:1032F00001D50A20D8E741F20A0162186878022154
:10330000FFF71EFD78BB6889B0F5007F34D3B0F5B8
:10331000805F31D8002631462046FFF75DFA01284C
:1033200026D100204FEA0D0204EB001191F8C231C2
:1033300001F5DF712BB10B7AD1F8091043EA0121B5
:1033400000E0002142F82010401C0428ECD30027A4
:103350004FEA020858F8276036B131462046FFF799
:103360003BFA10B90AE007E002207F1C042FF1D3DA
:10337000032801D0F0BB01E0012095E7B4F80B0071
:10338000B5F80AC060455FD1E18A29B994F82400F4
:10339000D4F8251040EA0121A961207C8A46E87012
:1033A000012801D002284FD100FB01F9607BA870F1
:1033B00000B3411E084247D1B4F811104FEA5C1225
:1033C000B1FBF2F302FB131329819BB9B4F813701C
:1033D0002FB994F82030D4F8217043EA0727E38905
:1033E00043B1B1FBF2F803EB0902424497422BD3FD
:1033F000BF1A00E028E0B7FBF0F028B3012740F641
:10340000F678404500D302274FF6F678404500D3C2
:103410000327801C3244AA6233446861C5E907630C
:10342000032F13D081B103EB09016962022F18D079
:1034300000F0010100EB400001EB5000401E604431
:10344000B0FBFCF151450ED90D202DE70029FBD131
:1034500094F82C10D4F82D20800041EA02216962F2
:10346000ECE74000EAE74FF0FF302861E860802099
:103470006871032F2ED1208E01282BD12046711C7C
:1034800000F030FA30BB85F805B0B4F8FE01A0F5C5
:103490002A4155391ED12078D4F8011040EA012084
:1034A0001349884216D194F8E401D4F8E51140EAB2
:1034B0000120104988420DD194F8E801D4F8E911AF
:1034C00040EA0120286194F8EC01D4F8ED1140EABB
:1034D0000120E86005492F70091F0888401C0880FA
:1034E000E8802046FFF7DCF9FEE60000C00000207F
:1034F00052526141727241612DE9F34105460198D2
:1035000001782F2901D05C2901D1401C019005F5DB
:1035100080560024B46001980078202806D200214B
:103520002846FFF7ABFB7461BDE8FC8101A9284682
:10353000FFF740FA0028F7D100212846FFF79EFB4D
:1035400010BB05F580542169206800F0CBF9D8B98B
:1035500061690A782AB1CA7A12070FD40A23A269CC
:1035600003E0042010E05B1E07D311F8017B12F882
:1035700001CBB7EB0C07F6D000E02FB100212846B5
:10358000FFF7B6FA0028DED0B169C97A28B104285D
:10359000CAD14907C8D40520C6E74907C4D4716910
:1035A000C87AC006F7D5306800F0E2F8B060BDE731
:1035B0002DE9F0470D46074602290DD307F5805443
:1035C0006069A84208D920784FF0FF36012807D05B
:1035D000022832D0032844D001263046BDE8F087C7
:1035E000618905EB5508B8FBF1F0216A01443846C2
:1035F00000F078F90028F0D16189B8FBF1F201FB05
:10360000128008F1010817F80090B8FBF1F0216A68
:103610000144384600F066F90028DED16189B8FB24
:10362000F1F201FB1280395C49EA0120E90701D07F
:103630000609D2E7C0F30B06CFE76089216A40088C
:10364000B5FBF0F00144384600F04CF90028C4D135
:1036500061896800B0FBF1F201FB12003844068872
:10366000BBE76089216A8008B5FBF0F00144384669
:1036700000F038F90028B0D16189A800B0FBF1F260
:1036800001FB120038440178D0F8010041EA002023
:1036900020F07046A1E70020704710B504464FF0B7
:1036A000FF302268002A13D0114600E0491C0B7835
:1036B000212B0ED33A2BF9D112F8013B303B0A2BC8
:1036C00006D28A4204D1002B02D1491C184621603F
:1036D00010BD002010BD0000F0B500F58053234858
:1036E0001C68002202EB420550F82560A64209D171
:1036F00000EB85059F686E68BE4203D12D89DE8888
:10370000B54202D0521C022AECD3022A18D1002260
:1037100002E0521C022A05D202EB420550F8255065
:10372000002DF6D1022A13D002EB420540F82540C5
:1037300000EB85049E686660DB882381002363813B
:10374000002902EB420100EB8101498902D019B145
:103750000020F0BD491C01E04FF4807102EB4203F0
:1037600000EB83004181501CF0BD0000900100205F
:10377000024602F58052488B1278032A02D1898AC8
:1037800040EA014070470000ADF5025DFDF734F8F6
:10379000FEF7D5FFFEF7B4F8FEF77AF840483F4948
:1037A0000024C0E900148460C46004210461C0E9FD
:1037B0000541FEF75FF8FDF74FFF41F23C000122A3
:1037C00038496844FFF708FB4FEA000BFEF75AF947
:1037D0000128FBD1344800210170344F2024824657
:1037E0009AF800000228FBD101213148FCF7ECFFD8
:1037F0000128F5D12E490420143108607C613C6118
:10380000091F08607C613C61BBF1000F4FF00002B2
:1038100001D0202138E001212648FCF7DAFF26A25A
:1038200007CA8DE807000A22694604A8FFF706FBCD
:10383000DFF88080002608F108084FF4A079002501
:103840007C61D8F800103C6101F47F417C61D8F8BC
:103850000000C0F307200843ADF80C003C6142F2C1
:103860006C036B44022203A904A8FFF72CFC6D1C17
:10387000ADB24D45E4D3761CB6B2F02EDFD304A82A
:10388000FFF794FA002202210A48FCF7A2FFFDF795
:1038900071FE00208AF80000A2E7000000800140CD
:1038A000C80000209D0000209B0000200010014067
:1038B00000080140000C0140494D41474544415436
:1038C0004100000004E000BF11F8013B00F8013B9B
:1038D000521EF9D27047C9B201E000F8011B521E16
:1038E000FBD270472DE9F04100F580540746E06AAD
:1038F0000E460025B0420ED0384600F02DF90500E6
:1039000009D16078012332463946FFF727FA08B11A
:103910006E1E0125E6622846BDE8F0812DE9F047DC
:1039200017460D460646022904D306F58054606901
:10393000A84202D80220BDE8F087217807F0FF09ED
:103940004FF0010A012924D002295DD00329F1D1C9
:103950006089216A8008B5FBF0F001443046FFF72A
:10396000C1FF0028E7D16289A900B1FBF2F302FB95
:1039700013118A194FF07043D2F8011003EA0121A4
:10398000394311700B0A53700B0C9370090ED170F0
:1039900050E0618905EB5508B8FBF1F0216A01445C
:1039A0003046FFF79FFF0028C5D16189B8FBF1F2CF
:1039B00001FB1280304408F10108E90703D00178C7
:1039C00069F31F1100E03946017084F804A0618991
:1039D000B8FBF1F0216A01443046FFF783FF00286D
:1039E000A9D16289B8FBF2F302FB13813144EA07E3
:1039F00002D0C7F3071205E00A78C7F3032302F0E9
:103A0000F0021A430A7015E06089216A4008B5FB8C
:103A1000F0F001443046FFF765FF00288BD1628942
:103A20006900B1FBF2F302FB131131443A0A81F849
:103A300000904A7084F804A07DE72DE9F0410F461C
:103A40008046022918D308F580556869B84213D911
:103A500000261FE039464046FFF7AAFD04001CD0AF
:103A6000012C09D0601C09D0002239464046FFF7DE
:103A700055FF060011D103E002260EE001260CE0FE
:103A80002869411C05D0401C2861687940F001007C
:103A9000687127466869B842DCD83046BDE8F081D5
:103AA00081760A0AC2760A0C0275090E41757047C2
:103AB00070B5044600F050F806004BD104F580556F
:103AC000287803283FD1687901283CD16A890021F0
:103AD0002046FFF700FF552084F8FE01AA2084F855
:103AE000FF015220207060706120A0704121E170C0
:103AF000722284F8E42184F8E52184F8E61184F840
:103B0000E701286984F8E801010A84F8E911010C49
:103B100084F8EA11000E84F8EB01E86884F8EC01FF
:103B2000010A84F8ED11010C84F8EE11000E84F8FE
:103B3000EF01EA690123521CEA6268782146FFF727
:103B400027F900206871002268781146FFF7F8F81D
:103B500000B10126304670BD2DE9F04100F58054DA
:103B6000804620790027E8B1E56A607801232A467B
:103B70004146FFF70DF908B1012713E0002020713D
:103B8000206AA169281A88420CD2E67808E0A06968
:103B90000123054460782A464146FFF7F9F8761E6E
:103BA000022EF4D23846BDE8F08110B580B100F5A0
:103BB0008050016861B101F580510A7842B1CA882C
:103BC0008088824204D14878FFF7D6F8C00700D039
:103BD000092010BD000000000000000001020304E5
:103BE00006070809809A90B68EB78F80D2D3D4D8B2
:103BF000D7DE8E8F909292E299E3EAEB59999A9DE3
:103C00009C9D9E9FB5D6E0E9A5A5A6A7A8A9AAABAD
:103C1000AC21AEAFB0B1B2B3B4B5B6B7B8B9BABBF8
:103C2000BCBDBEBFC0C1C2C3C4C5C7C7C8C9CACB5B
:103C3000CCCDCECFD0D1D2D3D4D5D6D7D8D9DADB4C
:103C4000DCDDDEDFE0E1E2E3E5E5E6E7E7E9EAEB3C
:103C5000EDEDEEEFF0F1F2F3F4F5F6F7F8F9FAFB2B
:103C6000FCFDFEFF00040002000180004000200077
:103C70001000080004000200000000800040002046
:103C8000001000080040002000100008000400029E
:103C900031260008DD260008A1260008FD260008C0
:103CA00051260008C43C000800000020C8000000A5
:103CB0006C0100088C3D0008C8000020500700007F
:103CC000880100084D11001246173F185019031AB9
:103CD00078320029502C782A00427F4D0963E06435
:103CE000FF65206600670013F00D810FC5142122C7
:103CF000FF23012434253C26A12B006BAA13FF6966
:103D00005D900A910192019301945F9553961197EA
:103D10001A983D995A9A1E9B009C25A765A8659EF6
:103D200081A6067E0C7F16802A814E8261836F8475
:103D30007B8586868E879788A489AF8AC58BD78C2A
:103D4000E88D20A980AA80ACFF3300229923034A82
:103D500000491347084B144C1746050CD00EF500CC
:103D60000000000000000000000000000000000053
:103D700000A24A0401000000100000000000000042
:0C3D800000000000000000000100000036
:0400000508000131BD
:00000001FF
