:020000040800F2
:1000000088070020CD010008531600083F110008A2
:1000100051160008210300087919000800000000AB
:10002000000000000000000000000000C9180008E7
:100030002303000800000000CD160008CB180008BC
:10004000E7010008E7010008E7010008E7010008F0
:10005000E7010008E7010008E7010008E7010008E0
:10006000E701000835030008E7010008E701000880
:10007000E7010008E7010008E7010008E7010008C0
:10008000E7010008E7010008E7010008E7010008B0
:10009000E7010008E7010008E7010008E7010008A0
:1000A000E7010008E7010008E7010008E701000890
:1000B000E7010008E7010008E7010008E701000880
:1000C000E7010008E7010008E7010008E701000870
:1000D000E7010008E7010008E7010008E701000860
:1000E000E7010008E7010008E7010008E701000850
:1000F000E7010008E7010008E7010008E701000840
:10010000E7010008E7010008E7010008E70100082F
:10011000E7010008E7010008E7010008E70100081F
:10012000E7010008E7010008E7010008E70100080F
:1001300000F002F800F03AF80AA090E8000C8244BF
:100140008344AAF10107DA4501D100F02FF8AFF29C
:10015000090EBAE80F0013F0010F18BFFB1A43F0A5
:10016000010318479C180000BC180000103A24BF77
:1001700078C878C1FAD8520724BF30C830C144BF0C
:1001800004680C607047000000230024002500264E
:10019000103A28BF78C1FBD8520728BF30C148BFEA
:1001A0000B6070471FB51FBD10B510BD00F058F8AB
:1001B0001146FFF7F7FF01F0E1FB00F076F803B41A
:1001C000FFF7F2FF03BC00F07DF80000094880470C
:1001D00009480047FEE7FEE7FEE7FEE7FEE7FEE729
:1001E000FEE7FEE7FEE7FEE704480549054A064B41
:1001F0007047000031190008310100088801002013
:100200008807002088030020880300204FF00002A8
:1002100000B5134694469646203922BFA0E80C50FC
:10022000A0E80C50B1F12001BFF4F7AF090728BFD7
:10023000A0E80C5048BF0CC05DF804EB890028BF53
:1002400040F8042B08BF704748BF20F8022B11F07C
:10025000804F18BF00F8012B7047704770477047F8
:10026000754600F02BF8AE4605006946534620F06F
:100270000700854618B020B5FFF7B6FFBDE820405F
:100280004FF000064FF000074FF000084FF0000B52
:1002900021F00701AC46ACE8C009ACE8C009ACE805
:1002A000C009ACE8C0098D46704710B50446AFF3ED
:1002B00000802046BDE81040FFF781BF004870472E
:1002C0002801002001491820ABBEFEE726000200ED
:1002D0007047000070B5044600688168C943C907CB
:1002E0001CD1816821F00101816000F067FB0546A7
:1002F0000FE000BF00F062FB401B022809D9A06A92
:1003000040F01000A062E06A40F00100E0620120CD
:1003100070BD20688068C043C007EBD0002070BD6E
:10032000FEE7704701B5009801E0401E00900028EC
:10033000FBD108BD70B5114A1068000719D51048E7
:100340000821037813B1012B0AD00EE00D4C1023C5
:1003500063610D4D2960012606702960236104E068
:10036000094B1B1D1960022303701160082000F067
:1003700019FABDE87040082000F016BA14040140D4
:100380009B000020001001401014014030B5B3F56F
:10039000804F05D06FF0704140F82210002030BD32
:1003A0008C690B688D6823434C688989240144EA71
:1003B0000524234343EA014150F82230014C2340F5
:1003C0001943E9E70000F0CF30B50A6850F8223051
:1003D00023F0010340F822308C68204B4A68082C37
:1003E0001ED02243D1E903452C4322434C692243CA
:1003F0008C692243CC6922430C6A22434C6A224313
:100400008C6A2243CC6A22430C6B0968224350F861
:1004100021401C4052EA040240F82120002030BD57
:10042000D1E9034542F008022C4322434C692243A0
:100430008C692243CC6922430C6A22434C6A2243D2
:100440008C6A2243CC6A22430C6B0968224350F821
:1004500021401C40224342F04002DDE78100F7FFCB
:1004600030B5D1E9003443EA04138C688D89240245
:1004700044EA054423430C8A094D00EB820005EB56
:10048000045423430C7D6D0105EB04648969234307
:100490000B43416801F040410B434360002030BDF5
:1004A0000000F0FFF8B50024009490F824202546C1
:1004B000012A12D0012280F824204A681F23072A2B
:1004C0000DD20668776B521E02EB820293409F4367
:1004D0000B6893401F43776319E00220F8BD06685C
:1004E0000D2A0AD2376BD21F02EB820293409F4340
:1004F0000B6893401F43376309E0F76A0D3A02EB3C
:10050000820293409F430B6893401F43F7620A683F
:10051000072306680A2A0AD3F7680A3A02EB42025E
:1005200093409F438B6893401F43F76008E037690F
:1005300002EB420293409F438B6893401F43376115
:100540000A68102A01D0112A20D1124B02689A425F
:1005500017D193681B0219D4936843F40003936086
:100560000968102912D10C490C4A0968B1FBF2F153
:1005700001EB8101490000E0491E00910029FBD1F7
:1005800004E0816A41F020018162012480F8245056
:100590002046F8BD00240140B000002040420F007A
:1005A0002DE9F04104004FF000057FD0A06A00263D
:1005B00028B9E66284F82460204600F081F82046DD
:1005C000FFF788FEA16AC90600D420B1A06A40F0F6
:1005D0001000A0626AE0A16A21F4885141F0020192
:1005E000A162334923688B42E16904D1B1F5402F00
:1005F00001D14FF40021E7684FF4807C41EA4702C3
:1006000061680A43A168614508D0012906D000212C
:10061000D4F814E0BEF1010F02D00AE06146F7E71A
:10062000C7B1A76A47F02007A762E76A47F001074A
:10063000E7625F6827F469470F435F602368996842
:100640001C4F394011439960A16861450BD00129C5
:1006500009D00CE0DFF860E0A7690EEB47370F43E5
:1006600047F40061E5E7218A0D05A5F580152168AD
:10067000CB6A23F470032B43CB62216889680F4B4C
:100680001940914208D1E662A16A21F0020141F0CD
:100690000101A162BDE8F081A06A20F0020040F0F3
:1006A0001000A062E06A40F00100E0620120F1E782
:1006B000003C0140FDF7E1FF00E0FFFFFE0E1FFFE1
:1006C00000B585B00021009101910291039100686D
:1006D0000E49884218D10E48816941F40041816178
:1006E000816901F400410491816941F01001816147
:1006F0008069694600F010000490042000900320F7
:100700000190044800F05CF805B000BD003C0140D9
:10071000001002400010014070B5044600F04EF990
:100720000546601C02D004480078044400F046F9F5
:10073000401BA042FAD370BDA400002030B585B0A4
:100740000020009001900290039012480168002957
:100750001ED1012101601048416941F4807141615D
:100760004069022400F4807004904FF68070CDE957
:100770000004032569460395084800F021F84CF66B
:10078000B370CDE9000469460395054800F018F8F8
:1007900005B030BD9C000020001002400018014050
:1007A0000014014070470000044910B50A68024275
:1007B00002D00860FFF7F6FF10BD000014040140EE
:1007C0002DE9F84FDFF8B8A100220AF1040B144616
:1007D00001274FF00F090BF1040E00BF0B6807FA59
:1007E00004F52B40AB4274D1DFF898C14E68A6EBFC
:1007F0000C0866452BD00DDC032E34D005DC36B357
:10080000012E19D0022E2FD11BE0112E16D0122E40
:100810002AD119E0B8F5881F19D006DCB8F5803F59
:1008200015D0B8F5801F1FD111E0B8F5001F0ED00C
:10083000B8F5041F18D10AE0CA6815E0CA68121D8D
:1008400012E0CA6808320FE0CA680C320CE08A680D
:100850002AB1012A4FF0080203D0456104E00422C6
:1008600002E0056100E00022FF2B01D8064601E00E
:1008700000F104064FEA840501D9A5F12005D6F858
:1008800000C009FA05F82CEA080C02FA05F54CEA52
:10089000050CC6F800C04D68ED006AD53A4DAE694A
:1008A00046F00106AE61AD6924F0030605F00105CE
:1008B0000095364D06EB050CDCF80850A6074FEA0C
:1008C000167809FA08F6B543314EB04202D1002637
:1008D0001AE04EE02F4EB04201D1012614E02E4E18
:1008E000B04201D102260FE02C4EB04201D10326C6
:1008F0000AE02B4EB04201D1042605E0294EB04259
:1009000001D1052600E0062606FA08F62E43CCF8AB
:1009100008604D68DAF80060ED03554601D51E43C6
:1009200000E09E432E604D68AD0305D5DBF8006006
:100930001E43CBF8006004E0DBF800509D43CBF889
:1009400000504D68DEF80060ED02754601D51E438B
:1009500000E09E432E604D68AD0205D5084D0C3574
:100960002E681E432E6004E0054E0C3635689D430C
:100970003560641C102CFFF431AFBDE8F88F000027
:10098000000401400000111000100240000001406E
:1009900000080140000C014000100140001401401B
:1009A00000180140001C01408068084000D0012070
:1009B00070470AB1016170470904FBE7014880688C
:1009C00070470000A40000200248816802781144AA
:1009D00081607047A4000020074810B5016841F00D
:1009E00010010160032000F073F8002000F006F809
:1009F00000F024F8002010BD0020024070B50D4D1D
:100A000004464FF47A712878B1FBF0F00A4909687E
:100A1000B1FBF0F000F07FFB48B9102C07D20022A8
:100A20002146501E00F034F800206C6070BD01209B
:100A300070BD0000A4000020B00000200C4808B5E4
:100A4000816941F001018161816901F00101009139
:100A5000C16941F08051C161C06900F080500090CF
:100A60000448416821F0E06141F00071416008BD37
:100A7000001002400000014000F01F0201219140DF
:100A80004009800000F1E020C0F80011704700002C
:100A9000F0B40E4B1B680C46C3F30223C3F10705E9
:100AA000042D00D90425191D072901D2002300E0D7
:100AB000DB1E012606FA05F1491E214099409E40A1
:100AC000761E16403143F0BC00F0C4BD0CED00E0D2
:100AD000064900F0070208684FF6FF03184040EA95
:100AE0000220034A10430860704700000CED00E04C
:100AF0000000FA052DE9F84305460078354CC0079B
:100B000054D0E0690026C00008D4E06940F080506D
:100B1000E061E069012600F0805000902E480168F5
:100B2000C90512D40168804641F480710160FFF765
:100B300045FF074605E000BFFFF740FFC01B6428E4
:100B400023D8D8F80000C005F6D5206A10F440700C
:100B500021D0A98801F4407181421CD0206A1F492C
:100B6000012220F440700A6000220A602062C0075F
:100B700011D0FFF723FF074641F2883808E000BF95
:100B8000FFF71CFFC11B414502D90320BDE8F883D4
:100B9000206A8007F4D5206A696820F44070084311
:100BA00020621EB1E06920F08050E0612878800763
:100BB00005D56068A96820F4404008436060287843
:100BC000C00605D56068696920F48000084360604C
:100BD0000020DBE700100240007000404004424269
:100BE0002DE9F047DFF8548105460E46D8F800009D
:100BF00000F00700B0420CD2D8F8001021F0070135
:100C00003143C8F80010D8F8000000F00700B042E7
:100C10006FD128684A4C810712D5400703D5606818
:100C200040F4E06060602878000703D5606840F415
:100C3000605060606068A96820F0F0000843606060
:100C40002878C00744D06868012816D02168022897
:100C500016D0890700294CDA616821F003010143AD
:100C60006160FFF7ABFE6968074641F288300129F1
:100C70000ED00229814618D026E021688903E9E7D1
:100C80008901E7E7FFF79AFEC11B494501D918E042
:100C900081466068C0F381000128F3D118E000BFED
:100CA000FFF78CFEC11B49450BD86068C0F381007B
:100CB0000228F5D10CE000BFFFF780FEC11B4945BB
:100CC00002D90320BDE8F087606810F00C0FF3D163
:100CD000D8F80010404601F00701B1420BD9016875
:100CE00021F0070131430160006800F00700B042C5
:100CF00001D00120E6E72878400705D56068E9685B
:100D000020F4E060084360602878000706D560683A
:100D1000296920F4605040EAC100606000F016F8D4
:100D20006168084AC1F30311515CC8400649086074
:100D30000020FFF763FE0020C4E70000002002400F
:100D400000100240F0190008B000002012A185B088
:100D50000FC98DE80F0014A0144A00680490516870
:100D6000134801F00C03042B10D0082B0ED1C1F353
:100D70008343C9031DF803000AD5516804AAC1F3CF
:100D80004041515C0A4A5043B0FBF1F005B0704756
:100D900008494843FAE7000002030405060708096A
:100DA0000A0B0C0D0E0F1010010200000010024083
:100DB00000127A0000093D002DE9F84F0446007842
:100DC000B94DC00748D06868C0F38100012807D03A
:100DD0006868C0F38100022809D16868C00306D59D
:100DE0002868800338D5606800286FD034E06068D8
:100DF000B0F5803F0BD010B1B0F5A02F11D028680E
:100E000020F480302860286820F4802002E02868E0
:100E100040F480302860606888B1FFF7CFFD064657
:100E200009E0286840F480202860F0E7FFF7C6FD5D
:100E3000801B642875D828688003F7D50CE0FFF77D
:100E4000BDFD064605E000BFFFF7B8FD801B642826
:100E5000F0D828688003F7D42078944E80074FF0AC
:100E600001094FF000083BD5686810F00C0F07D05F
:100E70006868C0F38100022809D16868C00306D4FD
:100E80002868800714D5206901281FD110E0206947
:100E9000B0B1C6F80090FFF791FD074605E000BF2E
:100EA000FFF78CFDC01B0228C4D828688007F7D53F
:100EB0002868616920F0F80040EAC10028600FE06E
:100EC000C6F80080FFF77AFD074606E0E9E000BFBC
:100ED000FFF774FDC01B022823D828688007F7D4C9
:100EE000207800072CD57248A169D9B1C0F80090CC
:100EF000FFF764FD074604E0FFF760FDC01B022812
:100F00000FD8686A8007F7D56A484FF4FA5100682D
:100F1000B0FBF1F0009000BF0098411E0091FAD2A2
:100F20000EE080E0C0F80080FFF748FD074604E0CF
:100F3000FFF744FDC01B022875D8686A8007F7D404
:100F40002078400760D5E8690027C00008D4E86928
:100F500040F08050E861E869012700F0805000907F
:100F600055480168C90513D40168834641F480716E
:100F70000160FFF723FD824606E000BFFFF71EFD7C
:100F8000A0EB0A0064284ED8DBF80000C005F5D5B8
:100F9000E06801280AD008B1052813D0286A20F09B
:100FA00001002862286A20F0040002E0286A40F06C
:100FB00001002862E06841F2883B98B1FFF7FEFC2F
:100FC00082460BE0286A40F004002862EEE700BF8A
:100FD000FFF7F4FCA0EB0A0159455AD8286A8007AC
:100FE000F6D50CE0FFF7EAFC824605E0FFF7E6FCE9
:100FF000A0EB0A0159454CD8286A8007F6D41FB1E6
:10100000E86920F08050E861E06988B36968C1F35D
:101010008101022945D00228C6F8608004D0FFF77C
:10102000CDFC044638E034E0FFF7C8FC074604E096
:10103000FFF7C4FCC01B02282BD828688001F7D416
:10104000206AB0F5803F05D16868A16820F40030BF
:1010500008436860D4E908010843696821F4741101
:1010600008436860C6F86090FFF7A8FC044606E0F5
:1010700015E000BFFFF7A2FC001B022809D8286872
:101080008001F7D50BE000BFFFF798FC001B02289A
:1010900002D90320BDE8F88F28688001F4D400202D
:1010A000F8E70120F6E7000000100240000042428D
:1010B00080044242B00000200070004070B5154628
:1010C0000E46040003D094F83D0010B107E0012063
:1010D00070BD002084F83C00204600F01AF804F1AE
:1010E00008012068FFF770F93146A2682068FFF711
:1010F000B7F9D4E901022946236BFFF747F9A16844
:10110000206850F8212042F0010240F82120002000
:1011100070BDFFF713BB10B5401EB0F1807F01D347
:10112000012010BD4FF0E02460610F21601700F036
:1011300091FA0020A06107202061002010BDFEE789
:101140002DE9F04700F036F80027124DDFF848800F
:1011500020244FF4A07900266C61D8F800102C618F
:1011600001F47F416C61D8F800002C61C0F30720C6
:10117000084300F05FF9761CB6B24E45ECD37F1CF5
:10118000BFB2F02FE7D3BDE8F0474FF47A70FFF716
:10119000C3BA000000100140080C0140044B4FF49A
:1011A000805108B1002200E001221846FFF701BC7F
:1011B000001401403620010708800B486822028095
:1011C0002A220A80002202800280012202803F221D
:1011D00002802B220A800022028002800280EF22FD
:1011E00002802C20088070470000026070B51D4608
:1011F0001446049E00F028F804FB05F03146BDE8D3
:10120000704000F001B8000010B500222C23DC066D
:101210002380034B01E01980521C8242FBD310BD96
:101220000000026008B50120FFF7B8FF00F0E8F801
:1012300000F02AF800204FF4A073F022014600903D
:10124000FFF7D4FF08BD000070B54FF0C0452A2459
:101250002C800C4C060A2680C6B226801044401E04
:10126000020A2280C0B220802B202880080A208019
:10127000C8B22080C818401E010A2180C0B2208058
:1012800070BD00000000026000B54FF0C041CF20EB
:101290000880594800220280812202803022028088
:1012A000ED220A8064220280032202801222028040
:1012B00081220280E8220A80852202801022028098
:1012C00078220280CB220A80392202802C220280DE
:1012D000002202803422028002220280F7220A8049
:1012E00020220280EA220A80002202800280B122AB
:1012F0000A80002202801B220280B6220A800A2273
:101300000280A2220280C0220A8035220280C122ED
:101310000A8011220280C5220A80452202800280B2
:10132000C7220A80A2220280F2220A8000220280C2
:1013300026220A8001220280E0220A800F220280F7
:1013400026220280242202800B2202800E220280AA
:101350000922028054220280A822028046220280B2
:101360000C22028017220280092202800F220280B2
:101370000722028000220280E1220A8000220280ED
:10138000192202801B220280042202801022028085
:10139000072202802A22028047220280392202800C
:1013A000032202800622028002803022028038223C
:1013B00002800F22028036220A80C82202802A225E
:1013C0000A800022028002800280EF2202802B220B
:1013D0000A80002202800280012202803F220280D5
:1013E0003A220A8055220280112008800348FEF725
:1013F00099FF2920088000BD00000260FCBF0200A8
:1014000070B50A4C002202212046FFF7D2FA084D9F
:101410002846FEF787FF012202212046FFF7C9FA7E
:101420002846BDE87040FEF77DBF0000001801406F
:10143000FCBF020001490880704700000000026004
:101440003EB500240D480094019402948460C46069
:10145000094944610160012505614FF46021446040
:10146000C161FFF79DF80C20CDE9000569460294A3
:101470000248FFF717F83EBD003C0140B4000020D1
:1014800000B587B01C216846FEF7C0FE15484FF036
:101490002041102201601449416000218160C16037
:1014A000C0E904128161C16113020162C0E909133C
:1014B000C1620163416381630F20FF230090CDE986
:1014C0000103CDE903021120CDE90501002269469F
:1014D0000448FFF7F3FD0548C16941F48061C1612B
:1014E00007B000BDE4000020040100A0000001409E
:1014F0002DE9F04F85B000244E48009401940294E9
:101500000394816941F010018161816901F010014A
:101510000491816941F004018161816901F0040154
:101520000491816941F040018161816901F04001CC
:101530000491816941F008018161816901F008012C
:101540000491816941F0200181618069DFF8E880C0
:1015500000F02000049000220C214046FFF729FAF9
:10156000DFF8D8A00022F0215046FFF722FADFF87A
:10157000D09041F20807002239464846FFF719FA91
:10158000DFF8C0B0002202215846FFF712FA082007
:1015900000902D48CDE9010469465046FFF710F947
:1015A0000125CDE90054694640460294FFF708F949
:1015B0000C200326CDE90005CDE9024669464046E8
:1015C000FFF7FEF83020CDE90005CDE90246694677
:1015D0005046FFF7F5F84FF47F40CDE90004694627
:1015E0001A480294FFF7ECF800970396CDE90154EE
:1015F00069464846FFF7E4F8C020009001AA112090
:1016000082E8510069465046FFF7DAF80220CDE93A
:101610000005CDE9024669465846FFF7D1F8002299
:1016200011460920FFF734FA0920FFF725FA05B023
:10163000BDE8F08F0010024000080140001001409A
:10164000001401400018014000002110000C01406E
:10165000FEE770470907090E002806DA00F00F00C0
:1016600000F1E02080F8141D704700F1E02080F8C0
:1016700000147047F8B500248DF800408021122036
:1016800000F0FCF800280BD00B220121684600F086
:101690001FF8002804D09DF80000212801D0002068
:1016A000F8BD094D6E1E0AE005EB4400417815F8BF
:1016B000140000F0E3F80028F2D0641CA4B23078E3
:1016C0008442F1D30120F8BD0100002070470000E2
:1016D0002DE9F04714468846814600F081F800283D
:1016E0001DD0422000F05AF800F0AEF8A0B120461C
:1016F00000F054F800F0A8F800F092F800F070F84C
:1017000000280CD0432000F049F800F09DF8224C4E
:101710004FF0800A402698BB00F082F80020BDE818
:10172000F0870025C4F810A007276806050E66613B
:1017300000F0C3F8266100F0C0F880212046FFF7D2
:1017400033F908B145F001057F1EFFB2EDD26661A5
:1017500089F80050B8F1010F666118D000F0ADF8BB
:10176000C4F814A000F0A9F8266100F0A6F866619C
:1017700000F0A3F8A8F1010009F101091FFA80F8AF
:10178000B8F1000FCDD100F04BF80120C7E700F011
:1017900094F8C4F810A0E5E7001001402DE9F041ED
:1017A000082507464FF0800840260C4C0FE000BF8C
:1017B00000F083F83806404601D5206100E0606102
:1017C0007806070E00F079F8266100F076F86D1EB5
:1017D000EDB26661ECD2BDE8F0810000001001407E
:1017E00070B50E4C802525614020206100F065F821
:1017F00080212046FFF7D8F8002808D0656100F066
:101800005CF880212046FFF7CFF808B1002070BDBA
:10181000656100F052F8012070BD00000010014029
:1018200070B5084C4025656100F047F88026666178
:1018300000F043F8256100F040F82661BDE87040F3
:1018400000F03BB80010014070B50B4D40246C61B6
:1018500000F033F88020286100F02FF82C6100F0B0
:101860002CF880212846FFF79FF86C6108B1002012
:1018700070BD012070BD00000010014070B50D4624
:101880000446FFF7ADFF002812D04220FFF786FF85
:10189000FFF7DAFF68B1E0B2FFF780FFFFF7D4FF90
:1018A0002846FFF77BFFFFF7CFFFFFF7B9FF0120C7
:1018B00070BDFFF7B5FF002070BD4FF4C870401E2B
:1018C0000004000CFBD170477047FFF77DB830B5BE
:1018D00095B028216846FEF799FC14210AA8FEF766
:1018E00095FC18210FA8FEF791FC01210804CDE911
:1018F00000100024029402250491CDE907504FF412
:10190000E01009906846FFF757FA0F20CDE90A0565
:101910006802CDE90C4002210AA80E94FFF760F995
:10192000A80311900F950FA8FFF7E4F815B030BD8C
:101930000D48016841F00101016041680B4A114006
:10194000416001680A4A11400160016821F4802168
:101950000160416821F4FE0141604FF41F01816084
:101960000449C00308607047001002400000FFF8FF
:10197000FFFFF6FE08ED00E0FEE70000FFF72CF8A1
:10198000FFF7A5FFFFF7B4FDFFF77AFDFFF758FD5E
:10199000FFF748FCFFF76EFE0128FBD1114C002732
:1019A0002770DFF84490DFF840B009F114090F4EBA
:1019B0004FF004082025A9F1040A20780228FCD160
:1019C00001215846FEF7F0FF0128F6D1C9F8008042
:1019D00075613561CAF8008075613561FFF7B0FB4C
:1019E0002770EAE79B00002000080140001001403A
:1019F00000000000000000000102030406070809BF
:101A0000201A000800000020B40000006C0100084B
:101A1000D41A0008B4000020D40600008801000891
:101A20004D11001246173F185019031A7832002939
:101A3000502C782A00427F4D0963E064FF652066E0
:101A400000670013F00D810FC5142122FF2301242C
:101A500034253C26A12B006BAA13FF695D900A91E7
:101A60000192019301945F95539611971A983D99AD
:101A70005A9A1E9B009C25A765A8659E81A6067E96
:101A80000C7F16802A814E8261836F847B858686D7
:101A90008E879788A489AF8AC58BD78CE88D20A9BB
:101AA00080AA80ACFF3300229923034A00491347E0
:101AB000084B144C1746050CD00EF5000000000032
:101AC0000000000001000000100000000000000005
:041AD00000A24A0422
:0400000508000131BD
:00000001FF
