:020000040800F2
:100000004006002045010008FF190008B51400084B
:10001000FD19000891020008751F0008000000008B
:10002000000000000000000000000000951C000817
:100030009302000800000000711C0008051D000864
:100040005F0100085F0100085F0100085F01000810
:100050005F0100085F0100085F0100085F01000800
:100060005F0100085F0100085F0100085F010008F0
:100070005F0100085F0100085F0100085F010008E0
:100080005F0100085F0100085F0100085F010008D0
:100090005F0100085F0100085F010008A502000879
:1000A0005F0100085F0100085F0100085F010008B0
:1000B0005F0100085F0100085F0100085F010008A0
:1000C0005F0100085F0100085F0100085F01000890
:1000D0005F0100085F0100085F0100085F01000880
:1000E0005F0100085F0100085F0100085F01000870
:1000F0005F0100085F0100085F0100085F01000860
:100100005F0100085F0100085F0100085F0100084F
:100110005F0100085F0100085F0100085F0100083F
:100120005F0100085F0100085F0100085F0100082F
:10013000DFF80CD000F09AF800480047D5220008FC
:10014000400600200648804706480047FEE7FEE7D5
:10015000FEE7FEE7FEE7FEE7FEE7FEE7FEE7FEE777
:10016000591D000831010008202A04DB203A21FA39
:1001700002F00021704721FA02F3D040C2F12002C0
:100180009140084319467047D2B201E000F8012BB4
:10019000491EFBD270470022F6E710B513460A4607
:1001A00004461946FFF7F0FF204610BD30B505465E
:1001B0002A460B4612F8010B13F8014B08B1A04276
:1001C000F8D01CB1002802D06D1CF1E7284630BDE4
:1001D00030B504460020034600E05B1C934203D286
:1001E000E05CCD5C401BF8D030BD2DE9F05F0546EA
:1001F000002092469B4688460646814640241BE0E6
:100200002846414647462246FFF7AEFF53465A4628
:10021000C01A914110D311461846224600F016F834
:100220002D1A67EB01084F4622460120002100F0FD
:100230000DF817EB00094E41201EA4F10104DFDC8C
:10024000484631462A464346BDE8F09F202A04DB53
:10025000203A00FA02F1002070479140C2F12003D9
:1002600020FA03F31943904070470000064C074DF5
:1002700006E0E06840F0010394E807009847103476
:10028000AC42F6D3FFF758FF8C2A0008AC2A0008CE
:10029000FEE7704701B5009801E0401E009000287D
:1002A000FBD108BD2DE9F043894F8FB03868C005F8
:1002B0007DD5DFF820824FF6FF744FF4A07398F8D5
:1002C000000030B10026012811D0C146022847D0D5
:1002D000E8E00021F0220846009401F02FF90A21FD
:1002E0007DA2084601F060F902F012F8DAE0002180
:1002F0001D46F0220846009401F020F90A217BA255
:10030000084601F051F901F0A9FB40B100212B464C
:10031000F0220846009401F011F978A20EE00120C5
:1003200001F07EFB00284FF000012B464FF0F00259
:100330000846009409D001F001F974A20A21084688
:1003400001F032F988F80060ACE001F0F7F80A211A
:1003500074A2084601F028F9022088F80000A1E004
:1003600000211D46F0220846009401F0E7F80A211A
:1003700072A2084601F018F901F070FB40B10021AB
:100380002B46F0220846009401F0D8F85BA210E05A
:10039000022001F045FB00284FF000012B464FF0F2
:1003A000F0020846009409D001F0C8F800E08CE0A3
:1003B00066A20A21084601F0F7F871E001F0BEF8E4
:1003C0000A2168A2084601F0EFF800212B46F0222E
:1003D0000846009401F0B2F80A2169A2084601F02B
:1003E000E3F801F097FB00284FF000012B464FF097
:1003F000F0020846009403D001F0A0F869A247E09B
:1004000001F09CF80A216CA2084601F0CDF8002109
:100410002B46F0220846009401F090F80A216CA2C5
:10042000084601F0C1F801F08FFB009438B10021BB
:100430002B46F022084601F081F86CA228E0A8467D
:1004400000214346F022084601F078F80A216EA206
:10045000084601F0A9F800212B46F0220846009436
:1004600001F06CF80A216DA2084601F09DF8714D6B
:100470000220298801F082FB00284FF0000143464A
:100480004FF0F0020846009414D001F057F86AA229
:100490000A21084601F088F84FF4FA7000F094FA47
:1004A00089F800604FF4807038600FB0BDE8F04309
:1004B00000F0D0BA01F042F82A8865A1501C2880CB
:1004C00001A801F069FD01AAE2E70FB0BDE8F083E1
:1004D0001404014000000020446574656374656481
:1004E0002066696E676572210000000046697273BC
:1004F00074207072657373000000000052657370A1
:100500006F6E7365206572726F7200004669727358
:1005100074207072657373206661696C65642E0067
:100520000000000046697273742070726573732056
:100530007375636365656465642E00005365636F5E
:100540006E64207072657373000000005365636F02
:100550006E64207072657373206661696C65642EC9
:10056000000000005365636F6E64207072657373E2
:10057000207375636365656465642E000000000088
:100580005374617274206D61746368696E6720745E
:10059000776F2066696E6765727072696E74732E0C
:1005A000000000004D61746368696E6720666169D0
:1005B0006C65642E000000004D61746368696E67AD
:1005C000207375636365656465642E000000000038
:1005D00053746172742067656E65726174696E67C9
:1005E000206D6F64656C2E00000000004D6F646527
:1005F0006C2067656E65726174696F6E20666169F3
:100600006C65642E000000004D6F64656C206765AA
:100610006E6572617465642E00000000537461722F
:100620007420736176696E67206D6F64656C2E004F
:100630000000000002000020536176696E67206DA3
:100640006F64656C206661696C65642E0000000053
:100650005375636365737366756C6C79207361762B
:100660006564206D6F64656C2C2069643A20256494
:100670000000000021283CD2DFE800F0111315171C
:10068000191B1D1F212325273B3B3B3B27293B3BB8
:100690003B2B3B3B2D2F3133353B3B37390016A0ED
:1006A00070471AA070471EA0704722A0704726A06E
:1006B00070472AA070472EA0704732A0704736A01E
:1006C00070473AA070473EA0704742A0704746A0CE
:1006D00070474AA070474EA0704752A0704756A07E
:1006E00070475AA070475EA0704762A0704766A02E
:1006F00070476AA070470000202020202020204F53
:100700004B202020202020200000000020CAFDBE19
:10071000DDB0FCBDD3CAD5B4EDCEF320000000009F
:10072000B4ABB8D0C6F7C9CFC3BBD3D0CAD6D6B83E
:1007300000000000C2BCC8EBD6B8CEC6CDBCCFF11D
:10074000CAA7B0DC0000000020D6B8CEC6CCABB83B
:10075000C9BBF2CCABB5AD200000000020D6B8CEAE
:10076000C6CCABCAAABBF2CCABBAFD2000000000DD
:100770002020D6B8CEC6CDBCCFF1CCABC2D2202083
:100780000000000020D6B8CEC6CCD8D5F7B5E3CC53
:10079000ABC9D920000000002020D6B8CEC6B2BB1D
:1007A000C6A5C5E4202020200000000020C3BBD344
:1007B000D0CBD1CBF7B5BDD6B8CEC6200000000057
:1007C000202020CCD8D5F7BACFB2A2CAA7B0DC205F
:1007D000000000002020C9BEB3FDC4A3B0E5CAA735
:1007E000B0DC20200000000020C7E5BFD5D6B8CE81
:1007F000C6BFE2CAA7B0DC2000000000BBBAB3E568
:10080000C7F8C4DACEDED3D0D0A7CDBC000000003C
:1008100020B6C1D0B4464C415348B3F6B4ED2020C5
:1008200000000000202020CEB4B6A8D2E5B4EDCE62
:10083000F3202020000000002020CEDED0A7BCC482
:10084000B4E6C6F7BAC520200000000020BCC4B43E
:10085000E6C6F7C4DAC8DDB4EDCEF3200000000030
:1008600020BCC7CAC2B1BED2B3C2EBB4EDCEF32036
:100870000000000020202020D6B8CEC6BFE2C2FA79
:10088000202020200000000020202020B5D8D6B74E
:10089000B4EDCEF3202020200000000020B7B5BB2F
:1008A000D8C8B7C8CFC2EBD3D0CEF3200000000029
:1008B00030B5B3F5804F05D06FF0704140F822108D
:1008C000002030BD8C690B688D6823434C68898992
:1008D000240144EA0524234343EA014150F822302D
:1008E000014C23401943E9E70000F0CF30B50A6816
:1008F00050F8223023F0010340F822308C68204B5E
:100900004A68082C1ED02243D1E903452C432243D8
:100910004C6922438C692243CC6922430C6A2243EE
:100920004C6A22438C6A2243CC6A22430C6B0968CE
:10093000224350F821401C4052EA040240F8212092
:10094000002030BDD1E9034542F008022C43224388
:100950004C6922438C692243CC6922430C6A2243AE
:100960004C6A22438C6A2243CC6A22430C6B09688E
:10097000224350F821401C40224342F04002DDE770
:100980008100F7FF30B5D1E9003443EA04138C68E5
:100990008D89240244EA054423430C8A094D00EB67
:1009A000820005EB045423430C7D6D0105EB0464C8
:1009B000896923430B43416801F040410B43436085
:1009C000002030BD0000F0FF70B5044600F042F991
:1009D0000546601C02D004480078044400F03AF94F
:1009E000401BA042FAD370BD1400002030B585B082
:1009F00000200090019002900390124801680029A5
:100A00001ED1012101601048416941F480714161AA
:100A10004069022400F4807004904FF68070CDE9A4
:100A20000004032569460395084800F015F84CF6C4
:100A3000B370CDE9000469460395054800F00CF851
:100A400005B030BD04000020001002400018014035
:100A500000140140704700002DE9F84FDFF8B8A1FD
:100A600000220AF1040B144601274FF00F090BF185
:100A7000040E00BF0B6807FA04F52B40AB4274D19B
:100A8000DFF898C14E68A6EB0C0866452BD00DDC4C
:100A9000032E34D005DC36B3012E19D0022E2FD10F
:100AA0001BE0112E16D0122E2AD119E0B8F5881F9E
:100AB00019D006DCB8F5803F15D0B8F5801F1FD1DE
:100AC00011E0B8F5001F0ED0B8F5041F18D10AE0E8
:100AD000CA6815E0CA68121D12E0CA6808320FE041
:100AE000CA680C320CE08A682AB1012A4FF0080269
:100AF00003D0456104E0042202E0056100E0002229
:100B0000FF2B01D8064601E000F104064FEA8405F8
:100B100001D9A5F12005D6F800C009FA05F82CEA9C
:100B2000080C02FA05F54CEA050CC6F800C04D6841
:100B3000ED006AD53A4DAE6946F00106AE61AD6989
:100B400024F0030605F001050095364D06EB050C73
:100B5000DCF80850A6074FEA167809FA08F6B543FC
:100B6000314EB04202D100261AE04EE02F4EB04284
:100B700001D1012614E02E4EB04201D102260FE031
:100B80002C4EB04201D103260AE02B4EB04201D1D7
:100B9000042605E0294EB04201D1052600E00626D4
:100BA00006FA08F62E43CCF808604D68DAF80060C3
:100BB000ED03554601D51E4300E09E432E604D686F
:100BC000AD0305D5DBF800601E43CBF8006004E000
:100BD000DBF800509D43CBF800504D68DEF8006014
:100BE000ED02754601D51E4300E09E432E604D6820
:100BF000AD0205D5084D0C352E681E432E6004E06D
:100C0000054E0C3635689D433560641C102CFFF48E
:100C100031AFBDE8F88F0000000401400000111062
:100C2000001002400000014000080140000C01409B
:100C3000001001400014014000180140001C014058
:100C40008068084000D0012070470AB101617047F8
:100C50000904FBE701488068704700001400002089
:100C600002488168027811448160704714000020B6
:100C7000074810B5016841F010010160032000F041
:100C800073F8002000F006F800F024F8002010BDF2
:100C90000020024070B50D4D04464FF47A7128785B
:100CA000B1FBF0F00A490968B1FBF0F000F029FB54
:100CB00048B9102C07D200222146501E00F034F80B
:100CC00000206C6070BD012070BD00001400002089
:100CD000200000200C4808B5816941F001018161C4
:100CE000816901F001010091C16941F08051C16148
:100CF000C06900F0805000900448416821F0E06134
:100D000041F00071416008BD001002400000014048
:100D100000F01F02012191404009800000F1E02015
:100D2000C0F8001170470000F0B40E4B1B680C4671
:100D3000C3F30223C3F10705042D00D90425191DAF
:100D4000072901D2002300E0DB1E012606FA05F187
:100D5000491E214099409E40761E16403143F0BC0A
:100D600000F04EBE0CED00E0064900F007020868F6
:100D70004FF6FF03184040EA0220034A1043086080
:100D8000704700000CED00E00000FA052DE9F04787
:100D9000DFF8548105460E46D8F8000000F0070041
:100DA000B0420CD2D8F8001021F007013143C8F846
:100DB0000010D8F8000000F00700B0426FD128689A
:100DC0004A4C810712D5400703D5606840F4E060C3
:100DD00060602878000703D5606840F46050606068
:100DE0006068A96820F0F000084360602878C007B8
:100DF00044D06868012816D02168022816D08907D7
:100E000000294CDA616821F0030101436160FFF7BA
:100E100021FF6968074641F2883001290ED0022976
:100E2000814618D026E021688903E9E78901E7E7D0
:100E3000FFF710FFC11B494501D918E081466068E2
:100E4000C0F381000128F3D118E000BFFFF702FFD3
:100E5000C11B49450BD86068C0F381000228F5D159
:100E60000CE000BFFFF7F6FEC11B494502D9032085
:100E7000BDE8F087606810F00C0FF3D1D8F80010CF
:100E8000404601F00701B1420BD9016821F007018A
:100E900031430160006800F00700B04201D001203A
:100EA000E6E72878400705D56068E96820F4E06047
:100EB000084360602878000706D56068296920F437
:100EC000605040EAC100606000F036F86168084A8E
:100ED000C1F30311515CC840064908600020FFF7C8
:100EE000D9FE0020C4E700000020024000100240AC
:100EF000742A000820000020044805490068496859
:100F0000044AC1F30221515CC84070472000002010
:100F100000100240842A0008044805490068496816
:100F2000044AC1F3C221515CC84070472000002030
:100F300000100240842A000812A185B00FC98DE874
:100F40000F0014A0144A006804905168134801F07F
:100F50000C03042B10D0082B0ED1C1F38343C9031B
:100F60001DF803000AD5516804AAC1F34041515C41
:100F70000A4A5043B0FBF1F005B0704708494843B6
:100F8000FAE7000002030405060708090A0B0C0D26
:100F90000E0F1010010200000010024000127A0033
:100FA00000093D002DE9F84F04460078B94DC0070F
:100FB00048D06868C0F38100012807D06868C0F392
:100FC0008100022809D16868C00306D5286880031B
:100FD00038D5606800286FD034E06068B0F5803F95
:100FE0000BD010B1B0F5A02F11D0286820F48030BC
:100FF0002860286820F4802002E0286840F48030CF
:101000002860606888B1FFF725FE064609E0286879
:1010100040F480202860F0E7FFF71CFE801B642866
:1010200075D828688003F7D50CE0FFF713FE064655
:1010300005E000BFFFF70EFE801B6428F0D828688B
:101040008003F7D42078944E80074FF001094FF0C9
:1010500000083BD5686810F00C0F07D06868C0F333
:101060008100022809D16868C00306D42868800777
:1010700014D5206901281FD110E02069B0B1C6F84D
:101080000090FFF7E7FD074605E000BFFFF7E2FD30
:10109000C01B0228C4D828688007F7D52868616972
:1010A00020F0F80040EAC10028600FE0C6F8008098
:1010B000FFF7D0FD074606E0E9E000BFFFF7CAFDF5
:1010C000C01B022823D828688007F7D4207800079F
:1010D0002CD57248A169D9B1C0F80090FFF7BAFDCC
:1010E000074604E0FFF7B6FDC01B02280FD8686A68
:1010F0008007F7D56A484FF4FA510068B0FBF1F069
:10110000009000BF0098411E0091FAD20EE080E0EE
:10111000C0F80080FFF79EFD074604E0FFF79AFD48
:10112000C01B022875D8686A8007F7D4207840076A
:1011300060D5E8690027C00008D4E86940F0805015
:10114000E861E869012700F0805000905548016887
:10115000C90513D40168834641F480710160FFF72B
:1011600079FD824606E000BFFFF774FDA0EB0A00A0
:1011700064284ED8DBF80000C005F5D5E0680128EA
:101180000AD008B1052813D0286A20F0010028628F
:10119000286A20F0040002E0286A40F0010028627A
:1011A000E06841F2883B98B1FFF754FD82460BE0BE
:1011B000286A40F004002862EEE700BFFFF74AFD0E
:1011C000A0EB0A0159455AD8286A8007F6D50CE0E9
:1011D000FFF740FD824605E0FFF73CFDA0EB0A016A
:1011E00059454CD8286A8007F6D41FB1E86920F029
:1011F0008050E861E06988B36968C1F38101022920
:1012000045D00228C6F8608004D0FFF723FD0446CD
:1012100038E034E0FFF71EFD074604E0FFF71AFD53
:10122000C01B02282BD828688001F7D4206AB0F5AB
:10123000803F05D16868A16820F4003008436860E9
:10124000D4E908010843696821F47411084368600F
:10125000C6F86090FFF7FEFC044606E015E000BF0C
:10126000FFF7F8FC001B022809D828688001F7D591
:101270000BE000BFFFF7EEFC001B022802D90320A1
:10128000BDE8F88F28688001F4D40020F8E7012039
:10129000F6E7000000100240000042428004424293
:1012A000200000200070004070B515460E46040076
:1012B00003D094F83D0010B107E0012070BD00207C
:1012C00084F83C00204600F01AF804F10801206878
:1012D000FFF70CFB3146A2682068FFF753FBD4E907
:1012E00001022946236BFFF7E3FAA168206850F852
:1012F000212042F0010240F82120002070BDFFF7BC
:1013000075BB10B5401EB0F1807F01D3012010BD28
:101310004FF0E02460610F21601700F071FB0020A6
:10132000A06107202061002010BD70B5040004D02A
:1013300094F83900002510B106E0012070BD84F852
:101340003850204600F022F8242084F83900206824
:10135000C16821F40051C160204600F021FD2068E1
:10136000016921F4904101612068416921F02A015D
:1013700041612068C16841F40051C160E5632020EB
:1013800084F8390084F83A00002070BD30B585B08B
:101390000024009401940294039400681449884244
:1013A00024D11448816941F480418161816901F44B
:1013B00080410491816941F00401816180690E4D91
:1013C00000F0040004904FF400700090022001909F
:1013D0000320039069462846FFF73EFB2815CDE918
:1013E0000004694628460294FFF736FB05B030BD7D
:1013F0000038014000100240000801402DE9F84388
:10140000044690F83A00994616460D4620284FD1DA
:1014100095B18EB194F83800012849D0012084F8A4
:1014200038000027E763222084F83A00FFF712FC17
:10143000A6858046E68531E00120BDE8F883E08D91
:10144000401EE085A0684346B0F5805F4FF0000283
:101450004FF020012046CDF8009004D000F058FD58
:1014600098B10320E9E700F053FD0028F9D1206985
:1014700000282068406803D0C1B225F8011B0DE0A8
:10148000C0F3080125F8021B08E020690028206845
:10149000406801D000F07F0005F8010BE08D0028C6
:1014A000CDD1202084F83A0084F838700020C4E7B9
:1014B0000220C2E7FEE700001CB5EF218DF8001006
:1014C00001218DF8011014498308154849680A0E56
:1014D0008DF802200A0C8DF803200A0A8DF80420EA
:1014E0008DF8051007218DF8061000218DF80710E2
:1014F0004FF4C8720949FFF781FF07220749684680
:10150000FEF766FE28B969460448FEF74FFE00283C
:1015100000D100201CBD00000C000020AC00002009
:1015200028000020044B4FF4805108B1002200E055
:1015300001221846FFF789BB0014014070B51D4613
:101540001446049E00F072F804FB05F03146BDE835
:10155000704000F049B8000070B5203AD4B21023B2
:10156000082200F063F82C20C10608800C490D4BBE
:1015700001EB041500204FF6FF742A5C0021D6070A
:1015800002D01F261E8000E01C80491C5208C9B2F0
:101590000829F4D3401CC0B21028EED370BD00005F
:1015A0008424000800000260F0B516460D4604468B
:1015B0004FF4A07714E000BF04F10800F02802D92E
:1015C00000241035ADB205F11000B84201D9002455
:1015D000254629462046FFF7BFFF0834A4B2761CF3
:1015E0003278002AE8D1F0BD10B500222C23DC06A9
:1015F0002380034B01E01980521C8242FBD310BDB3
:101600000000026008B50120FFF78CFF00F0EAF847
:1016100000F02CF84FF6FF70002100904FF4A073FB
:10162000F0220846FFF78AFF08BD000070B54FF0B2
:10163000C0452A242C800C4C060A2680C6B226807F
:101640001044401E020A2280C0B220802B20288035
:10165000080A2080C8B22080C818401E010A2180D4
:10166000C0B2208070BD00000000026000B54FF0E5
:10167000C041CF2008805948002202808122028088
:1016800030220280ED220A8064220280032202803E
:101690001222028081220280E8220A8085220280B2
:1016A0001022028078220280CB220A803922028016
:1016B0002C22028000220280342202800222028038
:1016C000F7220A8020220280EA220A800022028079
:1016D0000280B1220A80002202801B220280B622F0
:1016E0000A800A220280A2220280C0220A803522B9
:1016F0000280C1220A8011220280C5220A8045226E
:1017000002800280C7220A80A2220280F2220A807E
:101710000022028026220A8001220280E0220A8022
:101720000F22028026220280242202800B220280C5
:101730000E2202800922028054220280A822028006
:10174000462202800C220280172202800922028097
:101750000F2202800722028000220280E1220A80FA
:1017600000220280192202801B22028004220280B1
:1017700010220280072202802A2202804722028051
:101780003922028003220280062202800280302257
:101790000280382202800F22028036220A80C8226C
:1017A00002802A220A800022028002800280EF2228
:1017B00002802B220A800022028002800122028005
:1017C0003F2202803A220A8055220280112008809E
:1017D0000348FEF75FFD2920088000BD000002607D
:1017E000FCBF020070B50A4C002202212046FFF720
:1017F0002CFA084D2846FEF74DFD01220221204615
:10180000FFF723FA2846BDE87040FEF743BD00000D
:1018100000180140FCBF020000B587B01C216846DB
:10182000FEF7B9FC15484FF0204110220160144921
:10183000416000218160C160C0E904128161C16121
:1018400013020162C0E90913C1620163416381634C
:101850000F20FF230090CDE90103CDE90302112001
:10186000CDE90501002269460448FFF71DFD054842
:10187000C16941F48061C16107B000BD680000200A
:10188000040100A0000001402DE9F04F85B00024C4
:101890003E480094019402940394816941F0100140
:1018A0008161816901F010010491816941F00401B5
:1018B0008161816901F004010491816941F00801AD
:1018C0008161816901F008010491816941F0400161
:1018D0008161816901F040010491816941F0200139
:1018E00081618069DFF8A88000F020000490012267
:1018F00023214046FFF7A9F9DFF898904FF480576D
:10190000002239464846FFF7A0F9DFF88CB00022E4
:1019100002215846FFF799F90125CDE90054DFF877
:101920007CA0694650460294FFF796F823200326D0
:10193000CDE90005CDE9024669464046FFF78CF83F
:1019400000970396CDE9015469464846FFF784F8AD
:10195000280200901248CDE9010469465046FFF77D
:101960007BF80220CDE90005CDE9024669465846DC
:10197000FFF772F8002201211720FFF7D5F9172091
:10198000FFF7C6F905B0BDE8F08F00000010024077
:10199000000C014000140140001801400008014003
:1019A0000000111010B50F4C0D480C2120604FF4B1
:1019B000614060600020A060E060C4E90401A061B3
:1019C000E0612046FFF7B1FC2068C16841F02001CA
:1019D000C1602068C16841F01001C16010BD000005
:1019E000003801402800002003490A685206FCD54F
:1019F0000149091D0860704700380140FEE7704743
:101A00000907090E002806DA00F00F0000F1E020B7
:101A100080F8141D704700F1E02080F80014704732
:101A200010B5044600F05AF900F036F90120FFF72E
:101A3000DBFF042000F05BF90220FFF7D5FF204612
:101A4000FFF7D2FFE01D00F03FF94FF4FA60FFF717
:101A500033FD08B1407A10BDFF2010BD10B500F075
:101A60003DF900F019F90120FFF7BEFF032000F057
:101A70003EF90120FFF7B8FF052000F025F94FF4EB
:101A8000FA60FFF719FD08B1407A10BDFF2010BDC4
:101A90002DE9F0411E4614460D46074600F01EF99A
:101AA00000F0FAF80120FFF79FFF082000F01FF96F
:101AB0001B20FFF799FF3846FFF796FF280AFFF72C
:101AC00093FFE8B2FFF790FF200AFFF78DFFE0B227
:101AD000FFF78AFF07EB1520E9B2084400EB14205A
:101AE000E1B20844243000F0EFF84FF4FA60FFF759
:101AF000E3FC58B1C27A837A417A02EB0322328046
:101B0000427B007B02EB0020708000E0FF21084652
:101B1000BDE8F08110B500F0E1F800F0BDF801205B
:101B2000FFF762FF032000F0E2F80320FFF75CFFFD
:101B3000072000F0C9F84FF4FA60FFF7BDFC08B1C8
:101B4000407A10BDFF2010BD10B500F0C7F800F0BE
:101B5000A3F80120FFF748FF032000F0C8F8052094
:101B6000FFF742FF092000F0AFF84FF4FA60FFF7EB
:101B7000A3FC08B1407A10BDFF2010BD70B50C4623
:101B8000054600F0ABF800F087F80120FFF72CFFC6
:101B9000062000F0ACF80620FFF726FF2846FFF7E6
:101BA00023FF200AFFF720FFE0B2FFF71DFF05EB40
:101BB0001420E1B208440D3000F086F84FF4FA60CA
:101BC000FFF77AFC08B1407A70BDFF2070BD0000BD
:101BD00030B589B0054600F081F800F05DF80120CD
:101BE000FFF702FF032000F082F81D20FFF7FCFE44
:101BF000212000F069F84FF4FA60FFF75DFC38B17E
:101C0000447AC17A807A01EB002028805CB100E040
:101C1000FF242046FEF72EFD01460DA000F0ACF992
:101C200009B0204630BD4FF6FF70002100904FF400
:101C3000A073F0220846FFF781FC2A8806A101A8BC
:101C400000F0AAF90A2101AA0846FFF7ADFCE7E770
:101C50000D0A2573000000006E756D626572206FBD
:101C600066206D6F64656C733A2025640000000087
:101C700070470000012202210148FEF7E6BF000084
:101C8000000C0140002202210148FEF7DEBF0000E7
:101C9000000C01407047000010B50A4C6068000E4F
:101CA000FFF7A2FE6068C0F30740FFF79DFEA08823
:101CB000C0F30720FFF798FE2079BDE81040FFF73A
:101CC00093BE00000C00002010B50446000AFFF788
:101CD0008BFEE0B2BDE81040FFF786BE10B5EF20E6
:101CE000FFF782FEBDE810400120FFF77DBE10B572
:101CF0000446C0F30720FFF777FEE0B2BDE81040CE
:101D0000FFF772BEFEF7ACBF30B58FB02821684632
:101D1000FEF741FA14210AA8FEF73DFA0121080452
:101D2000CDE900100024029402250491CDE907506A
:101D30004FF4E01009906846FFF734F90F20CDE921
:101D40000A056802CDE90C4002210AA80E94FFF7AB
:101D50001DF80FB030BD00000D48016841F00101D1
:101D6000016041680B4A1140416001680A4A114014
:101D70000160016821F480210160416821F4FE01C5
:101D800041604FF41F0181600449C003086070473F
:101D9000001002400000FFF8FFFFF6FE08ED00E033
:101DA0002DE9F041044600680169E26821F44051E0
:101DB000114301612169A0680843616908432168F2
:101DC000CA6841F20C639A430243CA6020684169C1
:101DD000A26921F44071114341614C492068642596
:101DE000322688423CD1FFF797F800EBC00101EBA7
:101DF000001061688900B0FBF1F7FFF78DF800EB88
:101E0000C00101EB00106168B0468900B0FBF1F041
:101E1000B0FBF5F06FF01801484307EB800106EBCB
:101E20000110B0FBF5F000F0F006FFF775F800EBDD
:101E3000C00101EB001061688900B0FBF1F0B0FB5C
:101E4000F5F006EB0016FFF767F800EBC00101EBB9
:101E5000001061688900B0FBF1F7FFF75DF83BE027
:101E6000FFF74AF800EBC00101EB00106168890040
:101E7000B0FBF1F7FFF740F800EBC00101EB0010F9
:101E80006168B0468900B0FBF1F0B0FBF5F06FF08F
:101E90001801484307EB800106EB0110B0FBF5F099
:101EA00000F0F006FFF728F800EBC00101EB00108E
:101EB00061688900B0FBF1F0B0FBF5F006EB0016AD
:101EC000FFF71AF800EBC00101EB00106168890010
:101ED000B0FBF1F7FFF710F800EBC00101EB0010C9
:101EE00061688900B0FBF1F0B0FBF5F06FF018010C
:101EF000484307EB800108EB0110B0FBF5F02168C7
:101F000000F00F0030448860BDE8F08100380140E7
:101F10002DE9F041984617460E460446069D1DE001
:101F2000681C1BD02DB1FEF795FEA0EB0800A8425F
:101F300014D92068C16821F4D071C160206841695A
:101F400021F001014161202084F8390084F83A0031
:101F5000002084F838000320BDE8F0812068006884
:101F600036EA000004D00020B842D9D00020F3E7C0
:101F70000120F9E7FEE700000FB4054B10B503A9F7
:101F8000044A029800F02CF810BC5DF814FB000025
:101F9000AB220008240000200FB4084B10B504A9A0
:101FA00002AA039800F01CF8044602A9002000F0E1
:101FB00077F9204610BC5DF814FB0000A122000850
:101FC00002E008C8121F08C1002AFAD17047704702
:101FD000002001E001C1121F002AFBD17047000060
:101FE0002DE9FF4F8DB09B460F460446002606E0C4
:101FF00025280BD05A460F999047641C761C2078F0
:102000000028F5D111B03046BDE8F08F0025A84674
:102010000122984900E0054314F8013F203B02FAF1
:1020200003F00842F7D120782E2817D114F8010FB9
:1020300045F004052A280ED06FF02F022078A0F179
:10204000300109290AD808EB880102EB410100EBB5
:102050000108641CF2E757F8048B641C20786C2894
:102060000DD004DC4C2812D06A2811D104E0742869
:102070000DD07A280CD10AE045F4001507E061780C
:1020800045F48015814202D1641C05F58015641C5D
:102090002278692A45D008DC002AB3D0582A69D0B2
:1020A000632A10D0642A08D13BE0702A67D0732AD3
:1020B00013D0752A5CD0782A5CD010465A460F9906
:1020C0009047761CD3E017F8040B8DF80000002031
:1020D0008DF80100E946012003E057F8049B4FF01A
:1020E000FF3069074FF0000501D40AE06D1C45453B
:1020F0000DDA8542FADB19F805100029F6D106E061
:102100006D1C8542FCDB19F805100029F8D12E441E
:1021100004E019F8010B5A460F9990476D1EF8D24A
:10212000A5E00A200021CDE90801C5F302500228EC
:102130000DD001CFC117031E71F100030DDA4FF06E
:10214000000CD0EB0C006CEB01012D2308E0FF1D0F
:1021500027F00707F7E80201EDE72B0504D52B234D
:102160008DF8283001233BE0EB0739D02023F7E737
:102170000A2000E010200021CDE9080107E010202E
:10218000002145F00405CDE908014FF00808C5F32A
:10219000025002280FD001CF00214FF0000A2B0778
:1021A0001FD5702A0DD0DDE908C38CF0100C5CEA55
:1021B000030C0CD015E0FF1D27F00707F7E802011C
:1021C000EBE740228DF828204FF0010A0BE050EA9F
:1021D000010306D030238DF828308DF82920022302
:1021E0009A46582A04D024A20DF120090B9209E046
:1021F00026A2F9E7DDE90823FDF7F7FF0B9B9B5CBF
:1022000009F8013D50EA0102F4D1ADEB090020309C
:102210000890680701D44FF001080899884502DD4D
:10222000A8EB010000E000208046002506E00AA897
:102230005A46405D0F9990476D1C761C5545F6DB5C
:1022400004E030205A460F999047761CB8F10001FF
:10225000A8F10108F5DC05E019F8010B5A460F99C1
:102260009047761C0899481E08900029F4DC641CED
:10227000C5E60000092801003031323334353637E5
:1022800038396162636465660000000030313233C2
:102290003435363738394142434445460000000062
:1022A0000A68531C0B601070704738B504468DF8EF
:1022B000000069460320ABBE204638BD10B50121A1
:1022C0000348FEF7BDFC012800D0002010BD00002F
:1022D00000080140FEF7CCFCFFF716FDFFF7D4FA2B
:1022E000FFF760FBFFF798FAFFF78CF90748FFF755
:1022F0006FFC064D0124AD1EFFF7E0FF18B12C70F6
:10230000FFF7C0FCF8E7FFF7B5FCF5E70200002097
:1023100070B588B04FF6FF744FF4A075FFF79EFBC1
:1023200040B100212B46F02208460094FFF706F941
:102330002DA217E00120FFF773FBC0B100212B464F
:10234000F02208460094FFF7F9F80A212AA208466D
:10235000FFF72AF900212B46F02208460094FFF7E8
:10236000EDF82FA20A210846FFF71EF9D6E706ABC3
:10237000632200210120FFF78BFB00284FF00001B2
:1023800040F2DC562B464FF0F002084600940BD08A
:10239000FFF7D4F80A2129A20846FFF705F93046CD
:1023A000FEF712FB08B070BDFFF7C8F80A2129A29A
:1023B0000846FFF7F9F800212B46F0220846009462
:1023C000FFF7BCF8BDF81A30BDF8182028A101A805
:1023D000FFF7E2FD0A2101AA0846FFF7E5F83046BB
:1023E000FEF7F2FADBE700004E6F20726573706F44
:1023F0006E7365210000000043616E6E6F74206390
:102400006F6D6D756E69636174652077697468209E
:10241000746865206D6F64756C65210000000000B4
:10242000506C6561736520707265737320796F7588
:10243000722066696E6765722E00000056657269CB
:102440006669636174696F6E206661696C65642E8C
:1024500000000000566572696669636174696F6E99
:10246000207375636365656465642E000000000079
:102470002049443A25642073636F72653A256420CD
:10248000000000000000000000000000000000004C
:1024900000000000000000183C3C3C181800181810
:1024A00000000000000000666666000000000000FA
:1024B000000000000000006C6CFE6C6C6CFE6C6C2C
:1024C000000000000018183C66060C183060663CDE
:1024D0001818000000000E1B5B6E30180C76DAD85E
:1024E000700000000000001C36361C06F66666DC34
:1024F0000000000000000018181800000000000094
:10250000000000000000003018180C0C0C0C0C1817
:10251000183000000000000C18183030303030182F
:10252000180C000000000000006C38FE386C000041
:1025300000000000000000000018187E18180000BD
:10254000000000000000000000000000000038381B
:1025500030180000000000000000007E00000000B5
:1025600000000000000000000000000000003838FB
:10257000000000000000006060303018180C0C06ED
:102580000600000000000078CCECECCCDCDCCC7861
:102590000000000000000030383E30303030303075
:1025A000000000000000003C66666030180C067EEB
:1025B000000000000000003C666660386066663C13
:1025C000000000000000000C0C6C6C6C66FE60608B
:1025D000000000000000007E0606063E6060301E1F
:1025E0000000000000000038180C3E666666663C7D
:1025F000000000000000007E60303018180C0C0C49
:10260000000000000000003C66666E3C7666663C9A
:10261000000000000000003C666666667C30181C06
:1026200000000000000000000038380000003838CA
:1026300000000000000000000038380000003838BA
:10264000301800000000006030180C060C183060D4
:10265000000000000000000000007E007E0000007E
:1026600000000000000000060C18306030180C0656
:10267000000000000000003C6666301818001818C2
:10268000000000000000007EC3C3F3DBDBF303FEA9
:1026900000000000000000183C6666667E66666604
:1026A000000000000000003E6666663E6666663E0C
:1026B000000000000000003C666606060666663CF8
:1026C000000000000000001E366666666666361E64
:1026D000000000000000007E0606063E0606067E9C
:1026E000000000000000007E0606063E0606060604
:1026F000000000000000003C666606067666667C08
:1027000000000000000000666666667E666666661B
:10271000000000000000003C181818181818183C99
:102720000000000000000060606060606066663C61
:1027300000000000000000666636361E363666660B
:102740000000000000000006060606060606067EDB
:1027500000000000000000C6C6EED6D6D6C6C6C62B
:1027600000000000000000C6C6CEDEF6E6C6C6C603
:10277000000000000000003C666666666666663C17
:10278000000000000000003E6666663E0606060683
:10279000000000000000003C666666666666663CF7
:1027A000306000000000003E6666663E3666666683
:1027B000000000000000003C66060C183060663C1B
:1027C000000000000000007E1818181818181818CB
:1027D0000000000000000066666666666666663C8D
:1027E00000000000000000666666666666663C18CB
:1027F00000000000000000C6C6C6D6D6D66C6C6CC1
:102800000000000000000066662C1818346666663A
:1028100000000000000000666666663C1818181884
:10282000000000000000007E606030180C06067E8C
:10283000000000000000003C0C0C0C0C0C0C0C0CFC
:102840000C0C3C0000000006060C0C181830306020
:10285000600000000000003C30303030303030305C
:1028600030303C0000183C66000000000000000012
:102870000000000000000000000000000000000058
:102880000000FF00001C18300000000000000000E5
:102890000000000000000000003C60607C66667C78
:1028A0000000000000000006063E66666666663EA2
:1028B0000000000000000000003C66060606663CC2
:1028C0000000000000000060607C66666666667C52
:1028D0000000000000000000003C66667E06063C2A
:1028E00000000000000000780C0C0C7E0C0C0C0C9E
:1028F0000000000000000000007C66666666667CE2
:1029000060603E0000000006063E6666666666661B
:102910000000000000001818001E18181818187E73
:102920000000000000003030003C303030303030EB
:1029300030301E0000000006066666361E366666EB
:10294000000000000000001E181818181818187E43
:102950000000000000000000007ED6D6D6D6D6C605
:102960000000000000000000003E666666666666C5
:102970000000000000000000003C66666666663CE1
:102980000000000000000000003E66666666663ECD
:102990000606060000000000007C66666666667C2F
:1029A00060606000000000000066760E0606060605
:1029B0000000000000000000007C06063C60603E55
:1029C000000000000000000C0C7E0C0C0C0C0C78BD
:1029D0000000000000000000006666666666667C17
:1029E00000000000000000000066666666663C1895
:1029F000000000000000000000C6D6D6D6D66C6CE1
:102A000000000000000000000066663C183C66669E
:102A10000000000000000000006666666666663C16
:102A200030180F0000000000007E6030180C067E99
:102A300000000000000000301818180C060C1818D0
:102A40001830000000000018181818181818181866
:102A5000181818000000000C1818183060301818EA
:102A6000180C00000000008EDB7100000000000068
:102A7000000000000000000000000000010203044C
:102A8000060708090000000001020304AC2A000840
:102A90000000002028000000C01F0008D42A000801
:102AA0002800002018060000D01F000800000000C9
:102AB000000000000000000000000000FFFFFFFF1A
:102AC00001000000100000000000000000A24A0405
:042AD0000000000002
:0400000508000131BD
:00000001FF
