:020000040800F2
:10000000C80E0020F91C0008890700088B070008AB
:100010008F070008930700089707000800000000FA
:100020000000000000000000000000009B07000826
:100030009D070008000000009F070008A1070008B6
:10004000131D0008131D0008131D0008131D0008D0
:10005000131D0008131D0008131D0008131D0008C0
:10006000131D0008131D0008131D0008131D0008B0
:10007000131D0008131D0008131D0008131D0008A0
:10008000131D0008131D0008131D0008131D000890
:10009000131D0008131D0008131D0008131D000880
:1000A000131D0008131D0008131D0008131D000870
:1000B000131D0008131D00086D1C0008131D000807
:1000C000131D0008131D0008131D0008131D000850
:1000D000131D0008E31B000845190008D50D000892
:1000E000131D0008131D0008131D000800F002F87E
:1000F00000F05AF80AA090E8000C82448344AAF168
:100100000107DA4501D100F04FF8AFF2090EBAE865
:100110000F0013F0010F18BFFB1A43F0010318473B
:10012000C0420000E04200000A444FF0000C10F80A
:10013000013B13F0070408BF10F8014B1D1108BF65
:1001400010F8015B641E05D010F8016B641E01F805
:10015000016BF9D113F0080F1EBF10F8014BAD1C55
:100160000C1B09D16D1E58BF01F801CBFAD505E073
:1001700014F8016B01F8016B6D1EF9D59142D6D3CD
:10018000704700000023002400250026103A28BFF5
:1001900078C1FBD8520728BF30C148BF0B607047F9
:1001A0001FB51FBD10B510BD03F0DFFC1146FFF7F2
:1001B000F7FF00F0BCF903F0FDFC03B4FFF7F2FF1A
:1001C00003BC01F0B3FC00007FB504460D461646A3
:1001D000002C02DB20208DF80000002C03DA2D20FB
:1001E0008DF8000064424FF47A7094FBF0F03030E8
:1001F000C0B28DF801004FF47A7094FBF0F100FB6F
:100200001140642190FBF1F03030C0B28DF8020053
:10021000642094FBF0F100FB11400A2190FBF1F007
:100220003030C0B28DF803000A2094FBF0F100FBDF
:1002300011403030C0B28DF8040020208DF8050048
:100240008DF806008DF807008DF808008DF809007C
:100250008DF80A008DF80B008DF80C008DF80D005C
:100260008DF80E008DF80F00F1B2E8B202236A4655
:1002700000F0CBFC7FBD08B50121082002F0E8FAB0
:100280004FF44070ADF8000001208DF802004820C6
:100290008DF803006946E24801F01CFE08BD10B568
:1002A000322001F001FC01F03EF804465CB9022363
:1002B000DCA20621002000F0A8FC0223DEA204211B
:1002C000002000F0A2FC40F2DC5001F0EDFB10BD7C
:1002D00070472DE9F04100250027DEE0052F31D2DF
:1002E000DFE807F003315F87AE00681CC5B2022368
:1002F000D6A20621002000F088FC0223D8A2042107
:10030000002000F082FC00F0E6FE0446BCB90120AB
:1003100000F0FEFE044674B90223D6A20621002096
:1003200000F073FC0223CEA20421002000F06DFC3B
:100330000025012706E02046FFF7CAFF02E020461D
:10034000FFF7C6FFA1E0681CC5B20223CEA20621BA
:10035000002000F05AFC0223C1A20421002000F07A
:1003600054FC00F0B8FE0446BCB9022000F0D0FEF8
:10037000044674B90223BFA20621002000F045FC08
:100380000223B7A20421002000F03FFC0025022731
:1003900006E02046FFF79CFF02E02046FFF798FFAB
:1003A00073E00223BDA20621002000F02EFC0223F0
:1003B000ABA20421002000F028FC00F0CCFE044693
:1003C0006CB90223BAA20621002000F01EFC022311
:1003D000A3A20421002000F018FC032704E020461B
:1003E000FFF776FF002500274FF47A7001F05CFBE1
:1003F0004BE00223A4A20621002000F006FC022309
:1004000097A20421002000F000FC00F009FF044640
:100410006CB90223ABA20621002000F0F6FB0223F8
:100420008FA20421002000F0F0FB042703E0002746
:100430002046FFF74DFF4FF47A7001F035FB24E0C2
:1004400000BF0126B6F5967FFBDA3146022000F0A8
:1004500004FF0446A4B902239FA20621002000F055
:10046000D4FB02237EA20421002000F0CEFB9F4893
:1004700001F0C9F840F2DC5001F016FBBDE8F08154
:1004800000272046FFF724FF00BF00BF4FF448704D
:1004900001F00AFB052D00D100E01FE700BF00BFFF
:1004A000ECE738B5022392A20621002000F0ADFB54
:1004B00000F011FE0446002C38D1012000F028FE87
:1004C0000446002C22D16B464FF496720021012085
:1004D00001F051F8044664B9022389A206210020E4
:1004E00000F093FB02238BA20421002000F08DFB7F
:1004F00018E002238CA20621002000F086FB0223D4
:1005000084A20421002000F080FB0BE0022386A2DD
:100510000621002000F079FB02237EA204210020A6
:1005200000F073FB4FF47A7001F0BEFA38BDFFF7AC
:10053000A2FE00F0A6F9482001F09CFA01F0F0FAC2
:1005400000F020FA00F038FA00F0BAFA02237BA299
:100550000021084600F059FB02237DA21946002025
:1005600000F053FB02237AA20421002000F04DFB8F
:10057000022377A20621002000F047FB4FF416501B
:1005800000F041FC00F0F4FC4FF4614001F009FA86
:1005900000F008FD05E0022372A21946002000F0D9
:1005A00034FB744801F054F80028F4D1022372A2FD
:1005B000194600F02AFB642001F076FA2FE0FFF7DD
:1005C00070FF4FF48071164801F017FD80B90A20C2
:1005D00001F06AFA4FF48071114801F00EFD38B94C
:1005E000FFF777FE02231EA20421002000F00DFB7E
:1005F0004FF400710A4801F000FD80B90A2001F0B3
:1006000053FA4FF40071064801F0F7FC38B9FFF7D0
:1006100046FE022308A20421002000F0F6FACEE7ED
:10062000000C01402046494E4745522044454C4C61
:10063000204F4B20000000002046554E3A44454CC8
:1006400020465249474552200000000020546F7553
:1006500063682066696E67657221202000000000D3
:100660002046554E3A41444420465249474552207F
:100670000000000020466967657220436F72726552
:10068000637420200000000020546F7563682041CF
:100690006761696E21202020000000002046696704
:1006A000657220436F6D706172652020000000004C
:1006B000204669676572206172652073616D6520EF
:1006C0000000000020436F6D7065722053756363F6
:1006D00065737321000000002020414444205375BD
:1006E0006363657373212020000000000000002078
:1006F00020426567696E20436F6D706172652000EE
:1007000020436F6D7065722050415353212020208B
:10071000000000002046554E3A43505220465249B0
:10072000474552200000000020436F6D7065722025
:100730004661696C21202020000000002046494EBF
:100740004745525052494E54204944200000000071
:100750002020202020202020202020202020202099
:1007600000000000205368616B48616E64732E2E98
:100770002E2E00009C0400202052656164792054D4
:100780006F20576F726B2000704700BFFEE700BFFD
:10079000FEE700BFFEE700BFFEE770477047704707
:1007A000704700000CB50020019000906C48006874
:1007B00040F480306A49086000BF6948006800F46E
:1007C000003000900198401C0190009818B90198E1
:1007D000B0F5A06FF1D16248006800F4003010B1AC
:1007E0000120009001E0002000900098012843D1F2
:1007F0005C48006840F010005A49086008460068EC
:1008000020F0030008600846006840F0020008601D
:100810005348406852494860084640684860084666
:10082000406840F4806048600846406820F47C10CE
:1008300048600846406840F4E81048600846006890
:1008400040F08070086000BF4548006800F000700C
:100850000028F9D04248406820F003004049486031
:100860000846406840F00200486000BF3C484068CD
:1008700000F00C000828F9D10CBD10B5FFF792FF6D
:1008800010BD10B53648006840F0010034490860DA
:1008900008464068344908403149486008460068C5
:1008A000324908402E4908600846006820F480203C
:1008B00008600846406820F4FE0048604FF41F00BE
:1008C0008860FFF7DAFF4FF000602949086010BD2B
:1008D00010B5002100200022214B5B6803F00C01C1
:1008E00021B1042906D0082928D107E0214B224C48
:1008F000236027E01F4B204C236023E0184B5B68EC
:1009000003F47010164B5B6803F48032022303EB90
:10091000904022B9194B4343174C23600DE0104B14
:100920005B6803F4003323B1144B4343124C236040
:1009300003E0104B4343104C236003E00D4B0E4C7F
:10094000236000BF00BF064B5B68C3F303130C4C6E
:10095000E15C094B1B68CB40074C236010BD0000D5
:1009600000100240002002400000FFF8FFFFF6FEEA
:1009700008ED00E000127A000400002000093D00AC
:100980000800002008B50121102001F061FF0720B8
:10099000ADF8000010208DF8030003208DF8020050
:1009A0006946044801F096FA0721024801F03FFB2E
:1009B00008BD00000010014000B585B001214805C8
:1009C00001F053FF0121082001F042FFC020ADF8E3
:1009D000000003208DF802001C208DF803006946FA
:1009E000F44801F077FAF44801F0C2FB0020ADF8BA
:1009F00008004BF6FF70ADF80A003020ADF80C008F
:100A00004FF48060ADF80E000001ADF81000EB4827
:100A100001900121E84801F042FC01A9E64801F0FB
:100A2000C0FB05B000BD70B504460D4600BF4FF4D5
:100A30000031E14801F05AFD0028F8D10121DE48DB
:100A400001F051FC00BFDE49DB4801F02DFD00281C
:100A5000F9D000227821D84801F09BFC00BFD94989
:100A6000D54801F021FD0028F9D02146D24801F0F7
:100A70008AFC00BFD349891CCF4801F015FD00282E
:100A8000F8D02946CC4801F07EFC00BFCD49891C36
:100A9000C94801F009FD0028F8D00121C64801F03D
:100AA0002EFC70BD10B5044621460020FFF7BBFFA9
:100AB00010BD10B5044621464020FFF7B4FF10BD1D
:100AC00010B5642000F0F0FFAE20FFF7EBFF202010
:100AD000FFF7E8FF1020FFF7E5FFB020FFF7E2FF88
:100AE000C820FFF7DFFF0020FFF7DCFF1020FFF733
:100AF000D9FF4020FFF7D6FF8120FFF7D3FFFF206B
:100B0000FFF7D0FFA120FFF7CDFFA620FFF7CAFF18
:100B1000A820FFF7C7FF3F20FFF7C4FFA420FFF77F
:100B2000C1FFD320FFF7BEFF0020FFF7BBFFD5209A
:100B3000FFF7B8FFF020FFF7B5FFD920FFF7B2FFAE
:100B40002220FFF7AFFFDA20FFF7ACFF1220FFF7FC
:100B5000A9FFDB20FFF7A6FF2020FFF7A3FF8D20D2
:100B6000FFF7A0FF1420FFF79DFFAF20FFF79AFFCC
:100B700010BD70B504460D4605F1B001C8B2FFF7CF
:100B800091FF102141EA1410FFF78CFF04F00F01D0
:100B900041F00100FFF786FF70BD70B506460024E6
:100BA00015E004F1B001C8B2FFF77CFF0020FFF7A9
:100BB00079FF1020FFF776FF002504E03046FFF7AD
:100BC00078FF681CC5B2802DF8DB601CC4B2082C0D
:100BD000E7DB70BD10B50020FFF7DFFF10BD10B5DB
:100BE0008D20FFF75FFF1420FFF75CFFAF20FFF7BA
:100BF00059FF10BD10B58D20FFF754FF1020FFF7EF
:100C000051FFAE20FFF74EFF10BD2DE9F04706461D
:100C1000894617469A464FF0000800240025BAF18D
:100C2000010F03D0BAF1020F5ED125E020E0785D1C
:100C3000203800F0FF087E2E04DD002609F10100B7
:100C400000F0FF0949463046FFF793FF002409E012
:100C500008EB48015C4A02EB4101085DFFF729FF00
:100C6000601CC4B2062CF3DBB01DC6B2681CC5B252
:100C7000785D0028DBD137E032E0785D203800F085
:100C8000FF08782E04DD002609F1010000F0FF09BD
:100C900049463046FFF76DFF002407E004EB0811DA
:100CA0004A4A505CFFF705FF601CC4B2082CF5DB14
:100CB00009F10100C1B23046FFF75BFF002408E0F4
:100CC00004EB08110831414A505CFFF7F2FE601C4A
:100CD000C4B2082CF4DB06F10800C6B2681CC5B229
:100CE000785D0028C9D100BF00BFBDE8F0872DE9BD
:100CF000F04180460E46174600247D0131464046AD
:100D0000FFF737FF00BF06E03149485DFFF7D1FE2E
:100D10006D1C601CC4B2102CF6DB701CC1B24046C6
:100D2000FFF727FF002406E02949485DFFF7C1FED1
:100D30006D1C601CC4B2102CF6DBBDE8F0812DE9FF
:100D4000F05F06460F4690461C46DDF828A04FF09F
:100D5000000BE11704EB5171C910A4EBC10131B9CB
:100D60002046E11704EB5171C1F3C70506E02046A8
:100D7000E11704EB5171C910491CCDB23D4614E096
:100D800029463046FFF7F5FEB1460AE059460BF119
:100D9000010B1AF80100FFF78CFE09F1010000F0C9
:100DA000FF09C145F2DB681CC5B2A542E8DBBDE81E
:100DB000F09F0000000C014000540040801A060023
:100DC0000100030082000700C83B0008F03D000856
:100DD0001800002010B540F225515F4802F06AFE6D
:100DE00080B15D4802F0E6FDC4B25C48007840285E
:100DF00008DA5B4859490978445458480078401C3F
:100E00005649087010BD10B586B00446012118205F
:100E100001F01EFD0121880401F027FD4FF48060E0
:100E2000ADF8140010208DF8170003208DF816007F
:100E300005A94C4801F04EF84FF48060ADF814005D
:100E400018208DF8170005A9474801F043F84FF422
:100E50000060ADF8140004208DF8170005A9424881
:100E600001F038F80121880401F019FD00214FF448
:100E7000802001F014FD01940020ADF80800ADF8C9
:100E80000A00ADF80C00ADF810000C20ADF80E0013
:100E900001A9314802F091FC27208DF800000320C1
:100EA0008DF801008DF8020001208DF803006846DE
:100EB00000F047FF012240F22551274802F015FDBE
:100EC0000121254802F005FD00202849086006B0F0
:100ED00010BD70B505460E46012024490860002467
:100EE0000CE000BF40211C4802F0CEFD0028F9D0E4
:100EF000295D194802F05AFD601CC4B2B442F0DB0F
:100F000000BF4021144802F0BFFD0028F9D00020A6
:100F1000124908701549086070BD2DE9F041064678
:100F20000F460E4805780024012000F0BDFD0B4857
:100F3000007885420ED16DB100BF04E00848005D25
:100F40003055601CC4B2AC42F8DB0448077800207E
:100F500002490870BDE8F081004800409804002074
:100F6000C404002000100140000C0140A8012242EE
:100F700008B50121102001F06BFC0820ADF800003D
:100F800010208DF8030003208DF802006946044804
:100F900000F0A0FF0821024801F049F808BD000058
:100FA0000010014008B50121042001F051FC40204F
:100FB000ADF8000028208DF8030003208DF8020012
:100FC0006946FA4800F086FF08BD00BFF849098865
:100FD00001F040010029F9D0F549091D088070474A
:100FE00010B5EF20FFF7F1FF0120FFF7EEFF10BD76
:100FF00010B5F0490968080EFFF7E7FFED480068F3
:10100000C0F30740FFF7E1FFEA480088C0F307207C
:10101000FFF7DBFFE7490878FFF7D7FF10BD10B5F2
:1010200004462046FFF7D1FF10BD10B50446C4F3B7
:101030000720FFF7CAFFE0B2FFF7C7FF10BD10B5EA
:1010400004462046FFF7C1FF10BD10B5044620122C
:10105000FFF7BBFFE0B2FFF7B8FF10BD7CB5054658
:10106000EF208DF8000001208DF80100D1480068C4
:10107000000E8DF80200CF480068000C8DF80300C8
:10108000CC480088000A8DF80400CA4800788DF822
:10109000050007208DF8060000208DF80700C649DE
:1010A000088012E0012000F0FFFCC348008800F433
:1010B000004050B10020C04908806946BF4802F096
:1010C0003EFD04460CB120467CBD681E80B2050082
:1010D000E8D100BFF8E770B5FFF782FFFFF788FFA0
:1010E0000120FFF79CFF0320FFF79FFF0120FFF780
:1010F000A6FF05263046FFF7A8FF4FF4FA60FFF77A
:10110000ADFF05460DB16C7A00E0FF24204670BDAE
:101110002DE9F0410546FFF763FFFFF769FF012066
:10112000FFF77DFF0420FFF780FF0220FFF787FF16
:101130002846FFF74AFFEF1D3846FFF786FF4FF4BA
:10114000FA60FFF78BFF06460EB1747A00E0FF24C9
:101150002046BDE8F08170B5FFF742FFFFF748FF7A
:101160000120FFF75CFF0320FFF75FFF0320FFF77D
:1011700066FF07263046FFF768FF4FF4FA60FFF777
:101180006DFF05460DB16C7A00E0FF24204670BD6E
:101190002DE9F04781460D4616461F46FFF720FF12
:1011A000FFF726FF0120FFF73AFF0820FFF73DFF7A
:1011B0000420FFF744FF4846FFF707FF2812FFF718
:1011C00004FFE8B2FFF701FF3012FFF7FEFEF0B2B6
:1011D000FFF7FBFE09F10D0000EB2520E9B2084402
:1011E00000EB2620F1B200EB010A5046FFF72DFF7D
:1011F0004FF4FA60FFF732FF044664B194F80980B7
:10120000E07AA17A00EB01203880607B217B00EB43
:101210000120788001E04FF0FF084046BDE8F087EC
:1012200070B5FFF7DDFEFFF7E3FE0120FFF7F7FEE5
:101230000320FFF7FAFE0520FFF701FF09263046DD
:10124000FFF703FF4FF4FA60FFF708FF05460DB103
:101250006C7A00E0FF24204670BD2DE9F04106467F
:101260000C46FFF7BDFEFFF7C3FE0120FFF7D7FED8
:101270000620FFF7DAFE0620FFF7E1FE3046FFF713
:10128000A4FE2012FFF7A1FEE0B2FFF79EFE06F1DA
:101290000D0000EB2420E1B200EB01084046FFF70F
:1012A000D4FE4FF4FA60FFF7D9FE07460FB17D7AFE
:1012B00000E0FF252846BDE8F0812DE9F041044615
:1012C0000D46FFF78DFEFFF793FE0120FFF7A7FE07
:1012D0000720FFF7AAFE0C20FFF7B1FE2012FFF750
:1012E00074FEE0B2FFF771FE2812FFF76EFEE8B25F
:1012F000FFF76BFE142000EB2420E1B2084400EB62
:101300002520E9B200EB01084046FFF79EFE4FF4AE
:10131000FA60FFF7A3FE07460FB17E7A00E0FF26D2
:101320003046BDE8F08170B5FFF75AFEFFF760FE6A
:101330000120FFF774FE0320FFF777FE0D20FFF773
:101340007EFE11263046FFF780FE4FF4FA60FFF76D
:1013500085FE05460DB16C7A00E0FF24204670BD85
:101360002DE9F04106460C46FFF73AFEFFF740FE36
:101370000120FFF754FE0520FFF757FE0E20FFF770
:101380005EFE3046FFF721FE2046FFF71EFE3019B5
:1013900000F114084046FFF758FE4FF4FA60FFF7DB
:1013A0005DFE074667B17D7A0BE000000008014052
:1013B000004400409C040020A004002004050020FC
:1013C000FF252846BDE8F0812DE9F0410546FFF7ED
:1013D00007FEFFF70DFE0120FFF721FE0320FFF7B8
:1013E00024FE0F20FFF72BFE13273846FFF72DFEB4
:1013F0004FF47A70FFF732FE0446BCB1667AE07BA8
:10140000A17B00EB01202880607CA870A07C0006F6
:10141000E17C00EB0140217D00EB0120617D08446F
:101420006860E07D2872607E687200E0FF263046CA
:10143000BDE8F0812DE9F0410446FFF7D1FDFFF74B
:10144000D7FD0120FFF7EBFD0720FFF7EEFD15208C
:10145000FFF7F5FD200EFFF7B8FDC4F30740FFF7D7
:10146000B4FDC4F30720FFF7B0FDE0B2FFF7ADFD18
:101470001D2000EB1460C4F307410844C4F30721A6
:101480000844E1B247183846FFF7DFFDB148046071
:101490004FF4FA60FFF7E2FD06460EB1757A00E000
:1014A000FF25AC4804602846BDE8F0812DE9F047EF
:1014B00081460E46FFF794FDFFF79AFD0120FFF7E6
:1014C000AEFD2420FFF7B1FD1820FFF7B8FD484618
:1014D000FFF77BFD002407E0305DFFF776FD305D10
:1014E000384487B2601CC4B2202CF5DB09F13D0002
:1014F000384487B23846FFF7A8FD4FF4FA60FFF78B
:10150000ADFD054615B195F8098001E04FF0FF08E3
:101510004046BDE8F0872DE9F04707468846FFF7CB
:101520005FFDFFF765FD0120FFF779FD0420FFF760
:101530007CFD1920FFF783FD3846FFF746FD07F1D4
:101540001E094846FFF781FD4FF4FA60FFF786FD5C
:10155000064666B1757A002406E004F10A00305CA4
:1015600008F80400601CC4B2202CF6DB00E0FF2564
:101570002846BDE8F0872DE9F04781460D4616461E
:101580001F46FFF72DFDFFF733FD0120FFF747FD55
:101590000820FFF74AFD1B20FFF751FD4846FFF7E3
:1015A00014FD2812FFF711FDE8B2FFF70EFD30120F
:1015B000FFF70BFDF0B2FFF708FD09F1240000EB87
:1015C0002520E9B2084400EB2620F1B200EB010A25
:1015D0005046FFF73AFD4FF4FA60FFF73FFD04462F
:1015E00064B194F80980E07AA17A00EB0120388098
:1015F000607B217B00EB0120788001E04FF0FF0849
:101600004046BDE8F0872DE9F0410646FFF7E8FCCB
:10161000FFF7EEFC0120FFF702FD0320FFF705FDB9
:101620001D20FFF70CFD21273846FFF70EFD4FF474
:10163000FA60FFF713FD044634B1657AE07AA17AC7
:1016400000EB0120308000E0FF252846BDE8F08156
:1016500010B50446FFF7C4FCFFF7CAFC0120FFF7F2
:10166000B4FC0020FFF7B1FC0020FFF7AEFCC8205F
:1016700000F01AFA3848008800F4004008B33748F0
:101680000078EF281AD135484078012816D1334820
:101690008079072812D13148807800062F49C9780F
:1016A00000EB01402D49097900EB01202B494979D4
:1016B0000844206000202849088010BD00202649E9
:1016C00008800120F9E7014621293ED2DFE801F038
:1016D00011131517191B1D1F212325273D3D3D3DC6
:1016E000292B3D3D3D2D3D3D2F313335373D3D3996
:1016F0003B001BA02BE01BA029E01EA027E022A09E
:1017000025E026A023E02DA021E034A01FE03AA090
:101710001DE047A01BE049A019E04CA017E04FA036
:1017200000BF57A013E05AA011E05DA00FE065A034
:101730000DE068A00BE06AA009E06DA007E071A0D1
:1017400005E075A003E077A001E079A000BF00BF2D
:10175000704700009C040020A00400200405002025
:101760004F4B0000CAFDBEDDB0FCBDD3CAD5B4ED01
:10177000CEF30000B4ABB8D0C6F7C9CFC3BBD3D04B
:10178000CAD6D6B800000000C2BCC8EBD6B8CEC6D8
:10179000CDBCCFF1CAA7B0DC00000000D6B8CEC6E1
:1017A000CDBCCFF1CCABB8C9A1A2CCABB5ADB6F82E
:1017B000C9FAB2BBB3C9CCD8D5F70000D6B8CEC6EB
:1017C000CDBCCFF1CCABCAAAA1A2CCABBAFDB6F8C6
:1017D000C9FAB2BBB3C9CCD8D5F70000D6B8CEC6CB
:1017E000CDBCCFF1CCABC2D2B6F8C9FAB2BBB3C94B
:1017F000CCD8D5F700000000D6B8CEC6CDBCCFF10E
:10180000D5FDB3A3A3ACB5ABCCD8D5F7B5E3CCAB82
:10181000C9D9A3A8BBF2C3E6BBFDCCABD0A1A3A999
:10182000B6F8C9FAB2BBB3C9CCD8D5F700000000EE
:10183000D6B8CEC6B2BBC6A5C5E40000C3BBCBD1EB
:10184000CBF7B5BDD6B8CEC600000000CCD8D5F7D2
:10185000BACFB2A2CAA7B0DC00000000B7C3CECA9C
:10186000D6B8CEC6BFE2CAB1B5D8D6B7D0F2BAC5DF
:10187000B3ACB3F6D6B8CEC6BFE2B7B6CEA70000BB
:10188000C9BEB3FDC4A3B0E5CAA7B0DC0000000028
:10189000C7E5BFD5D6B8CEC6BFE2CAA7B0DC000048
:1018A000BBBAB3E5C7F8C4DAC3BBD3D0D3D0D0A793
:1018B000D4ADCABCCDBCB6F8C9FAB2BBB3C9CDBCB5
:1018C000CFF10000B6C1D0B420464C41534820B3FC
:1018D000F6B4ED00CEB4B6A8D2E5B4EDCEF3000078
:1018E000CEDED0A7BCC4B4E6C6F7BAC5000000007F
:1018F000BCC4B4E6C6F7C9E8B6A8C4DAC8DDB4ED1E
:10190000CEF30000BCC7CAC2B1BED2B3C2EBD6B8D8
:10191000B6A8B4EDCEF30000D6B8CEC6BFE2C2FA88
:1019200000000000B5D8D6B7B4EDCEF3000000003B
:10193000C4A3BFE9B7B5BBD8C8B7C8CFC2EBD3D033
:10194000CEF3000010B540F22551444802F0B2F841
:10195000F8B1424802F02EF8C4B24148008800F4C1
:101960000040B0B93E480088B0F5C87F12DA0021C7
:101970003C4801F095FE3A48008818B901213948E1
:1019800001F0FAFB36490888411C354A1180364976
:101990000C5405E03248008840F40040304908808B
:1019A00010BD10B586B004460121042000F050FFA0
:1019B0000121480400F059FF284801F0BBFE042033
:1019C000ADF8100003208DF8120018208DF81300D8
:1019D00004A9264800F07EFA0820ADF8100048203F
:1019E0008DF8130004A9224800F074FA0094002036
:1019F000ADF80400ADF80600ADF80800ADF80C0035
:101A00000C20ADF80A006946144801F0D6FE012109
:101A1000124801F05EFF012240F225510F4801F00B
:101A200064FF26208DF8140002208DF81500032095
:101A30008DF8160001208DF8170005A800F081F937
:101A400041F61F41632000F026F900200449088078
:101A50000021044801F090FB06B010BD0044004096
:101A6000A0040020000800400405002000080140F8
:101A7000000C014010B504466FF0040000F0ABF913
:101A8000E11704EB5171C1F3C701234A11701046ED
:101A9000007800EB4001C1EBC0104FF6FF7101EA86
:101AA000C0001E49088010BD01461C4A12884A43E6
:101AB0004FF0E0235A6100229A6101221A6100BFAF
:101AC0004FF0E022106900F001021AB100F48032F8
:101AD000002AF5D000224FF0E0231A619A61704786
:101AE00001460D4A12784A434FF0E0235A61002222
:101AF0009A6101221A6100BF4FF0E022106900F0E4
:101B000001021AB100F48032002AF5D000224FF011
:101B1000E0231A619A617047A2040020A404002007
:101B200010B54FF4A06000F007F910BD014600BFEA
:101B3000704700BF494A128802F04002002AF9D0DB
:101B4000C2B2464B1B1D1A80704710B586B00446C2
:101B5000012144F2050000F07BFE4FF40070ADF867
:101B6000140003208DF8160018208DF8170005A921
:101B70003B4800F0AFF94FF48060ADF8140004204A
:101B80008DF8170005A9364800F0A4F925208DF836
:101B9000000003208DF801008DF8020001208DF86F
:101BA0000300684600F0CDF801940020ADF808006D
:101BB000ADF80A00ADF80C00ADF810000C20ADF83F
:101BC0000E0001A9254801F0F8FD012240F225513F
:101BD000224801F08AFE0121204801F07AFE06B079
:101BE00010BD10B540F225511C4801F063FF10B341
:101BF0001A4801F0DFFEC4B21A48007800F08000F5
:101C0000C8B91848007800F0400060B10A2C03D031
:101C100000201449087020E01248007840F080004D
:101C20001049087019E00D2C06D10E48007840F0DC
:101C300040000C49087010E00A48007800F03F00AE
:101C400009490C5407480078401C064908700846AA
:101C500000783F2801DD0020087010BD00380140E9
:101C600000080140AC0400202408002010B5012128
:101C70001F4801F04AFD68B11E48008840F400404A
:101C80001C49088001211A4801F050FD0021184824
:101C900001F072FA10BD7FB505460C460121042003
:101CA00000F0E3FDADF80450ADF800400020ADF8C1
:101CB0000600ADF8020069460D4800F001FF012260
:101CC00011460B4801F073FA0121094801F054FA5A
:101CD0001E208DF80C0000208DF80D0002208DF8DC
:101CE0000E0001208DF80F0003A800F02AF87FBD38
:101CF00000080040A0040020094880470948004728
:101D0000FEE7FEE7FEE7FEE7FEE7FEE7FEE7FEE7AB
:101D1000FEE7FEE704480549054A064B7047000008
:101D200083080008ED000008C8080020C80E002045
:101D3000C80A0020C80A002031490143314A116015
:101D4000704770B5002100230F22C47804B32D4CD6
:101D5000246804F4E064C4F5E064210AC1F10403DA
:101D6000CA40447804FA03F18478144021430901FD
:101D7000254C0678A155047804F01F050124AC40D9
:101D800005786D11AD0005F1E025C5F8004109E0C9
:101D9000047804F01F050124AC401C4D0678761130
:101DA00045F8264070BD1A4A0A400243154B1B1FD6
:101DB0001A60704739B1134A121D12680243114B61
:101DC0001B1D1A6006E00F4A121D126882430D4B5C
:101DD0001B1D1A607047042808D14FF0E0210969E3
:101DE00041F004014FF0E022116107E04FF0E021E3
:101DF000096921F004014FF0E022116170470000F1
:101E00000000FA050CED00E000E400E080E100E0F5
:101E100080FFFF1F10B50446CC48844208D1012141
:101E2000042000F02FFD0021042000F02BFD46E0EF
:101E3000C748844208D10121082000F023FD002179
:101E4000082000F01FFD3AE0C248844208D1012179
:101E5000102000F017FD0021102000F013FD2EE0EF
:101E6000BD48844208D10121202000F00BFD002153
:101E7000202000F007FD22E0B848844208D101216B
:101E8000402000F0FFFC0021402000F0FBFC16E0A9
:101E9000B348844208D10121802000F0F3FC0021E6
:101EA000802000F0EFFC0AE0AE48844207D1012117
:101EB000801500F0E7FC0021A01500F0E3FC10BD48
:101EC00010B50121084600F0DDFC0021012000F0E2
:101ED000D9FC10BD2DE9F041024600250026002066
:101EE00000230024002791F803C00CF00F0591F89F
:101EF00003C00CF0100CBCF1000F03D091F802C02D
:101F00004CEA050591F800C0BCF1000F31D014680F
:101F100000202BE04FF0010C0CFA00F3B1F800C0E8
:101F20000CEA03069E4220D183004FF00F0C0CFAFE
:101F300003F7BC4305FA03FC4CEA040491F803C020
:101F4000BCF1280F06D14FF0010C0CFA00FCC2F8CE
:101F500014C00AE091F803C0BCF1480F05D14FF05E
:101F6000010C0CFA00FCC2F810C0401C0828D1D3A8
:101F70001460B1F800C0BCF1FF0F34DD54680020DC
:101F80002EE000F1080C4FF0010808FA0CF3B1F84C
:101F900000C00CEA03069E4221D183004FF00F0CD3
:101FA0000CFA03F7BC4305FA03FC4CEA040491F86D
:101FB00003C0BCF1280F05D100F1080C08FA0CF899
:101FC000C2F8148091F803C0BCF1480F07D100F1AA
:101FD000080C4FF0010808FA0CF8C2F81080401CF9
:101FE0000828CED35460BDE8F0814FF6FF71018020
:101FF000022181700421C17070470246002093685D
:102000000B400BB1012000E00020704701468868BA
:1020100080B2704702460020D3680B400BB101200C
:1020200000E0002070470146C86880B27047016137
:102030007047416170470AB1016100E0416170473A
:10204000C16070474FF480320A43826181618261CE
:1020500082698269704702460020434B18684FF638
:102060008073184040EA021008433F4B18607047E5
:102070003E49C8617047F0B50A460023002400219C
:10208000002500F00046B6F1004F02D1364EF1694E
:1020900001E0354E7168C0F3034583B200F4401689
:1020A000B6F5401F08D121F070612F4E766826F0FA
:1020B00070662D4F7E6012E000F48016B6F5801F2A
:1020C00006D1032606FA05F4A14341F0706106E04B
:1020D000460D360103FA06F6B14341F0706122B1B4
:1020E000460D360103FA06F6314300F00046B6F11C
:1020F000004F02D11C4EF16101E01B4E7160F0BD3A
:1021000030B500228B071C0F0F2303FA04F2164B85
:1021100008338C1053F824309343134C08348D103B
:1021200044F8253023468C1053F824308C07240FB4
:1021300000FA04F423430C4C08348D1044F8253085
:1021400030BD0A49DC3108607047000000080140DA
:10215000000C014000100140001401400018014033
:10216000001C01400020014000000140000020420E
:1021700010B50446F748844209D10121480500F012
:102180008EFB00214FF4001000F089FB08E00121D4
:10219000880500F084FB00214FF4800000F07FFBF5
:1021A00010BD2DE9F04385B004460D460026B1462A
:1021B0000427DFF8A483A6884FF6C070064068465F
:1021C00000F0D9FADDF80880E448B8FBF0F01FFA17
:1021D00080F946EA0906A68020884FF6FE7108407D
:1021E00020800026DE49286888420CD828684000F4
:1021F000B8FBF0F087B2042F00DA04273E4309F160
:102200000100208427E0E8884BF6FF71884206D160
:10221000286800EB4000B8FBF0F087B209E02868BE
:1022200000EBC00101EB0010B8FBF0F087B247F4FF
:102230008047C7F30B0008B947F0010747F4004097
:1022400006434FF4967009FB00F04FF47A7190FB4F
:10225000F1F0401C2084A683208840F001002080FB
:1022600026884FF6F5300640A8886989084306435A
:102270002680A88929890843208105B0BDE8F0831C
:1022800041F288310160002181804BF6FF71C180ED
:102290000021018141814FF480418181704721B14A
:1022A000028842F00102028004E002884FF6FE73C9
:1022B0001A400280704721B1828842F40062828015
:1022C00004E082884FF2FF731A408280704721B188
:1022D000828842F48052828004E082884EF6FF7346
:1022E0001A408280704721B1028842F480720280D5
:1022F00004E002884FF6FF631A400280704721B164
:10230000028842F40072028004E002884FF6FF5314
:102310001A400280704721B1028842F48062028034
:1023200004E002884FF6FF331A40028070470A46E5
:10233000002181894FF60173194002F0FE03194311
:102340008181704721B1828942F00102828104E0DB
:1023500082894FF6FE731A408281704721B102884C
:1023600042F04002028004E002884FF6BF731A4038
:10237000028070471AB183880B43838002E0838810
:102380008B4383807047018270470146088AC0B240
:10239000704712B141F0010102E04FF6FE7319409F
:1023A0000182704708B50246002000900092009814
:1023B000084400900098008808BD21B1028842F4CA
:1023C0000042028003E00288C2F30E0202807047DE
:1023D000B1F5006F04D1028842F40062028004E08B
:1023E00002884FF2FF731A4002807047B1F5005F18
:1023F00004D1028842F40052028004E002884DF6C3
:10240000FF731A400280704721B1028842F4805263
:10241000028004E002884EF6FF731A400280704783
:10242000B1F5006F04D1028842F40062028004E03A
:1024300002884FF2FF731A400280704721B1028870
:1024400042F02002028004E002884FF6DF731A4057
:10245000028070470146088B0012704721B1028844
:1024600042F01002028004E002884FF6EF731A4037
:102470000280704721B9028842F08002028004E0A5
:1024800002884FF67F731A4002807047B1F5804F83
:1024900005D0828B4BF6FF731A40828303E0828B58
:1024A00042F480428283704770B5024600240025C2
:1024B00000230020958A138B1B0445EA030626F0AF
:1024C0007F4404EA01068E4201D1012000E0002091
:1024D00070BD10B501460020002300228B8A0A8BB4
:1024E000120443EA020424F07F4010BD0CB50246FA
:1024F000002000230193009300920B0F019321F021
:102500007F41019B1BB1009B1433009303E0090C36
:10251000009B18330093009B1B680B400BB10120FC
:1025200000E000200CBD002221F07F42D3438382D3
:10253000704730B5024600200023948801F0E06522
:1025400004EA154321F07F41948A0C4054B14BB109
:10255000012008E00054004000127A0040420F00C1
:10256000A0860100002030BD002221F07F42D3432D
:1025700083827047DF48006840F00100DD49086051
:1025800008464068DC490840DA4948600846006867
:10259000DA490840D74908600846006820F48020DE
:1025A00008600846406820F4FE0048604FF41F00B1
:1025B00088607047CF49096821F48031CD4A1160A5
:1025C0001146096821F480211160B0F5803F03D0E5
:1025D000B0F5802F0ED106E0C649096841F480317C
:1025E000C44A116007E0C349096841F4A021C14A07
:1025F000116000E000BF00BF704710B50146002227
:10260000002300204A11012A02D1BA4C236806E0B7
:10261000022A02D1B74C236A01E0B64C636A01F08A
:102620001F02012494401C400CB1012000E0002056
:1026300010BD38B5002000900024002500BF3120D7
:10264000FFF7DBFF05460098401C00900098B0F5AE
:10265000A06F01D0002DF2D03120FFF7CEFF08B1DE
:10266000012400E00024204638BD01460020A14A94
:10267000106820F0F80040EAC10010607047A049DF
:1026800008607047024600209A4B586820F47C107E
:1026900042EA01031843974B58607047984908660F
:1026A000704701460020934A506820F00300084319
:1026B000506070478F48406800F00C00704701463A
:1026C00000208C4A506820F0F000084350607047AA
:1026D00001460020874A506820F4E06008435060BB
:1026E000704701460020834A506820F4605040EA59
:1026F000C1005060704729B17E4A527A02437D4B37
:102700005A7204E07B4A527A82437A4B5A7270477B
:102710007B49D8310860704701460020754A5068EF
:1027200020F440400843506070470021714A203235
:102730001170704A82F82010012802D004280AD1B2
:1027400004E001216B4A2032117005E00521694A3D
:102750002032117000E000BF00BF70476949086077
:1027600070476449096A0143624A116270476549CA
:1027700044390860704730B500210022002400234E
:102780005C4D6D6805F00C0121B1042905D00829C4
:1027900023D105E05C4D056022E05B4D05601FE044
:1027A000544D6D6805F47012524D6D6805F4803417
:1027B000022505EB92421CB9544D554305600BE0D0
:1027C0004C4D6D6805F400351DB1504D5543056005
:1027D00002E04D4D5543056002E04B4D056000BFE2
:1027E00000BF444D6D6805F0F0010909484D6B5C70
:1027F0000568DD4045603F4D6D6805F4E061090AFC
:10280000434D6B5C4568DD4085603A4D6D6805F46D
:102810006051C90A3E4D6B5C4568DD40C560354D71
:102820006D6805F44041890B3A4D6B5CC568B5FB9A
:10283000F3F5056130BD29B12E4A526902432D4B93
:102840005A6104E02B4A526982432A4B5A6170470D
:1028500029B1284A92690243264B9A6104E0254A2D
:1028600092698243234B9A61704729B1214AD26908
:102870000243204BDA6104E01E4AD26982431D4BB9
:10288000DA61704729B11B4AD2680243194BDA60FA
:1028900004E0184AD2688243164BDA60704729B1C7
:1028A000144A12690243134B1A6104E0114A126977
:1028B0008243104B1A6170471249403908607047D3
:1028C0000F49C86470470B49C87170470948406A8E
:1028D00040F0807007494862704701460020054A71
:1028E00092680A400AB1012000E0002070470149C7
:1028F00088727047001002400000FFF8FFFFF6FEEC
:10290000000042428004424200127A0000093D0069
:10291000AD040020BD04002010B50446FE488442EA
:1029200008D10121C014FFF7ADFF0021E014FFF72B
:10293000A9FFC4E0B4F1804F08D101210846FFF798
:10294000AEFF00210120FFF7AAFFB8E0F348844260
:1029500008D101210220FFF7A2FF00210220FFF78A
:102960009EFFACE0EE48844208D101210420FFF72D
:1029700096FF00210420FFF792FFA0E0E94884427F
:1029800008D101210820FFF78AFF00210820FFF766
:1029900086FF94E0E448844208D101211020FFF72B
:1029A0007EFF00211020FFF77AFF88E0DF48844295
:1029B00008D101212020FFF772FF00212020FFF71E
:1029C0006EFF7CE0DA48844208D101214014FFF711
:1029D00059FF00216014FFF755FF70E0D54884428D
:1029E00009D10121C804FFF74DFF00214FF4002059
:1029F000FFF748FF63E0D048844209D10121080570
:102A0000FFF740FF00214FF48010FFF73BFF56E037
:102A1000CA48844209D101214805FFF733FF00214C
:102A20004FF40010FFF72EFF49E0C548844208D15B
:102A300001214020FFF733FF00214020FFF72FFF47
:102A40003DE0C048844208D101218020FFF727FFE4
:102A500000218020FFF723FF31E0BB48844208D1EA
:102A600001218015FFF71BFF0021A015FFF717FFBD
:102A700025E0B648844209D101210804FFF702FF8E
:102A800000214FF48030FFF7FDFE18E0B04884428B
:102A900009D101214804FFF7F5FE00214FF4003071
:102AA000FFF7F0FE0BE0AB48844208D10121880417
:102AB000FFF7E8FE00214FF48020FFF7E3FE10BD92
:102AC00000220288944B98420ED0994B98420BD02A
:102AD000B0F1804F08D0914B984205D0904B98426E
:102AE00002D0904B984204D14FF68F731A404B8816
:102AF0001A438D4B984207D08C4B984204D04FF626
:102B0000FF431A40CB881A4302808B8883850B8849
:102B10000385814B98420BD0854B984208D08B4B54
:102B2000984205D08A4B984202D08A4B984201D1F4
:102B30000B7A038601238382704770B5002400223C
:102B40000023058C4FF6FE7635400584028C838881
:102B5000048B4FF68F752C40B51E2C400D882C43EE
:102B6000751E2A400D892A434D882A436A4DA84282
:102B70000BD06F4DA84208D0744DA84205D0744DBB
:102B8000A84202D0734DA84213D14FF6F7752A40E0
:102B90004D892A434FF6FB752A408D882A434FF60C
:102BA000FF652B404FF6FF552B408D892B43CD8978
:102BB0002B4383800483CD888586028470BD70B5E5
:102BC000002400220023058C4FF6EF763540058463
:102BD000028C8388048B48F6FF752C404FF6FF4526
:102BE0002C400D884FF6FF7606EA05252C434FF65C
:102BF000DF752A400D8906EA05152A434D8806EA45
:102C000005152A43444DA84202D0494DA8421DD182
:102C10004FF67F752A404D894FF6FF7606EA051577
:102C20002A434FF6BF752A408D8806EA05152A43C8
:102C30004FF6FF352B404FF2FF752B408D8906EA8A
:102C400085052B43CD8906EA85052B4383800483C4
:102C5000CD880587028470BD70B500240022002352
:102C6000058C4FF6FF6635400584028C8388848B83
:102C70004FF68F752C404FF6FC752C400D882C4379
:102C80004FF6FF552A400D894FF6FF7606EA0525D7
:102C90002A434D8806EA05252A431F4DA84202D043
:102CA000234DA8421DD14FF2FF752A404D894FF6A2
:102CB000FF7606EA05252A434FF6FF352A408D8820
:102CC00006EA05252A434EF6FF752B404DF6FF75A3
:102CD0002B408D8906EA05152B43CD8906EA05159B
:102CE0002B4383808483CD888587028470BD70B533
:102CF000002200230024058C4EF6FF763540058423
:102D0000038C8488828B48F6FF752A404FF6FF4576
:102D10002A400D8820E00000002C01400004004003
:102D200000080040000C004000100040001400406B
:102D300000340140004C014000500140005401406B
:102D400000180040001C00400020004000400140EE
:102D500000440140004801404FF6FF7606EA052591
:102D60002A434DF6FF752B400D8906EA05352B43A6
:102D70004D8806EA05352B43FA4DA84202D0FA4D9C
:102D8000A84208D14BF6FF752C408D894FF6FF768F
:102D900006EA85152C4384808283CD88A0F84050B4
:102DA000038470BD828B4FF2FF331A408283828B83
:102DB0004FF6FF7303EA01231A4382837047F0B58D
:102DC0000C461546002200210026078C4EF6FF7C9B
:102DD00007EA0C070784828B018C4FF6FF7707EA1E
:102DE000043640F6FF473A404FF6FF7707EA0527DB
:102DF0003A434FF6FF7707EA03373A43D94FB842D1
:102E00000ED0D94FB8420BD0B0F1804F08D0D74F79
:102E1000B84205D0D64FB84202D0D64FB84206D1FC
:102E20004DF6FF77394046F48057394305E047F6C1
:102E3000FF57394044F48057394382830184F0BD01
:102E4000828B4FF6F3731A408283828B0A4382830C
:102E50007047F0B50C461546002200210026078C6D
:102E60004FF6FF6C07EA0C070784828B018C4FF644
:102E7000FF7707EA04264FF60C773A404FF6FF77C4
:102E800007EA03172F433A43B64FB8420ED0B64F66
:102E9000B8420BD0B0F1804F08D0B44FB84205D043
:102EA000B34FB84202D0B34FB84206D14FF6FF57E6
:102EB000394046F48077394305E04FF2FF573940F7
:102EC00044F48077394382830184F0BD028B4FF252
:102ED000FF331A400283028B4FF6FF7303EA01238C
:102EE0001A4302837047F0B50C46154600220021B4
:102EF0000026078C4FF6EF7C07EA0C070784028B4D
:102F0000018C4FF6FF7707EA041640F6FF473A4078
:102F10004FF6FF7707EA03373A434FF6FF7707EAA2
:102F200005273A438F4FB8420ED08F4FB8420BD08F
:102F3000B0F1804F08D08D4FB84205D08C4FB842C9
:102F400002D08C4FB84206D14FF6DF77394046F0B9
:102F50001007394305E04FF65F77394044F010071A
:102F6000394302830184F0BD028B4FF6F3731A409C
:102F70000283028B0A4302837047F0B50C46154664
:102F800000220021068C4FF6FE773E400684028B1D
:102F9000018C4FF60C7632407E1C06EA03162E4357
:102FA0003243704EB0420ED06F4EB0420BD0B0F1F3
:102FB000804F08D06D4EB04205D06D4EB04202D069
:102FC0006C4EB04206D14FF6FD76314044F001061A
:102FD000314305E04FF6F576314044F001063143C8
:102FE00002830184F0BD70B505460C465D488542FC
:102FF0000ED05D4885420BD0B5F1804F08D05B48BC
:10300000854205D05A48854202D05A48854200D1AF
:1030100000E000BF208850B92389A2886188284633
:10302000FFF7ABFFE1882846FFF79EFF25E02088E9
:1030300004280AD12389A28861882846FFF753FF14
:10304000E1882846FFF742FF17E0208808280AD1C8
:103050002389A28861882846FFF7FBFEE18828467D
:10306000FFF7EEFE09E02389A28861882846FFF772
:10307000A6FEE1882846FFF795FE70BD2DE9F041D8
:1030800005460C4600260127608808B9022600E0A4
:103090000026A088012801D1022700E0012720880E
:1030A000A0B92389A28861882846FFF766FFE188D6
:1030B0002846FFF759FF23893A4631462846FFF74D
:1030C00012FFE1882846FFF701FF13E02389A28859
:1030D00061882846FFF707FFE1882846FFF7F6FEDC
:1030E00023893A4631462846FFF747FFE1882846BC
:1030F000FFF73AFFBDE8F0810A884B881A438B88B6
:103100001A43CB881A430B891A434B891A438B897C
:103110001A43A0F8442070474FF6FF7181800021C8
:103120000180C1804180017270470021018041808F
:103130008180C180018141818181C18170470021ED
:1031400001804180012181800021C180018170477F
:103150000021018041808180C18001814181818184
:1031600070470000002C0140003401400004004082
:1031700000080040000C004021B1028842F001022A
:10318000028004E002884FF6FE731A400280704706
:1031900031B1B0F8442042F40042A0F8442005E0E8
:1031A000B0F84420C2F30E02A0F8442070471AB1D0
:1031B00083890B43838102E083898B43838170473A
:1031C0008182704741EA0203A0F8483070471AB183
:1031D00083890B43838102E083898B43838170471A
:1031E00001894FF6F8721140018170470A460021AB
:1031F00001894FF68F73194011430181704730B533
:1032000004460D4629462046FFF7F0FF208940F08E
:103210000700208130BD2DE9F04104460D461646D9
:103220001F46602D06D13B46012231462046FFF75E
:103230005AFE05E03B46012231462046FFF79DFE3F
:1032400029462046FFF7D2FF208940F00700208161
:10325000BDE8F08130B50C4600210189C9B24FF6B6
:10326000FF7505EA0325154325432943018130BD38
:103270002DE9F04105460E46174698460024434680
:103280003A4631462846FFF7E5FF2C894FF6F8709D
:10329000044044F007044FF68F70044044F070047B
:1032A0002C81BDE8F081F0B504460D4616461F4658
:1032B0003B46324629462046FFF7CCFF208940F4A2
:1032C00080402081F0BD0185828270470A4600213E
:1032D00001884FF68F731940114301807047F0B594
:1032E0000C4615461E460021002200230189028B50
:1032F000038C4FF6F877394021434FF6FC473A40AC
:1033000040F201173A434FF6DD773B404FF6FF7727
:1033100007EA06172F433B43018102830384F0BD74
:103320000A460021018B4FF68F7319401143018328
:1033300070470A460021018B48F6FF7319404FF68B
:10334000FF7303EA02231943018370470A460021F1
:10335000818B4FF68F7319401143818370470A4662
:103360000021818B48F6FF7319404FF6FF7303EA83
:10337000022319438183704721B1028842F0800201
:10338000028004E002884FF67F731A400280704783
:1033900021B1828842F00402828004E082884FF6E4
:1033A000FB731A408280704721B1828842F0080284
:1033B000828004E082884FF6F7731A40828070475B
:1033C00021B1828842F00102828004E082884FF6B7
:1033D000FE731A40828070470A460021018B4FF627
:1033E000F77319401143018370470A460021018B8E
:1033F0004FF2FF7319404FF6FF7303EA022319439C
:10340000018370470A460021818B4FF6F7731940FC
:103410001143818370470A460021818B4FF2FF736D
:1034200019404FF6FF7303EA022319438183704763
:103430000A460021018B4FF6FB73194011430183AB
:1034400070470A460021018B4FF6FF3319404FF6B3
:10345000FF7303EA02231943018370470A460021E0
:10346000818B4FF6FB7319401143818370470A46E5
:103470000021818B4FF6FF3319404FF6FF7303EAAB
:1034800002231943818370470A460021018B4FF6BE
:103490007F7319401143018370470A460021018B55
:1034A000C1F30E014FF6FF7303EA022319430183B0
:1034B00070470A460021818B4FF67F7319401143F4
:1034C000818370470A460021818BC1F30E014FF6BC
:1034D000FF7303EA02231943818370470A460021E0
:1034E000018C4FF6FD7319401143018470470A4661
:1034F0000021018C4FF6F773194011430184704786
:103500000A460021018C4FF6DF7319404FF6FF7316
:1035100003EA02131943018470470A460021018C13
:103520004FF67F7319404FF6FF7303EA02131943F6
:10353000018470470A460021018C4FF6FF53194061
:103540004FF6FF7303EA02231943018470470A46CA
:103550000021018C4FF2FF7319404FF6FF7303EA0D
:1035600002231943018470470A460021018C4DF65D
:10357000FF7319404FF6FF7303EA023319430184C6
:10358000704730B5002301248C40A3B2048C9C43C7
:103590000484048C02FA01F5ADB22C43048430BDDE
:1035A00030B5002304248C40A3B2048C9C430484D3
:1035B000048C02FA01F5ADB22C43048430BD70B521
:1035C0000346002000241846183001258D40ACB277
:1035D0001D8CA5431D8409B1082909D100EB6100A8
:1035E000056825F0700505600568154305600EE067
:1035F0000D1FC5F34E052844056825F4E045056018
:1036000005684FF6FF7606EA02263543056070BD71
:1036100021B1028842F00202028004E002884FF6E3
:10362000FD731A400280704721B1028842F0040203
:10363000028004E002884FF6FB731A400280704754
:1036400021B1828842F08002828004E082884FF6B5
:103650007F731A408280704702884FF6F7731A40D2
:10366000028002880A430280704782884FF68F7377
:103670001A40828082880A438280704702894FF60E
:10368000F8731A40028102890A4302817047028955
:103690004FF67F731A40028102890A430281704704
:1036A00081847047818570478186704701877047A4
:1036B00081877047A0F84010704702884FF6FF439B
:1036C0001A40028002880A43028070470146888EB1
:1036D00070470146088F70470146888F7047014642
:1036E000B1F8400070470146888C70470146088D4C
:1036F000704702460020138A0B400BB1012000E006
:1037000000207047CA430282704730B5024600204D
:1037100000230024158A05EA0103958905EA0104BE
:1037200013B10CB1012000E0002030BDCA43028279
:103730007047000010B50446FB48844209D10121BE
:103740008803FFF79FF800214FF48040FFF79AF8B5
:1037500032E0F648844209D101214804FFF79FF87E
:1037600000214FF40030FFF79AF825E0F04884423A
:1037700009D101218804FFF792F800214FF480203D
:10378000FFF78DF818E0EB48844209D10121C80405
:10379000FFF785F800214FF40020FFF780F80BE0D9
:1037A000E548844208D101210805FFF778F8002197
:1037B0004FF48010FFF773F810BD2DE9F04786B085
:1037C00005460E460024A24600BFA1460027B08948
:1037D00000B100BF2F462C8A4CF6FF700440F088E1
:1037E00004432C82AC894EF6F3100440B088318932
:1037F0000843718908430443AC81AC8A4FF6FF400B
:103800000440B0890443AC8201A8FEF7B4FFC64867
:10381000874202D1DDF810A001E0DDF80CA0A889F4
:1038200000F4004040B10AEBCA0000EB0A10316816
:103830004900B0FBF1F807E00AEBCA0000EB0A1000
:1038400031688900B0FBF1F86420B8FBF0F00401A6
:103850002009642101FB1089A88900F4004040B1CF
:10386000322000EBC900B0FBF1F000F00700044388
:1038700008E0322000EB09106421B0FBF1F000F009
:103880000F0004432C8106B0BDE8F0874FF41651B9
:10389000016000218180C18001810C2141810021D2
:1038A0008181704710B502460020108A4FF2FF0355
:1038B00018400B884C8823438C882343CC882343AF
:1038C0001843108210BD0021018041808180C18099
:1038D000704721B1828942F40052828104E08289DA
:1038E0004DF6FF731A4082817047F0B503460024FD
:1038F00000260025002040F66A17B94200D100BF1B
:103900001846C1F3421401F01F06012707FA06F515
:10391000012C01D10C3004E0022C01D1103000E068
:1039200014301AB107682F43076002E00768AF43FD
:103930000760F0BD1AB1838A0B43838202E0838A59
:103940008B4383827047028A4FF6F0731A400282DB
:10395000028A0A430282704782894FF2FF731A403B
:10396000828182890A438281704721B1828942F033
:103970000202828104E082894FF6FD731A4082813F
:103980007047028A4FF6DF731A400282028A0A43A6
:103990000282704721B1028A42F48042028204E02E
:1039A000028A4BF6FF731A4002827047C1F3080285
:1039B0008280704701468888C0F30800704781897B
:1039C00041F0010181817047028BD2B20283028BE8
:1039D00042EA012202837047028B02F47F42028393
:1039E000028B0A430283704721B1828A42F020028F
:1039F000828204E0828A4FF6DF731A408282704727
:103A000021B1828A42F01002828204E0828A4FF65B
:103A1000EF731A408282704721B1828A42F0080215
:103A2000828204E0828A4FF6F7731A4082827047DE
:103A300021B1828942F40042828103E08289C2F38B
:103A40000E028281704721B1828A42F40062828232
:103A500004E0828A4FF2FF731A4082827047828AA2
:103A60004FF6FB731A408282828A0A438282704731
:103A700021B1828A42F00202828204E0828A4FF6F9
:103A8000FD731A408282704702460020B1F5007F24
:103A900000D100BF13880B400BB1012000E00020D3
:103AA000704701F40072B2F5007F00D100BFCA4335
:103AB0000280704770B502460024002300250020D4
:103AC00040F66A16B14200D100BFC1F3421501F0C1
:103AD0001F03012606FA03F3012D02D19689334014
:103AE00006E0022D02D1168A334001E0968A334067
:103AF0000C12012606FA04F41688344013B10CB1F6
:103B0000012000E0002070BD10B50022002340F627
:103B10006A14A14200D100BF0A1201249440A3B24A
:103B2000DC43048010BD0000003801400044004028
:103B300000480040004C004000500040704730B545
:103B400005460B462A4613F8014B12F8010B08B143
:103B5000A042F8D01CB1002802D06D1CF1E7284625
:103B600030BD7047704770477047754600F028F8C1
:103B7000AE4605006946534620F00700854618B05A
:103B800020B5FEF7C7F8BDE820404FF000064FF023
:103B900000074FF000084FF0000B21F00701AC4682
:103BA000ACE8C009ACE8C009ACE8C009ACE8C009A1
:103BB0008D4670470446AFF300802046FCF7FDFABF
:103BC000004870476408002000000000000000006A
:103BD000002F000000000700070000147F147F146E
:103BE00000242A7F2A1200626408132300364955F4
:103BF000225000000503000000001C2241000000CC
:103C000041221C000014083E08140008083E080861
:103C1000000000A0600000080808080800006060BC
:103C20000000002010080402003E5149453E0000FB
:103C3000427F4000004261514946002141454B31DD
:103C4000001814127F10002745454539003C4A49A9
:103C5000493000017109050300364949493600061B
:103C60004949291E00003636000000005636000083
:103C700000081422410000141414141400004122FE
:103C8000140800020151090600324959513E007CD6
:103C90001211127C007F49494936003E41414122C0
:103CA000007F4141221C007F49494941007F0909A9
:103CB0000901003E4149497A007F0808087F000059
:103CC000417F4100002040413F01007F0814224114
:103CD000007F40404040007F020C027F007F0408CC
:103CE000107F003E4141413E007F09090906003E28
:103CF0004151215E007F0919294600464949493151
:103D00000001017F0101003F4040403F001F204073
:103D1000201F003F4038403F006314081463000731
:103D20000870080700615149454300007F41410088
:103D300000552A552A55000041417F000004020128
:103D40000204004040404040000001020400002006
:103D500054545478007F4844443800384444442044
:103D600000384444487F00385454541800087E09F1
:103D700001020018A4A4A47C007F080404780000B9
:103D8000447D4000004080847D00007F1028440076
:103D90000000417F4000007C04180478007C080487
:103DA000047800384444443800FC242424180018C3
:103DB000242418FC007C08040408004854545420AF
:103DC00000043F444020003C4040207C001C204038
:103DD000201C003C4030403C004428102844001C7B
:103DE000A0A0A07C004464544C4414141414141473
:103DF00000000000000000000000000000000000C3
:103E0000000000F800000000000000333000000057
:103E100000100C06100C060000000000000000005E
:103E200040C07840C0784000043F04043F040400D0
:103E3000007088FC08300000001820FF211E0000E0
:103E4000F008F000E018000000211C031E211E00F5
:103E500000F00888700000001E212324192721107B
:103E600010160E000000000000000000000000001E
:103E7000000000E0180402000000000718204000C5
:103E800000020418E00000000040201807000000B5
:103E9000404080F0804040000202010F0102020019
:103EA000000000F0000000000101011F01010100FD
:103EB000000000000000000080B070000000000062
:103EC00000000000000000000001010101010101EB
:103ED0000000000000000000003030000000000082
:103EE0000000000080601804006018060100000057
:103EF00000E010080810E000000F102020100F0054
:103F0000001010F8000000000020203F20200000DA
:103F10000070080808887000003028242221300032
:103F200000300888884830000018202020110E003A
:103F30000000C02010F8000000070424243F2400E3
:103F400000F80888880808000019212020110E00B8
:103F500000E0108888180000000F112020110E00CA
:103F600000380808C83808000000003F00000000C2
:103F70000070880808887000001C222121221C0083
:103F800000E010080810E0000000312222110F00AC
:103F9000000000C0C0000000000000303000000041
:103FA00000000080000000000000806000000000B1
:103FB00000008040201008000001020408102000CA
:103FC0004040404040404000040404040404040015
:103FD00000081020408000000020100804020100AA
:103FE000007048080808F0000000003036010000AA
:103FF000C030C828E810E0000718272423140B005D
:104000000000C038E0000000203C230202273820D6
:1040100008F8888888700000203F202020110E00BA
:10402000C0300808080838000718202020100800B1
:1040300008F808080810E000203F202020100F009A
:1040400008F88888E8081000203F20202320180066
:1040500008F88888E8081000203F200003000000CE
:10406000C03008080838000007182020221E02006F
:1040700008F808000008F808203F210101213F202E
:10408000000808F8080800000020203F2020000059
:1040900000000808F8080800C08080807F00000049
:1040A00008F888C028180800203F20012638200082
:1040B00008F8080000000000203F202020203000E9
:1040C00008F8F800F8F80800203F003F003F200003
:1040D00008F830C00008F808203F200007183F000B
:1040E000E01008080810E0000F10202020100F003A
:1040F00008F808080808F000203F2101010100002D
:10410000E01008080810E0000F18242438504F0071
:1041100008F8888888887000203F2000030C302031
:1041200000708808080838000038202121221C006F
:10413000180808F8080818000000203F20000000B8
:1041400008F808000008F808001F202020201F00A1
:104150000878880000C83808000007380E01000001
:10416000F80800F80008F800033C0700073C0300CB
:10417000081868808068180820302C03032C302031
:104180000838C800C83808000000203F20000000A0
:1041900010080808C83808002038262120201800F8
:1041A000000000FE020202000000007F40404000CC
:1041B000000C30C000000000000000010638C00004
:1041C00000020202FE000000004040407F000000AC
:1041D00000000402020204000000000000000000D1
:1041E00000000000000000008080808080808080CF
:1041F00000020204000000000000000000000000B7
:1042000000008080808000000019242222223F20AC
:1042100008F8008080000000003F112020110E00EF
:104220000000008080800000000E1120202011007E
:10423000000000808088F800000E112020103F2030
:104240000000808080800000001F222222221300B4
:10425000008080F0888888180020203F20200000FF
:104260000000808080808000006B949494936000B4
:1042700008F8008080800000203F210000203F20BF
:1042800000809898000000000020203F20200000BF
:10429000000000809898000000C08080807F0000AF
:1042A00008F8000080808000203F24022D3020008C
:1042B000000808F8000000000020203F2020000037
:1042C0008080808080808000203F20003F20003F51
:1042D0008080008080800000203F210000203F205F
:1042E0000000808080800000001F202020201F0010
:1042F000808000808000000080FFA12020110E003F
:104300000000008080808000000E112020A0FF802F
:10431000808080008080800020203F2120000100DC
:104320000000808080808000003324242424190031
:10433000008080E0808000000000001F202000003E
:104340008080000000808000001F202020103F207F
:10435000808080000080808000010E30080601000F
:1043600080800080008080800F300C030C300F00B4
:1043700000808000808080000020312E0E312000DF
:10438000808080000080808080818E70180601000F
:1043900000808080808080000021302C222130002D
:1043A00000000000807C020200000000003F40404E
:1043B00000000000FF00000000000000FF000000FF
:1043C0000002027C800000000040403F000000002E
:1043D00000060101020204040000000000000000C9
:1043E0000044000800000020C40400002801000868
:1043F000AC450008C4040020040A00008401000841
:104400005184A24A04100901020304060708092C7A
:10441000FE9292031117424AD26A46C0100940C464
:1044200044443F2424241440807F420133C0382276
:10443000FF34402018100880814020100C03100821
:10444000030C1020408080172424A4FEA3223B22CA
:10445000CC242115080601FF2B01040115FF0202DF
:1044600002180C101010FF109008888888FF0412A2
:104470000820100444827F01808040432C1028468D
:104480008180100A03050911FF118905C312E0128A
:10449000F072F8073D4428FF11AA44700B830138DD
:1044A000448292927401831E7C44C7017D01990568
:1044B00039B3219A0102818A010B01366941994978
:1044C000FA0101A12A4001212A6D01212A60017906
:1044D0001501642ADB010915072ADA01212AD8010E
:1044E000212AC0010915072A800101352A06010980
:1044F00018071CE66620076A86157A861C2A86013C
:10450000180A80808686068686C0C00C0E1C0606A9
:10451000D030764D2907013113601C12FE130102C1
:104520001009C41820029E63B20E1DFF8181FFF2A4
:104530004440300F12FF180923EAAABFAAEA033F3A
:104540000B012DBC808080080115240E0C082A0167
:10455000013149041D81808081021901B9170611BA
:104560000101090C0E0A14C0012178081E214040E7
:1045700050215E08012A4DFFFFC1C10409232D48C7
:104580001580FCF3EFF3FC80FF80EEEEEEF5FBFF11
:104590009CBEB6B6883A1AFF0101112D0102030430
:0C45A00004180806070809020406FE11B2
:04000005080000ED02
:00000001FF
